{
	"contracts/Cardeiro_2.0.sol": {
		"Cardeiro": {
			"abi": [
				{
					"inputs": [
						{
							"internalType": "uint256",
							"name": "initialSupply",
							"type": "uint256"
						},
						{
							"internalType": "address",
							"name": "_treasury",
							"type": "address"
						},
						{
							"internalType": "uint256",
							"name": "_halvingInterval",
							"type": "uint256"
						},
						{
							"internalType": "uint256",
							"name": "_halvingRate",
							"type": "uint256"
						}
					],
					"stateMutability": "nonpayable",
					"type": "constructor"
				},
				{
					"inputs": [
						{
							"internalType": "address",
							"name": "spender",
							"type": "address"
						},
						{
							"internalType": "uint256",
							"name": "allowance",
							"type": "uint256"
						},
						{
							"internalType": "uint256",
							"name": "needed",
							"type": "uint256"
						}
					],
					"name": "ERC20InsufficientAllowance",
					"type": "error"
				},
				{
					"inputs": [
						{
							"internalType": "address",
							"name": "sender",
							"type": "address"
						},
						{
							"internalType": "uint256",
							"name": "balance",
							"type": "uint256"
						},
						{
							"internalType": "uint256",
							"name": "needed",
							"type": "uint256"
						}
					],
					"name": "ERC20InsufficientBalance",
					"type": "error"
				},
				{
					"inputs": [
						{
							"internalType": "address",
							"name": "approver",
							"type": "address"
						}
					],
					"name": "ERC20InvalidApprover",
					"type": "error"
				},
				{
					"inputs": [
						{
							"internalType": "address",
							"name": "receiver",
							"type": "address"
						}
					],
					"name": "ERC20InvalidReceiver",
					"type": "error"
				},
				{
					"inputs": [
						{
							"internalType": "address",
							"name": "sender",
							"type": "address"
						}
					],
					"name": "ERC20InvalidSender",
					"type": "error"
				},
				{
					"inputs": [
						{
							"internalType": "address",
							"name": "spender",
							"type": "address"
						}
					],
					"name": "ERC20InvalidSpender",
					"type": "error"
				},
				{
					"inputs": [
						{
							"internalType": "address",
							"name": "owner",
							"type": "address"
						}
					],
					"name": "OwnableInvalidOwner",
					"type": "error"
				},
				{
					"inputs": [
						{
							"internalType": "address",
							"name": "account",
							"type": "address"
						}
					],
					"name": "OwnableUnauthorizedAccount",
					"type": "error"
				},
				{
					"inputs": [],
					"name": "ReentrancyGuardReentrantCall",
					"type": "error"
				},
				{
					"anonymous": false,
					"inputs": [
						{
							"indexed": true,
							"internalType": "address",
							"name": "owner",
							"type": "address"
						},
						{
							"indexed": true,
							"internalType": "address",
							"name": "spender",
							"type": "address"
						},
						{
							"indexed": false,
							"internalType": "uint256",
							"name": "value",
							"type": "uint256"
						}
					],
					"name": "Approval",
					"type": "event"
				},
				{
					"anonymous": false,
					"inputs": [
						{
							"indexed": false,
							"internalType": "uint256",
							"name": "burnedAmount",
							"type": "uint256"
						},
						{
							"indexed": false,
							"internalType": "uint256",
							"name": "timestamp",
							"type": "uint256"
						}
					],
					"name": "Halving",
					"type": "event"
				},
				{
					"anonymous": false,
					"inputs": [
						{
							"indexed": false,
							"internalType": "uint256",
							"name": "newInterval",
							"type": "uint256"
						},
						{
							"indexed": false,
							"internalType": "uint256",
							"name": "newRate",
							"type": "uint256"
						}
					],
					"name": "HalvingParamsUpdated",
					"type": "event"
				},
				{
					"anonymous": false,
					"inputs": [
						{
							"indexed": true,
							"internalType": "address",
							"name": "previousOwner",
							"type": "address"
						},
						{
							"indexed": true,
							"internalType": "address",
							"name": "newOwner",
							"type": "address"
						}
					],
					"name": "OwnershipTransferred",
					"type": "event"
				},
				{
					"anonymous": false,
					"inputs": [
						{
							"indexed": true,
							"internalType": "address",
							"name": "from",
							"type": "address"
						},
						{
							"indexed": true,
							"internalType": "address",
							"name": "to",
							"type": "address"
						},
						{
							"indexed": false,
							"internalType": "uint256",
							"name": "value",
							"type": "uint256"
						}
					],
					"name": "Transfer",
					"type": "event"
				},
				{
					"anonymous": false,
					"inputs": [
						{
							"indexed": false,
							"internalType": "address",
							"name": "oldTreasury",
							"type": "address"
						},
						{
							"indexed": false,
							"internalType": "address",
							"name": "newTreasury",
							"type": "address"
						}
					],
					"name": "TreasuryUpdated",
					"type": "event"
				},
				{
					"stateMutability": "payable",
					"type": "fallback"
				},
				{
					"inputs": [
						{
							"internalType": "address",
							"name": "owner",
							"type": "address"
						},
						{
							"internalType": "address",
							"name": "spender",
							"type": "address"
						}
					],
					"name": "allowance",
					"outputs": [
						{
							"internalType": "uint256",
							"name": "",
							"type": "uint256"
						}
					],
					"stateMutability": "view",
					"type": "function"
				},
				{
					"inputs": [
						{
							"internalType": "address",
							"name": "spender",
							"type": "address"
						},
						{
							"internalType": "uint256",
							"name": "value",
							"type": "uint256"
						}
					],
					"name": "approve",
					"outputs": [
						{
							"internalType": "bool",
							"name": "",
							"type": "bool"
						}
					],
					"stateMutability": "nonpayable",
					"type": "function"
				},
				{
					"inputs": [
						{
							"internalType": "address",
							"name": "account",
							"type": "address"
						}
					],
					"name": "balanceOf",
					"outputs": [
						{
							"internalType": "uint256",
							"name": "",
							"type": "uint256"
						}
					],
					"stateMutability": "view",
					"type": "function"
				},
				{
					"inputs": [
						{
							"internalType": "uint256",
							"name": "value",
							"type": "uint256"
						}
					],
					"name": "burn",
					"outputs": [],
					"stateMutability": "nonpayable",
					"type": "function"
				},
				{
					"inputs": [
						{
							"internalType": "address",
							"name": "account",
							"type": "address"
						},
						{
							"internalType": "uint256",
							"name": "value",
							"type": "uint256"
						}
					],
					"name": "burnFrom",
					"outputs": [],
					"stateMutability": "nonpayable",
					"type": "function"
				},
				{
					"inputs": [],
					"name": "confirmTreasuryUpdate",
					"outputs": [],
					"stateMutability": "nonpayable",
					"type": "function"
				},
				{
					"inputs": [],
					"name": "decimals",
					"outputs": [
						{
							"internalType": "uint8",
							"name": "",
							"type": "uint8"
						}
					],
					"stateMutability": "view",
					"type": "function"
				},
				{
					"inputs": [],
					"name": "executeHalving",
					"outputs": [],
					"stateMutability": "nonpayable",
					"type": "function"
				},
				{
					"inputs": [
						{
							"internalType": "uint256",
							"name": "rate",
							"type": "uint256"
						}
					],
					"name": "getExpectedBurn",
					"outputs": [
						{
							"internalType": "uint256",
							"name": "",
							"type": "uint256"
						}
					],
					"stateMutability": "view",
					"type": "function"
				},
				{
					"inputs": [],
					"name": "halvingInterval",
					"outputs": [
						{
							"internalType": "uint256",
							"name": "",
							"type": "uint256"
						}
					],
					"stateMutability": "view",
					"type": "function"
				},
				{
					"inputs": [],
					"name": "halvingRate",
					"outputs": [
						{
							"internalType": "uint256",
							"name": "",
							"type": "uint256"
						}
					],
					"stateMutability": "view",
					"type": "function"
				},
				{
					"inputs": [],
					"name": "isHalvingDue",
					"outputs": [
						{
							"internalType": "bool",
							"name": "",
							"type": "bool"
						}
					],
					"stateMutability": "view",
					"type": "function"
				},
				{
					"inputs": [],
					"name": "lastHalvingTime",
					"outputs": [
						{
							"internalType": "uint256",
							"name": "",
							"type": "uint256"
						}
					],
					"stateMutability": "view",
					"type": "function"
				},
				{
					"inputs": [],
					"name": "lastOperationTime",
					"outputs": [
						{
							"internalType": "uint256",
							"name": "",
							"type": "uint256"
						}
					],
					"stateMutability": "view",
					"type": "function"
				},
				{
					"inputs": [],
					"name": "name",
					"outputs": [
						{
							"internalType": "string",
							"name": "",
							"type": "string"
						}
					],
					"stateMutability": "view",
					"type": "function"
				},
				{
					"inputs": [],
					"name": "owner",
					"outputs": [
						{
							"internalType": "address",
							"name": "",
							"type": "address"
						}
					],
					"stateMutability": "view",
					"type": "function"
				},
				{
					"inputs": [],
					"name": "pendingTreasury",
					"outputs": [
						{
							"internalType": "address",
							"name": "",
							"type": "address"
						}
					],
					"stateMutability": "view",
					"type": "function"
				},
				{
					"inputs": [
						{
							"internalType": "address",
							"name": "_newTreasury",
							"type": "address"
						}
					],
					"name": "proposeTreasuryUpdate",
					"outputs": [],
					"stateMutability": "nonpayable",
					"type": "function"
				},
				{
					"inputs": [],
					"name": "renounceOwnership",
					"outputs": [],
					"stateMutability": "nonpayable",
					"type": "function"
				},
				{
					"inputs": [],
					"name": "symbol",
					"outputs": [
						{
							"internalType": "string",
							"name": "",
							"type": "string"
						}
					],
					"stateMutability": "view",
					"type": "function"
				},
				{
					"inputs": [],
					"name": "timelockExpiry",
					"outputs": [
						{
							"internalType": "uint256",
							"name": "",
							"type": "uint256"
						}
					],
					"stateMutability": "view",
					"type": "function"
				},
				{
					"inputs": [],
					"name": "totalSupply",
					"outputs": [
						{
							"internalType": "uint256",
							"name": "",
							"type": "uint256"
						}
					],
					"stateMutability": "view",
					"type": "function"
				},
				{
					"inputs": [
						{
							"internalType": "address",
							"name": "to",
							"type": "address"
						},
						{
							"internalType": "uint256",
							"name": "amount",
							"type": "uint256"
						}
					],
					"name": "transfer",
					"outputs": [
						{
							"internalType": "bool",
							"name": "",
							"type": "bool"
						}
					],
					"stateMutability": "nonpayable",
					"type": "function"
				},
				{
					"inputs": [
						{
							"internalType": "address",
							"name": "from",
							"type": "address"
						},
						{
							"internalType": "address",
							"name": "to",
							"type": "address"
						},
						{
							"internalType": "uint256",
							"name": "amount",
							"type": "uint256"
						}
					],
					"name": "transferFrom",
					"outputs": [
						{
							"internalType": "bool",
							"name": "",
							"type": "bool"
						}
					],
					"stateMutability": "nonpayable",
					"type": "function"
				},
				{
					"inputs": [
						{
							"internalType": "address",
							"name": "newOwner",
							"type": "address"
						}
					],
					"name": "transferOwnership",
					"outputs": [],
					"stateMutability": "nonpayable",
					"type": "function"
				},
				{
					"inputs": [],
					"name": "treasury",
					"outputs": [
						{
							"internalType": "address",
							"name": "",
							"type": "address"
						}
					],
					"stateMutability": "view",
					"type": "function"
				},
				{
					"inputs": [
						{
							"internalType": "uint256",
							"name": "_halvingInterval",
							"type": "uint256"
						},
						{
							"internalType": "uint256",
							"name": "_halvingRate",
							"type": "uint256"
						}
					],
					"name": "updateHalvingParams",
					"outputs": [],
					"stateMutability": "nonpayable",
					"type": "function"
				},
				{
					"inputs": [
						{
							"internalType": "address",
							"name": "_treasury",
							"type": "address"
						}
					],
					"name": "updateTreasury",
					"outputs": [],
					"stateMutability": "nonpayable",
					"type": "function"
				},
				{
					"stateMutability": "payable",
					"type": "receive"
				}
			],
			"devdoc": {
				"errors": {
					"ERC20InsufficientAllowance(address,uint256,uint256)": [
						{
							"details": "Indicates a failure with the `spender`’s `allowance`. Used in transfers.",
							"params": {
								"allowance": "Amount of tokens a `spender` is allowed to operate with.",
								"needed": "Minimum amount required to perform a transfer.",
								"spender": "Address that may be allowed to operate on tokens without being their owner."
							}
						}
					],
					"ERC20InsufficientBalance(address,uint256,uint256)": [
						{
							"details": "Indicates an error related to the current `balance` of a `sender`. Used in transfers.",
							"params": {
								"balance": "Current balance for the interacting account.",
								"needed": "Minimum amount required to perform a transfer.",
								"sender": "Address whose tokens are being transferred."
							}
						}
					],
					"ERC20InvalidApprover(address)": [
						{
							"details": "Indicates a failure with the `approver` of a token to be approved. Used in approvals.",
							"params": {
								"approver": "Address initiating an approval operation."
							}
						}
					],
					"ERC20InvalidReceiver(address)": [
						{
							"details": "Indicates a failure with the token `receiver`. Used in transfers.",
							"params": {
								"receiver": "Address to which tokens are being transferred."
							}
						}
					],
					"ERC20InvalidSender(address)": [
						{
							"details": "Indicates a failure with the token `sender`. Used in transfers.",
							"params": {
								"sender": "Address whose tokens are being transferred."
							}
						}
					],
					"ERC20InvalidSpender(address)": [
						{
							"details": "Indicates a failure with the `spender` to be approved. Used in approvals.",
							"params": {
								"spender": "Address that may be allowed to operate on tokens without being their owner."
							}
						}
					],
					"OwnableInvalidOwner(address)": [
						{
							"details": "The owner is not a valid owner account. (eg. `address(0)`)"
						}
					],
					"OwnableUnauthorizedAccount(address)": [
						{
							"details": "The caller account is not authorized to perform an operation."
						}
					],
					"ReentrancyGuardReentrantCall()": [
						{
							"details": "Unauthorized reentrant call."
						}
					]
				},
				"events": {
					"Approval(address,address,uint256)": {
						"details": "Emitted when the allowance of a `spender` for an `owner` is set by a call to {approve}. `value` is the new allowance."
					},
					"Transfer(address,address,uint256)": {
						"details": "Emitted when `value` tokens are moved from one account (`from`) to another (`to`). Note that `value` may be zero."
					}
				},
				"kind": "dev",
				"methods": {
					"allowance(address,address)": {
						"details": "See {IERC20-allowance}."
					},
					"approve(address,uint256)": {
						"details": "See {IERC20-approve}. NOTE: If `value` is the maximum `uint256`, the allowance is not updated on `transferFrom`. This is semantically equivalent to an infinite approval. Requirements: - `spender` cannot be the zero address."
					},
					"balanceOf(address)": {
						"details": "See {IERC20-balanceOf}."
					},
					"burn(uint256)": {
						"details": "Destroys a `value` amount of tokens from the caller. See {ERC20-_burn}."
					},
					"burnFrom(address,uint256)": {
						"details": "Destroys a `value` amount of tokens from `account`, deducting from the caller's allowance. See {ERC20-_burn} and {ERC20-allowance}. Requirements: - the caller must have allowance for ``accounts``'s tokens of at least `value`."
					},
					"decimals()": {
						"details": "Returns the number of decimals used to get its user representation. For example, if `decimals` equals `2`, a balance of `505` tokens should be displayed to a user as `5.05` (`505 / 10 ** 2`). Tokens usually opt for a value of 18, imitating the relationship between Ether and Wei. This is the default value returned by this function, unless it's overridden. NOTE: This information is only used for _display_ purposes: it in no way affects any of the arithmetic of the contract, including {IERC20-balanceOf} and {IERC20-transfer}."
					},
					"name()": {
						"details": "Returns the name of the token."
					},
					"owner()": {
						"details": "Returns the address of the current owner."
					},
					"renounceOwnership()": {
						"details": "Leaves the contract without owner. It will not be possible to call `onlyOwner` functions. Can only be called by the current owner. NOTE: Renouncing ownership will leave the contract without an owner, thereby disabling any functionality that is only available to the owner."
					},
					"symbol()": {
						"details": "Returns the symbol of the token, usually a shorter version of the name."
					},
					"totalSupply()": {
						"details": "See {IERC20-totalSupply}."
					},
					"transferOwnership(address)": {
						"details": "Transfers ownership of the contract to a new account (`newOwner`). Can only be called by the current owner."
					}
				},
				"version": 1
			},
			"evm": {
				"assembly": "    /* \"contracts/Cardeiro_2.0.sol\":374:5943  contract Cardeiro is ERC20, ERC20Burnable, Ownable, ReentrancyGuard {... */\n  mstore(0x40, 0x80)\n    /* \"contracts/Cardeiro_2.0.sol\":1886:2794  constructor(... */\n  callvalue\n  dup1\n  iszero\n  tag_1\n  jumpi\n  revert(0x00, 0x00)\ntag_1:\n  pop\n  mload(0x40)\n  sub(codesize, bytecodeSize)\n  dup1\n  bytecodeSize\n  dup4\n  codecopy\n  dup2\n  add\n  0x40\n  dup2\n  swap1\n  mstore\n  tag_2\n  swap2\n  tag_3\n  jump\t// in\ntag_2:\n    /* \"contracts/Cardeiro_2.0.sol\":2060:2070  msg.sender */\n  caller\n    /* \"@openzeppelin/contracts/token/ERC20/ERC20.sol\":1601:1714  constructor(string memory name_, string memory symbol_) {... */\n  mload(0x40)\n  dup1\n  0x40\n  add\n  0x40\n  mstore\n  dup1\n  0x08\n  dup2\n  mstore\n  0x20\n  add\n  shl(0xc0, 0x436172646569726f)\n  dup2\n  mstore\n  pop\n  mload(0x40)\n  dup1\n  0x40\n  add\n  0x40\n  mstore\n  dup1\n  0x04\n  dup2\n  mstore\n  0x20\n  add\n  shl(0xe1, 0x21a22a19)\n  dup2\n  mstore\n  pop\n    /* \"@openzeppelin/contracts/token/ERC20/ERC20.sol\":1675:1680  name_ */\n  dup2\n    /* \"@openzeppelin/contracts/token/ERC20/ERC20.sol\":1667:1672  _name */\n  0x03\n    /* \"@openzeppelin/contracts/token/ERC20/ERC20.sol\":1667:1680  _name = name_ */\n  swap1\n  dup2\n  tag_9\n  swap2\n  swap1\n  tag_10\n  jump\t// in\ntag_9:\n  pop\n    /* \"@openzeppelin/contracts/token/ERC20/ERC20.sol\":1690:1697  _symbol */\n  0x04\n    /* \"@openzeppelin/contracts/token/ERC20/ERC20.sol\":1690:1707  _symbol = symbol_ */\n  tag_11\n    /* \"@openzeppelin/contracts/token/ERC20/ERC20.sol\":1700:1707  symbol_ */\n  dup3\n    /* \"@openzeppelin/contracts/token/ERC20/ERC20.sol\":1690:1697  _symbol */\n  dup3\n    /* \"@openzeppelin/contracts/token/ERC20/ERC20.sol\":1690:1707  _symbol = symbol_ */\n  tag_10\n  jump\t// in\ntag_11:\n  pop\n  pop\n  pop\n  sub(shl(0xa0, 0x01), 0x01)\n    /* \"@openzeppelin/contracts/access/Ownable.sol\":1273:1299  initialOwner == address(0) */\n  dup2\n  and\n    /* \"@openzeppelin/contracts/access/Ownable.sol\":1269:1364  if (initialOwner == address(0)) {... */\n  tag_13\n  jumpi\n    /* \"@openzeppelin/contracts/access/Ownable.sol\":1322:1353  OwnableInvalidOwner(address(0)) */\n  mload(0x40)\n  shl(0xe0, 0x1e4fbdf7)\n  dup2\n  mstore\n    /* \"@openzeppelin/contracts/access/Ownable.sol\":1350:1351  0 */\n  0x00\n    /* \"@openzeppelin/contracts/access/Ownable.sol\":1322:1353  OwnableInvalidOwner(address(0)) */\n  0x04\n  dup3\n  add\n    /* \"#utility.yul\":3438:3489   */\n  mstore\n    /* \"#utility.yul\":3411:3429   */\n  0x24\n  add\n    /* \"@openzeppelin/contracts/access/Ownable.sol\":1322:1353  OwnableInvalidOwner(address(0)) */\ntag_14:\n  mload(0x40)\n  dup1\n  swap2\n  sub\n  swap1\n  revert\n    /* \"@openzeppelin/contracts/access/Ownable.sol\":1269:1364  if (initialOwner == address(0)) {... */\ntag_13:\n    /* \"@openzeppelin/contracts/access/Ownable.sol\":1373:1405  _transferOwnership(initialOwner) */\n  tag_16\n    /* \"@openzeppelin/contracts/access/Ownable.sol\":1392:1404  initialOwner */\n  dup2\n    /* \"@openzeppelin/contracts/access/Ownable.sol\":1373:1391  _transferOwnership */\n  tag_17\n    /* \"@openzeppelin/contracts/access/Ownable.sol\":1373:1405  _transferOwnership(initialOwner) */\n  jump\t// in\ntag_16:\n  pop\n    /* \"@openzeppelin/contracts/utils/ReentrancyGuard.sol\":1857:1858  1 */\n  0x01\n    /* \"@openzeppelin/contracts/utils/ReentrancyGuard.sol\":2061:2068  _status */\n  0x06\n    /* \"@openzeppelin/contracts/utils/ReentrancyGuard.sol\":2061:2082  _status = NOT_ENTERED */\n  sstore\n  sub(shl(0xa0, 0x01), 0x01)\n    /* \"contracts/Cardeiro_2.0.sol\":2090:2113  _treasury != address(0) */\n  dup4\n  and\n    /* \"contracts/Cardeiro_2.0.sol\":2082:2142  require(_treasury != address(0), \"Invalid treasury address\") */\n  tag_20\n  jumpi\n  mload(0x40)\n  shl(0xe5, 0x461bcd)\n  dup2\n  mstore\n    /* \"#utility.yul\":3702:3704   */\n  0x20\n    /* \"contracts/Cardeiro_2.0.sol\":2082:2142  require(_treasury != address(0), \"Invalid treasury address\") */\n  0x04\n  dup3\n  add\n    /* \"#utility.yul\":3684:3705   */\n  mstore\n    /* \"#utility.yul\":3741:3743   */\n  0x18\n    /* \"#utility.yul\":3721:3739   */\n  0x24\n  dup3\n  add\n    /* \"#utility.yul\":3714:3744   */\n  mstore\n    /* \"#utility.yul\":3780:3806   */\n  0x496e76616c696420747265617375727920616464726573730000000000000000\n    /* \"#utility.yul\":3760:3778   */\n  0x44\n  dup3\n  add\n    /* \"#utility.yul\":3753:3807   */\n  mstore\n    /* \"#utility.yul\":3824:3842   */\n  0x64\n  add\n    /* \"contracts/Cardeiro_2.0.sol\":2082:2142  require(_treasury != address(0), \"Invalid treasury address\") */\n  tag_14\n    /* \"#utility.yul\":3500:3848   */\n  jump\n    /* \"contracts/Cardeiro_2.0.sol\":2082:2142  require(_treasury != address(0), \"Invalid treasury address\") */\ntag_20:\n    /* \"contracts/Cardeiro_2.0.sol\":2181:2185  this */\n  address\n  sub(shl(0xa0, 0x01), 0x01)\n    /* \"contracts/Cardeiro_2.0.sol\":2160:2186  _treasury != address(this) */\n  dup5\n  and\n  sub\n    /* \"contracts/Cardeiro_2.0.sol\":2152:2218  require(_treasury != address(this), \"Treasury cannot be contract\") */\n  tag_23\n  jumpi\n  mload(0x40)\n  shl(0xe5, 0x461bcd)\n  dup2\n  mstore\n    /* \"#utility.yul\":4055:4057   */\n  0x20\n    /* \"contracts/Cardeiro_2.0.sol\":2152:2218  require(_treasury != address(this), \"Treasury cannot be contract\") */\n  0x04\n  dup3\n  add\n    /* \"#utility.yul\":4037:4058   */\n  mstore\n    /* \"#utility.yul\":4094:4096   */\n  0x1b\n    /* \"#utility.yul\":4074:4092   */\n  0x24\n  dup3\n  add\n    /* \"#utility.yul\":4067:4097   */\n  mstore\n    /* \"#utility.yul\":4133:4162   */\n  0x54726561737572792063616e6e6f7420626520636f6e74726163740000000000\n    /* \"#utility.yul\":4113:4131   */\n  0x44\n  dup3\n  add\n    /* \"#utility.yul\":4106:4163   */\n  mstore\n    /* \"#utility.yul\":4180:4198   */\n  0x64\n  add\n    /* \"contracts/Cardeiro_2.0.sol\":2152:2218  require(_treasury != address(this), \"Treasury cannot be contract\") */\n  tag_14\n    /* \"#utility.yul\":3853:4204   */\n  jump\n    /* \"contracts/Cardeiro_2.0.sol\":2152:2218  require(_treasury != address(this), \"Treasury cannot be contract\") */\ntag_23:\n    /* \"contracts/Cardeiro_2.0.sol\":2252:2253  0 */\n  0x00\n    /* \"contracts/Cardeiro_2.0.sol\":2236:2249  initialSupply */\n  dup5\n    /* \"contracts/Cardeiro_2.0.sol\":2236:2253  initialSupply > 0 */\n  gt\n    /* \"contracts/Cardeiro_2.0.sol\":2228:2281  require(initialSupply > 0, \"Supply must be positive\") */\n  tag_26\n  jumpi\n  mload(0x40)\n  shl(0xe5, 0x461bcd)\n  dup2\n  mstore\n    /* \"#utility.yul\":4411:4413   */\n  0x20\n    /* \"contracts/Cardeiro_2.0.sol\":2228:2281  require(initialSupply > 0, \"Supply must be positive\") */\n  0x04\n  dup3\n  add\n    /* \"#utility.yul\":4393:4414   */\n  mstore\n    /* \"#utility.yul\":4450:4452   */\n  0x17\n    /* \"#utility.yul\":4430:4448   */\n  0x24\n  dup3\n  add\n    /* \"#utility.yul\":4423:4453   */\n  mstore\n    /* \"#utility.yul\":4489:4514   */\n  0x537570706c79206d75737420626520706f736974697665000000000000000000\n    /* \"#utility.yul\":4469:4487   */\n  0x44\n  dup3\n  add\n    /* \"#utility.yul\":4462:4515   */\n  mstore\n    /* \"#utility.yul\":4532:4550   */\n  0x64\n  add\n    /* \"contracts/Cardeiro_2.0.sol\":2228:2281  require(initialSupply > 0, \"Supply must be positive\") */\n  tag_14\n    /* \"#utility.yul\":4209:4556   */\n  jump\n    /* \"contracts/Cardeiro_2.0.sol\":2228:2281  require(initialSupply > 0, \"Supply must be positive\") */\ntag_26:\n    /* \"contracts/Cardeiro_2.0.sol\":1245:1247  20 */\n  0x14\n    /* \"contracts/Cardeiro_2.0.sol\":2299:2311  _halvingRate */\n  dup2\n    /* \"contracts/Cardeiro_2.0.sol\":2299:2328  _halvingRate <= MAX_BURN_RATE */\n  gt\n  iszero\n    /* \"contracts/Cardeiro_2.0.sol\":2291:2346  require(_halvingRate <= MAX_BURN_RATE, \"Rate too high\") */\n  tag_29\n  jumpi\n  mload(0x40)\n  shl(0xe5, 0x461bcd)\n  dup2\n  mstore\n    /* \"#utility.yul\":4763:4765   */\n  0x20\n    /* \"contracts/Cardeiro_2.0.sol\":2291:2346  require(_halvingRate <= MAX_BURN_RATE, \"Rate too high\") */\n  0x04\n  dup3\n  add\n    /* \"#utility.yul\":4745:4766   */\n  mstore\n    /* \"#utility.yul\":4802:4804   */\n  0x0d\n    /* \"#utility.yul\":4782:4800   */\n  0x24\n  dup3\n  add\n    /* \"#utility.yul\":4775:4805   */\n  mstore\n  shl(0x9b, 0x0a4c2e8ca40e8dede40d0d2ced)\n    /* \"#utility.yul\":4821:4839   */\n  0x44\n  dup3\n  add\n    /* \"#utility.yul\":4814:4857   */\n  mstore\n    /* \"#utility.yul\":4874:4892   */\n  0x64\n  add\n    /* \"contracts/Cardeiro_2.0.sol\":2291:2346  require(_halvingRate <= MAX_BURN_RATE, \"Rate too high\") */\n  tag_14\n    /* \"#utility.yul\":4561:4898   */\n  jump\n    /* \"contracts/Cardeiro_2.0.sol\":2291:2346  require(_halvingRate <= MAX_BURN_RATE, \"Rate too high\") */\ntag_29:\n    /* \"contracts/Cardeiro_2.0.sol\":2380:2383  100 */\n  0x64\n    /* \"contracts/Cardeiro_2.0.sol\":2364:2376  _halvingRate */\n  dup2\n    /* \"contracts/Cardeiro_2.0.sol\":2364:2383  _halvingRate <= 100 */\n  gt\n  iszero\n    /* \"contracts/Cardeiro_2.0.sol\":2356:2419  require(_halvingRate <= 100, \"Halving rate cannot exceed 100%\") */\n  tag_32\n  jumpi\n  mload(0x40)\n  shl(0xe5, 0x461bcd)\n  dup2\n  mstore\n    /* \"#utility.yul\":5105:5107   */\n  0x20\n    /* \"contracts/Cardeiro_2.0.sol\":2356:2419  require(_halvingRate <= 100, \"Halving rate cannot exceed 100%\") */\n  0x04\n  dup3\n  add\n    /* \"#utility.yul\":5087:5108   */\n  mstore\n    /* \"#utility.yul\":5144:5146   */\n  0x1f\n    /* \"#utility.yul\":5124:5142   */\n  0x24\n  dup3\n  add\n    /* \"#utility.yul\":5117:5147   */\n  mstore\n    /* \"#utility.yul\":5183:5216   */\n  0x48616c76696e6720726174652063616e6e6f7420657863656564203130302500\n    /* \"#utility.yul\":5163:5181   */\n  0x44\n  dup3\n  add\n    /* \"#utility.yul\":5156:5217   */\n  mstore\n    /* \"#utility.yul\":5234:5252   */\n  0x64\n  add\n    /* \"contracts/Cardeiro_2.0.sol\":2356:2419  require(_halvingRate <= 100, \"Halving rate cannot exceed 100%\") */\n  tag_14\n    /* \"#utility.yul\":4903:5258   */\n  jump\n    /* \"contracts/Cardeiro_2.0.sol\":2356:2419  require(_halvingRate <= 100, \"Halving rate cannot exceed 100%\") */\ntag_32:\n    /* \"contracts/Cardeiro_2.0.sol\":980:985  86400 */\n  0x015180\n    /* \"contracts/Cardeiro_2.0.sol\":2437:2453  _halvingInterval */\n  dup3\n    /* \"contracts/Cardeiro_2.0.sol\":2437:2472  _halvingInterval >= SECONDS_PER_DAY */\n  lt\n  iszero\n    /* \"contracts/Cardeiro_2.0.sol\":2429:2495  require(_halvingInterval >= SECONDS_PER_DAY, \"Interval too short\") */\n  tag_35\n  jumpi\n  mload(0x40)\n  shl(0xe5, 0x461bcd)\n  dup2\n  mstore\n    /* \"#utility.yul\":5465:5467   */\n  0x20\n    /* \"contracts/Cardeiro_2.0.sol\":2429:2495  require(_halvingInterval >= SECONDS_PER_DAY, \"Interval too short\") */\n  0x04\n  dup3\n  add\n    /* \"#utility.yul\":5447:5468   */\n  mstore\n    /* \"#utility.yul\":5504:5506   */\n  0x12\n    /* \"#utility.yul\":5484:5502   */\n  0x24\n  dup3\n  add\n    /* \"#utility.yul\":5477:5507   */\n  mstore\n  shl(0x72, 0x125b9d195c9d985b081d1bdbc81cda1bdc9d)\n    /* \"#utility.yul\":5523:5541   */\n  0x44\n  dup3\n  add\n    /* \"#utility.yul\":5516:5564   */\n  mstore\n    /* \"#utility.yul\":5581:5599   */\n  0x64\n  add\n    /* \"contracts/Cardeiro_2.0.sol\":2429:2495  require(_halvingInterval >= SECONDS_PER_DAY, \"Interval too short\") */\n  tag_14\n    /* \"#utility.yul\":5263:5605   */\n  jump\n    /* \"contracts/Cardeiro_2.0.sol\":2429:2495  require(_halvingInterval >= SECONDS_PER_DAY, \"Interval too short\") */\ntag_35:\n    /* \"contracts/Cardeiro_2.0.sol\":980:985  86400 */\n  0x015180\n    /* \"contracts/Cardeiro_2.0.sol\":1061:1077  DAYS_IN_YEAR * 2 */\n  tag_38\n    /* \"contracts/Cardeiro_2.0.sol\":927:930  365 */\n  0x016d\n    /* \"contracts/Cardeiro_2.0.sol\":1076:1077  2 */\n  0x02\n    /* \"contracts/Cardeiro_2.0.sol\":1061:1077  DAYS_IN_YEAR * 2 */\n  tag_39\n  jump\t// in\ntag_38:\n    /* \"contracts/Cardeiro_2.0.sol\":1060:1096  (DAYS_IN_YEAR * 2) * SECONDS_PER_DAY */\n  tag_40\n  swap2\n  swap1\n  tag_39\n  jump\t// in\ntag_40:\n    /* \"contracts/Cardeiro_2.0.sol\":2533:2561  DEFAULT_HALVING_INTERVAL * 2 */\n  tag_41\n  swap1\n    /* \"contracts/Cardeiro_2.0.sol\":2560:2561  2 */\n  0x02\n    /* \"contracts/Cardeiro_2.0.sol\":2533:2561  DEFAULT_HALVING_INTERVAL * 2 */\n  tag_39\n  jump\t// in\ntag_41:\n    /* \"contracts/Cardeiro_2.0.sol\":2513:2529  _halvingInterval */\n  dup3\n    /* \"contracts/Cardeiro_2.0.sol\":2513:2561  _halvingInterval <= DEFAULT_HALVING_INTERVAL * 2 */\n  gt\n  iszero\n    /* \"contracts/Cardeiro_2.0.sol\":2505:2583  require(_halvingInterval <= DEFAULT_HALVING_INTERVAL * 2, \"Interval too long\") */\n  tag_42\n  jumpi\n  mload(0x40)\n  shl(0xe5, 0x461bcd)\n  dup2\n  mstore\n    /* \"#utility.yul\":6117:6119   */\n  0x20\n    /* \"contracts/Cardeiro_2.0.sol\":2505:2583  require(_halvingInterval <= DEFAULT_HALVING_INTERVAL * 2, \"Interval too long\") */\n  0x04\n  dup3\n  add\n    /* \"#utility.yul\":6099:6120   */\n  mstore\n    /* \"#utility.yul\":6156:6158   */\n  0x11\n    /* \"#utility.yul\":6136:6154   */\n  0x24\n  dup3\n  add\n    /* \"#utility.yul\":6129:6159   */\n  mstore\n  shl(0x78, 0x496e74657276616c20746f6f206c6f6e67)\n    /* \"#utility.yul\":6175:6193   */\n  0x44\n  dup3\n  add\n    /* \"#utility.yul\":6168:6215   */\n  mstore\n    /* \"#utility.yul\":6232:6250   */\n  0x64\n  add\n    /* \"contracts/Cardeiro_2.0.sol\":2505:2583  require(_halvingInterval <= DEFAULT_HALVING_INTERVAL * 2, \"Interval too long\") */\n  tag_14\n    /* \"#utility.yul\":5915:6256   */\n  jump\n    /* \"contracts/Cardeiro_2.0.sol\":2505:2583  require(_halvingInterval <= DEFAULT_HALVING_INTERVAL * 2, \"Interval too long\") */\ntag_42:\n    /* \"contracts/Cardeiro_2.0.sol\":2594:2626  _mint(msg.sender, initialSupply) */\n  tag_45\n    /* \"contracts/Cardeiro_2.0.sol\":2600:2610  msg.sender */\n  caller\n    /* \"contracts/Cardeiro_2.0.sol\":2612:2625  initialSupply */\n  dup6\n    /* \"contracts/Cardeiro_2.0.sol\":2594:2599  _mint */\n  tag_46\n    /* \"contracts/Cardeiro_2.0.sol\":2594:2626  _mint(msg.sender, initialSupply) */\n  jump\t// in\ntag_45:\n    /* \"contracts/Cardeiro_2.0.sol\":2636:2644  treasury */\n  0x07\n    /* \"contracts/Cardeiro_2.0.sol\":2636:2656  treasury = _treasury */\n  dup1\n  sload\n  not(sub(shl(0xa0, 0x01), 0x01))\n  and\n  sub(shl(0xa0, 0x01), 0x01)\n  swap5\n  swap1\n  swap5\n  and\n  swap4\n  swap1\n  swap4\n  or\n  swap1\n  swap3\n  sstore\n    /* \"contracts/Cardeiro_2.0.sol\":2666:2681  halvingInterval */\n  0x08\n    /* \"contracts/Cardeiro_2.0.sol\":2666:2700  halvingInterval = _halvingInterval */\n  sstore\n    /* \"contracts/Cardeiro_2.0.sol\":2710:2721  halvingRate */\n  0x0a\n    /* \"contracts/Cardeiro_2.0.sol\":2710:2736  halvingRate = _halvingRate */\n  sstore\n  pop\n    /* \"contracts/Cardeiro_2.0.sol\":2764:2779  block.timestamp */\n  timestamp\n    /* \"contracts/Cardeiro_2.0.sol\":2746:2761  lastHalvingTime */\n  0x09\n    /* \"contracts/Cardeiro_2.0.sol\":2746:2779  lastHalvingTime = block.timestamp */\n  sstore\n    /* \"contracts/Cardeiro_2.0.sol\":374:5943  contract Cardeiro is ERC20, ERC20Burnable, Ownable, ReentrancyGuard {... */\n  jump(tag_72)\n    /* \"@openzeppelin/contracts/access/Ownable.sol\":2912:3099  function _transferOwnership(address newOwner) internal virtual {... */\ntag_17:\n    /* \"@openzeppelin/contracts/access/Ownable.sol\":3004:3010  _owner */\n  0x05\n  dup1\n  sload\n  sub(shl(0xa0, 0x01), 0x01)\n    /* \"@openzeppelin/contracts/access/Ownable.sol\":3020:3037  _owner = newOwner */\n  dup4\n  dup2\n  and\n  not(sub(shl(0xa0, 0x01), 0x01))\n  dup4\n  and\n  dup2\n  or\n  swap1\n  swap4\n  sstore\n    /* \"@openzeppelin/contracts/access/Ownable.sol\":3052:3092  OwnershipTransferred(oldOwner, newOwner) */\n  mload(0x40)\n    /* \"@openzeppelin/contracts/access/Ownable.sol\":3004:3010  _owner */\n  swap2\n  and\n  swap2\n    /* \"@openzeppelin/contracts/access/Ownable.sol\":3020:3037  _owner = newOwner */\n  swap1\n    /* \"@openzeppelin/contracts/access/Ownable.sol\":3004:3010  _owner */\n  dup3\n  swap1\n    /* \"@openzeppelin/contracts/access/Ownable.sol\":3052:3092  OwnershipTransferred(oldOwner, newOwner) */\n  0x8be0079c531659141344cd1fd0a4f28419497f9722a3daafe3b4186f6b6457e0\n  swap1\n    /* \"@openzeppelin/contracts/access/Ownable.sol\":2985:3001  address oldOwner */\n  0x00\n  swap1\n    /* \"@openzeppelin/contracts/access/Ownable.sol\":3052:3092  OwnershipTransferred(oldOwner, newOwner) */\n  log3\n    /* \"@openzeppelin/contracts/access/Ownable.sol\":2975:3099  {... */\n  pop\n    /* \"@openzeppelin/contracts/access/Ownable.sol\":2912:3099  function _transferOwnership(address newOwner) internal virtual {... */\n  pop\n  jump\t// out\n    /* \"@openzeppelin/contracts/token/ERC20/ERC20.sol\":7458:7666  function _mint(address account, uint256 value) internal {... */\ntag_46:\n  sub(shl(0xa0, 0x01), 0x01)\n    /* \"@openzeppelin/contracts/token/ERC20/ERC20.sol\":7528:7549  account == address(0) */\n  dup3\n  and\n    /* \"@openzeppelin/contracts/token/ERC20/ERC20.sol\":7524:7615  if (account == address(0)) {... */\n  tag_50\n  jumpi\n    /* \"@openzeppelin/contracts/token/ERC20/ERC20.sol\":7572:7604  ERC20InvalidReceiver(address(0)) */\n  mload(0x40)\n  shl(0xe0, 0xec442f05)\n  dup2\n  mstore\n    /* \"@openzeppelin/contracts/token/ERC20/ERC20.sol\":7601:7602  0 */\n  0x00\n    /* \"@openzeppelin/contracts/token/ERC20/ERC20.sol\":7572:7604  ERC20InvalidReceiver(address(0)) */\n  0x04\n  dup3\n  add\n    /* \"#utility.yul\":3438:3489   */\n  mstore\n    /* \"#utility.yul\":3411:3429   */\n  0x24\n  add\n    /* \"@openzeppelin/contracts/token/ERC20/ERC20.sol\":7572:7604  ERC20InvalidReceiver(address(0)) */\n  tag_14\n    /* \"#utility.yul\":3292:3495   */\n  jump\n    /* \"@openzeppelin/contracts/token/ERC20/ERC20.sol\":7524:7615  if (account == address(0)) {... */\ntag_50:\n    /* \"@openzeppelin/contracts/token/ERC20/ERC20.sol\":7624:7659  _update(address(0), account, value) */\n  tag_52\n    /* \"@openzeppelin/contracts/token/ERC20/ERC20.sol\":7640:7641  0 */\n  0x00\n    /* \"@openzeppelin/contracts/token/ERC20/ERC20.sol\":7644:7651  account */\n  dup4\n    /* \"@openzeppelin/contracts/token/ERC20/ERC20.sol\":7653:7658  value */\n  dup4\n    /* \"@openzeppelin/contracts/token/ERC20/ERC20.sol\":7624:7631  _update */\n  tag_53\n    /* \"@openzeppelin/contracts/token/ERC20/ERC20.sol\":7624:7659  _update(address(0), account, value) */\n  jump\t// in\ntag_52:\n    /* \"@openzeppelin/contracts/token/ERC20/ERC20.sol\":7458:7666  function _mint(address account, uint256 value) internal {... */\n  pop\n  pop\n  jump\t// out\n    /* \"@openzeppelin/contracts/token/ERC20/ERC20.sol\":6008:7115  function _update(address from, address to, uint256 value) internal virtual {... */\ntag_53:\n  sub(shl(0xa0, 0x01), 0x01)\n    /* \"@openzeppelin/contracts/token/ERC20/ERC20.sol\":6097:6115  from == address(0) */\n  dup4\n  and\n    /* \"@openzeppelin/contracts/token/ERC20/ERC20.sol\":6093:6633  if (from == address(0)) {... */\n  tag_55\n  jumpi\n    /* \"@openzeppelin/contracts/token/ERC20/ERC20.sol\":6249:6254  value */\n  dup1\n    /* \"@openzeppelin/contracts/token/ERC20/ERC20.sol\":6233:6245  _totalSupply */\n  0x02\n  0x00\n    /* \"@openzeppelin/contracts/token/ERC20/ERC20.sol\":6233:6254  _totalSupply += value */\n  dup3\n  dup3\n  sload\n  tag_56\n  swap2\n  swap1\n  tag_57\n  jump\t// in\ntag_56:\n  swap1\n  swap2\n  sstore\n  pop\n    /* \"@openzeppelin/contracts/token/ERC20/ERC20.sol\":6093:6633  if (from == address(0)) {... */\n  tag_58\n  swap1\n  pop\n  jump\ntag_55:\n  sub(shl(0xa0, 0x01), 0x01)\n    /* \"@openzeppelin/contracts/token/ERC20/ERC20.sol\":6307:6322  _balances[from] */\n  dup4\n  and\n    /* \"@openzeppelin/contracts/token/ERC20/ERC20.sol\":6285:6304  uint256 fromBalance */\n  0x00\n    /* \"@openzeppelin/contracts/token/ERC20/ERC20.sol\":6307:6322  _balances[from] */\n  swap1\n  dup2\n  mstore\n  0x20\n  dup2\n  swap1\n  mstore\n  0x40\n  swap1\n  keccak256\n  sload\n    /* \"@openzeppelin/contracts/token/ERC20/ERC20.sol\":6340:6359  fromBalance < value */\n  dup2\n  dup2\n  lt\n    /* \"@openzeppelin/contracts/token/ERC20/ERC20.sol\":6336:6451  if (fromBalance < value) {... */\n  iszero\n  tag_59\n  jumpi\n    /* \"@openzeppelin/contracts/token/ERC20/ERC20.sol\":6386:6436  ERC20InsufficientBalance(from, fromBalance, value) */\n  mload(0x40)\n  shl(0xe2, 0x391434e3)\n  dup2\n  mstore\n  sub(shl(0xa0, 0x01), 0x01)\n    /* \"#utility.yul\":6611:6643   */\n  dup6\n  and\n    /* \"@openzeppelin/contracts/token/ERC20/ERC20.sol\":6386:6436  ERC20InsufficientBalance(from, fromBalance, value) */\n  0x04\n  dup3\n  add\n    /* \"#utility.yul\":6593:6644   */\n  mstore\n    /* \"#utility.yul\":6660:6678   */\n  0x24\n  dup2\n  add\n    /* \"#utility.yul\":6653:6687   */\n  dup3\n  swap1\n  mstore\n    /* \"#utility.yul\":6703:6721   */\n  0x44\n  dup2\n  add\n    /* \"#utility.yul\":6696:6730   */\n  dup4\n  swap1\n  mstore\n    /* \"#utility.yul\":6566:6584   */\n  0x64\n  add\n    /* \"@openzeppelin/contracts/token/ERC20/ERC20.sol\":6386:6436  ERC20InsufficientBalance(from, fromBalance, value) */\n  tag_14\n    /* \"#utility.yul\":6391:6736   */\n  jump\n    /* \"@openzeppelin/contracts/token/ERC20/ERC20.sol\":6336:6451  if (fromBalance < value) {... */\ntag_59:\n  sub(shl(0xa0, 0x01), 0x01)\n    /* \"@openzeppelin/contracts/token/ERC20/ERC20.sol\":6571:6586  _balances[from] */\n  dup5\n  and\n    /* \"@openzeppelin/contracts/token/ERC20/ERC20.sol\":6571:6580  _balances */\n  0x00\n    /* \"@openzeppelin/contracts/token/ERC20/ERC20.sol\":6571:6586  _balances[from] */\n  swap1\n  dup2\n  mstore\n  0x20\n  dup2\n  swap1\n  mstore\n  0x40\n  swap1\n  keccak256\n    /* \"@openzeppelin/contracts/token/ERC20/ERC20.sol\":6589:6608  fromBalance - value */\n  swap1\n  dup3\n  swap1\n  sub\n    /* \"@openzeppelin/contracts/token/ERC20/ERC20.sol\":6571:6608  _balances[from] = fromBalance - value */\n  swap1\n  sstore\n    /* \"@openzeppelin/contracts/token/ERC20/ERC20.sol\":6093:6633  if (from == address(0)) {... */\ntag_58:\n  sub(shl(0xa0, 0x01), 0x01)\n    /* \"@openzeppelin/contracts/token/ERC20/ERC20.sol\":6647:6663  to == address(0) */\n  dup3\n  and\n    /* \"@openzeppelin/contracts/token/ERC20/ERC20.sol\":6643:7068  if (to == address(0)) {... */\n  tag_62\n  jumpi\n    /* \"@openzeppelin/contracts/token/ERC20/ERC20.sol\":6810:6822  _totalSupply */\n  0x02\n    /* \"@openzeppelin/contracts/token/ERC20/ERC20.sol\":6810:6831  _totalSupply -= value */\n  dup1\n  sload\n  dup3\n  swap1\n  sub\n  swap1\n  sstore\n    /* \"@openzeppelin/contracts/token/ERC20/ERC20.sol\":6643:7068  if (to == address(0)) {... */\n  jump(tag_63)\ntag_62:\n  sub(shl(0xa0, 0x01), 0x01)\n    /* \"@openzeppelin/contracts/token/ERC20/ERC20.sol\":7021:7034  _balances[to] */\n  dup3\n  and\n    /* \"@openzeppelin/contracts/token/ERC20/ERC20.sol\":7021:7030  _balances */\n  0x00\n    /* \"@openzeppelin/contracts/token/ERC20/ERC20.sol\":7021:7034  _balances[to] */\n  swap1\n  dup2\n  mstore\n  0x20\n  dup2\n  swap1\n  mstore\n  0x40\n  swap1\n  keccak256\n    /* \"@openzeppelin/contracts/token/ERC20/ERC20.sol\":7021:7043  _balances[to] += value */\n  dup1\n  sload\n  dup3\n  add\n  swap1\n  sstore\n    /* \"@openzeppelin/contracts/token/ERC20/ERC20.sol\":6643:7068  if (to == address(0)) {... */\ntag_63:\n    /* \"@openzeppelin/contracts/token/ERC20/ERC20.sol\":7098:7100  to */\n  dup2\n  sub(shl(0xa0, 0x01), 0x01)\n    /* \"@openzeppelin/contracts/token/ERC20/ERC20.sol\":7083:7108  Transfer(from, to, value) */\n  and\n    /* \"@openzeppelin/contracts/token/ERC20/ERC20.sol\":7092:7096  from */\n  dup4\n  sub(shl(0xa0, 0x01), 0x01)\n    /* \"@openzeppelin/contracts/token/ERC20/ERC20.sol\":7083:7108  Transfer(from, to, value) */\n  and\n  0xddf252ad1be2c89b69c2b068fc378daa952ba7f163c4a11628f55a4df523b3ef\n    /* \"@openzeppelin/contracts/token/ERC20/ERC20.sol\":7102:7107  value */\n  dup4\n    /* \"@openzeppelin/contracts/token/ERC20/ERC20.sol\":7083:7108  Transfer(from, to, value) */\n  mload(0x40)\n  tag_64\n  swap2\n    /* \"#utility.yul\":6887:6912   */\n  dup2\n  mstore\n    /* \"#utility.yul\":6875:6877   */\n  0x20\n    /* \"#utility.yul\":6860:6878   */\n  add\n  swap1\n    /* \"#utility.yul\":6741:6918   */\n  jump\n    /* \"@openzeppelin/contracts/token/ERC20/ERC20.sol\":7083:7108  Transfer(from, to, value) */\ntag_64:\n  mload(0x40)\n  dup1\n  swap2\n  sub\n  swap1\n  log3\n    /* \"@openzeppelin/contracts/token/ERC20/ERC20.sol\":6008:7115  function _update(address from, address to, uint256 value) internal virtual {... */\n  pop\n  pop\n  pop\n  jump\t// out\n    /* \"#utility.yul\":14:646   */\ntag_3:\n    /* \"#utility.yul\":111:117   */\n  0x00\n    /* \"#utility.yul\":119:125   */\n  0x00\n    /* \"#utility.yul\":127:133   */\n  0x00\n    /* \"#utility.yul\":135:141   */\n  0x00\n    /* \"#utility.yul\":188:191   */\n  0x80\n    /* \"#utility.yul\":176:185   */\n  dup6\n    /* \"#utility.yul\":167:174   */\n  dup8\n    /* \"#utility.yul\":163:186   */\n  sub\n    /* \"#utility.yul\":159:192   */\n  slt\n    /* \"#utility.yul\":156:209   */\n  iszero\n  tag_74\n  jumpi\n    /* \"#utility.yul\":205:206   */\n  0x00\n    /* \"#utility.yul\":202:203   */\n  0x00\n    /* \"#utility.yul\":195:207   */\n  revert\n    /* \"#utility.yul\":156:209   */\ntag_74:\n    /* \"#utility.yul\":250:266   */\n  dup5\n  mload\n    /* \"#utility.yul\":335:337   */\n  0x20\n    /* \"#utility.yul\":320:338   */\n  dup7\n  add\n    /* \"#utility.yul\":314:339   */\n  mload\n    /* \"#utility.yul\":250:266   */\n  swap1\n  swap5\n  pop\n  sub(shl(0xa0, 0x01), 0x01)\n    /* \"#utility.yul\":370:403   */\n  dup2\n  and\n    /* \"#utility.yul\":358:404   */\n  dup2\n  eq\n    /* \"#utility.yul\":348:422   */\n  tag_75\n  jumpi\n    /* \"#utility.yul\":418:419   */\n  0x00\n    /* \"#utility.yul\":415:416   */\n  0x00\n    /* \"#utility.yul\":408:420   */\n  revert\n    /* \"#utility.yul\":348:422   */\ntag_75:\n    /* \"#utility.yul\":514:516   */\n  0x40\n    /* \"#utility.yul\":499:517   */\n  dup7\n  add\n    /* \"#utility.yul\":493:518   */\n  mload\n    /* \"#utility.yul\":610:612   */\n  0x60\n    /* \"#utility.yul\":595:613   */\n  swap1\n  swap7\n  add\n    /* \"#utility.yul\":589:614   */\n  mload\n    /* \"#utility.yul\":14:646   */\n  swap5\n  swap8\n    /* \"#utility.yul\":441:448   */\n  swap1\n  swap7\n  pop\n    /* \"#utility.yul\":14:646   */\n  swap3\n  pop\n  pop\n  pop\n  jump\t// out\n    /* \"#utility.yul\":651:778   */\ntag_66:\n    /* \"#utility.yul\":712:722   */\n  0x4e487b71\n    /* \"#utility.yul\":707:710   */\n  0xe0\n    /* \"#utility.yul\":703:723   */\n  shl\n    /* \"#utility.yul\":700:701   */\n  0x00\n    /* \"#utility.yul\":693:724   */\n  mstore\n    /* \"#utility.yul\":743:747   */\n  0x41\n    /* \"#utility.yul\":740:741   */\n  0x04\n    /* \"#utility.yul\":733:748   */\n  mstore\n    /* \"#utility.yul\":767:771   */\n  0x24\n    /* \"#utility.yul\":764:765   */\n  0x00\n    /* \"#utility.yul\":757:772   */\n  revert\n    /* \"#utility.yul\":783:1163   */\ntag_67:\n    /* \"#utility.yul\":862:863   */\n  0x01\n    /* \"#utility.yul\":858:870   */\n  dup2\n  dup2\n  shr\n  swap1\n    /* \"#utility.yul\":905:917   */\n  dup3\n  and\n  dup1\n    /* \"#utility.yul\":926:987   */\n  tag_78\n  jumpi\n    /* \"#utility.yul\":980:984   */\n  0x7f\n    /* \"#utility.yul\":972:978   */\n  dup3\n    /* \"#utility.yul\":968:985   */\n  and\n    /* \"#utility.yul\":958:985   */\n  swap2\n  pop\n    /* \"#utility.yul\":926:987   */\ntag_78:\n    /* \"#utility.yul\":1033:1035   */\n  0x20\n    /* \"#utility.yul\":1025:1031   */\n  dup3\n    /* \"#utility.yul\":1022:1036   */\n  lt\n    /* \"#utility.yul\":1002:1020   */\n  dup2\n    /* \"#utility.yul\":999:1037   */\n  sub\n    /* \"#utility.yul\":996:1157   */\n  tag_79\n  jumpi\n    /* \"#utility.yul\":1079:1089   */\n  0x4e487b71\n    /* \"#utility.yul\":1074:1077   */\n  0xe0\n    /* \"#utility.yul\":1070:1090   */\n  shl\n    /* \"#utility.yul\":1067:1068   */\n  0x00\n    /* \"#utility.yul\":1060:1091   */\n  mstore\n    /* \"#utility.yul\":1114:1118   */\n  0x22\n    /* \"#utility.yul\":1111:1112   */\n  0x04\n    /* \"#utility.yul\":1104:1119   */\n  mstore\n    /* \"#utility.yul\":1142:1146   */\n  0x24\n    /* \"#utility.yul\":1139:1140   */\n  0x00\n    /* \"#utility.yul\":1132:1147   */\n  revert\n    /* \"#utility.yul\":996:1157   */\ntag_79:\n  pop\n    /* \"#utility.yul\":783:1163   */\n  swap2\n  swap1\n  pop\n  jump\t// out\n    /* \"#utility.yul\":1294:1812   */\ntag_69:\n    /* \"#utility.yul\":1396:1398   */\n  0x1f\n    /* \"#utility.yul\":1391:1394   */\n  dup3\n    /* \"#utility.yul\":1388:1399   */\n  gt\n    /* \"#utility.yul\":1385:1806   */\n  iszero\n  tag_82\n  jumpi\n    /* \"#utility.yul\":1432:1437   */\n  dup1\n    /* \"#utility.yul\":1429:1430   */\n  0x00\n    /* \"#utility.yul\":1422:1438   */\n  mstore\n    /* \"#utility.yul\":1476:1480   */\n  0x20\n    /* \"#utility.yul\":1473:1474   */\n  0x00\n    /* \"#utility.yul\":1463:1481   */\n  keccak256\n    /* \"#utility.yul\":1546:1548   */\n  0x1f\n    /* \"#utility.yul\":1534:1544   */\n  dup5\n    /* \"#utility.yul\":1530:1549   */\n  add\n    /* \"#utility.yul\":1527:1528   */\n  0x05\n    /* \"#utility.yul\":1523:1550   */\n  shr\n    /* \"#utility.yul\":1517:1521   */\n  dup2\n    /* \"#utility.yul\":1513:1551   */\n  add\n    /* \"#utility.yul\":1582:1586   */\n  0x20\n    /* \"#utility.yul\":1570:1580   */\n  dup6\n    /* \"#utility.yul\":1567:1587   */\n  lt\n    /* \"#utility.yul\":1564:1611   */\n  iszero\n  tag_83\n  jumpi\n  pop\n    /* \"#utility.yul\":1605:1609   */\n  dup1\n    /* \"#utility.yul\":1564:1611   */\ntag_83:\n    /* \"#utility.yul\":1660:1662   */\n  0x1f\n    /* \"#utility.yul\":1655:1658   */\n  dup5\n    /* \"#utility.yul\":1651:1663   */\n  add\n    /* \"#utility.yul\":1648:1649   */\n  0x05\n    /* \"#utility.yul\":1644:1664   */\n  shr\n    /* \"#utility.yul\":1638:1642   */\n  dup3\n    /* \"#utility.yul\":1634:1665   */\n  add\n    /* \"#utility.yul\":1624:1665   */\n  swap2\n  pop\n    /* \"#utility.yul\":1715:1796   */\ntag_84:\n    /* \"#utility.yul\":1733:1735   */\n  dup2\n    /* \"#utility.yul\":1726:1731   */\n  dup2\n    /* \"#utility.yul\":1723:1736   */\n  lt\n    /* \"#utility.yul\":1715:1796   */\n  iszero\n  tag_86\n  jumpi\n    /* \"#utility.yul\":1792:1793   */\n  0x00\n    /* \"#utility.yul\":1778:1794   */\n  dup2\n  sstore\n    /* \"#utility.yul\":1759:1760   */\n  0x01\n    /* \"#utility.yul\":1748:1761   */\n  add\n    /* \"#utility.yul\":1715:1796   */\n  jump(tag_84)\ntag_86:\n    /* \"#utility.yul\":1719:1722   */\n  pop\n  pop\n    /* \"#utility.yul\":1385:1806   */\ntag_82:\n    /* \"#utility.yul\":1294:1812   */\n  pop\n  pop\n  pop\n  jump\t// out\n    /* \"#utility.yul\":1988:3287   */\ntag_10:\n    /* \"#utility.yul\":2108:2118   */\n  dup2\n  mload\n  sub(shl(0x40, 0x01), 0x01)\n    /* \"#utility.yul\":2130:2160   */\n  dup2\n  gt\n    /* \"#utility.yul\":2127:2183   */\n  iszero\n  tag_90\n  jumpi\n    /* \"#utility.yul\":2163:2181   */\n  tag_90\n  tag_66\n  jump\t// in\ntag_90:\n    /* \"#utility.yul\":2192:2289   */\n  tag_91\n    /* \"#utility.yul\":2282:2288   */\n  dup2\n    /* \"#utility.yul\":2242:2280   */\n  tag_92\n    /* \"#utility.yul\":2274:2278   */\n  dup5\n    /* \"#utility.yul\":2268:2279   */\n  sload\n    /* \"#utility.yul\":2242:2280   */\n  tag_67\n  jump\t// in\ntag_92:\n    /* \"#utility.yul\":2236:2240   */\n  dup5\n    /* \"#utility.yul\":2192:2289   */\n  tag_69\n  jump\t// in\ntag_91:\n    /* \"#utility.yul\":2338:2342   */\n  0x20\n    /* \"#utility.yul\":2369:2371   */\n  0x1f\n    /* \"#utility.yul\":2358:2372   */\n  dup3\n  gt\n    /* \"#utility.yul\":2386:2387   */\n  0x01\n    /* \"#utility.yul\":2381:3030   */\n  dup2\n  eq\n  tag_94\n  jumpi\n    /* \"#utility.yul\":3074:3075   */\n  0x00\n    /* \"#utility.yul\":3091:3097   */\n  dup4\n    /* \"#utility.yul\":3088:3177   */\n  iszero\n  tag_95\n  jumpi\n  pop\n    /* \"#utility.yul\":3143:3162   */\n  dup5\n  dup3\n  add\n    /* \"#utility.yul\":3137:3163   */\n  mload\n    /* \"#utility.yul\":3088:3177   */\ntag_95:\n  not(0x00)\n    /* \"#utility.yul\":1945:1946   */\n  0x03\n    /* \"#utility.yul\":1941:1952   */\n  dup6\n  swap1\n  shl\n    /* \"#utility.yul\":1937:1961   */\n  shr\n    /* \"#utility.yul\":1933:1962   */\n  not\n    /* \"#utility.yul\":1923:1963   */\n  and\n    /* \"#utility.yul\":1969:1970   */\n  0x01\n    /* \"#utility.yul\":1965:1976   */\n  dup5\n  swap1\n  shl\n    /* \"#utility.yul\":1920:1977   */\n  or\n    /* \"#utility.yul\":3190:3271   */\n  dup5\n  sstore\n    /* \"#utility.yul\":2351:3281   */\n  jump(tag_86)\n    /* \"#utility.yul\":2381:3030   */\ntag_94:\n    /* \"#utility.yul\":1241:1242   */\n  0x00\n    /* \"#utility.yul\":1234:1248   */\n  dup5\n  dup2\n  mstore\n    /* \"#utility.yul\":1278:1282   */\n  0x20\n    /* \"#utility.yul\":1265:1283   */\n  dup2\n  keccak256\n  not(0x1f)\n    /* \"#utility.yul\":2417:2437   */\n  dup6\n  and\n  swap2\n    /* \"#utility.yul\":2535:2757   */\ntag_98:\n    /* \"#utility.yul\":2549:2556   */\n  dup3\n    /* \"#utility.yul\":2546:2547   */\n  dup2\n    /* \"#utility.yul\":2543:2557   */\n  lt\n    /* \"#utility.yul\":2535:2757   */\n  iszero\n  tag_100\n  jumpi\n    /* \"#utility.yul\":2631:2650   */\n  dup8\n  dup6\n  add\n    /* \"#utility.yul\":2625:2651   */\n  mload\n    /* \"#utility.yul\":2610:2652   */\n  dup3\n  sstore\n    /* \"#utility.yul\":2738:2742   */\n  0x20\n    /* \"#utility.yul\":2723:2743   */\n  swap5\n  dup6\n  add\n  swap5\n    /* \"#utility.yul\":2691:2692   */\n  0x01\n    /* \"#utility.yul\":2679:2693   */\n  swap1\n  swap3\n  add\n  swap2\n    /* \"#utility.yul\":2565:2577   */\n  add\n    /* \"#utility.yul\":2535:2757   */\n  jump(tag_98)\ntag_100:\n    /* \"#utility.yul\":2539:2542   */\n  pop\n    /* \"#utility.yul\":2785:2791   */\n  dup5\n    /* \"#utility.yul\":2776:2783   */\n  dup3\n    /* \"#utility.yul\":2773:2792   */\n  lt\n    /* \"#utility.yul\":2770:2971   */\n  iszero\n  tag_101\n  jumpi\n    /* \"#utility.yul\":2846:2865   */\n  dup7\n  dup5\n  add\n    /* \"#utility.yul\":2840:2866   */\n  mload\n  not(0x00)\n    /* \"#utility.yul\":2929:2930   */\n  0x03\n    /* \"#utility.yul\":2925:2939   */\n  dup8\n  swap1\n  shl\n    /* \"#utility.yul\":2941:2944   */\n  0xf8\n    /* \"#utility.yul\":2921:2945   */\n  and\n    /* \"#utility.yul\":2917:2954   */\n  shr\n    /* \"#utility.yul\":2913:2955   */\n  not\n    /* \"#utility.yul\":2898:2956   */\n  and\n    /* \"#utility.yul\":2883:2957   */\n  dup2\n  sstore\n    /* \"#utility.yul\":2770:2971   */\ntag_101:\n  pop\n  pop\n  pop\n  pop\n    /* \"#utility.yul\":3017:3018   */\n  0x01\n    /* \"#utility.yul\":3001:3015   */\n  swap1\n  dup2\n  shl\n    /* \"#utility.yul\":2997:3019   */\n  add\n    /* \"#utility.yul\":2984:3020   */\n  swap1\n  sstore\n  pop\n    /* \"#utility.yul\":1988:3287   */\n  jump\t// out\n    /* \"#utility.yul\":5610:5737   */\ntag_71:\n    /* \"#utility.yul\":5671:5681   */\n  0x4e487b71\n    /* \"#utility.yul\":5666:5669   */\n  0xe0\n    /* \"#utility.yul\":5662:5682   */\n  shl\n    /* \"#utility.yul\":5659:5660   */\n  0x00\n    /* \"#utility.yul\":5652:5683   */\n  mstore\n    /* \"#utility.yul\":5702:5706   */\n  0x11\n    /* \"#utility.yul\":5699:5700   */\n  0x04\n    /* \"#utility.yul\":5692:5707   */\n  mstore\n    /* \"#utility.yul\":5726:5730   */\n  0x24\n    /* \"#utility.yul\":5723:5724   */\n  0x00\n    /* \"#utility.yul\":5716:5731   */\n  revert\n    /* \"#utility.yul\":5742:5910   */\ntag_39:\n    /* \"#utility.yul\":5815:5824   */\n  dup1\n  dup3\n  mul\n    /* \"#utility.yul\":5846:5855   */\n  dup2\n  iszero\n    /* \"#utility.yul\":5863:5878   */\n  dup3\n  dup3\n  div\n    /* \"#utility.yul\":5857:5879   */\n  dup5\n  eq\n    /* \"#utility.yul\":5843:5880   */\n  or\n    /* \"#utility.yul\":5833:5904   */\n  tag_112\n  jumpi\n    /* \"#utility.yul\":5884:5902   */\n  tag_112\n  tag_71\n  jump\t// in\ntag_112:\n    /* \"#utility.yul\":5742:5910   */\n  swap3\n  swap2\n  pop\n  pop\n  jump\t// out\n    /* \"#utility.yul\":6261:6386   */\ntag_57:\n    /* \"#utility.yul\":6326:6335   */\n  dup1\n  dup3\n  add\n    /* \"#utility.yul\":6347:6357   */\n  dup1\n  dup3\n  gt\n    /* \"#utility.yul\":6344:6380   */\n  iszero\n  tag_112\n  jumpi\n    /* \"#utility.yul\":6360:6378   */\n  tag_112\n  tag_71\n  jump\t// in\n    /* \"#utility.yul\":6741:6918   */\ntag_72:\n    /* \"contracts/Cardeiro_2.0.sol\":374:5943  contract Cardeiro is ERC20, ERC20Burnable, Ownable, ReentrancyGuard {... */\n  dataSize(sub_0)\n  dup1\n  dataOffset(sub_0)\n  0x00\n  codecopy\n  0x00\n  return\nstop\n\nsub_0: assembly {\n        /* \"contracts/Cardeiro_2.0.sol\":374:5943  contract Cardeiro is ERC20, ERC20Burnable, Ownable, ReentrancyGuard {... */\n      mstore(0x40, 0x80)\n      jumpi(tag_1, lt(calldatasize, 0x04))\n      shr(0xe0, calldataload(0x00))\n      dup1\n      0x768a4173\n      gt\n      tag_31\n      jumpi\n      dup1\n      0xa9059cbb\n      gt\n      tag_32\n      jumpi\n      dup1\n      0xdd62ed3e\n      gt\n      tag_33\n      jumpi\n      dup1\n      0xdd62ed3e\n      eq\n      tag_27\n      jumpi\n      dup1\n      0xe0b0642e\n      eq\n      tag_28\n      jumpi\n      dup1\n      0xed299016\n      eq\n      tag_29\n      jumpi\n      dup1\n      0xf2fde38b\n      eq\n      tag_30\n      jumpi\n      jump(tag_2)\n    tag_33:\n      dup1\n      0xa9059cbb\n      eq\n      tag_24\n      jumpi\n      dup1\n      0xbbb0b1a6\n      eq\n      tag_25\n      jumpi\n      dup1\n      0xbd666d24\n      eq\n      tag_26\n      jumpi\n      jump(tag_2)\n    tag_32:\n      dup1\n      0x7f51bb1f\n      gt\n      tag_34\n      jumpi\n      dup1\n      0x7f51bb1f\n      eq\n      tag_20\n      jumpi\n      dup1\n      0x8cbb6df7\n      eq\n      tag_21\n      jumpi\n      dup1\n      0x8da5cb5b\n      eq\n      tag_22\n      jumpi\n      dup1\n      0x95d89b41\n      eq\n      tag_23\n      jumpi\n      jump(tag_2)\n    tag_34:\n      dup1\n      0x768a4173\n      eq\n      tag_17\n      jumpi\n      dup1\n      0x79cc6790\n      eq\n      tag_18\n      jumpi\n      dup1\n      0x7e6335f4\n      eq\n      tag_19\n      jumpi\n      jump(tag_2)\n    tag_31:\n      dup1\n      0x2ed6b75d\n      gt\n      tag_35\n      jumpi\n      dup1\n      0x61d027b3\n      gt\n      tag_36\n      jumpi\n      dup1\n      0x61d027b3\n      eq\n      tag_13\n      jumpi\n      dup1\n      0x6a47aa06\n      eq\n      tag_14\n      jumpi\n      dup1\n      0x70a08231\n      eq\n      tag_15\n      jumpi\n      dup1\n      0x715018a6\n      eq\n      tag_16\n      jumpi\n      jump(tag_2)\n    tag_36:\n      dup1\n      0x2ed6b75d\n      eq\n      tag_10\n      jumpi\n      dup1\n      0x313ce567\n      eq\n      tag_11\n      jumpi\n      dup1\n      0x42966c68\n      eq\n      tag_12\n      jumpi\n      jump(tag_2)\n    tag_35:\n      dup1\n      0x16d43a97\n      gt\n      tag_37\n      jumpi\n      dup1\n      0x16d43a97\n      eq\n      tag_6\n      jumpi\n      dup1\n      0x18160ddd\n      eq\n      tag_7\n      jumpi\n      dup1\n      0x225cf6e4\n      eq\n      tag_8\n      jumpi\n      dup1\n      0x23b872dd\n      eq\n      tag_9\n      jumpi\n      jump(tag_2)\n    tag_37:\n      dup1\n      0x06fdde03\n      eq\n      tag_3\n      jumpi\n      dup1\n      0x095ea7b3\n      eq\n      tag_4\n      jumpi\n      dup1\n      0x102b67ab\n      eq\n      tag_5\n      jumpi\n      jump(tag_2)\n    tag_1:\n      jumpi(tag_2, calldatasize)\n        /* \"contracts/Cardeiro_2.0.sol\":5899:5934  revert(\"Token does not accept ETH\") */\n      mload(0x40)\n      shl(0xe5, 0x461bcd)\n      dup2\n      mstore\n        /* \"#utility.yul\":216:218   */\n      0x20\n        /* \"contracts/Cardeiro_2.0.sol\":5899:5934  revert(\"Token does not accept ETH\") */\n      0x04\n      dup3\n      add\n        /* \"#utility.yul\":198:219   */\n      mstore\n        /* \"#utility.yul\":255:257   */\n      0x19\n        /* \"#utility.yul\":235:253   */\n      0x24\n      dup3\n      add\n        /* \"#utility.yul\":228:258   */\n      mstore\n      shl(0x3b, 0x0a8ded6cadc40c8decae640dcdee840c2c6c6cae0e8408aa89)\n        /* \"#utility.yul\":274:292   */\n      0x44\n      dup3\n      add\n        /* \"#utility.yul\":267:322   */\n      mstore\n        /* \"#utility.yul\":339:357   */\n      0x64\n      add\n        /* \"contracts/Cardeiro_2.0.sol\":5899:5934  revert(\"Token does not accept ETH\") */\n    tag_40:\n      mload(0x40)\n      dup1\n      swap2\n      sub\n      swap1\n      revert\n        /* \"contracts/Cardeiro_2.0.sol\":374:5943  contract Cardeiro is ERC20, ERC20Burnable, Ownable, ReentrancyGuard {... */\n    tag_2:\n        /* \"contracts/Cardeiro_2.0.sol\":5814:5849  revert(\"Token does not accept ETH\") */\n      mload(0x40)\n      shl(0xe5, 0x461bcd)\n      dup2\n      mstore\n        /* \"#utility.yul\":216:218   */\n      0x20\n        /* \"contracts/Cardeiro_2.0.sol\":5814:5849  revert(\"Token does not accept ETH\") */\n      0x04\n      dup3\n      add\n        /* \"#utility.yul\":198:219   */\n      mstore\n        /* \"#utility.yul\":255:257   */\n      0x19\n        /* \"#utility.yul\":235:253   */\n      0x24\n      dup3\n      add\n        /* \"#utility.yul\":228:258   */\n      mstore\n      shl(0x3b, 0x0a8ded6cadc40c8decae640dcdee840c2c6c6cae0e8408aa89)\n        /* \"#utility.yul\":274:292   */\n      0x44\n      dup3\n      add\n        /* \"#utility.yul\":267:322   */\n      mstore\n        /* \"#utility.yul\":339:357   */\n      0x64\n      add\n        /* \"contracts/Cardeiro_2.0.sol\":5814:5849  revert(\"Token does not accept ETH\") */\n      tag_40\n        /* \"#utility.yul\":14:363   */\n      jump\n        /* \"@openzeppelin/contracts/token/ERC20/ERC20.sol\":1779:1868  function name() public view virtual returns (string memory) {... */\n    tag_3:\n      callvalue\n      dup1\n      iszero\n      tag_45\n      jumpi\n      revert(0x00, 0x00)\n    tag_45:\n      pop\n      tag_46\n      tag_47\n      jump\t// in\n    tag_46:\n      mload(0x40)\n      tag_48\n      swap2\n      swap1\n      tag_49\n      jump\t// in\n    tag_48:\n      mload(0x40)\n      dup1\n      swap2\n      sub\n      swap1\n      return\n        /* \"@openzeppelin/contracts/token/ERC20/ERC20.sol\":3998:4184  function approve(address spender, uint256 value) public virtual returns (bool) {... */\n    tag_4:\n      callvalue\n      dup1\n      iszero\n      tag_50\n      jumpi\n      revert(0x00, 0x00)\n    tag_50:\n      pop\n      tag_51\n      tag_52\n      calldatasize\n      0x04\n      tag_53\n      jump\t// in\n    tag_52:\n      tag_54\n      jump\t// in\n    tag_51:\n      mload(0x40)\n        /* \"#utility.yul\":1439:1453   */\n      swap1\n      iszero\n        /* \"#utility.yul\":1432:1454   */\n      iszero\n        /* \"#utility.yul\":1414:1455   */\n      dup2\n      mstore\n        /* \"#utility.yul\":1402:1404   */\n      0x20\n        /* \"#utility.yul\":1387:1405   */\n      add\n        /* \"@openzeppelin/contracts/token/ERC20/ERC20.sol\":3998:4184  function approve(address spender, uint256 value) public virtual returns (bool) {... */\n      tag_48\n        /* \"#utility.yul\":1274:1461   */\n      jump\n        /* \"contracts/Cardeiro_2.0.sol\":5144:5322  function getExpectedBurn(uint256 rate) public view returns (uint256) {... */\n    tag_5:\n      callvalue\n      dup1\n      iszero\n      tag_57\n      jumpi\n      revert(0x00, 0x00)\n    tag_57:\n      pop\n      tag_58\n      tag_59\n      calldatasize\n      0x04\n      tag_60\n      jump\t// in\n    tag_59:\n      tag_61\n      jump\t// in\n    tag_58:\n      mload(0x40)\n        /* \"#utility.yul\":1843:1868   */\n      swap1\n      dup2\n      mstore\n        /* \"#utility.yul\":1831:1833   */\n      0x20\n        /* \"#utility.yul\":1816:1834   */\n      add\n        /* \"contracts/Cardeiro_2.0.sol\":5144:5322  function getExpectedBurn(uint256 rate) public view returns (uint256) {... */\n      tag_48\n        /* \"#utility.yul\":1697:1874   */\n      jump\n        /* \"contracts/Cardeiro_2.0.sol\":1382:1414  uint256 public lastOperationTime */\n    tag_6:\n      callvalue\n      dup1\n      iszero\n      tag_64\n      jumpi\n      revert(0x00, 0x00)\n    tag_64:\n      pop\n      tag_58\n      sload(0x0d)\n      dup2\n      jump\n        /* \"@openzeppelin/contracts/token/ERC20/ERC20.sol\":2849:2946  function totalSupply() public view virtual returns (uint256) {... */\n    tag_7:\n      callvalue\n      dup1\n      iszero\n      tag_68\n      jumpi\n      revert(0x00, 0x00)\n    tag_68:\n      pop\n        /* \"@openzeppelin/contracts/token/ERC20/ERC20.sol\":2927:2939  _totalSupply */\n      sload(0x02)\n        /* \"@openzeppelin/contracts/token/ERC20/ERC20.sol\":2849:2946  function totalSupply() public view virtual returns (uint256) {... */\n      jump(tag_58)\n        /* \"contracts/Cardeiro_2.0.sol\":4078:4445  function proposeTreasuryUpdate(address _newTreasury) public onlyOwner {... */\n    tag_8:\n      callvalue\n      dup1\n      iszero\n      tag_72\n      jumpi\n      revert(0x00, 0x00)\n    tag_72:\n      pop\n      tag_73\n      tag_74\n      calldatasize\n      0x04\n      tag_75\n      jump\t// in\n    tag_74:\n      tag_76\n      jump\t// in\n    tag_73:\n      stop\n        /* \"contracts/Cardeiro_2.0.sol\":5525:5744  function transferFrom(address from, address to, uint256 amount)... */\n    tag_9:\n      callvalue\n      dup1\n      iszero\n      tag_77\n      jumpi\n      revert(0x00, 0x00)\n    tag_77:\n      pop\n      tag_51\n      tag_79\n      calldatasize\n      0x04\n      tag_80\n      jump\t// in\n    tag_79:\n      tag_81\n      jump\t// in\n        /* \"contracts/Cardeiro_2.0.sol\":1321:1351  address public pendingTreasury */\n    tag_10:\n      callvalue\n      dup1\n      iszero\n      tag_83\n      jumpi\n      revert(0x00, 0x00)\n    tag_83:\n      pop\n      sload(0x0c)\n      tag_84\n      swap1\n      sub(shl(0xa0, 0x01), 0x01)\n      and\n      dup2\n      jump\n    tag_84:\n      mload(0x40)\n      sub(shl(0xa0, 0x01), 0x01)\n        /* \"#utility.yul\":2613:2645   */\n      swap1\n      swap2\n      and\n        /* \"#utility.yul\":2595:2646   */\n      dup2\n      mstore\n        /* \"#utility.yul\":2583:2585   */\n      0x20\n        /* \"#utility.yul\":2568:2586   */\n      add\n        /* \"contracts/Cardeiro_2.0.sol\":1321:1351  address public pendingTreasury */\n      tag_48\n        /* \"#utility.yul\":2449:2652   */\n      jump\n        /* \"@openzeppelin/contracts/token/ERC20/ERC20.sol\":2707:2789  function decimals() public view virtual returns (uint8) {... */\n    tag_11:\n      callvalue\n      dup1\n      iszero\n      tag_88\n      jumpi\n      revert(0x00, 0x00)\n    tag_88:\n      pop\n      mload(0x40)\n        /* \"@openzeppelin/contracts/token/ERC20/ERC20.sol\":2780:2782  18 */\n      0x12\n        /* \"#utility.yul\":2799:2835   */\n      dup2\n      mstore\n        /* \"#utility.yul\":2787:2789   */\n      0x20\n        /* \"#utility.yul\":2772:2790   */\n      add\n        /* \"@openzeppelin/contracts/token/ERC20/ERC20.sol\":2707:2789  function decimals() public view virtual returns (uint8) {... */\n      tag_48\n        /* \"#utility.yul\":2657:2841   */\n      jump\n        /* \"@openzeppelin/contracts/token/ERC20/extensions/ERC20Burnable.sol\":618:705  function burn(uint256 value) public virtual {... */\n    tag_12:\n      callvalue\n      dup1\n      iszero\n      tag_93\n      jumpi\n      revert(0x00, 0x00)\n    tag_93:\n      pop\n      tag_73\n      tag_95\n      calldatasize\n      0x04\n      tag_60\n      jump\t// in\n    tag_95:\n      tag_96\n      jump\t// in\n        /* \"contracts/Cardeiro_2.0.sol\":502:525  address public treasury */\n    tag_13:\n      callvalue\n      dup1\n      iszero\n      tag_97\n      jumpi\n      revert(0x00, 0x00)\n    tag_97:\n      pop\n      sload(0x07)\n      tag_84\n      swap1\n      sub(shl(0xa0, 0x01), 0x01)\n      and\n      dup2\n      jump\n        /* \"contracts/Cardeiro_2.0.sol\":569:599  uint256 public halvingInterval */\n    tag_14:\n      callvalue\n      dup1\n      iszero\n      tag_101\n      jumpi\n      revert(0x00, 0x00)\n    tag_101:\n      pop\n      tag_58\n      sload(0x08)\n      dup2\n      jump\n        /* \"@openzeppelin/contracts/token/ERC20/ERC20.sol\":3004:3120  function balanceOf(address account) public view virtual returns (uint256) {... */\n    tag_15:\n      callvalue\n      dup1\n      iszero\n      tag_105\n      jumpi\n      revert(0x00, 0x00)\n    tag_105:\n      pop\n      tag_58\n      tag_107\n      calldatasize\n      0x04\n      tag_75\n      jump\t// in\n    tag_107:\n      sub(shl(0xa0, 0x01), 0x01)\n        /* \"@openzeppelin/contracts/token/ERC20/ERC20.sol\":3095:3113  _balances[account] */\n      and\n        /* \"@openzeppelin/contracts/token/ERC20/ERC20.sol\":3069:3076  uint256 */\n      0x00\n        /* \"@openzeppelin/contracts/token/ERC20/ERC20.sol\":3095:3113  _balances[account] */\n      swap1\n      dup2\n      mstore\n      0x20\n      dup2\n      swap1\n      mstore\n      0x40\n      swap1\n      keccak256\n      sload\n      swap1\n        /* \"@openzeppelin/contracts/token/ERC20/ERC20.sol\":3004:3120  function balanceOf(address account) public view virtual returns (uint256) {... */\n      jump\n        /* \"@openzeppelin/contracts/access/Ownable.sol\":2293:2394  function renounceOwnership() public virtual onlyOwner {... */\n    tag_16:\n      callvalue\n      dup1\n      iszero\n      tag_110\n      jumpi\n      revert(0x00, 0x00)\n    tag_110:\n      pop\n      tag_73\n      tag_112\n      jump\t// in\n        /* \"contracts/Cardeiro_2.0.sol\":3440:3567  function isHalvingDue() public view returns (bool) {... */\n    tag_17:\n      callvalue\n      dup1\n      iszero\n      tag_113\n      jumpi\n      revert(0x00, 0x00)\n    tag_113:\n      pop\n      tag_51\n      tag_115\n      jump\t// in\n        /* \"@openzeppelin/contracts/token/ERC20/extensions/ERC20Burnable.sol\":1021:1179  function burnFrom(address account, uint256 value) public virtual {... */\n    tag_18:\n      callvalue\n      dup1\n      iszero\n      tag_117\n      jumpi\n      revert(0x00, 0x00)\n    tag_117:\n      pop\n      tag_73\n      tag_119\n      calldatasize\n      0x04\n      tag_53\n      jump\t// in\n    tag_119:\n      tag_120\n      jump\t// in\n        /* \"contracts/Cardeiro_2.0.sol\":736:762  uint256 public halvingRate */\n    tag_19:\n      callvalue\n      dup1\n      iszero\n      tag_121\n      jumpi\n      revert(0x00, 0x00)\n    tag_121:\n      pop\n      tag_58\n      sload(0x0a)\n      dup2\n      jump\n        /* \"contracts/Cardeiro_2.0.sol\":4877:4974  function updateTreasury(address _treasury) public onlyOwner {... */\n    tag_20:\n      callvalue\n      dup1\n      iszero\n      tag_125\n      jumpi\n      revert(0x00, 0x00)\n    tag_125:\n      pop\n      tag_73\n      tag_127\n      calldatasize\n      0x04\n      tag_75\n      jump\t// in\n    tag_127:\n      tag_128\n      jump\t// in\n        /* \"contracts/Cardeiro_2.0.sol\":643:673  uint256 public lastHalvingTime */\n    tag_21:\n      callvalue\n      dup1\n      iszero\n      tag_129\n      jumpi\n      revert(0x00, 0x00)\n    tag_129:\n      pop\n      tag_58\n      sload(0x09)\n      dup2\n      jump\n        /* \"@openzeppelin/contracts/access/Ownable.sol\":1638:1723  function owner() public view virtual returns (address) {... */\n    tag_22:\n      callvalue\n      dup1\n      iszero\n      tag_133\n      jumpi\n      revert(0x00, 0x00)\n    tag_133:\n      pop\n        /* \"@openzeppelin/contracts/access/Ownable.sol\":1710:1716  _owner */\n      and(sub(shl(0xa0, 0x01), 0x01), sload(0x05))\n        /* \"@openzeppelin/contracts/access/Ownable.sol\":1638:1723  function owner() public view virtual returns (address) {... */\n      jump(tag_84)\n        /* \"@openzeppelin/contracts/token/ERC20/ERC20.sol\":1981:2074  function symbol() public view virtual returns (string memory) {... */\n    tag_23:\n      callvalue\n      dup1\n      iszero\n      tag_137\n      jumpi\n      revert(0x00, 0x00)\n    tag_137:\n      pop\n      tag_46\n      tag_139\n      jump\t// in\n        /* \"contracts/Cardeiro_2.0.sol\":5328:5519  function transfer(address to, uint256 amount)... */\n    tag_24:\n      callvalue\n      dup1\n      iszero\n      tag_141\n      jumpi\n      revert(0x00, 0x00)\n    tag_141:\n      pop\n      tag_51\n      tag_143\n      calldatasize\n      0x04\n      tag_53\n      jump\t// in\n    tag_143:\n      tag_144\n      jump\t// in\n        /* \"contracts/Cardeiro_2.0.sol\":3631:4030  function updateHalvingParams(uint256 _halvingInterval, uint256 _halvingRate) public onlyOwner {... */\n    tag_25:\n      callvalue\n      dup1\n      iszero\n      tag_146\n      jumpi\n      revert(0x00, 0x00)\n    tag_146:\n      pop\n      tag_73\n      tag_148\n      calldatasize\n      0x04\n      tag_149\n      jump\t// in\n    tag_148:\n      tag_150\n      jump\t// in\n        /* \"contracts/Cardeiro_2.0.sol\":4451:4815  function confirmTreasuryUpdate() public onlyOwner {... */\n    tag_26:\n      callvalue\n      dup1\n      iszero\n      tag_151\n      jumpi\n      revert(0x00, 0x00)\n    tag_151:\n      pop\n      tag_73\n      tag_153\n      jump\t// in\n        /* \"@openzeppelin/contracts/token/ERC20/ERC20.sol\":3551:3691  function allowance(address owner, address spender) public view virtual returns (uint256) {... */\n    tag_27:\n      callvalue\n      dup1\n      iszero\n      tag_154\n      jumpi\n      revert(0x00, 0x00)\n    tag_154:\n      pop\n      tag_58\n      tag_156\n      calldatasize\n      0x04\n      tag_157\n      jump\t// in\n    tag_156:\n      sub(shl(0xa0, 0x01), 0x01)\n        /* \"@openzeppelin/contracts/token/ERC20/ERC20.sol\":3657:3675  _allowances[owner] */\n      swap2\n      dup3\n      and\n        /* \"@openzeppelin/contracts/token/ERC20/ERC20.sol\":3631:3638  uint256 */\n      0x00\n        /* \"@openzeppelin/contracts/token/ERC20/ERC20.sol\":3657:3675  _allowances[owner] */\n      swap1\n      dup2\n      mstore\n        /* \"@openzeppelin/contracts/token/ERC20/ERC20.sol\":3657:3668  _allowances */\n      0x01\n        /* \"@openzeppelin/contracts/token/ERC20/ERC20.sol\":3657:3675  _allowances[owner] */\n      0x20\n      swap1\n      dup2\n      mstore\n      0x40\n      dup1\n      dup4\n      keccak256\n        /* \"@openzeppelin/contracts/token/ERC20/ERC20.sol\":3657:3684  _allowances[owner][spender] */\n      swap4\n      swap1\n      swap5\n      and\n      dup3\n      mstore\n      swap2\n      swap1\n      swap2\n      mstore\n      keccak256\n      sload\n      swap1\n        /* \"@openzeppelin/contracts/token/ERC20/ERC20.sol\":3551:3691  function allowance(address owner, address spender) public view virtual returns (uint256) {... */\n      jump\n        /* \"contracts/Cardeiro_2.0.sol\":1286:1315  uint256 public timelockExpiry */\n    tag_28:\n      callvalue\n      dup1\n      iszero\n      tag_160\n      jumpi\n      revert(0x00, 0x00)\n    tag_160:\n      pop\n      tag_58\n      sload(0x0b)\n      dup2\n      jump\n        /* \"contracts/Cardeiro_2.0.sol\":2838:3391  function executeHalving() public nonReentrant {... */\n    tag_29:\n      callvalue\n      dup1\n      iszero\n      tag_164\n      jumpi\n      revert(0x00, 0x00)\n    tag_164:\n      pop\n      tag_73\n      tag_166\n      jump\t// in\n        /* \"@openzeppelin/contracts/access/Ownable.sol\":2543:2758  function transferOwnership(address newOwner) public virtual onlyOwner {... */\n    tag_30:\n      callvalue\n      dup1\n      iszero\n      tag_167\n      jumpi\n      revert(0x00, 0x00)\n    tag_167:\n      pop\n      tag_73\n      tag_169\n      calldatasize\n      0x04\n      tag_75\n      jump\t// in\n    tag_169:\n      tag_170\n      jump\t// in\n        /* \"@openzeppelin/contracts/token/ERC20/ERC20.sol\":1779:1868  function name() public view virtual returns (string memory) {... */\n    tag_47:\n        /* \"@openzeppelin/contracts/token/ERC20/ERC20.sol\":1824:1837  string memory */\n      0x60\n        /* \"@openzeppelin/contracts/token/ERC20/ERC20.sol\":1856:1861  _name */\n      0x03\n        /* \"@openzeppelin/contracts/token/ERC20/ERC20.sol\":1849:1861  return _name */\n      dup1\n      sload\n      tag_172\n      swap1\n      tag_173\n      jump\t// in\n    tag_172:\n      dup1\n      0x1f\n      add\n      0x20\n      dup1\n      swap2\n      div\n      mul\n      0x20\n      add\n      mload(0x40)\n      swap1\n      dup2\n      add\n      0x40\n      mstore\n      dup1\n      swap3\n      swap2\n      swap1\n      dup2\n      dup2\n      mstore\n      0x20\n      add\n      dup3\n      dup1\n      sload\n      tag_174\n      swap1\n      tag_173\n      jump\t// in\n    tag_174:\n      dup1\n      iszero\n      tag_175\n      jumpi\n      dup1\n      0x1f\n      lt\n      tag_176\n      jumpi\n      0x0100\n      dup1\n      dup4\n      sload\n      div\n      mul\n      dup4\n      mstore\n      swap2\n      0x20\n      add\n      swap2\n      jump(tag_175)\n    tag_176:\n      dup3\n      add\n      swap2\n      swap1\n      0x00\n      mstore\n      keccak256(0x00, 0x20)\n      swap1\n    tag_177:\n      dup2\n      sload\n      dup2\n      mstore\n      swap1\n      0x01\n      add\n      swap1\n      0x20\n      add\n      dup1\n      dup4\n      gt\n      tag_177\n      jumpi\n      dup3\n      swap1\n      sub\n      0x1f\n      and\n      dup3\n      add\n      swap2\n    tag_175:\n      pop\n      pop\n      pop\n      pop\n      pop\n      swap1\n      pop\n        /* \"@openzeppelin/contracts/token/ERC20/ERC20.sol\":1779:1868  function name() public view virtual returns (string memory) {... */\n      swap1\n      jump\t// out\n        /* \"@openzeppelin/contracts/token/ERC20/ERC20.sol\":3998:4184  function approve(address spender, uint256 value) public virtual returns (bool) {... */\n    tag_54:\n        /* \"@openzeppelin/contracts/token/ERC20/ERC20.sol\":4071:4075  bool */\n      0x00\n        /* \"@openzeppelin/contracts/utils/Context.sol\":735:745  msg.sender */\n      caller\n        /* \"@openzeppelin/contracts/token/ERC20/ERC20.sol\":4125:4156  _approve(owner, spender, value) */\n      tag_181\n        /* \"@openzeppelin/contracts/utils/Context.sol\":735:745  msg.sender */\n      dup2\n        /* \"@openzeppelin/contracts/token/ERC20/ERC20.sol\":4141:4148  spender */\n      dup6\n        /* \"@openzeppelin/contracts/token/ERC20/ERC20.sol\":4150:4155  value */\n      dup6\n        /* \"@openzeppelin/contracts/token/ERC20/ERC20.sol\":4125:4133  _approve */\n      tag_182\n        /* \"@openzeppelin/contracts/token/ERC20/ERC20.sol\":4125:4156  _approve(owner, spender, value) */\n      jump\t// in\n    tag_181:\n        /* \"@openzeppelin/contracts/token/ERC20/ERC20.sol\":4173:4177  true */\n      0x01\n        /* \"@openzeppelin/contracts/token/ERC20/ERC20.sol\":4166:4177  return true */\n      swap2\n      pop\n      pop\n        /* \"@openzeppelin/contracts/token/ERC20/ERC20.sol\":3998:4184  function approve(address spender, uint256 value) public virtual returns (bool) {... */\n    tag_178:\n      swap3\n      swap2\n      pop\n      pop\n      jump\t// out\n        /* \"contracts/Cardeiro_2.0.sol\":5144:5322  function getExpectedBurn(uint256 rate) public view returns (uint256) {... */\n    tag_61:\n        /* \"contracts/Cardeiro_2.0.sol\":5259:5267  treasury */\n      and(sub(shl(0xa0, 0x01), 0x01), sload(0x07))\n        /* \"contracts/Cardeiro_2.0.sol\":5204:5211  uint256 */\n      0x00\n        /* \"@openzeppelin/contracts/token/ERC20/ERC20.sol\":3095:3113  _balances[account] */\n      swap1\n      dup2\n      mstore\n      0x20\n      dup2\n      swap1\n      mstore\n      0x40\n      dup2\n      keccak256\n      sload\n        /* \"contracts/Cardeiro_2.0.sol\":5312:5315  100 */\n      0x64\n        /* \"contracts/Cardeiro_2.0.sol\":5286:5308  treasuryBalance * rate */\n      tag_185\n        /* \"contracts/Cardeiro_2.0.sol\":5304:5308  rate */\n      dup5\n        /* \"contracts/Cardeiro_2.0.sol\":5223:5268  uint256 treasuryBalance = balanceOf(treasury) */\n      dup4\n        /* \"contracts/Cardeiro_2.0.sol\":5286:5308  treasuryBalance * rate */\n      tag_186\n      jump\t// in\n    tag_185:\n        /* \"contracts/Cardeiro_2.0.sol\":5285:5315  (treasuryBalance * rate) / 100 */\n      tag_187\n      swap2\n      swap1\n      tag_188\n      jump\t// in\n    tag_187:\n        /* \"contracts/Cardeiro_2.0.sol\":5278:5315  return (treasuryBalance * rate) / 100 */\n      swap4\n        /* \"contracts/Cardeiro_2.0.sol\":5144:5322  function getExpectedBurn(uint256 rate) public view returns (uint256) {... */\n      swap3\n      pop\n      pop\n      pop\n      jump\t// out\n        /* \"contracts/Cardeiro_2.0.sol\":4078:4445  function proposeTreasuryUpdate(address _newTreasury) public onlyOwner {... */\n    tag_76:\n        /* \"@openzeppelin/contracts/access/Ownable.sol\":1531:1544  _checkOwner() */\n      tag_191\n        /* \"@openzeppelin/contracts/access/Ownable.sol\":1531:1542  _checkOwner */\n      tag_192\n        /* \"@openzeppelin/contracts/access/Ownable.sol\":1531:1544  _checkOwner() */\n      jump\t// in\n    tag_191:\n      sub(shl(0xa0, 0x01), 0x01)\n        /* \"contracts/Cardeiro_2.0.sol\":4166:4192  _newTreasury != address(0) */\n      dup2\n      and\n        /* \"contracts/Cardeiro_2.0.sol\":4158:4212  require(_newTreasury != address(0), \"Invalid address\") */\n      tag_194\n      jumpi\n      mload(0x40)\n      shl(0xe5, 0x461bcd)\n      dup2\n      mstore\n        /* \"#utility.yul\":4576:4578   */\n      0x20\n        /* \"contracts/Cardeiro_2.0.sol\":4158:4212  require(_newTreasury != address(0), \"Invalid address\") */\n      0x04\n      dup3\n      add\n        /* \"#utility.yul\":4558:4579   */\n      mstore\n        /* \"#utility.yul\":4615:4617   */\n      0x0f\n        /* \"#utility.yul\":4595:4613   */\n      0x24\n      dup3\n      add\n        /* \"#utility.yul\":4588:4618   */\n      mstore\n      shl(0x88, 0x496e76616c69642061646472657373)\n        /* \"#utility.yul\":4634:4652   */\n      0x44\n      dup3\n      add\n        /* \"#utility.yul\":4627:4672   */\n      mstore\n        /* \"#utility.yul\":4689:4707   */\n      0x64\n      add\n        /* \"contracts/Cardeiro_2.0.sol\":4158:4212  require(_newTreasury != address(0), \"Invalid address\") */\n      tag_40\n        /* \"#utility.yul\":4374:4713   */\n      jump\n        /* \"contracts/Cardeiro_2.0.sol\":4158:4212  require(_newTreasury != address(0), \"Invalid address\") */\n    tag_194:\n        /* \"contracts/Cardeiro_2.0.sol\":4254:4258  this */\n      address\n      sub(shl(0xa0, 0x01), 0x01)\n        /* \"contracts/Cardeiro_2.0.sol\":4230:4259  _newTreasury != address(this) */\n      dup3\n      and\n      sub\n        /* \"contracts/Cardeiro_2.0.sol\":4222:4282  require(_newTreasury != address(this), \"Cannot be contract\") */\n      tag_197\n      jumpi\n      mload(0x40)\n      shl(0xe5, 0x461bcd)\n      dup2\n      mstore\n        /* \"#utility.yul\":4920:4922   */\n      0x20\n        /* \"contracts/Cardeiro_2.0.sol\":4222:4282  require(_newTreasury != address(this), \"Cannot be contract\") */\n      0x04\n      dup3\n      add\n        /* \"#utility.yul\":4902:4923   */\n      mstore\n        /* \"#utility.yul\":4959:4961   */\n      0x12\n        /* \"#utility.yul\":4939:4957   */\n      0x24\n      dup3\n      add\n        /* \"#utility.yul\":4932:4962   */\n      mstore\n      shl(0x72, 0x10d85b9b9bdd0818994818dbdb9d1c9858dd)\n        /* \"#utility.yul\":4978:4996   */\n      0x44\n      dup3\n      add\n        /* \"#utility.yul\":4971:5019   */\n      mstore\n        /* \"#utility.yul\":5036:5054   */\n      0x64\n      add\n        /* \"contracts/Cardeiro_2.0.sol\":4222:4282  require(_newTreasury != address(this), \"Cannot be contract\") */\n      tag_40\n        /* \"#utility.yul\":4718:5060   */\n      jump\n        /* \"contracts/Cardeiro_2.0.sol\":4222:4282  require(_newTreasury != address(this), \"Cannot be contract\") */\n    tag_197:\n        /* \"contracts/Cardeiro_2.0.sol\":4292:4307  pendingTreasury */\n      0x0c\n        /* \"contracts/Cardeiro_2.0.sol\":4292:4322  pendingTreasury = _newTreasury */\n      dup1\n      sload\n      not(sub(shl(0xa0, 0x01), 0x01))\n      and\n      sub(shl(0xa0, 0x01), 0x01)\n      dup4\n      and\n      or\n      swap1\n      sstore\n        /* \"contracts/Cardeiro_2.0.sol\":4349:4384  block.timestamp + TIMELOCK_DURATION */\n      tag_200\n        /* \"contracts/Cardeiro_2.0.sol\":1192:1198  1 days */\n      0x015180\n        /* \"contracts/Cardeiro_2.0.sol\":4349:4364  block.timestamp */\n      timestamp\n        /* \"contracts/Cardeiro_2.0.sol\":4349:4384  block.timestamp + TIMELOCK_DURATION */\n      tag_201\n      jump\t// in\n    tag_200:\n        /* \"contracts/Cardeiro_2.0.sol\":4332:4346  timelockExpiry */\n      0x0b\n        /* \"contracts/Cardeiro_2.0.sol\":4332:4384  timelockExpiry = block.timestamp + TIMELOCK_DURATION */\n      sstore\n        /* \"contracts/Cardeiro_2.0.sol\":4415:4423  treasury */\n      sload(0x07)\n        /* \"contracts/Cardeiro_2.0.sol\":4399:4438  TreasuryUpdated(treasury, _newTreasury) */\n      0x40\n      dup1\n      mload\n      sub(shl(0xa0, 0x01), 0x01)\n        /* \"contracts/Cardeiro_2.0.sol\":4415:4423  treasury */\n      swap3\n      dup4\n      and\n        /* \"#utility.yul\":5369:5420   */\n      dup2\n      mstore\n        /* \"#utility.yul\":5456:5488   */\n      swap2\n      dup4\n      and\n        /* \"#utility.yul\":5451:5453   */\n      0x20\n        /* \"#utility.yul\":5436:5454   */\n      dup4\n      add\n        /* \"#utility.yul\":5429:5489   */\n      mstore\n        /* \"contracts/Cardeiro_2.0.sol\":4399:4438  TreasuryUpdated(treasury, _newTreasury) */\n      0x4ab5be82436d353e61ca18726e984e561f5c1cc7c6d38b29d2553c790434705a\n      swap2\n        /* \"#utility.yul\":5342:5360   */\n      add\n        /* \"contracts/Cardeiro_2.0.sol\":4399:4438  TreasuryUpdated(treasury, _newTreasury) */\n    tag_202:\n      mload(0x40)\n      dup1\n      swap2\n      sub\n      swap1\n      log1\n        /* \"contracts/Cardeiro_2.0.sol\":4078:4445  function proposeTreasuryUpdate(address _newTreasury) public onlyOwner {... */\n      pop\n      jump\t// out\n        /* \"contracts/Cardeiro_2.0.sol\":5525:5744  function transferFrom(address from, address to, uint256 amount)... */\n    tag_81:\n        /* \"contracts/Cardeiro_2.0.sol\":5674:5678  bool */\n      0x00\n        /* \"contracts/Cardeiro_2.0.sol\":1806:1820  isHalvingDue() */\n      tag_205\n        /* \"contracts/Cardeiro_2.0.sol\":1806:1818  isHalvingDue */\n      tag_115\n        /* \"contracts/Cardeiro_2.0.sol\":1806:1820  isHalvingDue() */\n      jump\t// in\n    tag_205:\n        /* \"contracts/Cardeiro_2.0.sol\":1802:1863  if (isHalvingDue()) {... */\n      iszero\n      tag_207\n      jumpi\n        /* \"contracts/Cardeiro_2.0.sol\":1836:1852  executeHalving() */\n      tag_207\n        /* \"contracts/Cardeiro_2.0.sol\":1836:1850  executeHalving */\n      tag_166\n        /* \"contracts/Cardeiro_2.0.sol\":1836:1852  executeHalving() */\n      jump\t// in\n    tag_207:\n        /* \"contracts/Cardeiro_2.0.sol\":5701:5737  super.transferFrom(from, to, amount) */\n      tag_209\n        /* \"contracts/Cardeiro_2.0.sol\":5720:5724  from */\n      dup5\n        /* \"contracts/Cardeiro_2.0.sol\":5726:5728  to */\n      dup5\n        /* \"contracts/Cardeiro_2.0.sol\":5730:5736  amount */\n      dup5\n        /* \"contracts/Cardeiro_2.0.sol\":5701:5719  super.transferFrom */\n      tag_210\n        /* \"contracts/Cardeiro_2.0.sol\":5701:5737  super.transferFrom(from, to, amount) */\n      jump\t// in\n    tag_209:\n        /* \"contracts/Cardeiro_2.0.sol\":5694:5737  return super.transferFrom(from, to, amount) */\n      swap5\n        /* \"contracts/Cardeiro_2.0.sol\":5525:5744  function transferFrom(address from, address to, uint256 amount)... */\n      swap4\n      pop\n      pop\n      pop\n      pop\n      jump\t// out\n        /* \"@openzeppelin/contracts/token/ERC20/extensions/ERC20Burnable.sol\":618:705  function burn(uint256 value) public virtual {... */\n    tag_96:\n        /* \"@openzeppelin/contracts/token/ERC20/extensions/ERC20Burnable.sol\":672:698  _burn(_msgSender(), value) */\n      tag_213\n        /* \"@openzeppelin/contracts/utils/Context.sol\":735:745  msg.sender */\n      caller\n        /* \"@openzeppelin/contracts/token/ERC20/extensions/ERC20Burnable.sol\":692:697  value */\n      dup3\n        /* \"@openzeppelin/contracts/token/ERC20/extensions/ERC20Burnable.sol\":672:677  _burn */\n      tag_215\n        /* \"@openzeppelin/contracts/token/ERC20/extensions/ERC20Burnable.sol\":672:698  _burn(_msgSender(), value) */\n      jump\t// in\n    tag_213:\n        /* \"@openzeppelin/contracts/token/ERC20/extensions/ERC20Burnable.sol\":618:705  function burn(uint256 value) public virtual {... */\n      pop\n      jump\t// out\n        /* \"@openzeppelin/contracts/access/Ownable.sol\":2293:2394  function renounceOwnership() public virtual onlyOwner {... */\n    tag_112:\n        /* \"@openzeppelin/contracts/access/Ownable.sol\":1531:1544  _checkOwner() */\n      tag_218\n        /* \"@openzeppelin/contracts/access/Ownable.sol\":1531:1542  _checkOwner */\n      tag_192\n        /* \"@openzeppelin/contracts/access/Ownable.sol\":1531:1544  _checkOwner() */\n      jump\t// in\n    tag_218:\n        /* \"@openzeppelin/contracts/access/Ownable.sol\":2357:2387  _transferOwnership(address(0)) */\n      tag_220\n        /* \"@openzeppelin/contracts/access/Ownable.sol\":2384:2385  0 */\n      0x00\n        /* \"@openzeppelin/contracts/access/Ownable.sol\":2357:2375  _transferOwnership */\n      tag_221\n        /* \"@openzeppelin/contracts/access/Ownable.sol\":2357:2387  _transferOwnership(address(0)) */\n      jump\t// in\n    tag_220:\n        /* \"@openzeppelin/contracts/access/Ownable.sol\":2293:2394  function renounceOwnership() public virtual onlyOwner {... */\n      jump\t// out\n        /* \"contracts/Cardeiro_2.0.sol\":3440:3567  function isHalvingDue() public view returns (bool) {... */\n    tag_115:\n        /* \"contracts/Cardeiro_2.0.sol\":3485:3489  bool */\n      0x00\n        /* \"contracts/Cardeiro_2.0.sol\":3545:3560  halvingInterval */\n      sload(0x08)\n        /* \"contracts/Cardeiro_2.0.sol\":3527:3542  lastHalvingTime */\n      sload(0x09)\n        /* \"contracts/Cardeiro_2.0.sol\":3527:3560  lastHalvingTime + halvingInterval */\n      tag_223\n      swap2\n      swap1\n      tag_201\n      jump\t// in\n    tag_223:\n        /* \"contracts/Cardeiro_2.0.sol\":3508:3523  block.timestamp */\n      timestamp\n        /* \"contracts/Cardeiro_2.0.sol\":3508:3560  block.timestamp >= lastHalvingTime + halvingInterval */\n      lt\n      iszero\n        /* \"contracts/Cardeiro_2.0.sol\":3501:3560  return block.timestamp >= lastHalvingTime + halvingInterval */\n      swap1\n      pop\n        /* \"contracts/Cardeiro_2.0.sol\":3440:3567  function isHalvingDue() public view returns (bool) {... */\n      swap1\n      jump\t// out\n        /* \"@openzeppelin/contracts/token/ERC20/extensions/ERC20Burnable.sol\":1021:1179  function burnFrom(address account, uint256 value) public virtual {... */\n    tag_120:\n        /* \"@openzeppelin/contracts/token/ERC20/extensions/ERC20Burnable.sol\":1096:1141  _spendAllowance(account, _msgSender(), value) */\n      tag_225\n        /* \"@openzeppelin/contracts/token/ERC20/extensions/ERC20Burnable.sol\":1112:1119  account */\n      dup3\n        /* \"@openzeppelin/contracts/utils/Context.sol\":735:745  msg.sender */\n      caller\n        /* \"@openzeppelin/contracts/token/ERC20/extensions/ERC20Burnable.sol\":1135:1140  value */\n      dup4\n        /* \"@openzeppelin/contracts/token/ERC20/extensions/ERC20Burnable.sol\":1096:1111  _spendAllowance */\n      tag_227\n        /* \"@openzeppelin/contracts/token/ERC20/extensions/ERC20Burnable.sol\":1096:1141  _spendAllowance(account, _msgSender(), value) */\n      jump\t// in\n    tag_225:\n        /* \"@openzeppelin/contracts/token/ERC20/extensions/ERC20Burnable.sol\":1151:1172  _burn(account, value) */\n      tag_228\n        /* \"@openzeppelin/contracts/token/ERC20/extensions/ERC20Burnable.sol\":1157:1164  account */\n      dup3\n        /* \"@openzeppelin/contracts/token/ERC20/extensions/ERC20Burnable.sol\":1166:1171  value */\n      dup3\n        /* \"@openzeppelin/contracts/token/ERC20/extensions/ERC20Burnable.sol\":1151:1156  _burn */\n      tag_215\n        /* \"@openzeppelin/contracts/token/ERC20/extensions/ERC20Burnable.sol\":1151:1172  _burn(account, value) */\n      jump\t// in\n    tag_228:\n        /* \"@openzeppelin/contracts/token/ERC20/extensions/ERC20Burnable.sol\":1021:1179  function burnFrom(address account, uint256 value) public virtual {... */\n      pop\n      pop\n      jump\t// out\n        /* \"contracts/Cardeiro_2.0.sol\":4877:4974  function updateTreasury(address _treasury) public onlyOwner {... */\n    tag_128:\n        /* \"@openzeppelin/contracts/access/Ownable.sol\":1531:1544  _checkOwner() */\n      tag_230\n        /* \"@openzeppelin/contracts/access/Ownable.sol\":1531:1542  _checkOwner */\n      tag_192\n        /* \"@openzeppelin/contracts/access/Ownable.sol\":1531:1544  _checkOwner() */\n      jump\t// in\n    tag_230:\n        /* \"contracts/Cardeiro_2.0.sol\":4947:4955  treasury */\n      0x07\n        /* \"contracts/Cardeiro_2.0.sol\":4947:4967  treasury = _treasury */\n      dup1\n      sload\n      not(sub(shl(0xa0, 0x01), 0x01))\n      and\n      sub(shl(0xa0, 0x01), 0x01)\n      swap3\n      swap1\n      swap3\n      and\n      swap2\n      swap1\n      swap2\n      or\n      swap1\n      sstore\n        /* \"contracts/Cardeiro_2.0.sol\":4877:4974  function updateTreasury(address _treasury) public onlyOwner {... */\n      jump\t// out\n        /* \"@openzeppelin/contracts/token/ERC20/ERC20.sol\":1981:2074  function symbol() public view virtual returns (string memory) {... */\n    tag_139:\n        /* \"@openzeppelin/contracts/token/ERC20/ERC20.sol\":2028:2041  string memory */\n      0x60\n        /* \"@openzeppelin/contracts/token/ERC20/ERC20.sol\":2060:2067  _symbol */\n      0x04\n        /* \"@openzeppelin/contracts/token/ERC20/ERC20.sol\":2053:2067  return _symbol */\n      dup1\n      sload\n      tag_172\n      swap1\n      tag_173\n      jump\t// in\n        /* \"contracts/Cardeiro_2.0.sol\":5328:5519  function transfer(address to, uint256 amount)... */\n    tag_144:\n        /* \"contracts/Cardeiro_2.0.sol\":5459:5463  bool */\n      0x00\n        /* \"contracts/Cardeiro_2.0.sol\":1806:1820  isHalvingDue() */\n      tag_240\n        /* \"contracts/Cardeiro_2.0.sol\":1806:1818  isHalvingDue */\n      tag_115\n        /* \"contracts/Cardeiro_2.0.sol\":1806:1820  isHalvingDue() */\n      jump\t// in\n    tag_240:\n        /* \"contracts/Cardeiro_2.0.sol\":1802:1863  if (isHalvingDue()) {... */\n      iszero\n      tag_242\n      jumpi\n        /* \"contracts/Cardeiro_2.0.sol\":1836:1852  executeHalving() */\n      tag_242\n        /* \"contracts/Cardeiro_2.0.sol\":1836:1850  executeHalving */\n      tag_166\n        /* \"contracts/Cardeiro_2.0.sol\":1836:1852  executeHalving() */\n      jump\t// in\n    tag_242:\n        /* \"contracts/Cardeiro_2.0.sol\":5486:5512  super.transfer(to, amount) */\n      tag_187\n        /* \"contracts/Cardeiro_2.0.sol\":5501:5503  to */\n      dup4\n        /* \"contracts/Cardeiro_2.0.sol\":5505:5511  amount */\n      dup4\n        /* \"contracts/Cardeiro_2.0.sol\":5486:5500  super.transfer */\n      tag_245\n        /* \"contracts/Cardeiro_2.0.sol\":5486:5512  super.transfer(to, amount) */\n      jump\t// in\n        /* \"contracts/Cardeiro_2.0.sol\":3631:4030  function updateHalvingParams(uint256 _halvingInterval, uint256 _halvingRate) public onlyOwner {... */\n    tag_150:\n        /* \"@openzeppelin/contracts/access/Ownable.sol\":1531:1544  _checkOwner() */\n      tag_247\n        /* \"@openzeppelin/contracts/access/Ownable.sol\":1531:1542  _checkOwner */\n      tag_192\n        /* \"@openzeppelin/contracts/access/Ownable.sol\":1531:1544  _checkOwner() */\n      jump\t// in\n    tag_247:\n        /* \"contracts/Cardeiro_2.0.sol\":813:814  5 */\n      0x05\n        /* \"contracts/Cardeiro_2.0.sol\":3743:3755  _halvingRate */\n      dup2\n        /* \"contracts/Cardeiro_2.0.sol\":3743:3775  _halvingRate >= MIN_HALVING_RATE */\n      lt\n      iszero\n        /* \"contracts/Cardeiro_2.0.sol\":3735:3800  require(_halvingRate >= MIN_HALVING_RATE, \"Halving rate too low\") */\n      tag_249\n      jumpi\n      mload(0x40)\n      shl(0xe5, 0x461bcd)\n      dup2\n      mstore\n        /* \"#utility.yul\":5702:5704   */\n      0x20\n        /* \"contracts/Cardeiro_2.0.sol\":3735:3800  require(_halvingRate >= MIN_HALVING_RATE, \"Halving rate too low\") */\n      0x04\n      dup3\n      add\n        /* \"#utility.yul\":5684:5705   */\n      mstore\n        /* \"#utility.yul\":5741:5743   */\n      0x14\n        /* \"#utility.yul\":5721:5739   */\n      0x24\n      dup3\n      add\n        /* \"#utility.yul\":5714:5744   */\n      mstore\n      shl(0x60, 0x48616c76696e67207261746520746f6f206c6f77)\n        /* \"#utility.yul\":5760:5778   */\n      0x44\n      dup3\n      add\n        /* \"#utility.yul\":5753:5803   */\n      mstore\n        /* \"#utility.yul\":5820:5838   */\n      0x64\n      add\n        /* \"contracts/Cardeiro_2.0.sol\":3735:3800  require(_halvingRate >= MIN_HALVING_RATE, \"Halving rate too low\") */\n      tag_40\n        /* \"#utility.yul\":5500:5844   */\n      jump\n        /* \"contracts/Cardeiro_2.0.sol\":3735:3800  require(_halvingRate >= MIN_HALVING_RATE, \"Halving rate too low\") */\n    tag_249:\n        /* \"contracts/Cardeiro_2.0.sol\":871:873  20 */\n      0x14\n        /* \"contracts/Cardeiro_2.0.sol\":3818:3830  _halvingRate */\n      dup2\n        /* \"contracts/Cardeiro_2.0.sol\":3818:3850  _halvingRate <= MAX_HALVING_RATE */\n      gt\n      iszero\n        /* \"contracts/Cardeiro_2.0.sol\":3810:3876  require(_halvingRate <= MAX_HALVING_RATE, \"Halving rate too high\") */\n      tag_252\n      jumpi\n      mload(0x40)\n      shl(0xe5, 0x461bcd)\n      dup2\n      mstore\n        /* \"#utility.yul\":6051:6053   */\n      0x20\n        /* \"contracts/Cardeiro_2.0.sol\":3810:3876  require(_halvingRate <= MAX_HALVING_RATE, \"Halving rate too high\") */\n      0x04\n      dup3\n      add\n        /* \"#utility.yul\":6033:6054   */\n      mstore\n        /* \"#utility.yul\":6090:6092   */\n      0x15\n        /* \"#utility.yul\":6070:6088   */\n      0x24\n      dup3\n      add\n        /* \"#utility.yul\":6063:6093   */\n      mstore\n      shl(0x5b, 0x090c2d8ecd2dcce40e4c2e8ca40e8dede40d0d2ced)\n        /* \"#utility.yul\":6109:6127   */\n      0x44\n      dup3\n      add\n        /* \"#utility.yul\":6102:6153   */\n      mstore\n        /* \"#utility.yul\":6170:6188   */\n      0x64\n      add\n        /* \"contracts/Cardeiro_2.0.sol\":3810:3876  require(_halvingRate <= MAX_HALVING_RATE, \"Halving rate too high\") */\n      tag_40\n        /* \"#utility.yul\":5849:6194   */\n      jump\n        /* \"contracts/Cardeiro_2.0.sol\":3810:3876  require(_halvingRate <= MAX_HALVING_RATE, \"Halving rate too high\") */\n    tag_252:\n        /* \"contracts/Cardeiro_2.0.sol\":3886:3901  halvingInterval */\n      0x08\n        /* \"contracts/Cardeiro_2.0.sol\":3886:3920  halvingInterval = _halvingInterval */\n      dup3\n      swap1\n      sstore\n        /* \"contracts/Cardeiro_2.0.sol\":3930:3941  halvingRate */\n      0x0a\n        /* \"contracts/Cardeiro_2.0.sol\":3930:3956  halvingRate = _halvingRate */\n      dup2\n      swap1\n      sstore\n        /* \"contracts/Cardeiro_2.0.sol\":3971:4023  HalvingParamsUpdated(_halvingInterval, _halvingRate) */\n      0x40\n      dup1\n      mload\n        /* \"#utility.yul\":6373:6398   */\n      dup4\n      dup2\n      mstore\n        /* \"#utility.yul\":6429:6431   */\n      0x20\n        /* \"#utility.yul\":6414:6432   */\n      dup2\n      add\n        /* \"#utility.yul\":6407:6441   */\n      dup4\n      swap1\n      mstore\n        /* \"contracts/Cardeiro_2.0.sol\":3971:4023  HalvingParamsUpdated(_halvingInterval, _halvingRate) */\n      0xe65c505ad7b35b79cd50dc2e97828069efb11f944f84f03a640c689d23faf727\n      swap2\n        /* \"#utility.yul\":6346:6364   */\n      add\n        /* \"contracts/Cardeiro_2.0.sol\":3971:4023  HalvingParamsUpdated(_halvingInterval, _halvingRate) */\n      mload(0x40)\n      dup1\n      swap2\n      sub\n      swap1\n      log1\n        /* \"contracts/Cardeiro_2.0.sol\":3631:4030  function updateHalvingParams(uint256 _halvingInterval, uint256 _halvingRate) public onlyOwner {... */\n      pop\n      pop\n      jump\t// out\n        /* \"contracts/Cardeiro_2.0.sol\":4451:4815  function confirmTreasuryUpdate() public onlyOwner {... */\n    tag_153:\n        /* \"@openzeppelin/contracts/access/Ownable.sol\":1531:1544  _checkOwner() */\n      tag_258\n        /* \"@openzeppelin/contracts/access/Ownable.sol\":1531:1542  _checkOwner */\n      tag_192\n        /* \"@openzeppelin/contracts/access/Ownable.sol\":1531:1544  _checkOwner() */\n      jump\t// in\n    tag_258:\n        /* \"contracts/Cardeiro_2.0.sol\":4538:4552  timelockExpiry */\n      sload(0x0b)\n        /* \"contracts/Cardeiro_2.0.sol\":4519:4534  block.timestamp */\n      timestamp\n        /* \"contracts/Cardeiro_2.0.sol\":4519:4552  block.timestamp >= timelockExpiry */\n      lt\n      iszero\n        /* \"contracts/Cardeiro_2.0.sol\":4511:4572  require(block.timestamp >= timelockExpiry, \"Timelock active\") */\n      tag_260\n      jumpi\n      mload(0x40)\n      shl(0xe5, 0x461bcd)\n      dup2\n      mstore\n        /* \"#utility.yul\":6654:6656   */\n      0x20\n        /* \"contracts/Cardeiro_2.0.sol\":4511:4572  require(block.timestamp >= timelockExpiry, \"Timelock active\") */\n      0x04\n      dup3\n      add\n        /* \"#utility.yul\":6636:6657   */\n      mstore\n        /* \"#utility.yul\":6693:6695   */\n      0x0f\n        /* \"#utility.yul\":6673:6691   */\n      0x24\n      dup3\n      add\n        /* \"#utility.yul\":6666:6696   */\n      mstore\n      shl(0x88, 0x54696d656c6f636b20616374697665)\n        /* \"#utility.yul\":6712:6730   */\n      0x44\n      dup3\n      add\n        /* \"#utility.yul\":6705:6750   */\n      mstore\n        /* \"#utility.yul\":6767:6785   */\n      0x64\n      add\n        /* \"contracts/Cardeiro_2.0.sol\":4511:4572  require(block.timestamp >= timelockExpiry, \"Timelock active\") */\n      tag_40\n        /* \"#utility.yul\":6452:6791   */\n      jump\n        /* \"contracts/Cardeiro_2.0.sol\":4511:4572  require(block.timestamp >= timelockExpiry, \"Timelock active\") */\n    tag_260:\n        /* \"contracts/Cardeiro_2.0.sol\":4590:4605  pendingTreasury */\n      and(sub(shl(0xa0, 0x01), 0x01), sload(0x0c))\n        /* \"contracts/Cardeiro_2.0.sol\":4582:4641  require(pendingTreasury != address(0), \"No pending update\") */\n      tag_263\n      jumpi\n      mload(0x40)\n      shl(0xe5, 0x461bcd)\n      dup2\n      mstore\n        /* \"#utility.yul\":6998:7000   */\n      0x20\n        /* \"contracts/Cardeiro_2.0.sol\":4582:4641  require(pendingTreasury != address(0), \"No pending update\") */\n      0x04\n      dup3\n      add\n        /* \"#utility.yul\":6980:7001   */\n      mstore\n        /* \"#utility.yul\":7037:7039   */\n      0x11\n        /* \"#utility.yul\":7017:7035   */\n      0x24\n      dup3\n      add\n        /* \"#utility.yul\":7010:7040   */\n      mstore\n      shl(0x78, 0x4e6f2070656e64696e6720757064617465)\n        /* \"#utility.yul\":7056:7074   */\n      0x44\n      dup3\n      add\n        /* \"#utility.yul\":7049:7096   */\n      mstore\n        /* \"#utility.yul\":7113:7131   */\n      0x64\n      add\n        /* \"contracts/Cardeiro_2.0.sol\":4582:4641  require(pendingTreasury != address(0), \"No pending update\") */\n      tag_40\n        /* \"#utility.yul\":6796:7137   */\n      jump\n        /* \"contracts/Cardeiro_2.0.sol\":4582:4641  require(pendingTreasury != address(0), \"No pending update\") */\n    tag_263:\n        /* \"contracts/Cardeiro_2.0.sol\":4673:4681  treasury */\n      0x07\n      dup1\n      sload\n        /* \"contracts/Cardeiro_2.0.sol\":4702:4717  pendingTreasury */\n      0x0c\n      dup1\n      sload\n      sub(shl(0xa0, 0x01), 0x01)\n      dup1\n      dup3\n      and\n      not(sub(shl(0xa0, 0x01), 0x01))\n        /* \"contracts/Cardeiro_2.0.sol\":4691:4717  treasury = pendingTreasury */\n      dup1\n      dup7\n      and\n      dup3\n      or\n      swap1\n      swap7\n      sstore\n        /* \"contracts/Cardeiro_2.0.sol\":4727:4755  pendingTreasury = address(0) */\n      swap5\n      swap1\n      swap2\n      and\n      swap1\n      swap2\n      sstore\n        /* \"contracts/Cardeiro_2.0.sol\":4770:4808  TreasuryUpdated(oldTreasury, treasury) */\n      0x40\n      dup1\n      mload\n        /* \"contracts/Cardeiro_2.0.sol\":4673:4681  treasury */\n      swap2\n      swap1\n      swap3\n      and\n        /* \"#utility.yul\":5369:5420   */\n      dup1\n      dup3\n      mstore\n        /* \"#utility.yul\":5451:5453   */\n      0x20\n        /* \"#utility.yul\":5436:5454   */\n      dup3\n      add\n        /* \"#utility.yul\":5429:5489   */\n      swap4\n      swap1\n      swap4\n      mstore\n        /* \"contracts/Cardeiro_2.0.sol\":4770:4808  TreasuryUpdated(oldTreasury, treasury) */\n      0x4ab5be82436d353e61ca18726e984e561f5c1cc7c6d38b29d2553c790434705a\n      swap2\n        /* \"#utility.yul\":5342:5360   */\n      add\n        /* \"contracts/Cardeiro_2.0.sol\":4770:4808  TreasuryUpdated(oldTreasury, treasury) */\n      tag_202\n        /* \"#utility.yul\":5195:5495   */\n      jump\n        /* \"contracts/Cardeiro_2.0.sol\":2838:3391  function executeHalving() public nonReentrant {... */\n    tag_166:\n        /* \"@openzeppelin/contracts/utils/ReentrancyGuard.sol\":2500:2521  _nonReentrantBefore() */\n      tag_269\n        /* \"@openzeppelin/contracts/utils/ReentrancyGuard.sol\":2500:2519  _nonReentrantBefore */\n      tag_270\n        /* \"@openzeppelin/contracts/utils/ReentrancyGuard.sol\":2500:2521  _nonReentrantBefore() */\n      jump\t// in\n    tag_269:\n        /* \"contracts/Cardeiro_2.0.sol\":2902:2919  _checkRateLimit() */\n      tag_272\n        /* \"contracts/Cardeiro_2.0.sol\":2902:2917  _checkRateLimit */\n      tag_273\n        /* \"contracts/Cardeiro_2.0.sol\":2902:2919  _checkRateLimit() */\n      jump\t// in\n    tag_272:\n        /* \"contracts/Cardeiro_2.0.sol\":2894:2943  require(_checkRateLimit(), \"Rate limit exceeded\") */\n      tag_274\n      jumpi\n      mload(0x40)\n      shl(0xe5, 0x461bcd)\n      dup2\n      mstore\n        /* \"#utility.yul\":7344:7346   */\n      0x20\n        /* \"contracts/Cardeiro_2.0.sol\":2894:2943  require(_checkRateLimit(), \"Rate limit exceeded\") */\n      0x04\n      dup3\n      add\n        /* \"#utility.yul\":7326:7347   */\n      mstore\n        /* \"#utility.yul\":7383:7385   */\n      0x13\n        /* \"#utility.yul\":7363:7381   */\n      0x24\n      dup3\n      add\n        /* \"#utility.yul\":7356:7386   */\n      mstore\n      shl(0x6a, 0x14985d19481b1a5b5a5d08195e18d959591959)\n        /* \"#utility.yul\":7402:7420   */\n      0x44\n      dup3\n      add\n        /* \"#utility.yul\":7395:7444   */\n      mstore\n        /* \"#utility.yul\":7461:7479   */\n      0x64\n      add\n        /* \"contracts/Cardeiro_2.0.sol\":2894:2943  require(_checkRateLimit(), \"Rate limit exceeded\") */\n      tag_40\n        /* \"#utility.yul\":7142:7485   */\n      jump\n        /* \"contracts/Cardeiro_2.0.sol\":2894:2943  require(_checkRateLimit(), \"Rate limit exceeded\") */\n    tag_274:\n        /* \"contracts/Cardeiro_2.0.sol\":2998:3013  halvingInterval */\n      sload(0x08)\n        /* \"contracts/Cardeiro_2.0.sol\":2980:2995  lastHalvingTime */\n      sload(0x09)\n        /* \"contracts/Cardeiro_2.0.sol\":2980:3013  lastHalvingTime + halvingInterval */\n      tag_277\n      swap2\n      swap1\n      tag_201\n      jump\t// in\n    tag_277:\n        /* \"contracts/Cardeiro_2.0.sol\":2961:2976  block.timestamp */\n      timestamp\n        /* \"contracts/Cardeiro_2.0.sol\":2961:3013  block.timestamp >= lastHalvingTime + halvingInterval */\n      lt\n      iszero\n        /* \"contracts/Cardeiro_2.0.sol\":2953:3027  require(block.timestamp >= lastHalvingTime + halvingInterval, \"Too early\") */\n      tag_278\n      jumpi\n      mload(0x40)\n      shl(0xe5, 0x461bcd)\n      dup2\n      mstore\n        /* \"#utility.yul\":7692:7694   */\n      0x20\n        /* \"contracts/Cardeiro_2.0.sol\":2953:3027  require(block.timestamp >= lastHalvingTime + halvingInterval, \"Too early\") */\n      0x04\n      dup3\n      add\n        /* \"#utility.yul\":7674:7695   */\n      mstore\n        /* \"#utility.yul\":7731:7732   */\n      0x09\n        /* \"#utility.yul\":7711:7729   */\n      0x24\n      dup3\n      add\n        /* \"#utility.yul\":7704:7733   */\n      mstore\n      shl(0xb8, 0x546f6f206561726c79)\n        /* \"#utility.yul\":7749:7767   */\n      0x44\n      dup3\n      add\n        /* \"#utility.yul\":7742:7781   */\n      mstore\n        /* \"#utility.yul\":7798:7816   */\n      0x64\n      add\n        /* \"contracts/Cardeiro_2.0.sol\":2953:3027  require(block.timestamp >= lastHalvingTime + halvingInterval, \"Too early\") */\n      tag_40\n        /* \"#utility.yul\":7490:7822   */\n      jump\n        /* \"contracts/Cardeiro_2.0.sol\":2953:3027  require(block.timestamp >= lastHalvingTime + halvingInterval, \"Too early\") */\n    tag_278:\n        /* \"contracts/Cardeiro_2.0.sol\":3074:3082  treasury */\n      and(sub(shl(0xa0, 0x01), 0x01), sload(0x07))\n        /* \"contracts/Cardeiro_2.0.sol\":3038:3061  uint256 treasuryBalance */\n      0x00\n        /* \"@openzeppelin/contracts/token/ERC20/ERC20.sol\":3095:3113  _balances[account] */\n      swap1\n      dup2\n      mstore\n      0x20\n      dup2\n      swap1\n      mstore\n      0x40\n      dup2\n      keccak256\n      sload\n        /* \"contracts/Cardeiro_2.0.sol\":3038:3083  uint256 treasuryBalance = balanceOf(treasury) */\n      swap1\n      pop\n        /* \"contracts/Cardeiro_2.0.sol\":3093:3111  uint256 burnAmount */\n      0x00\n        /* \"contracts/Cardeiro_2.0.sol\":3148:3151  100 */\n      0x64\n        /* \"contracts/Cardeiro_2.0.sol\":3133:3144  halvingRate */\n      sload(0x0a)\n        /* \"contracts/Cardeiro_2.0.sol\":3115:3130  treasuryBalance */\n      dup4\n        /* \"contracts/Cardeiro_2.0.sol\":3115:3144  treasuryBalance * halvingRate */\n      tag_282\n      swap2\n      swap1\n      tag_186\n      jump\t// in\n    tag_282:\n        /* \"contracts/Cardeiro_2.0.sol\":3114:3151  (treasuryBalance * halvingRate) / 100 */\n      tag_283\n      swap2\n      swap1\n      tag_188\n      jump\t// in\n    tag_283:\n        /* \"contracts/Cardeiro_2.0.sol\":3093:3151  uint256 burnAmount = (treasuryBalance * halvingRate) / 100 */\n      swap1\n      pop\n        /* \"contracts/Cardeiro_2.0.sol\":3166:3180  burnAmount > 0 */\n      dup1\n      iszero\n        /* \"contracts/Cardeiro_2.0.sol\":3162:3385  if (burnAmount > 0) {... */\n      tag_284\n      jumpi\n        /* \"contracts/Cardeiro_2.0.sol\":3202:3210  treasury */\n      sload(0x07)\n        /* \"contracts/Cardeiro_2.0.sol\":3196:3223  _burn(treasury, burnAmount) */\n      tag_285\n      swap1\n      sub(shl(0xa0, 0x01), 0x01)\n        /* \"contracts/Cardeiro_2.0.sol\":3202:3210  treasury */\n      and\n        /* \"contracts/Cardeiro_2.0.sol\":3212:3222  burnAmount */\n      dup3\n        /* \"contracts/Cardeiro_2.0.sol\":3196:3201  _burn */\n      tag_215\n        /* \"contracts/Cardeiro_2.0.sol\":3196:3223  _burn(treasury, burnAmount) */\n      jump\t// in\n    tag_285:\n        /* \"contracts/Cardeiro_2.0.sol\":3255:3270  block.timestamp */\n      timestamp\n        /* \"contracts/Cardeiro_2.0.sol\":3237:3252  lastHalvingTime */\n      0x09\n        /* \"contracts/Cardeiro_2.0.sol\":3237:3270  lastHalvingTime = block.timestamp */\n      dup2\n      swap1\n      sstore\n        /* \"contracts/Cardeiro_2.0.sol\":3284:3301  lastOperationTime */\n      0x0d\n        /* \"contracts/Cardeiro_2.0.sol\":3284:3319  lastOperationTime = block.timestamp */\n      dup2\n      swap1\n      sstore\n        /* \"contracts/Cardeiro_2.0.sol\":3338:3374  Halving(burnAmount, block.timestamp) */\n      0x40\n      dup1\n      mload\n        /* \"#utility.yul\":6373:6398   */\n      dup4\n      dup2\n      mstore\n        /* \"#utility.yul\":6429:6431   */\n      0x20\n        /* \"#utility.yul\":6414:6432   */\n      dup2\n      add\n        /* \"#utility.yul\":6407:6441   */\n      swap3\n      swap1\n      swap3\n      mstore\n        /* \"contracts/Cardeiro_2.0.sol\":3338:3374  Halving(burnAmount, block.timestamp) */\n      0x394823b0bcaf78cd8f5876a52c05dbab91512a05f5da2a31e239a11ab66d605f\n      swap2\n        /* \"#utility.yul\":6346:6364   */\n      add\n        /* \"contracts/Cardeiro_2.0.sol\":3338:3374  Halving(burnAmount, block.timestamp) */\n      mload(0x40)\n      dup1\n      swap2\n      sub\n      swap1\n      log1\n        /* \"contracts/Cardeiro_2.0.sol\":3162:3385  if (burnAmount > 0) {... */\n    tag_284:\n        /* \"contracts/Cardeiro_2.0.sol\":2884:3391  {... */\n      pop\n      pop\n        /* \"@openzeppelin/contracts/utils/ReentrancyGuard.sol\":2542:2562  _nonReentrantAfter() */\n      tag_220\n        /* \"@openzeppelin/contracts/utils/ReentrancyGuard.sol\":1857:1858  1 */\n      0x01\n        /* \"@openzeppelin/contracts/utils/ReentrancyGuard.sol\":3068:3075  _status */\n      0x06\n        /* \"@openzeppelin/contracts/utils/ReentrancyGuard.sol\":3068:3089  _status = NOT_ENTERED */\n      sstore\n        /* \"@openzeppelin/contracts/utils/ReentrancyGuard.sol\":2888:3096  function _nonReentrantAfter() private {... */\n      jump\n        /* \"@openzeppelin/contracts/access/Ownable.sol\":2543:2758  function transferOwnership(address newOwner) public virtual onlyOwner {... */\n    tag_170:\n        /* \"@openzeppelin/contracts/access/Ownable.sol\":1531:1544  _checkOwner() */\n      tag_290\n        /* \"@openzeppelin/contracts/access/Ownable.sol\":1531:1542  _checkOwner */\n      tag_192\n        /* \"@openzeppelin/contracts/access/Ownable.sol\":1531:1544  _checkOwner() */\n      jump\t// in\n    tag_290:\n      sub(shl(0xa0, 0x01), 0x01)\n        /* \"@openzeppelin/contracts/access/Ownable.sol\":2627:2649  newOwner == address(0) */\n      dup2\n      and\n        /* \"@openzeppelin/contracts/access/Ownable.sol\":2623:2714  if (newOwner == address(0)) {... */\n      tag_292\n      jumpi\n        /* \"@openzeppelin/contracts/access/Ownable.sol\":2672:2703  OwnableInvalidOwner(address(0)) */\n      mload(0x40)\n      shl(0xe0, 0x1e4fbdf7)\n      dup2\n      mstore\n        /* \"@openzeppelin/contracts/access/Ownable.sol\":2700:2701  0 */\n      0x00\n        /* \"@openzeppelin/contracts/access/Ownable.sol\":2672:2703  OwnableInvalidOwner(address(0)) */\n      0x04\n      dup3\n      add\n        /* \"#utility.yul\":2595:2646   */\n      mstore\n        /* \"#utility.yul\":2568:2586   */\n      0x24\n      add\n        /* \"@openzeppelin/contracts/access/Ownable.sol\":2672:2703  OwnableInvalidOwner(address(0)) */\n      tag_40\n        /* \"#utility.yul\":2449:2652   */\n      jump\n        /* \"@openzeppelin/contracts/access/Ownable.sol\":2623:2714  if (newOwner == address(0)) {... */\n    tag_292:\n        /* \"@openzeppelin/contracts/access/Ownable.sol\":2723:2751  _transferOwnership(newOwner) */\n      tag_213\n        /* \"@openzeppelin/contracts/access/Ownable.sol\":2742:2750  newOwner */\n      dup2\n        /* \"@openzeppelin/contracts/access/Ownable.sol\":2723:2741  _transferOwnership */\n      tag_221\n        /* \"@openzeppelin/contracts/access/Ownable.sol\":2723:2751  _transferOwnership(newOwner) */\n      jump\t// in\n        /* \"@openzeppelin/contracts/token/ERC20/ERC20.sol\":8726:8854  function _approve(address owner, address spender, uint256 value) internal {... */\n    tag_182:\n        /* \"@openzeppelin/contracts/token/ERC20/ERC20.sol\":8810:8847  _approve(owner, spender, value, true) */\n      tag_297\n        /* \"@openzeppelin/contracts/token/ERC20/ERC20.sol\":8819:8824  owner */\n      dup4\n        /* \"@openzeppelin/contracts/token/ERC20/ERC20.sol\":8826:8833  spender */\n      dup4\n        /* \"@openzeppelin/contracts/token/ERC20/ERC20.sol\":8835:8840  value */\n      dup4\n        /* \"@openzeppelin/contracts/token/ERC20/ERC20.sol\":8842:8846  true */\n      0x01\n        /* \"@openzeppelin/contracts/token/ERC20/ERC20.sol\":8810:8818  _approve */\n      tag_298\n        /* \"@openzeppelin/contracts/token/ERC20/ERC20.sol\":8810:8847  _approve(owner, spender, value, true) */\n      jump\t// in\n    tag_297:\n        /* \"@openzeppelin/contracts/token/ERC20/ERC20.sol\":8726:8854  function _approve(address owner, address spender, uint256 value) internal {... */\n      pop\n      pop\n      pop\n      jump\t// out\n        /* \"@openzeppelin/contracts/access/Ownable.sol\":1796:1958  function _checkOwner() internal view virtual {... */\n    tag_192:\n        /* \"@openzeppelin/contracts/access/Ownable.sol\":1710:1716  _owner */\n      and(sub(shl(0xa0, 0x01), 0x01), sload(0x05))\n        /* \"@openzeppelin/contracts/utils/Context.sol\":735:745  msg.sender */\n      caller\n        /* \"@openzeppelin/contracts/access/Ownable.sol\":1855:1878  owner() != _msgSender() */\n      eq\n        /* \"@openzeppelin/contracts/access/Ownable.sol\":1851:1952  if (owner() != _msgSender()) {... */\n      tag_220\n      jumpi\n        /* \"@openzeppelin/contracts/access/Ownable.sol\":1901:1941  OwnableUnauthorizedAccount(_msgSender()) */\n      mload(0x40)\n      shl(0xe0, 0x118cdaa7)\n      dup2\n      mstore\n        /* \"@openzeppelin/contracts/utils/Context.sol\":735:745  msg.sender */\n      caller\n        /* \"@openzeppelin/contracts/access/Ownable.sol\":1901:1941  OwnableUnauthorizedAccount(_msgSender()) */\n      0x04\n      dup3\n      add\n        /* \"#utility.yul\":2595:2646   */\n      mstore\n        /* \"#utility.yul\":2568:2586   */\n      0x24\n      add\n        /* \"@openzeppelin/contracts/access/Ownable.sol\":1901:1941  OwnableUnauthorizedAccount(_msgSender()) */\n      tag_40\n        /* \"#utility.yul\":2449:2652   */\n      jump\n        /* \"@openzeppelin/contracts/token/ERC20/ERC20.sol\":4776:5020  function transferFrom(address from, address to, uint256 value) public virtual returns (bool) {... */\n    tag_210:\n        /* \"@openzeppelin/contracts/token/ERC20/ERC20.sol\":4863:4867  bool */\n      0x00\n        /* \"@openzeppelin/contracts/utils/Context.sol\":735:745  msg.sender */\n      caller\n        /* \"@openzeppelin/contracts/token/ERC20/ERC20.sol\":4919:4956  _spendAllowance(from, spender, value) */\n      tag_307\n        /* \"@openzeppelin/contracts/token/ERC20/ERC20.sol\":4935:4939  from */\n      dup6\n        /* \"@openzeppelin/contracts/utils/Context.sol\":735:745  msg.sender */\n      dup3\n        /* \"@openzeppelin/contracts/token/ERC20/ERC20.sol\":4950:4955  value */\n      dup6\n        /* \"@openzeppelin/contracts/token/ERC20/ERC20.sol\":4919:4934  _spendAllowance */\n      tag_227\n        /* \"@openzeppelin/contracts/token/ERC20/ERC20.sol\":4919:4956  _spendAllowance(from, spender, value) */\n      jump\t// in\n    tag_307:\n        /* \"@openzeppelin/contracts/token/ERC20/ERC20.sol\":4966:4992  _transfer(from, to, value) */\n      tag_308\n        /* \"@openzeppelin/contracts/token/ERC20/ERC20.sol\":4976:4980  from */\n      dup6\n        /* \"@openzeppelin/contracts/token/ERC20/ERC20.sol\":4982:4984  to */\n      dup6\n        /* \"@openzeppelin/contracts/token/ERC20/ERC20.sol\":4986:4991  value */\n      dup6\n        /* \"@openzeppelin/contracts/token/ERC20/ERC20.sol\":4966:4975  _transfer */\n      tag_309\n        /* \"@openzeppelin/contracts/token/ERC20/ERC20.sol\":4966:4992  _transfer(from, to, value) */\n      jump\t// in\n    tag_308:\n      pop\n        /* \"@openzeppelin/contracts/token/ERC20/ERC20.sol\":5009:5013  true */\n      0x01\n      swap5\n        /* \"@openzeppelin/contracts/token/ERC20/ERC20.sol\":4776:5020  function transferFrom(address from, address to, uint256 value) public virtual returns (bool) {... */\n      swap4\n      pop\n      pop\n      pop\n      pop\n      jump\t// out\n        /* \"@openzeppelin/contracts/token/ERC20/ERC20.sol\":7984:8190  function _burn(address account, uint256 value) internal {... */\n    tag_215:\n      sub(shl(0xa0, 0x01), 0x01)\n        /* \"@openzeppelin/contracts/token/ERC20/ERC20.sol\":8054:8075  account == address(0) */\n      dup3\n      and\n        /* \"@openzeppelin/contracts/token/ERC20/ERC20.sol\":8050:8139  if (account == address(0)) {... */\n      tag_311\n      jumpi\n        /* \"@openzeppelin/contracts/token/ERC20/ERC20.sol\":8098:8128  ERC20InvalidSender(address(0)) */\n      mload(0x40)\n      shl(0xe1, 0x4b637e8f)\n      dup2\n      mstore\n        /* \"@openzeppelin/contracts/token/ERC20/ERC20.sol\":8125:8126  0 */\n      0x00\n        /* \"@openzeppelin/contracts/token/ERC20/ERC20.sol\":8098:8128  ERC20InvalidSender(address(0)) */\n      0x04\n      dup3\n      add\n        /* \"#utility.yul\":2595:2646   */\n      mstore\n        /* \"#utility.yul\":2568:2586   */\n      0x24\n      add\n        /* \"@openzeppelin/contracts/token/ERC20/ERC20.sol\":8098:8128  ERC20InvalidSender(address(0)) */\n      tag_40\n        /* \"#utility.yul\":2449:2652   */\n      jump\n        /* \"@openzeppelin/contracts/token/ERC20/ERC20.sol\":8050:8139  if (account == address(0)) {... */\n    tag_311:\n        /* \"@openzeppelin/contracts/token/ERC20/ERC20.sol\":8148:8183  _update(account, address(0), value) */\n      tag_228\n        /* \"@openzeppelin/contracts/token/ERC20/ERC20.sol\":8156:8163  account */\n      dup3\n        /* \"@openzeppelin/contracts/token/ERC20/ERC20.sol\":8173:8174  0 */\n      0x00\n        /* \"@openzeppelin/contracts/token/ERC20/ERC20.sol\":8177:8182  value */\n      dup4\n        /* \"@openzeppelin/contracts/token/ERC20/ERC20.sol\":8148:8155  _update */\n      tag_314\n        /* \"@openzeppelin/contracts/token/ERC20/ERC20.sol\":8148:8183  _update(account, address(0), value) */\n      jump\t// in\n        /* \"@openzeppelin/contracts/access/Ownable.sol\":2912:3099  function _transferOwnership(address newOwner) internal virtual {... */\n    tag_221:\n        /* \"@openzeppelin/contracts/access/Ownable.sol\":3004:3010  _owner */\n      0x05\n      dup1\n      sload\n      sub(shl(0xa0, 0x01), 0x01)\n        /* \"@openzeppelin/contracts/access/Ownable.sol\":3020:3037  _owner = newOwner */\n      dup4\n      dup2\n      and\n      not(sub(shl(0xa0, 0x01), 0x01))\n      dup4\n      and\n      dup2\n      or\n      swap1\n      swap4\n      sstore\n        /* \"@openzeppelin/contracts/access/Ownable.sol\":3052:3092  OwnershipTransferred(oldOwner, newOwner) */\n      mload(0x40)\n        /* \"@openzeppelin/contracts/access/Ownable.sol\":3004:3010  _owner */\n      swap2\n      and\n      swap2\n        /* \"@openzeppelin/contracts/access/Ownable.sol\":3020:3037  _owner = newOwner */\n      swap1\n        /* \"@openzeppelin/contracts/access/Ownable.sol\":3004:3010  _owner */\n      dup3\n      swap1\n        /* \"@openzeppelin/contracts/access/Ownable.sol\":3052:3092  OwnershipTransferred(oldOwner, newOwner) */\n      0x8be0079c531659141344cd1fd0a4f28419497f9722a3daafe3b4186f6b6457e0\n      swap1\n        /* \"@openzeppelin/contracts/access/Ownable.sol\":2985:3001  address oldOwner */\n      0x00\n      swap1\n        /* \"@openzeppelin/contracts/access/Ownable.sol\":3052:3092  OwnershipTransferred(oldOwner, newOwner) */\n      log3\n        /* \"@openzeppelin/contracts/access/Ownable.sol\":2975:3099  {... */\n      pop\n        /* \"@openzeppelin/contracts/access/Ownable.sol\":2912:3099  function _transferOwnership(address newOwner) internal virtual {... */\n      pop\n      jump\t// out\n        /* \"@openzeppelin/contracts/token/ERC20/ERC20.sol\":10415:10891  function _spendAllowance(address owner, address spender, uint256 value) internal virtual {... */\n    tag_227:\n      sub(shl(0xa0, 0x01), 0x01)\n        /* \"@openzeppelin/contracts/token/ERC20/ERC20.sol\":3657:3675  _allowances[owner] */\n      dup4\n      dup2\n      and\n        /* \"@openzeppelin/contracts/token/ERC20/ERC20.sol\":10514:10538  uint256 currentAllowance */\n      0x00\n        /* \"@openzeppelin/contracts/token/ERC20/ERC20.sol\":3657:3675  _allowances[owner] */\n      swap1\n      dup2\n      mstore\n        /* \"@openzeppelin/contracts/token/ERC20/ERC20.sol\":3657:3668  _allowances */\n      0x01\n        /* \"@openzeppelin/contracts/token/ERC20/ERC20.sol\":3657:3675  _allowances[owner] */\n      0x20\n      swap1\n      dup2\n      mstore\n      0x40\n      dup1\n      dup4\n      keccak256\n        /* \"@openzeppelin/contracts/token/ERC20/ERC20.sol\":3657:3684  _allowances[owner][spender] */\n      swap4\n      dup7\n      and\n      dup4\n      mstore\n      swap3\n      swap1\n      mstore\n      keccak256\n      sload\n      not(0x00)\n        /* \"@openzeppelin/contracts/token/ERC20/ERC20.sol\":10580:10616  currentAllowance < type(uint256).max */\n      dup2\n      lt\n        /* \"@openzeppelin/contracts/token/ERC20/ERC20.sol\":10576:10885  if (currentAllowance < type(uint256).max) {... */\n      iszero\n      tag_322\n      jumpi\n        /* \"@openzeppelin/contracts/token/ERC20/ERC20.sol\":10655:10660  value */\n      dup2\n        /* \"@openzeppelin/contracts/token/ERC20/ERC20.sol\":10636:10652  currentAllowance */\n      dup2\n        /* \"@openzeppelin/contracts/token/ERC20/ERC20.sol\":10636:10660  currentAllowance < value */\n      lt\n        /* \"@openzeppelin/contracts/token/ERC20/ERC20.sol\":10632:10762  if (currentAllowance < value) {... */\n      iszero\n      tag_319\n      jumpi\n        /* \"@openzeppelin/contracts/token/ERC20/ERC20.sol\":10687:10747  ERC20InsufficientAllowance(spender, currentAllowance, value) */\n      mload(0x40)\n      shl(0xe1, 0x7dc7a0d9)\n      dup2\n      mstore\n      sub(shl(0xa0, 0x01), 0x01)\n        /* \"#utility.yul\":8047:8079   */\n      dup5\n      and\n        /* \"@openzeppelin/contracts/token/ERC20/ERC20.sol\":10687:10747  ERC20InsufficientAllowance(spender, currentAllowance, value) */\n      0x04\n      dup3\n      add\n        /* \"#utility.yul\":8029:8080   */\n      mstore\n        /* \"#utility.yul\":8096:8114   */\n      0x24\n      dup2\n      add\n        /* \"#utility.yul\":8089:8123   */\n      dup3\n      swap1\n      mstore\n        /* \"#utility.yul\":8139:8157   */\n      0x44\n      dup2\n      add\n        /* \"#utility.yul\":8132:8166   */\n      dup4\n      swap1\n      mstore\n        /* \"#utility.yul\":8002:8020   */\n      0x64\n      add\n        /* \"@openzeppelin/contracts/token/ERC20/ERC20.sol\":10687:10747  ERC20InsufficientAllowance(spender, currentAllowance, value) */\n      tag_40\n        /* \"#utility.yul\":7827:8172   */\n      jump\n        /* \"@openzeppelin/contracts/token/ERC20/ERC20.sol\":10632:10762  if (currentAllowance < value) {... */\n    tag_319:\n        /* \"@openzeppelin/contracts/token/ERC20/ERC20.sol\":10803:10860  _approve(owner, spender, currentAllowance - value, false) */\n      tag_322\n        /* \"@openzeppelin/contracts/token/ERC20/ERC20.sol\":10812:10817  owner */\n      dup5\n        /* \"@openzeppelin/contracts/token/ERC20/ERC20.sol\":10819:10826  spender */\n      dup5\n        /* \"@openzeppelin/contracts/token/ERC20/ERC20.sol\":10847:10852  value */\n      dup5\n        /* \"@openzeppelin/contracts/token/ERC20/ERC20.sol\":10828:10844  currentAllowance */\n      dup5\n        /* \"@openzeppelin/contracts/token/ERC20/ERC20.sol\":10828:10852  currentAllowance - value */\n      sub\n        /* \"@openzeppelin/contracts/token/ERC20/ERC20.sol\":10854:10859  false */\n      0x00\n        /* \"@openzeppelin/contracts/token/ERC20/ERC20.sol\":10803:10811  _approve */\n      tag_298\n        /* \"@openzeppelin/contracts/token/ERC20/ERC20.sol\":10803:10860  _approve(owner, spender, currentAllowance - value, false) */\n      jump\t// in\n    tag_322:\n        /* \"@openzeppelin/contracts/token/ERC20/ERC20.sol\":10504:10891  {... */\n      pop\n        /* \"@openzeppelin/contracts/token/ERC20/ERC20.sol\":10415:10891  function _spendAllowance(address owner, address spender, uint256 value) internal virtual {... */\n      pop\n      pop\n      pop\n      jump\t// out\n        /* \"@openzeppelin/contracts/token/ERC20/ERC20.sol\":3315:3493  function transfer(address to, uint256 value) public virtual returns (bool) {... */\n    tag_245:\n        /* \"@openzeppelin/contracts/token/ERC20/ERC20.sol\":3384:3388  bool */\n      0x00\n        /* \"@openzeppelin/contracts/utils/Context.sol\":735:745  msg.sender */\n      caller\n        /* \"@openzeppelin/contracts/token/ERC20/ERC20.sol\":3438:3465  _transfer(owner, to, value) */\n      tag_181\n        /* \"@openzeppelin/contracts/utils/Context.sol\":735:745  msg.sender */\n      dup2\n        /* \"@openzeppelin/contracts/token/ERC20/ERC20.sol\":3455:3457  to */\n      dup6\n        /* \"@openzeppelin/contracts/token/ERC20/ERC20.sol\":3459:3464  value */\n      dup6\n        /* \"@openzeppelin/contracts/token/ERC20/ERC20.sol\":3438:3447  _transfer */\n      tag_309\n        /* \"@openzeppelin/contracts/token/ERC20/ERC20.sol\":3438:3465  _transfer(owner, to, value) */\n      jump\t// in\n        /* \"@openzeppelin/contracts/utils/ReentrancyGuard.sol\":2575:2882  function _nonReentrantBefore() private {... */\n    tag_270:\n        /* \"@openzeppelin/contracts/utils/ReentrancyGuard.sol\":1899:1900  2 */\n      0x02\n        /* \"@openzeppelin/contracts/utils/ReentrancyGuard.sol\":2702:2709  _status */\n      sload(0x06)\n        /* \"@openzeppelin/contracts/utils/ReentrancyGuard.sol\":2702:2720  _status == ENTERED */\n      sub\n        /* \"@openzeppelin/contracts/utils/ReentrancyGuard.sol\":2698:2784  if (_status == ENTERED) {... */\n      tag_327\n      jumpi\n        /* \"@openzeppelin/contracts/utils/ReentrancyGuard.sol\":2743:2773  ReentrancyGuardReentrantCall() */\n      mload(0x40)\n      shl(0xe0, 0x3ee5aeb5)\n      dup2\n      mstore\n      0x04\n      add\n      mload(0x40)\n      dup1\n      swap2\n      sub\n      swap1\n      revert\n        /* \"@openzeppelin/contracts/utils/ReentrancyGuard.sol\":2698:2784  if (_status == ENTERED) {... */\n    tag_327:\n        /* \"@openzeppelin/contracts/utils/ReentrancyGuard.sol\":1899:1900  2 */\n      0x02\n        /* \"@openzeppelin/contracts/utils/ReentrancyGuard.sol\":2858:2865  _status */\n      0x06\n        /* \"@openzeppelin/contracts/utils/ReentrancyGuard.sol\":2858:2875  _status = ENTERED */\n      sstore\n        /* \"@openzeppelin/contracts/utils/ReentrancyGuard.sol\":2575:2882  function _nonReentrantBefore() private {... */\n      jump\t// out\n        /* \"contracts/Cardeiro_2.0.sol\":5001:5138  function _checkRateLimit() private view returns (bool) {... */\n    tag_273:\n        /* \"contracts/Cardeiro_2.0.sol\":5050:5054  bool */\n      0x00\n        /* \"contracts/Cardeiro_2.0.sol\":1467:1474  1 hours */\n      0x0e10\n        /* \"contracts/Cardeiro_2.0.sol\":5092:5109  lastOperationTime */\n      sload(0x0d)\n        /* \"contracts/Cardeiro_2.0.sol\":5092:5131  lastOperationTime + RATE_LIMIT_INTERVAL */\n      tag_223\n      swap2\n      swap1\n      tag_201\n      jump\t// in\n        /* \"@openzeppelin/contracts/token/ERC20/ERC20.sol\":9701:10133  function _approve(address owner, address spender, uint256 value, bool emitEvent) internal virtual {... */\n    tag_298:\n      sub(shl(0xa0, 0x01), 0x01)\n        /* \"@openzeppelin/contracts/token/ERC20/ERC20.sol\":9813:9832  owner == address(0) */\n      dup5\n      and\n        /* \"@openzeppelin/contracts/token/ERC20/ERC20.sol\":9809:9898  if (owner == address(0)) {... */\n      tag_332\n      jumpi\n        /* \"@openzeppelin/contracts/token/ERC20/ERC20.sol\":9855:9887  ERC20InvalidApprover(address(0)) */\n      mload(0x40)\n      shl(0xe0, 0xe602df05)\n      dup2\n      mstore\n        /* \"@openzeppelin/contracts/token/ERC20/ERC20.sol\":9884:9885  0 */\n      0x00\n        /* \"@openzeppelin/contracts/token/ERC20/ERC20.sol\":9855:9887  ERC20InvalidApprover(address(0)) */\n      0x04\n      dup3\n      add\n        /* \"#utility.yul\":2595:2646   */\n      mstore\n        /* \"#utility.yul\":2568:2586   */\n      0x24\n      add\n        /* \"@openzeppelin/contracts/token/ERC20/ERC20.sol\":9855:9887  ERC20InvalidApprover(address(0)) */\n      tag_40\n        /* \"#utility.yul\":2449:2652   */\n      jump\n        /* \"@openzeppelin/contracts/token/ERC20/ERC20.sol\":9809:9898  if (owner == address(0)) {... */\n    tag_332:\n      sub(shl(0xa0, 0x01), 0x01)\n        /* \"@openzeppelin/contracts/token/ERC20/ERC20.sol\":9911:9932  spender == address(0) */\n      dup4\n      and\n        /* \"@openzeppelin/contracts/token/ERC20/ERC20.sol\":9907:9997  if (spender == address(0)) {... */\n      tag_334\n      jumpi\n        /* \"@openzeppelin/contracts/token/ERC20/ERC20.sol\":9955:9986  ERC20InvalidSpender(address(0)) */\n      mload(0x40)\n      shl(0xe1, 0x4a1406b1)\n      dup2\n      mstore\n        /* \"@openzeppelin/contracts/token/ERC20/ERC20.sol\":9983:9984  0 */\n      0x00\n        /* \"@openzeppelin/contracts/token/ERC20/ERC20.sol\":9955:9986  ERC20InvalidSpender(address(0)) */\n      0x04\n      dup3\n      add\n        /* \"#utility.yul\":2595:2646   */\n      mstore\n        /* \"#utility.yul\":2568:2586   */\n      0x24\n      add\n        /* \"@openzeppelin/contracts/token/ERC20/ERC20.sol\":9955:9986  ERC20InvalidSpender(address(0)) */\n      tag_40\n        /* \"#utility.yul\":2449:2652   */\n      jump\n        /* \"@openzeppelin/contracts/token/ERC20/ERC20.sol\":9907:9997  if (spender == address(0)) {... */\n    tag_334:\n      sub(shl(0xa0, 0x01), 0x01)\n        /* \"@openzeppelin/contracts/token/ERC20/ERC20.sol\":10006:10024  _allowances[owner] */\n      dup1\n      dup6\n      and\n      0x00\n      swap1\n      dup2\n      mstore\n        /* \"@openzeppelin/contracts/token/ERC20/ERC20.sol\":10006:10017  _allowances */\n      0x01\n        /* \"@openzeppelin/contracts/token/ERC20/ERC20.sol\":10006:10024  _allowances[owner] */\n      0x20\n      swap1\n      dup2\n      mstore\n      0x40\n      dup1\n      dup4\n      keccak256\n        /* \"@openzeppelin/contracts/token/ERC20/ERC20.sol\":10006:10033  _allowances[owner][spender] */\n      swap4\n      dup8\n      and\n      dup4\n      mstore\n      swap3\n      swap1\n      mstore\n      keccak256\n        /* \"@openzeppelin/contracts/token/ERC20/ERC20.sol\":10006:10041  _allowances[owner][spender] = value */\n      dup3\n      swap1\n      sstore\n        /* \"@openzeppelin/contracts/token/ERC20/ERC20.sol\":10051:10127  if (emitEvent) {... */\n      dup1\n      iszero\n      tag_322\n      jumpi\n        /* \"@openzeppelin/contracts/token/ERC20/ERC20.sol\":10101:10108  spender */\n      dup3\n      sub(shl(0xa0, 0x01), 0x01)\n        /* \"@openzeppelin/contracts/token/ERC20/ERC20.sol\":10085:10116  Approval(owner, spender, value) */\n      and\n        /* \"@openzeppelin/contracts/token/ERC20/ERC20.sol\":10094:10099  owner */\n      dup5\n      sub(shl(0xa0, 0x01), 0x01)\n        /* \"@openzeppelin/contracts/token/ERC20/ERC20.sol\":10085:10116  Approval(owner, spender, value) */\n      and\n      0x8c5be1e5ebec7d5bd14f71427d1e84f3dd0314c0f7b2291e5b200ac8c7c3b925\n        /* \"@openzeppelin/contracts/token/ERC20/ERC20.sol\":10110:10115  value */\n      dup5\n        /* \"@openzeppelin/contracts/token/ERC20/ERC20.sol\":10085:10116  Approval(owner, spender, value) */\n      mload(0x40)\n      tag_337\n      swap2\n        /* \"#utility.yul\":1843:1868   */\n      dup2\n      mstore\n        /* \"#utility.yul\":1831:1833   */\n      0x20\n        /* \"#utility.yul\":1816:1834   */\n      add\n      swap1\n        /* \"#utility.yul\":1697:1874   */\n      jump\n        /* \"@openzeppelin/contracts/token/ERC20/ERC20.sol\":10085:10116  Approval(owner, spender, value) */\n    tag_337:\n      mload(0x40)\n      dup1\n      swap2\n      sub\n      swap1\n      log3\n        /* \"@openzeppelin/contracts/token/ERC20/ERC20.sol\":9701:10133  function _approve(address owner, address spender, uint256 value, bool emitEvent) internal virtual {... */\n      pop\n      pop\n      pop\n      pop\n      jump\t// out\n        /* \"@openzeppelin/contracts/token/ERC20/ERC20.sol\":5393:5693  function _transfer(address from, address to, uint256 value) internal {... */\n    tag_309:\n      sub(shl(0xa0, 0x01), 0x01)\n        /* \"@openzeppelin/contracts/token/ERC20/ERC20.sol\":5476:5494  from == address(0) */\n      dup4\n      and\n        /* \"@openzeppelin/contracts/token/ERC20/ERC20.sol\":5472:5558  if (from == address(0)) {... */\n      tag_339\n      jumpi\n        /* \"@openzeppelin/contracts/token/ERC20/ERC20.sol\":5517:5547  ERC20InvalidSender(address(0)) */\n      mload(0x40)\n      shl(0xe1, 0x4b637e8f)\n      dup2\n      mstore\n        /* \"@openzeppelin/contracts/token/ERC20/ERC20.sol\":5544:5545  0 */\n      0x00\n        /* \"@openzeppelin/contracts/token/ERC20/ERC20.sol\":5517:5547  ERC20InvalidSender(address(0)) */\n      0x04\n      dup3\n      add\n        /* \"#utility.yul\":2595:2646   */\n      mstore\n        /* \"#utility.yul\":2568:2586   */\n      0x24\n      add\n        /* \"@openzeppelin/contracts/token/ERC20/ERC20.sol\":5517:5547  ERC20InvalidSender(address(0)) */\n      tag_40\n        /* \"#utility.yul\":2449:2652   */\n      jump\n        /* \"@openzeppelin/contracts/token/ERC20/ERC20.sol\":5472:5558  if (from == address(0)) {... */\n    tag_339:\n      sub(shl(0xa0, 0x01), 0x01)\n        /* \"@openzeppelin/contracts/token/ERC20/ERC20.sol\":5571:5587  to == address(0) */\n      dup3\n      and\n        /* \"@openzeppelin/contracts/token/ERC20/ERC20.sol\":5567:5653  if (to == address(0)) {... */\n      tag_341\n      jumpi\n        /* \"@openzeppelin/contracts/token/ERC20/ERC20.sol\":5610:5642  ERC20InvalidReceiver(address(0)) */\n      mload(0x40)\n      shl(0xe0, 0xec442f05)\n      dup2\n      mstore\n        /* \"@openzeppelin/contracts/token/ERC20/ERC20.sol\":5639:5640  0 */\n      0x00\n        /* \"@openzeppelin/contracts/token/ERC20/ERC20.sol\":5610:5642  ERC20InvalidReceiver(address(0)) */\n      0x04\n      dup3\n      add\n        /* \"#utility.yul\":2595:2646   */\n      mstore\n        /* \"#utility.yul\":2568:2586   */\n      0x24\n      add\n        /* \"@openzeppelin/contracts/token/ERC20/ERC20.sol\":5610:5642  ERC20InvalidReceiver(address(0)) */\n      tag_40\n        /* \"#utility.yul\":2449:2652   */\n      jump\n        /* \"@openzeppelin/contracts/token/ERC20/ERC20.sol\":5567:5653  if (to == address(0)) {... */\n    tag_341:\n        /* \"@openzeppelin/contracts/token/ERC20/ERC20.sol\":5662:5686  _update(from, to, value) */\n      tag_297\n        /* \"@openzeppelin/contracts/token/ERC20/ERC20.sol\":5670:5674  from */\n      dup4\n        /* \"@openzeppelin/contracts/token/ERC20/ERC20.sol\":5676:5678  to */\n      dup4\n        /* \"@openzeppelin/contracts/token/ERC20/ERC20.sol\":5680:5685  value */\n      dup4\n        /* \"@openzeppelin/contracts/token/ERC20/ERC20.sol\":6008:7115  function _update(address from, address to, uint256 value) internal virtual {... */\n    tag_314:\n      sub(shl(0xa0, 0x01), 0x01)\n        /* \"@openzeppelin/contracts/token/ERC20/ERC20.sol\":6097:6115  from == address(0) */\n      dup4\n      and\n        /* \"@openzeppelin/contracts/token/ERC20/ERC20.sol\":6093:6633  if (from == address(0)) {... */\n      tag_345\n      jumpi\n        /* \"@openzeppelin/contracts/token/ERC20/ERC20.sol\":6249:6254  value */\n      dup1\n        /* \"@openzeppelin/contracts/token/ERC20/ERC20.sol\":6233:6245  _totalSupply */\n      0x02\n      0x00\n        /* \"@openzeppelin/contracts/token/ERC20/ERC20.sol\":6233:6254  _totalSupply += value */\n      dup3\n      dup3\n      sload\n      tag_346\n      swap2\n      swap1\n      tag_201\n      jump\t// in\n    tag_346:\n      swap1\n      swap2\n      sstore\n      pop\n        /* \"@openzeppelin/contracts/token/ERC20/ERC20.sol\":6093:6633  if (from == address(0)) {... */\n      tag_347\n      swap1\n      pop\n      jump\n    tag_345:\n      sub(shl(0xa0, 0x01), 0x01)\n        /* \"@openzeppelin/contracts/token/ERC20/ERC20.sol\":6307:6322  _balances[from] */\n      dup4\n      and\n        /* \"@openzeppelin/contracts/token/ERC20/ERC20.sol\":6285:6304  uint256 fromBalance */\n      0x00\n        /* \"@openzeppelin/contracts/token/ERC20/ERC20.sol\":6307:6322  _balances[from] */\n      swap1\n      dup2\n      mstore\n      0x20\n      dup2\n      swap1\n      mstore\n      0x40\n      swap1\n      keccak256\n      sload\n        /* \"@openzeppelin/contracts/token/ERC20/ERC20.sol\":6340:6359  fromBalance < value */\n      dup2\n      dup2\n      lt\n        /* \"@openzeppelin/contracts/token/ERC20/ERC20.sol\":6336:6451  if (fromBalance < value) {... */\n      iszero\n      tag_348\n      jumpi\n        /* \"@openzeppelin/contracts/token/ERC20/ERC20.sol\":6386:6436  ERC20InsufficientBalance(from, fromBalance, value) */\n      mload(0x40)\n      shl(0xe2, 0x391434e3)\n      dup2\n      mstore\n      sub(shl(0xa0, 0x01), 0x01)\n        /* \"#utility.yul\":8047:8079   */\n      dup6\n      and\n        /* \"@openzeppelin/contracts/token/ERC20/ERC20.sol\":6386:6436  ERC20InsufficientBalance(from, fromBalance, value) */\n      0x04\n      dup3\n      add\n        /* \"#utility.yul\":8029:8080   */\n      mstore\n        /* \"#utility.yul\":8096:8114   */\n      0x24\n      dup2\n      add\n        /* \"#utility.yul\":8089:8123   */\n      dup3\n      swap1\n      mstore\n        /* \"#utility.yul\":8139:8157   */\n      0x44\n      dup2\n      add\n        /* \"#utility.yul\":8132:8166   */\n      dup4\n      swap1\n      mstore\n        /* \"#utility.yul\":8002:8020   */\n      0x64\n      add\n        /* \"@openzeppelin/contracts/token/ERC20/ERC20.sol\":6386:6436  ERC20InsufficientBalance(from, fromBalance, value) */\n      tag_40\n        /* \"#utility.yul\":7827:8172   */\n      jump\n        /* \"@openzeppelin/contracts/token/ERC20/ERC20.sol\":6336:6451  if (fromBalance < value) {... */\n    tag_348:\n      sub(shl(0xa0, 0x01), 0x01)\n        /* \"@openzeppelin/contracts/token/ERC20/ERC20.sol\":6571:6586  _balances[from] */\n      dup5\n      and\n        /* \"@openzeppelin/contracts/token/ERC20/ERC20.sol\":6571:6580  _balances */\n      0x00\n        /* \"@openzeppelin/contracts/token/ERC20/ERC20.sol\":6571:6586  _balances[from] */\n      swap1\n      dup2\n      mstore\n      0x20\n      dup2\n      swap1\n      mstore\n      0x40\n      swap1\n      keccak256\n        /* \"@openzeppelin/contracts/token/ERC20/ERC20.sol\":6589:6608  fromBalance - value */\n      swap1\n      dup3\n      swap1\n      sub\n        /* \"@openzeppelin/contracts/token/ERC20/ERC20.sol\":6571:6608  _balances[from] = fromBalance - value */\n      swap1\n      sstore\n        /* \"@openzeppelin/contracts/token/ERC20/ERC20.sol\":6093:6633  if (from == address(0)) {... */\n    tag_347:\n      sub(shl(0xa0, 0x01), 0x01)\n        /* \"@openzeppelin/contracts/token/ERC20/ERC20.sol\":6647:6663  to == address(0) */\n      dup3\n      and\n        /* \"@openzeppelin/contracts/token/ERC20/ERC20.sol\":6643:7068  if (to == address(0)) {... */\n      tag_350\n      jumpi\n        /* \"@openzeppelin/contracts/token/ERC20/ERC20.sol\":6810:6822  _totalSupply */\n      0x02\n        /* \"@openzeppelin/contracts/token/ERC20/ERC20.sol\":6810:6831  _totalSupply -= value */\n      dup1\n      sload\n      dup3\n      swap1\n      sub\n      swap1\n      sstore\n        /* \"@openzeppelin/contracts/token/ERC20/ERC20.sol\":6643:7068  if (to == address(0)) {... */\n      jump(tag_351)\n    tag_350:\n      sub(shl(0xa0, 0x01), 0x01)\n        /* \"@openzeppelin/contracts/token/ERC20/ERC20.sol\":7021:7034  _balances[to] */\n      dup3\n      and\n        /* \"@openzeppelin/contracts/token/ERC20/ERC20.sol\":7021:7030  _balances */\n      0x00\n        /* \"@openzeppelin/contracts/token/ERC20/ERC20.sol\":7021:7034  _balances[to] */\n      swap1\n      dup2\n      mstore\n      0x20\n      dup2\n      swap1\n      mstore\n      0x40\n      swap1\n      keccak256\n        /* \"@openzeppelin/contracts/token/ERC20/ERC20.sol\":7021:7043  _balances[to] += value */\n      dup1\n      sload\n      dup3\n      add\n      swap1\n      sstore\n        /* \"@openzeppelin/contracts/token/ERC20/ERC20.sol\":6643:7068  if (to == address(0)) {... */\n    tag_351:\n        /* \"@openzeppelin/contracts/token/ERC20/ERC20.sol\":7098:7100  to */\n      dup2\n      sub(shl(0xa0, 0x01), 0x01)\n        /* \"@openzeppelin/contracts/token/ERC20/ERC20.sol\":7083:7108  Transfer(from, to, value) */\n      and\n        /* \"@openzeppelin/contracts/token/ERC20/ERC20.sol\":7092:7096  from */\n      dup4\n      sub(shl(0xa0, 0x01), 0x01)\n        /* \"@openzeppelin/contracts/token/ERC20/ERC20.sol\":7083:7108  Transfer(from, to, value) */\n      and\n      0xddf252ad1be2c89b69c2b068fc378daa952ba7f163c4a11628f55a4df523b3ef\n        /* \"@openzeppelin/contracts/token/ERC20/ERC20.sol\":7102:7107  value */\n      dup4\n        /* \"@openzeppelin/contracts/token/ERC20/ERC20.sol\":7083:7108  Transfer(from, to, value) */\n      mload(0x40)\n      tag_352\n      swap2\n        /* \"#utility.yul\":1843:1868   */\n      dup2\n      mstore\n        /* \"#utility.yul\":1831:1833   */\n      0x20\n        /* \"#utility.yul\":1816:1834   */\n      add\n      swap1\n        /* \"#utility.yul\":1697:1874   */\n      jump\n        /* \"@openzeppelin/contracts/token/ERC20/ERC20.sol\":7083:7108  Transfer(from, to, value) */\n    tag_352:\n      mload(0x40)\n      dup1\n      swap2\n      sub\n      swap1\n      log3\n        /* \"@openzeppelin/contracts/token/ERC20/ERC20.sol\":6008:7115  function _update(address from, address to, uint256 value) internal virtual {... */\n      pop\n      pop\n      pop\n      jump\t// out\n        /* \"#utility.yul\":368:786   */\n    tag_49:\n        /* \"#utility.yul\":517:519   */\n      0x20\n        /* \"#utility.yul\":506:515   */\n      dup2\n        /* \"#utility.yul\":499:520   */\n      mstore\n        /* \"#utility.yul\":480:484   */\n      0x00\n        /* \"#utility.yul\":549:555   */\n      dup3\n        /* \"#utility.yul\":543:556   */\n      mload\n        /* \"#utility.yul\":592:598   */\n      dup1\n        /* \"#utility.yul\":587:589   */\n      0x20\n        /* \"#utility.yul\":576:585   */\n      dup5\n        /* \"#utility.yul\":572:590   */\n      add\n        /* \"#utility.yul\":565:599   */\n      mstore\n        /* \"#utility.yul\":651:657   */\n      dup1\n        /* \"#utility.yul\":646:648   */\n      0x20\n        /* \"#utility.yul\":638:644   */\n      dup6\n        /* \"#utility.yul\":634:649   */\n      add\n        /* \"#utility.yul\":629:631   */\n      0x40\n        /* \"#utility.yul\":618:627   */\n      dup6\n        /* \"#utility.yul\":614:632   */\n      add\n        /* \"#utility.yul\":608:658   */\n      mcopy\n        /* \"#utility.yul\":707:708   */\n      0x00\n        /* \"#utility.yul\":702:704   */\n      0x40\n        /* \"#utility.yul\":693:699   */\n      dup3\n        /* \"#utility.yul\":682:691   */\n      dup6\n        /* \"#utility.yul\":678:700   */\n      add\n        /* \"#utility.yul\":674:705   */\n      add\n        /* \"#utility.yul\":667:709   */\n      mstore\n        /* \"#utility.yul\":777:779   */\n      0x40\n        /* \"#utility.yul\":770:772   */\n      0x1f\n        /* \"#utility.yul\":766:773   */\n      not\n        /* \"#utility.yul\":761:763   */\n      0x1f\n        /* \"#utility.yul\":753:759   */\n      dup4\n        /* \"#utility.yul\":749:764   */\n      add\n        /* \"#utility.yul\":745:774   */\n      and\n        /* \"#utility.yul\":734:743   */\n      dup5\n        /* \"#utility.yul\":730:775   */\n      add\n        /* \"#utility.yul\":726:780   */\n      add\n        /* \"#utility.yul\":718:780   */\n      swap2\n      pop\n      pop\n        /* \"#utility.yul\":368:786   */\n      swap3\n      swap2\n      pop\n      pop\n      jump\t// out\n        /* \"#utility.yul\":791:964   */\n    tag_353:\n        /* \"#utility.yul\":859:879   */\n      dup1\n      calldataload\n      sub(shl(0xa0, 0x01), 0x01)\n        /* \"#utility.yul\":908:939   */\n      dup2\n      and\n        /* \"#utility.yul\":898:940   */\n      dup2\n      eq\n        /* \"#utility.yul\":888:958   */\n      tag_359\n      jumpi\n        /* \"#utility.yul\":954:955   */\n      0x00\n        /* \"#utility.yul\":951:952   */\n      0x00\n        /* \"#utility.yul\":944:956   */\n      revert\n        /* \"#utility.yul\":888:958   */\n    tag_359:\n        /* \"#utility.yul\":791:964   */\n      swap2\n      swap1\n      pop\n      jump\t// out\n        /* \"#utility.yul\":969:1269   */\n    tag_53:\n        /* \"#utility.yul\":1037:1043   */\n      0x00\n        /* \"#utility.yul\":1045:1051   */\n      0x00\n        /* \"#utility.yul\":1098:1100   */\n      0x40\n        /* \"#utility.yul\":1086:1095   */\n      dup4\n        /* \"#utility.yul\":1077:1084   */\n      dup6\n        /* \"#utility.yul\":1073:1096   */\n      sub\n        /* \"#utility.yul\":1069:1101   */\n      slt\n        /* \"#utility.yul\":1066:1118   */\n      iszero\n      tag_361\n      jumpi\n        /* \"#utility.yul\":1114:1115   */\n      0x00\n        /* \"#utility.yul\":1111:1112   */\n      0x00\n        /* \"#utility.yul\":1104:1116   */\n      revert\n        /* \"#utility.yul\":1066:1118   */\n    tag_361:\n        /* \"#utility.yul\":1137:1166   */\n      tag_362\n        /* \"#utility.yul\":1156:1165   */\n      dup4\n        /* \"#utility.yul\":1137:1166   */\n      tag_353\n      jump\t// in\n    tag_362:\n        /* \"#utility.yul\":1127:1166   */\n      swap5\n        /* \"#utility.yul\":1235:1237   */\n      0x20\n        /* \"#utility.yul\":1220:1238   */\n      swap4\n      swap1\n      swap4\n      add\n        /* \"#utility.yul\":1207:1239   */\n      calldataload\n      swap4\n      pop\n      pop\n      pop\n        /* \"#utility.yul\":969:1269   */\n      jump\t// out\n        /* \"#utility.yul\":1466:1692   */\n    tag_60:\n        /* \"#utility.yul\":1525:1531   */\n      0x00\n        /* \"#utility.yul\":1578:1580   */\n      0x20\n        /* \"#utility.yul\":1566:1575   */\n      dup3\n        /* \"#utility.yul\":1557:1564   */\n      dup5\n        /* \"#utility.yul\":1553:1576   */\n      sub\n        /* \"#utility.yul\":1549:1581   */\n      slt\n        /* \"#utility.yul\":1546:1598   */\n      iszero\n      tag_365\n      jumpi\n        /* \"#utility.yul\":1594:1595   */\n      0x00\n        /* \"#utility.yul\":1591:1592   */\n      0x00\n        /* \"#utility.yul\":1584:1596   */\n      revert\n        /* \"#utility.yul\":1546:1598   */\n    tag_365:\n      pop\n        /* \"#utility.yul\":1639:1662   */\n      calldataload\n      swap2\n        /* \"#utility.yul\":1466:1692   */\n      swap1\n      pop\n      jump\t// out\n        /* \"#utility.yul\":1879:2065   */\n    tag_75:\n        /* \"#utility.yul\":1938:1944   */\n      0x00\n        /* \"#utility.yul\":1991:1993   */\n      0x20\n        /* \"#utility.yul\":1979:1988   */\n      dup3\n        /* \"#utility.yul\":1970:1977   */\n      dup5\n        /* \"#utility.yul\":1966:1989   */\n      sub\n        /* \"#utility.yul\":1962:1994   */\n      slt\n        /* \"#utility.yul\":1959:2011   */\n      iszero\n      tag_368\n      jumpi\n        /* \"#utility.yul\":2007:2008   */\n      0x00\n        /* \"#utility.yul\":2004:2005   */\n      0x00\n        /* \"#utility.yul\":1997:2009   */\n      revert\n        /* \"#utility.yul\":1959:2011   */\n    tag_368:\n        /* \"#utility.yul\":2030:2059   */\n      tag_187\n        /* \"#utility.yul\":2049:2058   */\n      dup3\n        /* \"#utility.yul\":2030:2059   */\n      tag_353\n      jump\t// in\n        /* \"#utility.yul\":2070:2444   */\n    tag_80:\n        /* \"#utility.yul\":2147:2153   */\n      0x00\n        /* \"#utility.yul\":2155:2161   */\n      0x00\n        /* \"#utility.yul\":2163:2169   */\n      0x00\n        /* \"#utility.yul\":2216:2218   */\n      0x60\n        /* \"#utility.yul\":2204:2213   */\n      dup5\n        /* \"#utility.yul\":2195:2202   */\n      dup7\n        /* \"#utility.yul\":2191:2214   */\n      sub\n        /* \"#utility.yul\":2187:2219   */\n      slt\n        /* \"#utility.yul\":2184:2236   */\n      iszero\n      tag_371\n      jumpi\n        /* \"#utility.yul\":2232:2233   */\n      0x00\n        /* \"#utility.yul\":2229:2230   */\n      0x00\n        /* \"#utility.yul\":2222:2234   */\n      revert\n        /* \"#utility.yul\":2184:2236   */\n    tag_371:\n        /* \"#utility.yul\":2255:2284   */\n      tag_372\n        /* \"#utility.yul\":2274:2283   */\n      dup5\n        /* \"#utility.yul\":2255:2284   */\n      tag_353\n      jump\t// in\n    tag_372:\n        /* \"#utility.yul\":2245:2284   */\n      swap3\n      pop\n        /* \"#utility.yul\":2303:2341   */\n      tag_373\n        /* \"#utility.yul\":2337:2339   */\n      0x20\n        /* \"#utility.yul\":2326:2335   */\n      dup6\n        /* \"#utility.yul\":2322:2340   */\n      add\n        /* \"#utility.yul\":2303:2341   */\n      tag_353\n      jump\t// in\n    tag_373:\n        /* \"#utility.yul\":2070:2444   */\n      swap3\n      swap6\n        /* \"#utility.yul\":2293:2341   */\n      swap3\n      swap5\n      pop\n      pop\n      pop\n        /* \"#utility.yul\":2410:2412   */\n      0x40\n        /* \"#utility.yul\":2395:2413   */\n      swap2\n      swap1\n      swap2\n      add\n        /* \"#utility.yul\":2382:2414   */\n      calldataload\n      swap1\n        /* \"#utility.yul\":2070:2444   */\n      jump\t// out\n        /* \"#utility.yul\":2846:3192   */\n    tag_149:\n        /* \"#utility.yul\":2914:2920   */\n      0x00\n        /* \"#utility.yul\":2922:2928   */\n      0x00\n        /* \"#utility.yul\":2975:2977   */\n      0x40\n        /* \"#utility.yul\":2963:2972   */\n      dup4\n        /* \"#utility.yul\":2954:2961   */\n      dup6\n        /* \"#utility.yul\":2950:2973   */\n      sub\n        /* \"#utility.yul\":2946:2978   */\n      slt\n        /* \"#utility.yul\":2943:2995   */\n      iszero\n      tag_377\n      jumpi\n        /* \"#utility.yul\":2991:2992   */\n      0x00\n        /* \"#utility.yul\":2988:2989   */\n      0x00\n        /* \"#utility.yul\":2981:2993   */\n      revert\n        /* \"#utility.yul\":2943:2995   */\n    tag_377:\n      pop\n      pop\n        /* \"#utility.yul\":3036:3059   */\n      dup1\n      calldataload\n      swap3\n        /* \"#utility.yul\":3156:3158   */\n      0x20\n        /* \"#utility.yul\":3141:3159   */\n      swap1\n      swap2\n      add\n        /* \"#utility.yul\":3128:3160   */\n      calldataload\n      swap2\n      pop\n        /* \"#utility.yul\":2846:3192   */\n      jump\t// out\n        /* \"#utility.yul\":3197:3457   */\n    tag_157:\n        /* \"#utility.yul\":3265:3271   */\n      0x00\n        /* \"#utility.yul\":3273:3279   */\n      0x00\n        /* \"#utility.yul\":3326:3328   */\n      0x40\n        /* \"#utility.yul\":3314:3323   */\n      dup4\n        /* \"#utility.yul\":3305:3312   */\n      dup6\n        /* \"#utility.yul\":3301:3324   */\n      sub\n        /* \"#utility.yul\":3297:3329   */\n      slt\n        /* \"#utility.yul\":3294:3346   */\n      iszero\n      tag_379\n      jumpi\n        /* \"#utility.yul\":3342:3343   */\n      0x00\n        /* \"#utility.yul\":3339:3340   */\n      0x00\n        /* \"#utility.yul\":3332:3344   */\n      revert\n        /* \"#utility.yul\":3294:3346   */\n    tag_379:\n        /* \"#utility.yul\":3365:3394   */\n      tag_380\n        /* \"#utility.yul\":3384:3393   */\n      dup4\n        /* \"#utility.yul\":3365:3394   */\n      tag_353\n      jump\t// in\n    tag_380:\n        /* \"#utility.yul\":3355:3394   */\n      swap2\n      pop\n        /* \"#utility.yul\":3413:3451   */\n      tag_381\n        /* \"#utility.yul\":3447:3449   */\n      0x20\n        /* \"#utility.yul\":3436:3445   */\n      dup5\n        /* \"#utility.yul\":3432:3450   */\n      add\n        /* \"#utility.yul\":3413:3451   */\n      tag_353\n      jump\t// in\n    tag_381:\n        /* \"#utility.yul\":3403:3451   */\n      swap1\n      pop\n        /* \"#utility.yul\":3197:3457   */\n      swap3\n      pop\n      swap3\n      swap1\n      pop\n      jump\t// out\n        /* \"#utility.yul\":3462:3842   */\n    tag_173:\n        /* \"#utility.yul\":3541:3542   */\n      0x01\n        /* \"#utility.yul\":3537:3549   */\n      dup2\n      dup2\n      shr\n      swap1\n        /* \"#utility.yul\":3584:3596   */\n      dup3\n      and\n      dup1\n        /* \"#utility.yul\":3605:3666   */\n      tag_383\n      jumpi\n        /* \"#utility.yul\":3659:3663   */\n      0x7f\n        /* \"#utility.yul\":3651:3657   */\n      dup3\n        /* \"#utility.yul\":3647:3664   */\n      and\n        /* \"#utility.yul\":3637:3664   */\n      swap2\n      pop\n        /* \"#utility.yul\":3605:3666   */\n    tag_383:\n        /* \"#utility.yul\":3712:3714   */\n      0x20\n        /* \"#utility.yul\":3704:3710   */\n      dup3\n        /* \"#utility.yul\":3701:3715   */\n      lt\n        /* \"#utility.yul\":3681:3699   */\n      dup2\n        /* \"#utility.yul\":3678:3716   */\n      sub\n        /* \"#utility.yul\":3675:3836   */\n      tag_384\n      jumpi\n        /* \"#utility.yul\":3758:3768   */\n      0x4e487b71\n        /* \"#utility.yul\":3753:3756   */\n      0xe0\n        /* \"#utility.yul\":3749:3769   */\n      shl\n        /* \"#utility.yul\":3746:3747   */\n      0x00\n        /* \"#utility.yul\":3739:3770   */\n      mstore\n        /* \"#utility.yul\":3793:3797   */\n      0x22\n        /* \"#utility.yul\":3790:3791   */\n      0x04\n        /* \"#utility.yul\":3783:3798   */\n      mstore\n        /* \"#utility.yul\":3821:3825   */\n      0x24\n        /* \"#utility.yul\":3818:3819   */\n      0x00\n        /* \"#utility.yul\":3811:3826   */\n      revert\n        /* \"#utility.yul\":3675:3836   */\n    tag_384:\n      pop\n        /* \"#utility.yul\":3462:3842   */\n      swap2\n      swap1\n      pop\n      jump\t// out\n        /* \"#utility.yul\":3847:3974   */\n    tag_354:\n        /* \"#utility.yul\":3908:3918   */\n      0x4e487b71\n        /* \"#utility.yul\":3903:3906   */\n      0xe0\n        /* \"#utility.yul\":3899:3919   */\n      shl\n        /* \"#utility.yul\":3896:3897   */\n      0x00\n        /* \"#utility.yul\":3889:3920   */\n      mstore\n        /* \"#utility.yul\":3939:3943   */\n      0x11\n        /* \"#utility.yul\":3936:3937   */\n      0x04\n        /* \"#utility.yul\":3929:3944   */\n      mstore\n        /* \"#utility.yul\":3963:3967   */\n      0x24\n        /* \"#utility.yul\":3960:3961   */\n      0x00\n        /* \"#utility.yul\":3953:3968   */\n      revert\n        /* \"#utility.yul\":3979:4147   */\n    tag_186:\n        /* \"#utility.yul\":4052:4061   */\n      dup1\n      dup3\n      mul\n        /* \"#utility.yul\":4083:4092   */\n      dup2\n      iszero\n        /* \"#utility.yul\":4100:4115   */\n      dup3\n      dup3\n      div\n        /* \"#utility.yul\":4094:4116   */\n      dup5\n      eq\n        /* \"#utility.yul\":4080:4117   */\n      or\n        /* \"#utility.yul\":4070:4141   */\n      tag_178\n      jumpi\n        /* \"#utility.yul\":4121:4139   */\n      tag_178\n      tag_354\n      jump\t// in\n        /* \"#utility.yul\":4152:4369   */\n    tag_188:\n        /* \"#utility.yul\":4192:4193   */\n      0x00\n        /* \"#utility.yul\":4218:4219   */\n      dup3\n        /* \"#utility.yul\":4208:4340   */\n      tag_390\n      jumpi\n        /* \"#utility.yul\":4262:4272   */\n      0x4e487b71\n        /* \"#utility.yul\":4257:4260   */\n      0xe0\n        /* \"#utility.yul\":4253:4273   */\n      shl\n        /* \"#utility.yul\":4250:4251   */\n      0x00\n        /* \"#utility.yul\":4243:4274   */\n      mstore\n        /* \"#utility.yul\":4297:4301   */\n      0x12\n        /* \"#utility.yul\":4294:4295   */\n      0x04\n        /* \"#utility.yul\":4287:4302   */\n      mstore\n        /* \"#utility.yul\":4325:4329   */\n      0x24\n        /* \"#utility.yul\":4322:4323   */\n      0x00\n        /* \"#utility.yul\":4315:4330   */\n      revert\n        /* \"#utility.yul\":4208:4340   */\n    tag_390:\n      pop\n        /* \"#utility.yul\":4354:4363   */\n      div\n      swap1\n        /* \"#utility.yul\":4152:4369   */\n      jump\t// out\n        /* \"#utility.yul\":5065:5190   */\n    tag_201:\n        /* \"#utility.yul\":5130:5139   */\n      dup1\n      dup3\n      add\n        /* \"#utility.yul\":5151:5161   */\n      dup1\n      dup3\n      gt\n        /* \"#utility.yul\":5148:5184   */\n      iszero\n      tag_178\n      jumpi\n        /* \"#utility.yul\":5164:5182   */\n      tag_178\n      tag_354\n      jump\t// in\n\n    auxdata: 0xa264697066735822122060dc7bcb3671745bd36ebdd551468cc2d2f26d49e9e6900ee8caed225e842a6464736f6c634300081d0033\n}\n",
				"bytecode": {
					"linkReferences": {},
					"object": "608060405234801561000f575f5ffd5b506040516118ad3803806118ad83398101604081905261002e916104f3565b3360405180604001604052806008815260200167436172646569726f60c01b8152506040518060400160405280600481526020016321a22a1960e11b815250816003908161007c91906105d2565b50600461008982826105d2565b5050506001600160a01b0381166100ba57604051631e4fbdf760e01b81525f60048201526024015b60405180910390fd5b6100c381610344565b5060016006556001600160a01b03831661011f5760405162461bcd60e51b815260206004820152601860248201527f496e76616c69642074726561737572792061646472657373000000000000000060448201526064016100b1565b306001600160a01b038416036101775760405162461bcd60e51b815260206004820152601b60248201527f54726561737572792063616e6e6f7420626520636f6e7472616374000000000060448201526064016100b1565b5f84116101c65760405162461bcd60e51b815260206004820152601760248201527f537570706c79206d75737420626520706f73697469766500000000000000000060448201526064016100b1565b60148111156102075760405162461bcd60e51b815260206004820152600d60248201526c0a4c2e8ca40e8dede40d0d2ced609b1b60448201526064016100b1565b60648111156102585760405162461bcd60e51b815260206004820152601f60248201527f48616c76696e6720726174652063616e6e6f742065786365656420313030250060448201526064016100b1565b620151808210156102a05760405162461bcd60e51b8152602060048201526012602482015271125b9d195c9d985b081d1bdbc81cda1bdc9d60721b60448201526064016100b1565b620151806102b161016d60026106a0565b6102bb91906106a0565b6102c69060026106a0565b8211156103095760405162461bcd60e51b8152602060048201526011602482015270496e74657276616c20746f6f206c6f6e6760781b60448201526064016100b1565b6103133385610395565b600780546001600160a01b0319166001600160a01b039490941693909317909255600855600a5550426009556106d0565b600580546001600160a01b038381166001600160a01b0319831681179093556040519116919082907f8be0079c531659141344cd1fd0a4f28419497f9722a3daafe3b4186f6b6457e0905f90a35050565b6001600160a01b0382166103be5760405163ec442f0560e01b81525f60048201526024016100b1565b6103c95f83836103cd565b5050565b6001600160a01b0383166103f7578060025f8282546103ec91906106bd565b909155506104679050565b6001600160a01b0383165f90815260208190526040902054818110156104495760405163391434e360e21b81526001600160a01b038516600482015260248101829052604481018390526064016100b1565b6001600160a01b0384165f9081526020819052604090209082900390555b6001600160a01b038216610483576002805482900390556104a1565b6001600160a01b0382165f9081526020819052604090208054820190555b816001600160a01b0316836001600160a01b03167fddf252ad1be2c89b69c2b068fc378daa952ba7f163c4a11628f55a4df523b3ef836040516104e691815260200190565b60405180910390a3505050565b5f5f5f5f60808587031215610506575f5ffd5b845160208601519094506001600160a01b0381168114610524575f5ffd5b6040860151606090960151949790965092505050565b634e487b7160e01b5f52604160045260245ffd5b600181811c9082168061056257607f821691505b60208210810361058057634e487b7160e01b5f52602260045260245ffd5b50919050565b601f8211156105cd57805f5260205f20601f840160051c810160208510156105ab5750805b601f840160051c820191505b818110156105ca575f81556001016105b7565b50505b505050565b81516001600160401b038111156105eb576105eb61053a565b6105ff816105f9845461054e565b84610586565b6020601f821160018114610631575f831561061a5750848201515b5f19600385901b1c1916600184901b1784556105ca565b5f84815260208120601f198516915b828110156106605787850151825560209485019460019092019101610640565b508482101561067d57868401515f19600387901b60f8161c191681555b50505050600190811b01905550565b634e487b7160e01b5f52601160045260245ffd5b80820281158282048414176106b7576106b761068c565b92915050565b808201808211156106b7576106b761068c565b6111d0806106dd5f395ff3fe6080604052600436106101ba575f3560e01c8063768a4173116100eb578063a9059cbb11610089578063dd62ed3e11610063578063dd62ed3e14610527578063e0b0642e1461056b578063ed29901614610580578063f2fde38b1461059457610208565b8063a9059cbb146104d5578063bbb0b1a6146104f4578063bd666d241461051357610208565b80637f51bb1f116100c55780637f51bb1f146104705780638cbb6df71461048f5780638da5cb5b146104a457806395d89b41146104c157610208565b8063768a41731461042857806379cc67901461043c5780637e6335f41461045b57610208565b80632ed6b75d1161015857806361d027b31161013257806361d027b3146103ac5780636a47aa06146103cb57806370a08231146103e0578063715018a61461041457610208565b80632ed6b75d1461033b578063313ce5671461037257806342966c681461038d57610208565b806316d43a971161019457806316d43a97146102d257806318160ddd146102e7578063225cf6e4146102fb57806323b872dd1461031c57610208565b806306fdde031461024c578063095ea7b314610276578063102b67ab146102a557610208565b366102085760405162461bcd60e51b81526020600482015260196024820152780a8ded6cadc40c8decae640dcdee840c2c6c6cae0e8408aa89603b1b60448201526064015b60405180910390fd5b60405162461bcd60e51b81526020600482015260196024820152780a8ded6cadc40c8decae640dcdee840c2c6c6cae0e8408aa89603b1b60448201526064016101ff565b348015610257575f5ffd5b506102606105b3565b60405161026d9190610fd2565b60405180910390f35b348015610281575f5ffd5b50610295610290366004611022565b610643565b604051901515815260200161026d565b3480156102b0575f5ffd5b506102c46102bf36600461104a565b61065c565b60405190815260200161026d565b3480156102dd575f5ffd5b506102c4600d5481565b3480156102f2575f5ffd5b506002546102c4565b348015610306575f5ffd5b5061031a610315366004611061565b610693565b005b348015610327575f5ffd5b5061029561033636600461107a565b6107a6565b348015610346575f5ffd5b50600c5461035a906001600160a01b031681565b6040516001600160a01b03909116815260200161026d565b34801561037d575f5ffd5b506040516012815260200161026d565b348015610398575f5ffd5b5061031a6103a736600461104a565b6107cf565b3480156103b7575f5ffd5b5060075461035a906001600160a01b031681565b3480156103d6575f5ffd5b506102c460085481565b3480156103eb575f5ffd5b506102c46103fa366004611061565b6001600160a01b03165f9081526020819052604090205490565b34801561041f575f5ffd5b5061031a6107dc565b348015610433575f5ffd5b506102956107ef565b348015610447575f5ffd5b5061031a610456366004611022565b610808565b348015610466575f5ffd5b506102c4600a5481565b34801561047b575f5ffd5b5061031a61048a366004611061565b610821565b34801561049a575f5ffd5b506102c460095481565b3480156104af575f5ffd5b506005546001600160a01b031661035a565b3480156104cc575f5ffd5b5061026061084b565b3480156104e0575f5ffd5b506102956104ef366004611022565b61085a565b3480156104ff575f5ffd5b5061031a61050e3660046110b4565b61087a565b34801561051e575f5ffd5b5061031a61095a565b348015610532575f5ffd5b506102c46105413660046110d4565b6001600160a01b039182165f90815260016020908152604080832093909416825291909152205490565b348015610576575f5ffd5b506102c4600b5481565b34801561058b575f5ffd5b5061031a610a58565b34801561059f575f5ffd5b5061031a6105ae366004611061565b610b9c565b6060600380546105c290611105565b80601f01602080910402602001604051908101604052809291908181526020018280546105ee90611105565b80156106395780601f1061061057610100808354040283529160200191610639565b820191905f5260205f20905b81548152906001019060200180831161061c57829003601f168201915b5050505050905090565b5f33610650818585610bd6565b60019150505b92915050565b6007546001600160a01b03165f9081526020819052604081205460646106828483611151565b61068c9190611168565b9392505050565b61069b610be8565b6001600160a01b0381166106e35760405162461bcd60e51b815260206004820152600f60248201526e496e76616c6964206164647265737360881b60448201526064016101ff565b306001600160a01b038216036107305760405162461bcd60e51b815260206004820152601260248201527110d85b9b9bdd0818994818dbdb9d1c9858dd60721b60448201526064016101ff565b600c80546001600160a01b0319166001600160a01b0383161790556107586201518042611187565b600b55600754604080516001600160a01b03928316815291831660208301527f4ab5be82436d353e61ca18726e984e561f5c1cc7c6d38b29d2553c790434705a91015b60405180910390a150565b5f6107af6107ef565b156107bc576107bc610a58565b6107c7848484610c15565b949350505050565b6107d93382610c38565b50565b6107e4610be8565b6107ed5f610c6c565b565b5f6008546009546108009190611187565b421015905090565b610813823383610cbd565b61081d8282610c38565b5050565b610829610be8565b600780546001600160a01b0319166001600160a01b0392909216919091179055565b6060600480546105c290611105565b5f6108636107ef565b1561087057610870610a58565b61068c8383610d39565b610882610be8565b60058110156108ca5760405162461bcd60e51b815260206004820152601460248201527348616c76696e67207261746520746f6f206c6f7760601b60448201526064016101ff565b60148111156109135760405162461bcd60e51b8152602060048201526015602482015274090c2d8ecd2dcce40e4c2e8ca40e8dede40d0d2ced605b1b60448201526064016101ff565b6008829055600a81905560408051838152602081018390527fe65c505ad7b35b79cd50dc2e97828069efb11f944f84f03a640c689d23faf727910160405180910390a15050565b610962610be8565b600b544210156109a65760405162461bcd60e51b815260206004820152600f60248201526e54696d656c6f636b2061637469766560881b60448201526064016101ff565b600c546001600160a01b03166109f25760405162461bcd60e51b81526020600482015260116024820152704e6f2070656e64696e672075706461746560781b60448201526064016101ff565b60078054600c80546001600160a01b038082166001600160a01b0319808616821790965594909116909155604080519190921680825260208201939093527f4ab5be82436d353e61ca18726e984e561f5c1cc7c6d38b29d2553c790434705a910161079b565b610a60610d46565b610a68610d70565b610aaa5760405162461bcd60e51b815260206004820152601360248201527214985d19481b1a5b5a5d08195e18d959591959606a1b60448201526064016101ff565b600854600954610aba9190611187565b421015610af55760405162461bcd60e51b8152602060048201526009602482015268546f6f206561726c7960b81b60448201526064016101ff565b6007546001600160a01b03165f9081526020819052604081205490505f6064600a5483610b229190611151565b610b2c9190611168565b90508015610b9057600754610b4a906001600160a01b031682610c38565b426009819055600d8190556040805183815260208101929092527f394823b0bcaf78cd8f5876a52c05dbab91512a05f5da2a31e239a11ab66d605f910160405180910390a15b50506107ed6001600655565b610ba4610be8565b6001600160a01b038116610bcd57604051631e4fbdf760e01b81525f60048201526024016101ff565b6107d981610c6c565b610be38383836001610d81565b505050565b6005546001600160a01b031633146107ed5760405163118cdaa760e01b81523360048201526024016101ff565b5f33610c22858285610cbd565b610c2d858585610e53565b506001949350505050565b6001600160a01b038216610c6157604051634b637e8f60e11b81525f60048201526024016101ff565b61081d825f83610eac565b600580546001600160a01b038381166001600160a01b0319831681179093556040519116919082907f8be0079c531659141344cd1fd0a4f28419497f9722a3daafe3b4186f6b6457e0905f90a35050565b6001600160a01b038381165f908152600160209081526040808320938616835292905220545f19811015610d335781811015610d2557604051637dc7a0d960e11b81526001600160a01b038416600482015260248101829052604481018390526064016101ff565b610d3384848484035f610d81565b50505050565b5f33610650818585610e53565b600260065403610d6957604051633ee5aeb560e01b815260040160405180910390fd5b6002600655565b5f610e10600d546108009190611187565b6001600160a01b038416610daa5760405163e602df0560e01b81525f60048201526024016101ff565b6001600160a01b038316610dd357604051634a1406b160e11b81525f60048201526024016101ff565b6001600160a01b038085165f9081526001602090815260408083209387168352929052208290558015610d3357826001600160a01b0316846001600160a01b03167f8c5be1e5ebec7d5bd14f71427d1e84f3dd0314c0f7b2291e5b200ac8c7c3b92584604051610e4591815260200190565b60405180910390a350505050565b6001600160a01b038316610e7c57604051634b637e8f60e11b81525f60048201526024016101ff565b6001600160a01b038216610ea55760405163ec442f0560e01b81525f60048201526024016101ff565b610be38383835b6001600160a01b038316610ed6578060025f828254610ecb9190611187565b90915550610f469050565b6001600160a01b0383165f9081526020819052604090205481811015610f285760405163391434e360e21b81526001600160a01b038516600482015260248101829052604481018390526064016101ff565b6001600160a01b0384165f9081526020819052604090209082900390555b6001600160a01b038216610f6257600280548290039055610f80565b6001600160a01b0382165f9081526020819052604090208054820190555b816001600160a01b0316836001600160a01b03167fddf252ad1be2c89b69c2b068fc378daa952ba7f163c4a11628f55a4df523b3ef83604051610fc591815260200190565b60405180910390a3505050565b602081525f82518060208401528060208501604085015e5f604082850101526040601f19601f83011684010191505092915050565b80356001600160a01b038116811461101d575f5ffd5b919050565b5f5f60408385031215611033575f5ffd5b61103c83611007565b946020939093013593505050565b5f6020828403121561105a575f5ffd5b5035919050565b5f60208284031215611071575f5ffd5b61068c82611007565b5f5f5f6060848603121561108c575f5ffd5b61109584611007565b92506110a360208501611007565b929592945050506040919091013590565b5f5f604083850312156110c5575f5ffd5b50508035926020909101359150565b5f5f604083850312156110e5575f5ffd5b6110ee83611007565b91506110fc60208401611007565b90509250929050565b600181811c9082168061111957607f821691505b60208210810361113757634e487b7160e01b5f52602260045260245ffd5b50919050565b634e487b7160e01b5f52601160045260245ffd5b80820281158282048414176106565761065661113d565b5f8261118257634e487b7160e01b5f52601260045260245ffd5b500490565b808201808211156106565761065661113d56fea264697066735822122060dc7bcb3671745bd36ebdd551468cc2d2f26d49e9e6900ee8caed225e842a6464736f6c634300081d0033",
					"opcodes": "PUSH1 0x80 PUSH1 0x40 MSTORE CALLVALUE DUP1 ISZERO PUSH2 0xF JUMPI PUSH0 PUSH0 REVERT JUMPDEST POP PUSH1 0x40 MLOAD PUSH2 0x18AD CODESIZE SUB DUP1 PUSH2 0x18AD DUP4 CODECOPY DUP2 ADD PUSH1 0x40 DUP2 SWAP1 MSTORE PUSH2 0x2E SWAP2 PUSH2 0x4F3 JUMP JUMPDEST CALLER PUSH1 0x40 MLOAD DUP1 PUSH1 0x40 ADD PUSH1 0x40 MSTORE DUP1 PUSH1 0x8 DUP2 MSTORE PUSH1 0x20 ADD PUSH8 0x436172646569726F PUSH1 0xC0 SHL DUP2 MSTORE POP PUSH1 0x40 MLOAD DUP1 PUSH1 0x40 ADD PUSH1 0x40 MSTORE DUP1 PUSH1 0x4 DUP2 MSTORE PUSH1 0x20 ADD PUSH4 0x21A22A19 PUSH1 0xE1 SHL DUP2 MSTORE POP DUP2 PUSH1 0x3 SWAP1 DUP2 PUSH2 0x7C SWAP2 SWAP1 PUSH2 0x5D2 JUMP JUMPDEST POP PUSH1 0x4 PUSH2 0x89 DUP3 DUP3 PUSH2 0x5D2 JUMP JUMPDEST POP POP POP PUSH1 0x1 PUSH1 0x1 PUSH1 0xA0 SHL SUB DUP2 AND PUSH2 0xBA JUMPI PUSH1 0x40 MLOAD PUSH4 0x1E4FBDF7 PUSH1 0xE0 SHL DUP2 MSTORE PUSH0 PUSH1 0x4 DUP3 ADD MSTORE PUSH1 0x24 ADD JUMPDEST PUSH1 0x40 MLOAD DUP1 SWAP2 SUB SWAP1 REVERT JUMPDEST PUSH2 0xC3 DUP2 PUSH2 0x344 JUMP JUMPDEST POP PUSH1 0x1 PUSH1 0x6 SSTORE PUSH1 0x1 PUSH1 0x1 PUSH1 0xA0 SHL SUB DUP4 AND PUSH2 0x11F JUMPI PUSH1 0x40 MLOAD PUSH3 0x461BCD PUSH1 0xE5 SHL DUP2 MSTORE PUSH1 0x20 PUSH1 0x4 DUP3 ADD MSTORE PUSH1 0x18 PUSH1 0x24 DUP3 ADD MSTORE PUSH32 0x496E76616C696420747265617375727920616464726573730000000000000000 PUSH1 0x44 DUP3 ADD MSTORE PUSH1 0x64 ADD PUSH2 0xB1 JUMP JUMPDEST ADDRESS PUSH1 0x1 PUSH1 0x1 PUSH1 0xA0 SHL SUB DUP5 AND SUB PUSH2 0x177 JUMPI PUSH1 0x40 MLOAD PUSH3 0x461BCD PUSH1 0xE5 SHL DUP2 MSTORE PUSH1 0x20 PUSH1 0x4 DUP3 ADD MSTORE PUSH1 0x1B PUSH1 0x24 DUP3 ADD MSTORE PUSH32 0x54726561737572792063616E6E6F7420626520636F6E74726163740000000000 PUSH1 0x44 DUP3 ADD MSTORE PUSH1 0x64 ADD PUSH2 0xB1 JUMP JUMPDEST PUSH0 DUP5 GT PUSH2 0x1C6 JUMPI PUSH1 0x40 MLOAD PUSH3 0x461BCD PUSH1 0xE5 SHL DUP2 MSTORE PUSH1 0x20 PUSH1 0x4 DUP3 ADD MSTORE PUSH1 0x17 PUSH1 0x24 DUP3 ADD MSTORE PUSH32 0x537570706C79206D75737420626520706F736974697665000000000000000000 PUSH1 0x44 DUP3 ADD MSTORE PUSH1 0x64 ADD PUSH2 0xB1 JUMP JUMPDEST PUSH1 0x14 DUP2 GT ISZERO PUSH2 0x207 JUMPI PUSH1 0x40 MLOAD PUSH3 0x461BCD PUSH1 0xE5 SHL DUP2 MSTORE PUSH1 0x20 PUSH1 0x4 DUP3 ADD MSTORE PUSH1 0xD PUSH1 0x24 DUP3 ADD MSTORE PUSH13 0xA4C2E8CA40E8DEDE40D0D2CED PUSH1 0x9B SHL PUSH1 0x44 DUP3 ADD MSTORE PUSH1 0x64 ADD PUSH2 0xB1 JUMP JUMPDEST PUSH1 0x64 DUP2 GT ISZERO PUSH2 0x258 JUMPI PUSH1 0x40 MLOAD PUSH3 0x461BCD PUSH1 0xE5 SHL DUP2 MSTORE PUSH1 0x20 PUSH1 0x4 DUP3 ADD MSTORE PUSH1 0x1F PUSH1 0x24 DUP3 ADD MSTORE PUSH32 0x48616C76696E6720726174652063616E6E6F7420657863656564203130302500 PUSH1 0x44 DUP3 ADD MSTORE PUSH1 0x64 ADD PUSH2 0xB1 JUMP JUMPDEST PUSH3 0x15180 DUP3 LT ISZERO PUSH2 0x2A0 JUMPI PUSH1 0x40 MLOAD PUSH3 0x461BCD PUSH1 0xE5 SHL DUP2 MSTORE PUSH1 0x20 PUSH1 0x4 DUP3 ADD MSTORE PUSH1 0x12 PUSH1 0x24 DUP3 ADD MSTORE PUSH18 0x125B9D195C9D985B081D1BDBC81CDA1BDC9D PUSH1 0x72 SHL PUSH1 0x44 DUP3 ADD MSTORE PUSH1 0x64 ADD PUSH2 0xB1 JUMP JUMPDEST PUSH3 0x15180 PUSH2 0x2B1 PUSH2 0x16D PUSH1 0x2 PUSH2 0x6A0 JUMP JUMPDEST PUSH2 0x2BB SWAP2 SWAP1 PUSH2 0x6A0 JUMP JUMPDEST PUSH2 0x2C6 SWAP1 PUSH1 0x2 PUSH2 0x6A0 JUMP JUMPDEST DUP3 GT ISZERO PUSH2 0x309 JUMPI PUSH1 0x40 MLOAD PUSH3 0x461BCD PUSH1 0xE5 SHL DUP2 MSTORE PUSH1 0x20 PUSH1 0x4 DUP3 ADD MSTORE PUSH1 0x11 PUSH1 0x24 DUP3 ADD MSTORE PUSH17 0x496E74657276616C20746F6F206C6F6E67 PUSH1 0x78 SHL PUSH1 0x44 DUP3 ADD MSTORE PUSH1 0x64 ADD PUSH2 0xB1 JUMP JUMPDEST PUSH2 0x313 CALLER DUP6 PUSH2 0x395 JUMP JUMPDEST PUSH1 0x7 DUP1 SLOAD PUSH1 0x1 PUSH1 0x1 PUSH1 0xA0 SHL SUB NOT AND PUSH1 0x1 PUSH1 0x1 PUSH1 0xA0 SHL SUB SWAP5 SWAP1 SWAP5 AND SWAP4 SWAP1 SWAP4 OR SWAP1 SWAP3 SSTORE PUSH1 0x8 SSTORE PUSH1 0xA SSTORE POP TIMESTAMP PUSH1 0x9 SSTORE PUSH2 0x6D0 JUMP JUMPDEST PUSH1 0x5 DUP1 SLOAD PUSH1 0x1 PUSH1 0x1 PUSH1 0xA0 SHL SUB DUP4 DUP2 AND PUSH1 0x1 PUSH1 0x1 PUSH1 0xA0 SHL SUB NOT DUP4 AND DUP2 OR SWAP1 SWAP4 SSTORE PUSH1 0x40 MLOAD SWAP2 AND SWAP2 SWAP1 DUP3 SWAP1 PUSH32 0x8BE0079C531659141344CD1FD0A4F28419497F9722A3DAAFE3B4186F6B6457E0 SWAP1 PUSH0 SWAP1 LOG3 POP POP JUMP JUMPDEST PUSH1 0x1 PUSH1 0x1 PUSH1 0xA0 SHL SUB DUP3 AND PUSH2 0x3BE JUMPI PUSH1 0x40 MLOAD PUSH4 0xEC442F05 PUSH1 0xE0 SHL DUP2 MSTORE PUSH0 PUSH1 0x4 DUP3 ADD MSTORE PUSH1 0x24 ADD PUSH2 0xB1 JUMP JUMPDEST PUSH2 0x3C9 PUSH0 DUP4 DUP4 PUSH2 0x3CD JUMP JUMPDEST POP POP JUMP JUMPDEST PUSH1 0x1 PUSH1 0x1 PUSH1 0xA0 SHL SUB DUP4 AND PUSH2 0x3F7 JUMPI DUP1 PUSH1 0x2 PUSH0 DUP3 DUP3 SLOAD PUSH2 0x3EC SWAP2 SWAP1 PUSH2 0x6BD JUMP JUMPDEST SWAP1 SWAP2 SSTORE POP PUSH2 0x467 SWAP1 POP JUMP JUMPDEST PUSH1 0x1 PUSH1 0x1 PUSH1 0xA0 SHL SUB DUP4 AND PUSH0 SWAP1 DUP2 MSTORE PUSH1 0x20 DUP2 SWAP1 MSTORE PUSH1 0x40 SWAP1 KECCAK256 SLOAD DUP2 DUP2 LT ISZERO PUSH2 0x449 JUMPI PUSH1 0x40 MLOAD PUSH4 0x391434E3 PUSH1 0xE2 SHL DUP2 MSTORE PUSH1 0x1 PUSH1 0x1 PUSH1 0xA0 SHL SUB DUP6 AND PUSH1 0x4 DUP3 ADD MSTORE PUSH1 0x24 DUP2 ADD DUP3 SWAP1 MSTORE PUSH1 0x44 DUP2 ADD DUP4 SWAP1 MSTORE PUSH1 0x64 ADD PUSH2 0xB1 JUMP JUMPDEST PUSH1 0x1 PUSH1 0x1 PUSH1 0xA0 SHL SUB DUP5 AND PUSH0 SWAP1 DUP2 MSTORE PUSH1 0x20 DUP2 SWAP1 MSTORE PUSH1 0x40 SWAP1 KECCAK256 SWAP1 DUP3 SWAP1 SUB SWAP1 SSTORE JUMPDEST PUSH1 0x1 PUSH1 0x1 PUSH1 0xA0 SHL SUB DUP3 AND PUSH2 0x483 JUMPI PUSH1 0x2 DUP1 SLOAD DUP3 SWAP1 SUB SWAP1 SSTORE PUSH2 0x4A1 JUMP JUMPDEST PUSH1 0x1 PUSH1 0x1 PUSH1 0xA0 SHL SUB DUP3 AND PUSH0 SWAP1 DUP2 MSTORE PUSH1 0x20 DUP2 SWAP1 MSTORE PUSH1 0x40 SWAP1 KECCAK256 DUP1 SLOAD DUP3 ADD SWAP1 SSTORE JUMPDEST DUP2 PUSH1 0x1 PUSH1 0x1 PUSH1 0xA0 SHL SUB AND DUP4 PUSH1 0x1 PUSH1 0x1 PUSH1 0xA0 SHL SUB AND PUSH32 0xDDF252AD1BE2C89B69C2B068FC378DAA952BA7F163C4A11628F55A4DF523B3EF DUP4 PUSH1 0x40 MLOAD PUSH2 0x4E6 SWAP2 DUP2 MSTORE PUSH1 0x20 ADD SWAP1 JUMP JUMPDEST PUSH1 0x40 MLOAD DUP1 SWAP2 SUB SWAP1 LOG3 POP POP POP JUMP JUMPDEST PUSH0 PUSH0 PUSH0 PUSH0 PUSH1 0x80 DUP6 DUP8 SUB SLT ISZERO PUSH2 0x506 JUMPI PUSH0 PUSH0 REVERT JUMPDEST DUP5 MLOAD PUSH1 0x20 DUP7 ADD MLOAD SWAP1 SWAP5 POP PUSH1 0x1 PUSH1 0x1 PUSH1 0xA0 SHL SUB DUP2 AND DUP2 EQ PUSH2 0x524 JUMPI PUSH0 PUSH0 REVERT JUMPDEST PUSH1 0x40 DUP7 ADD MLOAD PUSH1 0x60 SWAP1 SWAP7 ADD MLOAD SWAP5 SWAP8 SWAP1 SWAP7 POP SWAP3 POP POP POP JUMP JUMPDEST PUSH4 0x4E487B71 PUSH1 0xE0 SHL PUSH0 MSTORE PUSH1 0x41 PUSH1 0x4 MSTORE PUSH1 0x24 PUSH0 REVERT JUMPDEST PUSH1 0x1 DUP2 DUP2 SHR SWAP1 DUP3 AND DUP1 PUSH2 0x562 JUMPI PUSH1 0x7F DUP3 AND SWAP2 POP JUMPDEST PUSH1 0x20 DUP3 LT DUP2 SUB PUSH2 0x580 JUMPI PUSH4 0x4E487B71 PUSH1 0xE0 SHL PUSH0 MSTORE PUSH1 0x22 PUSH1 0x4 MSTORE PUSH1 0x24 PUSH0 REVERT JUMPDEST POP SWAP2 SWAP1 POP JUMP JUMPDEST PUSH1 0x1F DUP3 GT ISZERO PUSH2 0x5CD JUMPI DUP1 PUSH0 MSTORE PUSH1 0x20 PUSH0 KECCAK256 PUSH1 0x1F DUP5 ADD PUSH1 0x5 SHR DUP2 ADD PUSH1 0x20 DUP6 LT ISZERO PUSH2 0x5AB JUMPI POP DUP1 JUMPDEST PUSH1 0x1F DUP5 ADD PUSH1 0x5 SHR DUP3 ADD SWAP2 POP JUMPDEST DUP2 DUP2 LT ISZERO PUSH2 0x5CA JUMPI PUSH0 DUP2 SSTORE PUSH1 0x1 ADD PUSH2 0x5B7 JUMP JUMPDEST POP POP JUMPDEST POP POP POP JUMP JUMPDEST DUP2 MLOAD PUSH1 0x1 PUSH1 0x1 PUSH1 0x40 SHL SUB DUP2 GT ISZERO PUSH2 0x5EB JUMPI PUSH2 0x5EB PUSH2 0x53A JUMP JUMPDEST PUSH2 0x5FF DUP2 PUSH2 0x5F9 DUP5 SLOAD PUSH2 0x54E JUMP JUMPDEST DUP5 PUSH2 0x586 JUMP JUMPDEST PUSH1 0x20 PUSH1 0x1F DUP3 GT PUSH1 0x1 DUP2 EQ PUSH2 0x631 JUMPI PUSH0 DUP4 ISZERO PUSH2 0x61A JUMPI POP DUP5 DUP3 ADD MLOAD JUMPDEST PUSH0 NOT PUSH1 0x3 DUP6 SWAP1 SHL SHR NOT AND PUSH1 0x1 DUP5 SWAP1 SHL OR DUP5 SSTORE PUSH2 0x5CA JUMP JUMPDEST PUSH0 DUP5 DUP2 MSTORE PUSH1 0x20 DUP2 KECCAK256 PUSH1 0x1F NOT DUP6 AND SWAP2 JUMPDEST DUP3 DUP2 LT ISZERO PUSH2 0x660 JUMPI DUP8 DUP6 ADD MLOAD DUP3 SSTORE PUSH1 0x20 SWAP5 DUP6 ADD SWAP5 PUSH1 0x1 SWAP1 SWAP3 ADD SWAP2 ADD PUSH2 0x640 JUMP JUMPDEST POP DUP5 DUP3 LT ISZERO PUSH2 0x67D JUMPI DUP7 DUP5 ADD MLOAD PUSH0 NOT PUSH1 0x3 DUP8 SWAP1 SHL PUSH1 0xF8 AND SHR NOT AND DUP2 SSTORE JUMPDEST POP POP POP POP PUSH1 0x1 SWAP1 DUP2 SHL ADD SWAP1 SSTORE POP JUMP JUMPDEST PUSH4 0x4E487B71 PUSH1 0xE0 SHL PUSH0 MSTORE PUSH1 0x11 PUSH1 0x4 MSTORE PUSH1 0x24 PUSH0 REVERT JUMPDEST DUP1 DUP3 MUL DUP2 ISZERO DUP3 DUP3 DIV DUP5 EQ OR PUSH2 0x6B7 JUMPI PUSH2 0x6B7 PUSH2 0x68C JUMP JUMPDEST SWAP3 SWAP2 POP POP JUMP JUMPDEST DUP1 DUP3 ADD DUP1 DUP3 GT ISZERO PUSH2 0x6B7 JUMPI PUSH2 0x6B7 PUSH2 0x68C JUMP JUMPDEST PUSH2 0x11D0 DUP1 PUSH2 0x6DD PUSH0 CODECOPY PUSH0 RETURN INVALID PUSH1 0x80 PUSH1 0x40 MSTORE PUSH1 0x4 CALLDATASIZE LT PUSH2 0x1BA JUMPI PUSH0 CALLDATALOAD PUSH1 0xE0 SHR DUP1 PUSH4 0x768A4173 GT PUSH2 0xEB JUMPI DUP1 PUSH4 0xA9059CBB GT PUSH2 0x89 JUMPI DUP1 PUSH4 0xDD62ED3E GT PUSH2 0x63 JUMPI DUP1 PUSH4 0xDD62ED3E EQ PUSH2 0x527 JUMPI DUP1 PUSH4 0xE0B0642E EQ PUSH2 0x56B JUMPI DUP1 PUSH4 0xED299016 EQ PUSH2 0x580 JUMPI DUP1 PUSH4 0xF2FDE38B EQ PUSH2 0x594 JUMPI PUSH2 0x208 JUMP JUMPDEST DUP1 PUSH4 0xA9059CBB EQ PUSH2 0x4D5 JUMPI DUP1 PUSH4 0xBBB0B1A6 EQ PUSH2 0x4F4 JUMPI DUP1 PUSH4 0xBD666D24 EQ PUSH2 0x513 JUMPI PUSH2 0x208 JUMP JUMPDEST DUP1 PUSH4 0x7F51BB1F GT PUSH2 0xC5 JUMPI DUP1 PUSH4 0x7F51BB1F EQ PUSH2 0x470 JUMPI DUP1 PUSH4 0x8CBB6DF7 EQ PUSH2 0x48F JUMPI DUP1 PUSH4 0x8DA5CB5B EQ PUSH2 0x4A4 JUMPI DUP1 PUSH4 0x95D89B41 EQ PUSH2 0x4C1 JUMPI PUSH2 0x208 JUMP JUMPDEST DUP1 PUSH4 0x768A4173 EQ PUSH2 0x428 JUMPI DUP1 PUSH4 0x79CC6790 EQ PUSH2 0x43C JUMPI DUP1 PUSH4 0x7E6335F4 EQ PUSH2 0x45B JUMPI PUSH2 0x208 JUMP JUMPDEST DUP1 PUSH4 0x2ED6B75D GT PUSH2 0x158 JUMPI DUP1 PUSH4 0x61D027B3 GT PUSH2 0x132 JUMPI DUP1 PUSH4 0x61D027B3 EQ PUSH2 0x3AC JUMPI DUP1 PUSH4 0x6A47AA06 EQ PUSH2 0x3CB JUMPI DUP1 PUSH4 0x70A08231 EQ PUSH2 0x3E0 JUMPI DUP1 PUSH4 0x715018A6 EQ PUSH2 0x414 JUMPI PUSH2 0x208 JUMP JUMPDEST DUP1 PUSH4 0x2ED6B75D EQ PUSH2 0x33B JUMPI DUP1 PUSH4 0x313CE567 EQ PUSH2 0x372 JUMPI DUP1 PUSH4 0x42966C68 EQ PUSH2 0x38D JUMPI PUSH2 0x208 JUMP JUMPDEST DUP1 PUSH4 0x16D43A97 GT PUSH2 0x194 JUMPI DUP1 PUSH4 0x16D43A97 EQ PUSH2 0x2D2 JUMPI DUP1 PUSH4 0x18160DDD EQ PUSH2 0x2E7 JUMPI DUP1 PUSH4 0x225CF6E4 EQ PUSH2 0x2FB JUMPI DUP1 PUSH4 0x23B872DD EQ PUSH2 0x31C JUMPI PUSH2 0x208 JUMP JUMPDEST DUP1 PUSH4 0x6FDDE03 EQ PUSH2 0x24C JUMPI DUP1 PUSH4 0x95EA7B3 EQ PUSH2 0x276 JUMPI DUP1 PUSH4 0x102B67AB EQ PUSH2 0x2A5 JUMPI PUSH2 0x208 JUMP JUMPDEST CALLDATASIZE PUSH2 0x208 JUMPI PUSH1 0x40 MLOAD PUSH3 0x461BCD PUSH1 0xE5 SHL DUP2 MSTORE PUSH1 0x20 PUSH1 0x4 DUP3 ADD MSTORE PUSH1 0x19 PUSH1 0x24 DUP3 ADD MSTORE PUSH25 0xA8DED6CADC40C8DECAE640DCDEE840C2C6C6CAE0E8408AA89 PUSH1 0x3B SHL PUSH1 0x44 DUP3 ADD MSTORE PUSH1 0x64 ADD JUMPDEST PUSH1 0x40 MLOAD DUP1 SWAP2 SUB SWAP1 REVERT JUMPDEST PUSH1 0x40 MLOAD PUSH3 0x461BCD PUSH1 0xE5 SHL DUP2 MSTORE PUSH1 0x20 PUSH1 0x4 DUP3 ADD MSTORE PUSH1 0x19 PUSH1 0x24 DUP3 ADD MSTORE PUSH25 0xA8DED6CADC40C8DECAE640DCDEE840C2C6C6CAE0E8408AA89 PUSH1 0x3B SHL PUSH1 0x44 DUP3 ADD MSTORE PUSH1 0x64 ADD PUSH2 0x1FF JUMP JUMPDEST CALLVALUE DUP1 ISZERO PUSH2 0x257 JUMPI PUSH0 PUSH0 REVERT JUMPDEST POP PUSH2 0x260 PUSH2 0x5B3 JUMP JUMPDEST PUSH1 0x40 MLOAD PUSH2 0x26D SWAP2 SWAP1 PUSH2 0xFD2 JUMP JUMPDEST PUSH1 0x40 MLOAD DUP1 SWAP2 SUB SWAP1 RETURN JUMPDEST CALLVALUE DUP1 ISZERO PUSH2 0x281 JUMPI PUSH0 PUSH0 REVERT JUMPDEST POP PUSH2 0x295 PUSH2 0x290 CALLDATASIZE PUSH1 0x4 PUSH2 0x1022 JUMP JUMPDEST PUSH2 0x643 JUMP JUMPDEST PUSH1 0x40 MLOAD SWAP1 ISZERO ISZERO DUP2 MSTORE PUSH1 0x20 ADD PUSH2 0x26D JUMP JUMPDEST CALLVALUE DUP1 ISZERO PUSH2 0x2B0 JUMPI PUSH0 PUSH0 REVERT JUMPDEST POP PUSH2 0x2C4 PUSH2 0x2BF CALLDATASIZE PUSH1 0x4 PUSH2 0x104A JUMP JUMPDEST PUSH2 0x65C JUMP JUMPDEST PUSH1 0x40 MLOAD SWAP1 DUP2 MSTORE PUSH1 0x20 ADD PUSH2 0x26D JUMP JUMPDEST CALLVALUE DUP1 ISZERO PUSH2 0x2DD JUMPI PUSH0 PUSH0 REVERT JUMPDEST POP PUSH2 0x2C4 PUSH1 0xD SLOAD DUP2 JUMP JUMPDEST CALLVALUE DUP1 ISZERO PUSH2 0x2F2 JUMPI PUSH0 PUSH0 REVERT JUMPDEST POP PUSH1 0x2 SLOAD PUSH2 0x2C4 JUMP JUMPDEST CALLVALUE DUP1 ISZERO PUSH2 0x306 JUMPI PUSH0 PUSH0 REVERT JUMPDEST POP PUSH2 0x31A PUSH2 0x315 CALLDATASIZE PUSH1 0x4 PUSH2 0x1061 JUMP JUMPDEST PUSH2 0x693 JUMP JUMPDEST STOP JUMPDEST CALLVALUE DUP1 ISZERO PUSH2 0x327 JUMPI PUSH0 PUSH0 REVERT JUMPDEST POP PUSH2 0x295 PUSH2 0x336 CALLDATASIZE PUSH1 0x4 PUSH2 0x107A JUMP JUMPDEST PUSH2 0x7A6 JUMP JUMPDEST CALLVALUE DUP1 ISZERO PUSH2 0x346 JUMPI PUSH0 PUSH0 REVERT JUMPDEST POP PUSH1 0xC SLOAD PUSH2 0x35A SWAP1 PUSH1 0x1 PUSH1 0x1 PUSH1 0xA0 SHL SUB AND DUP2 JUMP JUMPDEST PUSH1 0x40 MLOAD PUSH1 0x1 PUSH1 0x1 PUSH1 0xA0 SHL SUB SWAP1 SWAP2 AND DUP2 MSTORE PUSH1 0x20 ADD PUSH2 0x26D JUMP JUMPDEST CALLVALUE DUP1 ISZERO PUSH2 0x37D JUMPI PUSH0 PUSH0 REVERT JUMPDEST POP PUSH1 0x40 MLOAD PUSH1 0x12 DUP2 MSTORE PUSH1 0x20 ADD PUSH2 0x26D JUMP JUMPDEST CALLVALUE DUP1 ISZERO PUSH2 0x398 JUMPI PUSH0 PUSH0 REVERT JUMPDEST POP PUSH2 0x31A PUSH2 0x3A7 CALLDATASIZE PUSH1 0x4 PUSH2 0x104A JUMP JUMPDEST PUSH2 0x7CF JUMP JUMPDEST CALLVALUE DUP1 ISZERO PUSH2 0x3B7 JUMPI PUSH0 PUSH0 REVERT JUMPDEST POP PUSH1 0x7 SLOAD PUSH2 0x35A SWAP1 PUSH1 0x1 PUSH1 0x1 PUSH1 0xA0 SHL SUB AND DUP2 JUMP JUMPDEST CALLVALUE DUP1 ISZERO PUSH2 0x3D6 JUMPI PUSH0 PUSH0 REVERT JUMPDEST POP PUSH2 0x2C4 PUSH1 0x8 SLOAD DUP2 JUMP JUMPDEST CALLVALUE DUP1 ISZERO PUSH2 0x3EB JUMPI PUSH0 PUSH0 REVERT JUMPDEST POP PUSH2 0x2C4 PUSH2 0x3FA CALLDATASIZE PUSH1 0x4 PUSH2 0x1061 JUMP JUMPDEST PUSH1 0x1 PUSH1 0x1 PUSH1 0xA0 SHL SUB AND PUSH0 SWAP1 DUP2 MSTORE PUSH1 0x20 DUP2 SWAP1 MSTORE PUSH1 0x40 SWAP1 KECCAK256 SLOAD SWAP1 JUMP JUMPDEST CALLVALUE DUP1 ISZERO PUSH2 0x41F JUMPI PUSH0 PUSH0 REVERT JUMPDEST POP PUSH2 0x31A PUSH2 0x7DC JUMP JUMPDEST CALLVALUE DUP1 ISZERO PUSH2 0x433 JUMPI PUSH0 PUSH0 REVERT JUMPDEST POP PUSH2 0x295 PUSH2 0x7EF JUMP JUMPDEST CALLVALUE DUP1 ISZERO PUSH2 0x447 JUMPI PUSH0 PUSH0 REVERT JUMPDEST POP PUSH2 0x31A PUSH2 0x456 CALLDATASIZE PUSH1 0x4 PUSH2 0x1022 JUMP JUMPDEST PUSH2 0x808 JUMP JUMPDEST CALLVALUE DUP1 ISZERO PUSH2 0x466 JUMPI PUSH0 PUSH0 REVERT JUMPDEST POP PUSH2 0x2C4 PUSH1 0xA SLOAD DUP2 JUMP JUMPDEST CALLVALUE DUP1 ISZERO PUSH2 0x47B JUMPI PUSH0 PUSH0 REVERT JUMPDEST POP PUSH2 0x31A PUSH2 0x48A CALLDATASIZE PUSH1 0x4 PUSH2 0x1061 JUMP JUMPDEST PUSH2 0x821 JUMP JUMPDEST CALLVALUE DUP1 ISZERO PUSH2 0x49A JUMPI PUSH0 PUSH0 REVERT JUMPDEST POP PUSH2 0x2C4 PUSH1 0x9 SLOAD DUP2 JUMP JUMPDEST CALLVALUE DUP1 ISZERO PUSH2 0x4AF JUMPI PUSH0 PUSH0 REVERT JUMPDEST POP PUSH1 0x5 SLOAD PUSH1 0x1 PUSH1 0x1 PUSH1 0xA0 SHL SUB AND PUSH2 0x35A JUMP JUMPDEST CALLVALUE DUP1 ISZERO PUSH2 0x4CC JUMPI PUSH0 PUSH0 REVERT JUMPDEST POP PUSH2 0x260 PUSH2 0x84B JUMP JUMPDEST CALLVALUE DUP1 ISZERO PUSH2 0x4E0 JUMPI PUSH0 PUSH0 REVERT JUMPDEST POP PUSH2 0x295 PUSH2 0x4EF CALLDATASIZE PUSH1 0x4 PUSH2 0x1022 JUMP JUMPDEST PUSH2 0x85A JUMP JUMPDEST CALLVALUE DUP1 ISZERO PUSH2 0x4FF JUMPI PUSH0 PUSH0 REVERT JUMPDEST POP PUSH2 0x31A PUSH2 0x50E CALLDATASIZE PUSH1 0x4 PUSH2 0x10B4 JUMP JUMPDEST PUSH2 0x87A JUMP JUMPDEST CALLVALUE DUP1 ISZERO PUSH2 0x51E JUMPI PUSH0 PUSH0 REVERT JUMPDEST POP PUSH2 0x31A PUSH2 0x95A JUMP JUMPDEST CALLVALUE DUP1 ISZERO PUSH2 0x532 JUMPI PUSH0 PUSH0 REVERT JUMPDEST POP PUSH2 0x2C4 PUSH2 0x541 CALLDATASIZE PUSH1 0x4 PUSH2 0x10D4 JUMP JUMPDEST PUSH1 0x1 PUSH1 0x1 PUSH1 0xA0 SHL SUB SWAP2 DUP3 AND PUSH0 SWAP1 DUP2 MSTORE PUSH1 0x1 PUSH1 0x20 SWAP1 DUP2 MSTORE PUSH1 0x40 DUP1 DUP4 KECCAK256 SWAP4 SWAP1 SWAP5 AND DUP3 MSTORE SWAP2 SWAP1 SWAP2 MSTORE KECCAK256 SLOAD SWAP1 JUMP JUMPDEST CALLVALUE DUP1 ISZERO PUSH2 0x576 JUMPI PUSH0 PUSH0 REVERT JUMPDEST POP PUSH2 0x2C4 PUSH1 0xB SLOAD DUP2 JUMP JUMPDEST CALLVALUE DUP1 ISZERO PUSH2 0x58B JUMPI PUSH0 PUSH0 REVERT JUMPDEST POP PUSH2 0x31A PUSH2 0xA58 JUMP JUMPDEST CALLVALUE DUP1 ISZERO PUSH2 0x59F JUMPI PUSH0 PUSH0 REVERT JUMPDEST POP PUSH2 0x31A PUSH2 0x5AE CALLDATASIZE PUSH1 0x4 PUSH2 0x1061 JUMP JUMPDEST PUSH2 0xB9C JUMP JUMPDEST PUSH1 0x60 PUSH1 0x3 DUP1 SLOAD PUSH2 0x5C2 SWAP1 PUSH2 0x1105 JUMP JUMPDEST DUP1 PUSH1 0x1F ADD PUSH1 0x20 DUP1 SWAP2 DIV MUL PUSH1 0x20 ADD PUSH1 0x40 MLOAD SWAP1 DUP2 ADD PUSH1 0x40 MSTORE DUP1 SWAP3 SWAP2 SWAP1 DUP2 DUP2 MSTORE PUSH1 0x20 ADD DUP3 DUP1 SLOAD PUSH2 0x5EE SWAP1 PUSH2 0x1105 JUMP JUMPDEST DUP1 ISZERO PUSH2 0x639 JUMPI DUP1 PUSH1 0x1F LT PUSH2 0x610 JUMPI PUSH2 0x100 DUP1 DUP4 SLOAD DIV MUL DUP4 MSTORE SWAP2 PUSH1 0x20 ADD SWAP2 PUSH2 0x639 JUMP JUMPDEST DUP3 ADD SWAP2 SWAP1 PUSH0 MSTORE PUSH1 0x20 PUSH0 KECCAK256 SWAP1 JUMPDEST DUP2 SLOAD DUP2 MSTORE SWAP1 PUSH1 0x1 ADD SWAP1 PUSH1 0x20 ADD DUP1 DUP4 GT PUSH2 0x61C JUMPI DUP3 SWAP1 SUB PUSH1 0x1F AND DUP3 ADD SWAP2 JUMPDEST POP POP POP POP POP SWAP1 POP SWAP1 JUMP JUMPDEST PUSH0 CALLER PUSH2 0x650 DUP2 DUP6 DUP6 PUSH2 0xBD6 JUMP JUMPDEST PUSH1 0x1 SWAP2 POP POP JUMPDEST SWAP3 SWAP2 POP POP JUMP JUMPDEST PUSH1 0x7 SLOAD PUSH1 0x1 PUSH1 0x1 PUSH1 0xA0 SHL SUB AND PUSH0 SWAP1 DUP2 MSTORE PUSH1 0x20 DUP2 SWAP1 MSTORE PUSH1 0x40 DUP2 KECCAK256 SLOAD PUSH1 0x64 PUSH2 0x682 DUP5 DUP4 PUSH2 0x1151 JUMP JUMPDEST PUSH2 0x68C SWAP2 SWAP1 PUSH2 0x1168 JUMP JUMPDEST SWAP4 SWAP3 POP POP POP JUMP JUMPDEST PUSH2 0x69B PUSH2 0xBE8 JUMP JUMPDEST PUSH1 0x1 PUSH1 0x1 PUSH1 0xA0 SHL SUB DUP2 AND PUSH2 0x6E3 JUMPI PUSH1 0x40 MLOAD PUSH3 0x461BCD PUSH1 0xE5 SHL DUP2 MSTORE PUSH1 0x20 PUSH1 0x4 DUP3 ADD MSTORE PUSH1 0xF PUSH1 0x24 DUP3 ADD MSTORE PUSH15 0x496E76616C69642061646472657373 PUSH1 0x88 SHL PUSH1 0x44 DUP3 ADD MSTORE PUSH1 0x64 ADD PUSH2 0x1FF JUMP JUMPDEST ADDRESS PUSH1 0x1 PUSH1 0x1 PUSH1 0xA0 SHL SUB DUP3 AND SUB PUSH2 0x730 JUMPI PUSH1 0x40 MLOAD PUSH3 0x461BCD PUSH1 0xE5 SHL DUP2 MSTORE PUSH1 0x20 PUSH1 0x4 DUP3 ADD MSTORE PUSH1 0x12 PUSH1 0x24 DUP3 ADD MSTORE PUSH18 0x10D85B9B9BDD0818994818DBDB9D1C9858DD PUSH1 0x72 SHL PUSH1 0x44 DUP3 ADD MSTORE PUSH1 0x64 ADD PUSH2 0x1FF JUMP JUMPDEST PUSH1 0xC DUP1 SLOAD PUSH1 0x1 PUSH1 0x1 PUSH1 0xA0 SHL SUB NOT AND PUSH1 0x1 PUSH1 0x1 PUSH1 0xA0 SHL SUB DUP4 AND OR SWAP1 SSTORE PUSH2 0x758 PUSH3 0x15180 TIMESTAMP PUSH2 0x1187 JUMP JUMPDEST PUSH1 0xB SSTORE PUSH1 0x7 SLOAD PUSH1 0x40 DUP1 MLOAD PUSH1 0x1 PUSH1 0x1 PUSH1 0xA0 SHL SUB SWAP3 DUP4 AND DUP2 MSTORE SWAP2 DUP4 AND PUSH1 0x20 DUP4 ADD MSTORE PUSH32 0x4AB5BE82436D353E61CA18726E984E561F5C1CC7C6D38B29D2553C790434705A SWAP2 ADD JUMPDEST PUSH1 0x40 MLOAD DUP1 SWAP2 SUB SWAP1 LOG1 POP JUMP JUMPDEST PUSH0 PUSH2 0x7AF PUSH2 0x7EF JUMP JUMPDEST ISZERO PUSH2 0x7BC JUMPI PUSH2 0x7BC PUSH2 0xA58 JUMP JUMPDEST PUSH2 0x7C7 DUP5 DUP5 DUP5 PUSH2 0xC15 JUMP JUMPDEST SWAP5 SWAP4 POP POP POP POP JUMP JUMPDEST PUSH2 0x7D9 CALLER DUP3 PUSH2 0xC38 JUMP JUMPDEST POP JUMP JUMPDEST PUSH2 0x7E4 PUSH2 0xBE8 JUMP JUMPDEST PUSH2 0x7ED PUSH0 PUSH2 0xC6C JUMP JUMPDEST JUMP JUMPDEST PUSH0 PUSH1 0x8 SLOAD PUSH1 0x9 SLOAD PUSH2 0x800 SWAP2 SWAP1 PUSH2 0x1187 JUMP JUMPDEST TIMESTAMP LT ISZERO SWAP1 POP SWAP1 JUMP JUMPDEST PUSH2 0x813 DUP3 CALLER DUP4 PUSH2 0xCBD JUMP JUMPDEST PUSH2 0x81D DUP3 DUP3 PUSH2 0xC38 JUMP JUMPDEST POP POP JUMP JUMPDEST PUSH2 0x829 PUSH2 0xBE8 JUMP JUMPDEST PUSH1 0x7 DUP1 SLOAD PUSH1 0x1 PUSH1 0x1 PUSH1 0xA0 SHL SUB NOT AND PUSH1 0x1 PUSH1 0x1 PUSH1 0xA0 SHL SUB SWAP3 SWAP1 SWAP3 AND SWAP2 SWAP1 SWAP2 OR SWAP1 SSTORE JUMP JUMPDEST PUSH1 0x60 PUSH1 0x4 DUP1 SLOAD PUSH2 0x5C2 SWAP1 PUSH2 0x1105 JUMP JUMPDEST PUSH0 PUSH2 0x863 PUSH2 0x7EF JUMP JUMPDEST ISZERO PUSH2 0x870 JUMPI PUSH2 0x870 PUSH2 0xA58 JUMP JUMPDEST PUSH2 0x68C DUP4 DUP4 PUSH2 0xD39 JUMP JUMPDEST PUSH2 0x882 PUSH2 0xBE8 JUMP JUMPDEST PUSH1 0x5 DUP2 LT ISZERO PUSH2 0x8CA JUMPI PUSH1 0x40 MLOAD PUSH3 0x461BCD PUSH1 0xE5 SHL DUP2 MSTORE PUSH1 0x20 PUSH1 0x4 DUP3 ADD MSTORE PUSH1 0x14 PUSH1 0x24 DUP3 ADD MSTORE PUSH20 0x48616C76696E67207261746520746F6F206C6F77 PUSH1 0x60 SHL PUSH1 0x44 DUP3 ADD MSTORE PUSH1 0x64 ADD PUSH2 0x1FF JUMP JUMPDEST PUSH1 0x14 DUP2 GT ISZERO PUSH2 0x913 JUMPI PUSH1 0x40 MLOAD PUSH3 0x461BCD PUSH1 0xE5 SHL DUP2 MSTORE PUSH1 0x20 PUSH1 0x4 DUP3 ADD MSTORE PUSH1 0x15 PUSH1 0x24 DUP3 ADD MSTORE PUSH21 0x90C2D8ECD2DCCE40E4C2E8CA40E8DEDE40D0D2CED PUSH1 0x5B SHL PUSH1 0x44 DUP3 ADD MSTORE PUSH1 0x64 ADD PUSH2 0x1FF JUMP JUMPDEST PUSH1 0x8 DUP3 SWAP1 SSTORE PUSH1 0xA DUP2 SWAP1 SSTORE PUSH1 0x40 DUP1 MLOAD DUP4 DUP2 MSTORE PUSH1 0x20 DUP2 ADD DUP4 SWAP1 MSTORE PUSH32 0xE65C505AD7B35B79CD50DC2E97828069EFB11F944F84F03A640C689D23FAF727 SWAP2 ADD PUSH1 0x40 MLOAD DUP1 SWAP2 SUB SWAP1 LOG1 POP POP JUMP JUMPDEST PUSH2 0x962 PUSH2 0xBE8 JUMP JUMPDEST PUSH1 0xB SLOAD TIMESTAMP LT ISZERO PUSH2 0x9A6 JUMPI PUSH1 0x40 MLOAD PUSH3 0x461BCD PUSH1 0xE5 SHL DUP2 MSTORE PUSH1 0x20 PUSH1 0x4 DUP3 ADD MSTORE PUSH1 0xF PUSH1 0x24 DUP3 ADD MSTORE PUSH15 0x54696D656C6F636B20616374697665 PUSH1 0x88 SHL PUSH1 0x44 DUP3 ADD MSTORE PUSH1 0x64 ADD PUSH2 0x1FF JUMP JUMPDEST PUSH1 0xC SLOAD PUSH1 0x1 PUSH1 0x1 PUSH1 0xA0 SHL SUB AND PUSH2 0x9F2 JUMPI PUSH1 0x40 MLOAD PUSH3 0x461BCD PUSH1 0xE5 SHL DUP2 MSTORE PUSH1 0x20 PUSH1 0x4 DUP3 ADD MSTORE PUSH1 0x11 PUSH1 0x24 DUP3 ADD MSTORE PUSH17 0x4E6F2070656E64696E6720757064617465 PUSH1 0x78 SHL PUSH1 0x44 DUP3 ADD MSTORE PUSH1 0x64 ADD PUSH2 0x1FF JUMP JUMPDEST PUSH1 0x7 DUP1 SLOAD PUSH1 0xC DUP1 SLOAD PUSH1 0x1 PUSH1 0x1 PUSH1 0xA0 SHL SUB DUP1 DUP3 AND PUSH1 0x1 PUSH1 0x1 PUSH1 0xA0 SHL SUB NOT DUP1 DUP7 AND DUP3 OR SWAP1 SWAP7 SSTORE SWAP5 SWAP1 SWAP2 AND SWAP1 SWAP2 SSTORE PUSH1 0x40 DUP1 MLOAD SWAP2 SWAP1 SWAP3 AND DUP1 DUP3 MSTORE PUSH1 0x20 DUP3 ADD SWAP4 SWAP1 SWAP4 MSTORE PUSH32 0x4AB5BE82436D353E61CA18726E984E561F5C1CC7C6D38B29D2553C790434705A SWAP2 ADD PUSH2 0x79B JUMP JUMPDEST PUSH2 0xA60 PUSH2 0xD46 JUMP JUMPDEST PUSH2 0xA68 PUSH2 0xD70 JUMP JUMPDEST PUSH2 0xAAA JUMPI PUSH1 0x40 MLOAD PUSH3 0x461BCD PUSH1 0xE5 SHL DUP2 MSTORE PUSH1 0x20 PUSH1 0x4 DUP3 ADD MSTORE PUSH1 0x13 PUSH1 0x24 DUP3 ADD MSTORE PUSH19 0x14985D19481B1A5B5A5D08195E18D959591959 PUSH1 0x6A SHL PUSH1 0x44 DUP3 ADD MSTORE PUSH1 0x64 ADD PUSH2 0x1FF JUMP JUMPDEST PUSH1 0x8 SLOAD PUSH1 0x9 SLOAD PUSH2 0xABA SWAP2 SWAP1 PUSH2 0x1187 JUMP JUMPDEST TIMESTAMP LT ISZERO PUSH2 0xAF5 JUMPI PUSH1 0x40 MLOAD PUSH3 0x461BCD PUSH1 0xE5 SHL DUP2 MSTORE PUSH1 0x20 PUSH1 0x4 DUP3 ADD MSTORE PUSH1 0x9 PUSH1 0x24 DUP3 ADD MSTORE PUSH9 0x546F6F206561726C79 PUSH1 0xB8 SHL PUSH1 0x44 DUP3 ADD MSTORE PUSH1 0x64 ADD PUSH2 0x1FF JUMP JUMPDEST PUSH1 0x7 SLOAD PUSH1 0x1 PUSH1 0x1 PUSH1 0xA0 SHL SUB AND PUSH0 SWAP1 DUP2 MSTORE PUSH1 0x20 DUP2 SWAP1 MSTORE PUSH1 0x40 DUP2 KECCAK256 SLOAD SWAP1 POP PUSH0 PUSH1 0x64 PUSH1 0xA SLOAD DUP4 PUSH2 0xB22 SWAP2 SWAP1 PUSH2 0x1151 JUMP JUMPDEST PUSH2 0xB2C SWAP2 SWAP1 PUSH2 0x1168 JUMP JUMPDEST SWAP1 POP DUP1 ISZERO PUSH2 0xB90 JUMPI PUSH1 0x7 SLOAD PUSH2 0xB4A SWAP1 PUSH1 0x1 PUSH1 0x1 PUSH1 0xA0 SHL SUB AND DUP3 PUSH2 0xC38 JUMP JUMPDEST TIMESTAMP PUSH1 0x9 DUP2 SWAP1 SSTORE PUSH1 0xD DUP2 SWAP1 SSTORE PUSH1 0x40 DUP1 MLOAD DUP4 DUP2 MSTORE PUSH1 0x20 DUP2 ADD SWAP3 SWAP1 SWAP3 MSTORE PUSH32 0x394823B0BCAF78CD8F5876A52C05DBAB91512A05F5DA2A31E239A11AB66D605F SWAP2 ADD PUSH1 0x40 MLOAD DUP1 SWAP2 SUB SWAP1 LOG1 JUMPDEST POP POP PUSH2 0x7ED PUSH1 0x1 PUSH1 0x6 SSTORE JUMP JUMPDEST PUSH2 0xBA4 PUSH2 0xBE8 JUMP JUMPDEST PUSH1 0x1 PUSH1 0x1 PUSH1 0xA0 SHL SUB DUP2 AND PUSH2 0xBCD JUMPI PUSH1 0x40 MLOAD PUSH4 0x1E4FBDF7 PUSH1 0xE0 SHL DUP2 MSTORE PUSH0 PUSH1 0x4 DUP3 ADD MSTORE PUSH1 0x24 ADD PUSH2 0x1FF JUMP JUMPDEST PUSH2 0x7D9 DUP2 PUSH2 0xC6C JUMP JUMPDEST PUSH2 0xBE3 DUP4 DUP4 DUP4 PUSH1 0x1 PUSH2 0xD81 JUMP JUMPDEST POP POP POP JUMP JUMPDEST PUSH1 0x5 SLOAD PUSH1 0x1 PUSH1 0x1 PUSH1 0xA0 SHL SUB AND CALLER EQ PUSH2 0x7ED JUMPI PUSH1 0x40 MLOAD PUSH4 0x118CDAA7 PUSH1 0xE0 SHL DUP2 MSTORE CALLER PUSH1 0x4 DUP3 ADD MSTORE PUSH1 0x24 ADD PUSH2 0x1FF JUMP JUMPDEST PUSH0 CALLER PUSH2 0xC22 DUP6 DUP3 DUP6 PUSH2 0xCBD JUMP JUMPDEST PUSH2 0xC2D DUP6 DUP6 DUP6 PUSH2 0xE53 JUMP JUMPDEST POP PUSH1 0x1 SWAP5 SWAP4 POP POP POP POP JUMP JUMPDEST PUSH1 0x1 PUSH1 0x1 PUSH1 0xA0 SHL SUB DUP3 AND PUSH2 0xC61 JUMPI PUSH1 0x40 MLOAD PUSH4 0x4B637E8F PUSH1 0xE1 SHL DUP2 MSTORE PUSH0 PUSH1 0x4 DUP3 ADD MSTORE PUSH1 0x24 ADD PUSH2 0x1FF JUMP JUMPDEST PUSH2 0x81D DUP3 PUSH0 DUP4 PUSH2 0xEAC JUMP JUMPDEST PUSH1 0x5 DUP1 SLOAD PUSH1 0x1 PUSH1 0x1 PUSH1 0xA0 SHL SUB DUP4 DUP2 AND PUSH1 0x1 PUSH1 0x1 PUSH1 0xA0 SHL SUB NOT DUP4 AND DUP2 OR SWAP1 SWAP4 SSTORE PUSH1 0x40 MLOAD SWAP2 AND SWAP2 SWAP1 DUP3 SWAP1 PUSH32 0x8BE0079C531659141344CD1FD0A4F28419497F9722A3DAAFE3B4186F6B6457E0 SWAP1 PUSH0 SWAP1 LOG3 POP POP JUMP JUMPDEST PUSH1 0x1 PUSH1 0x1 PUSH1 0xA0 SHL SUB DUP4 DUP2 AND PUSH0 SWAP1 DUP2 MSTORE PUSH1 0x1 PUSH1 0x20 SWAP1 DUP2 MSTORE PUSH1 0x40 DUP1 DUP4 KECCAK256 SWAP4 DUP7 AND DUP4 MSTORE SWAP3 SWAP1 MSTORE KECCAK256 SLOAD PUSH0 NOT DUP2 LT ISZERO PUSH2 0xD33 JUMPI DUP2 DUP2 LT ISZERO PUSH2 0xD25 JUMPI PUSH1 0x40 MLOAD PUSH4 0x7DC7A0D9 PUSH1 0xE1 SHL DUP2 MSTORE PUSH1 0x1 PUSH1 0x1 PUSH1 0xA0 SHL SUB DUP5 AND PUSH1 0x4 DUP3 ADD MSTORE PUSH1 0x24 DUP2 ADD DUP3 SWAP1 MSTORE PUSH1 0x44 DUP2 ADD DUP4 SWAP1 MSTORE PUSH1 0x64 ADD PUSH2 0x1FF JUMP JUMPDEST PUSH2 0xD33 DUP5 DUP5 DUP5 DUP5 SUB PUSH0 PUSH2 0xD81 JUMP JUMPDEST POP POP POP POP JUMP JUMPDEST PUSH0 CALLER PUSH2 0x650 DUP2 DUP6 DUP6 PUSH2 0xE53 JUMP JUMPDEST PUSH1 0x2 PUSH1 0x6 SLOAD SUB PUSH2 0xD69 JUMPI PUSH1 0x40 MLOAD PUSH4 0x3EE5AEB5 PUSH1 0xE0 SHL DUP2 MSTORE PUSH1 0x4 ADD PUSH1 0x40 MLOAD DUP1 SWAP2 SUB SWAP1 REVERT JUMPDEST PUSH1 0x2 PUSH1 0x6 SSTORE JUMP JUMPDEST PUSH0 PUSH2 0xE10 PUSH1 0xD SLOAD PUSH2 0x800 SWAP2 SWAP1 PUSH2 0x1187 JUMP JUMPDEST PUSH1 0x1 PUSH1 0x1 PUSH1 0xA0 SHL SUB DUP5 AND PUSH2 0xDAA JUMPI PUSH1 0x40 MLOAD PUSH4 0xE602DF05 PUSH1 0xE0 SHL DUP2 MSTORE PUSH0 PUSH1 0x4 DUP3 ADD MSTORE PUSH1 0x24 ADD PUSH2 0x1FF JUMP JUMPDEST PUSH1 0x1 PUSH1 0x1 PUSH1 0xA0 SHL SUB DUP4 AND PUSH2 0xDD3 JUMPI PUSH1 0x40 MLOAD PUSH4 0x4A1406B1 PUSH1 0xE1 SHL DUP2 MSTORE PUSH0 PUSH1 0x4 DUP3 ADD MSTORE PUSH1 0x24 ADD PUSH2 0x1FF JUMP JUMPDEST PUSH1 0x1 PUSH1 0x1 PUSH1 0xA0 SHL SUB DUP1 DUP6 AND PUSH0 SWAP1 DUP2 MSTORE PUSH1 0x1 PUSH1 0x20 SWAP1 DUP2 MSTORE PUSH1 0x40 DUP1 DUP4 KECCAK256 SWAP4 DUP8 AND DUP4 MSTORE SWAP3 SWAP1 MSTORE KECCAK256 DUP3 SWAP1 SSTORE DUP1 ISZERO PUSH2 0xD33 JUMPI DUP3 PUSH1 0x1 PUSH1 0x1 PUSH1 0xA0 SHL SUB AND DUP5 PUSH1 0x1 PUSH1 0x1 PUSH1 0xA0 SHL SUB AND PUSH32 0x8C5BE1E5EBEC7D5BD14F71427D1E84F3DD0314C0F7B2291E5B200AC8C7C3B925 DUP5 PUSH1 0x40 MLOAD PUSH2 0xE45 SWAP2 DUP2 MSTORE PUSH1 0x20 ADD SWAP1 JUMP JUMPDEST PUSH1 0x40 MLOAD DUP1 SWAP2 SUB SWAP1 LOG3 POP POP POP POP JUMP JUMPDEST PUSH1 0x1 PUSH1 0x1 PUSH1 0xA0 SHL SUB DUP4 AND PUSH2 0xE7C JUMPI PUSH1 0x40 MLOAD PUSH4 0x4B637E8F PUSH1 0xE1 SHL DUP2 MSTORE PUSH0 PUSH1 0x4 DUP3 ADD MSTORE PUSH1 0x24 ADD PUSH2 0x1FF JUMP JUMPDEST PUSH1 0x1 PUSH1 0x1 PUSH1 0xA0 SHL SUB DUP3 AND PUSH2 0xEA5 JUMPI PUSH1 0x40 MLOAD PUSH4 0xEC442F05 PUSH1 0xE0 SHL DUP2 MSTORE PUSH0 PUSH1 0x4 DUP3 ADD MSTORE PUSH1 0x24 ADD PUSH2 0x1FF JUMP JUMPDEST PUSH2 0xBE3 DUP4 DUP4 DUP4 JUMPDEST PUSH1 0x1 PUSH1 0x1 PUSH1 0xA0 SHL SUB DUP4 AND PUSH2 0xED6 JUMPI DUP1 PUSH1 0x2 PUSH0 DUP3 DUP3 SLOAD PUSH2 0xECB SWAP2 SWAP1 PUSH2 0x1187 JUMP JUMPDEST SWAP1 SWAP2 SSTORE POP PUSH2 0xF46 SWAP1 POP JUMP JUMPDEST PUSH1 0x1 PUSH1 0x1 PUSH1 0xA0 SHL SUB DUP4 AND PUSH0 SWAP1 DUP2 MSTORE PUSH1 0x20 DUP2 SWAP1 MSTORE PUSH1 0x40 SWAP1 KECCAK256 SLOAD DUP2 DUP2 LT ISZERO PUSH2 0xF28 JUMPI PUSH1 0x40 MLOAD PUSH4 0x391434E3 PUSH1 0xE2 SHL DUP2 MSTORE PUSH1 0x1 PUSH1 0x1 PUSH1 0xA0 SHL SUB DUP6 AND PUSH1 0x4 DUP3 ADD MSTORE PUSH1 0x24 DUP2 ADD DUP3 SWAP1 MSTORE PUSH1 0x44 DUP2 ADD DUP4 SWAP1 MSTORE PUSH1 0x64 ADD PUSH2 0x1FF JUMP JUMPDEST PUSH1 0x1 PUSH1 0x1 PUSH1 0xA0 SHL SUB DUP5 AND PUSH0 SWAP1 DUP2 MSTORE PUSH1 0x20 DUP2 SWAP1 MSTORE PUSH1 0x40 SWAP1 KECCAK256 SWAP1 DUP3 SWAP1 SUB SWAP1 SSTORE JUMPDEST PUSH1 0x1 PUSH1 0x1 PUSH1 0xA0 SHL SUB DUP3 AND PUSH2 0xF62 JUMPI PUSH1 0x2 DUP1 SLOAD DUP3 SWAP1 SUB SWAP1 SSTORE PUSH2 0xF80 JUMP JUMPDEST PUSH1 0x1 PUSH1 0x1 PUSH1 0xA0 SHL SUB DUP3 AND PUSH0 SWAP1 DUP2 MSTORE PUSH1 0x20 DUP2 SWAP1 MSTORE PUSH1 0x40 SWAP1 KECCAK256 DUP1 SLOAD DUP3 ADD SWAP1 SSTORE JUMPDEST DUP2 PUSH1 0x1 PUSH1 0x1 PUSH1 0xA0 SHL SUB AND DUP4 PUSH1 0x1 PUSH1 0x1 PUSH1 0xA0 SHL SUB AND PUSH32 0xDDF252AD1BE2C89B69C2B068FC378DAA952BA7F163C4A11628F55A4DF523B3EF DUP4 PUSH1 0x40 MLOAD PUSH2 0xFC5 SWAP2 DUP2 MSTORE PUSH1 0x20 ADD SWAP1 JUMP JUMPDEST PUSH1 0x40 MLOAD DUP1 SWAP2 SUB SWAP1 LOG3 POP POP POP JUMP JUMPDEST PUSH1 0x20 DUP2 MSTORE PUSH0 DUP3 MLOAD DUP1 PUSH1 0x20 DUP5 ADD MSTORE DUP1 PUSH1 0x20 DUP6 ADD PUSH1 0x40 DUP6 ADD MCOPY PUSH0 PUSH1 0x40 DUP3 DUP6 ADD ADD MSTORE PUSH1 0x40 PUSH1 0x1F NOT PUSH1 0x1F DUP4 ADD AND DUP5 ADD ADD SWAP2 POP POP SWAP3 SWAP2 POP POP JUMP JUMPDEST DUP1 CALLDATALOAD PUSH1 0x1 PUSH1 0x1 PUSH1 0xA0 SHL SUB DUP2 AND DUP2 EQ PUSH2 0x101D JUMPI PUSH0 PUSH0 REVERT JUMPDEST SWAP2 SWAP1 POP JUMP JUMPDEST PUSH0 PUSH0 PUSH1 0x40 DUP4 DUP6 SUB SLT ISZERO PUSH2 0x1033 JUMPI PUSH0 PUSH0 REVERT JUMPDEST PUSH2 0x103C DUP4 PUSH2 0x1007 JUMP JUMPDEST SWAP5 PUSH1 0x20 SWAP4 SWAP1 SWAP4 ADD CALLDATALOAD SWAP4 POP POP POP JUMP JUMPDEST PUSH0 PUSH1 0x20 DUP3 DUP5 SUB SLT ISZERO PUSH2 0x105A JUMPI PUSH0 PUSH0 REVERT JUMPDEST POP CALLDATALOAD SWAP2 SWAP1 POP JUMP JUMPDEST PUSH0 PUSH1 0x20 DUP3 DUP5 SUB SLT ISZERO PUSH2 0x1071 JUMPI PUSH0 PUSH0 REVERT JUMPDEST PUSH2 0x68C DUP3 PUSH2 0x1007 JUMP JUMPDEST PUSH0 PUSH0 PUSH0 PUSH1 0x60 DUP5 DUP7 SUB SLT ISZERO PUSH2 0x108C JUMPI PUSH0 PUSH0 REVERT JUMPDEST PUSH2 0x1095 DUP5 PUSH2 0x1007 JUMP JUMPDEST SWAP3 POP PUSH2 0x10A3 PUSH1 0x20 DUP6 ADD PUSH2 0x1007 JUMP JUMPDEST SWAP3 SWAP6 SWAP3 SWAP5 POP POP POP PUSH1 0x40 SWAP2 SWAP1 SWAP2 ADD CALLDATALOAD SWAP1 JUMP JUMPDEST PUSH0 PUSH0 PUSH1 0x40 DUP4 DUP6 SUB SLT ISZERO PUSH2 0x10C5 JUMPI PUSH0 PUSH0 REVERT JUMPDEST POP POP DUP1 CALLDATALOAD SWAP3 PUSH1 0x20 SWAP1 SWAP2 ADD CALLDATALOAD SWAP2 POP JUMP JUMPDEST PUSH0 PUSH0 PUSH1 0x40 DUP4 DUP6 SUB SLT ISZERO PUSH2 0x10E5 JUMPI PUSH0 PUSH0 REVERT JUMPDEST PUSH2 0x10EE DUP4 PUSH2 0x1007 JUMP JUMPDEST SWAP2 POP PUSH2 0x10FC PUSH1 0x20 DUP5 ADD PUSH2 0x1007 JUMP JUMPDEST SWAP1 POP SWAP3 POP SWAP3 SWAP1 POP JUMP JUMPDEST PUSH1 0x1 DUP2 DUP2 SHR SWAP1 DUP3 AND DUP1 PUSH2 0x1119 JUMPI PUSH1 0x7F DUP3 AND SWAP2 POP JUMPDEST PUSH1 0x20 DUP3 LT DUP2 SUB PUSH2 0x1137 JUMPI PUSH4 0x4E487B71 PUSH1 0xE0 SHL PUSH0 MSTORE PUSH1 0x22 PUSH1 0x4 MSTORE PUSH1 0x24 PUSH0 REVERT JUMPDEST POP SWAP2 SWAP1 POP JUMP JUMPDEST PUSH4 0x4E487B71 PUSH1 0xE0 SHL PUSH0 MSTORE PUSH1 0x11 PUSH1 0x4 MSTORE PUSH1 0x24 PUSH0 REVERT JUMPDEST DUP1 DUP3 MUL DUP2 ISZERO DUP3 DUP3 DIV DUP5 EQ OR PUSH2 0x656 JUMPI PUSH2 0x656 PUSH2 0x113D JUMP JUMPDEST PUSH0 DUP3 PUSH2 0x1182 JUMPI PUSH4 0x4E487B71 PUSH1 0xE0 SHL PUSH0 MSTORE PUSH1 0x12 PUSH1 0x4 MSTORE PUSH1 0x24 PUSH0 REVERT JUMPDEST POP DIV SWAP1 JUMP JUMPDEST DUP1 DUP3 ADD DUP1 DUP3 GT ISZERO PUSH2 0x656 JUMPI PUSH2 0x656 PUSH2 0x113D JUMP INVALID LOG2 PUSH5 0x6970667358 0x22 SLT KECCAK256 PUSH1 0xDC PUSH28 0xCB3671745BD36EBDD551468CC2D2F26D49E9E6900EE8CAED225E842A PUSH5 0x64736F6C63 NUMBER STOP ADDMOD SAR STOP CALLER "
				},
				"gasEstimates": {
					"creation": {
						"codeDepositCost": "912000",
						"executionCost": "infinite",
						"totalCost": "infinite"
					},
					"external": {
						"": "320",
						"allowance(address,address)": "infinite",
						"approve(address,uint256)": "24780",
						"balanceOf(address)": "2626",
						"burn(uint256)": "51006",
						"burnFrom(address,uint256)": "infinite",
						"confirmTreasuryUpdate()": "56512",
						"decimals()": "244",
						"executeHalving()": "infinite",
						"getExpectedBurn(uint256)": "4824",
						"halvingInterval()": "2361",
						"halvingRate()": "2384",
						"isHalvingDue()": "4551",
						"lastHalvingTime()": "2361",
						"lastOperationTime()": "2340",
						"name()": "infinite",
						"owner()": "2419",
						"pendingTreasury()": "2382",
						"proposeTreasuryUpdate(address)": "52524",
						"renounceOwnership()": "infinite",
						"symbol()": "infinite",
						"timelockExpiry()": "2360",
						"totalSupply()": "2359",
						"transfer(address,uint256)": "infinite",
						"transferFrom(address,address,uint256)": "infinite",
						"transferOwnership(address)": "28443",
						"treasury()": "2381",
						"updateHalvingParams(uint256,uint256)": "48080",
						"updateTreasury(address)": "26778"
					},
					"internal": {
						"_checkRateLimit()": "2213"
					}
				},
				"methodIdentifiers": {
					"allowance(address,address)": "dd62ed3e",
					"approve(address,uint256)": "095ea7b3",
					"balanceOf(address)": "70a08231",
					"burn(uint256)": "42966c68",
					"burnFrom(address,uint256)": "79cc6790",
					"confirmTreasuryUpdate()": "bd666d24",
					"decimals()": "313ce567",
					"executeHalving()": "ed299016",
					"getExpectedBurn(uint256)": "102b67ab",
					"halvingInterval()": "6a47aa06",
					"halvingRate()": "7e6335f4",
					"isHalvingDue()": "768a4173",
					"lastHalvingTime()": "8cbb6df7",
					"lastOperationTime()": "16d43a97",
					"name()": "06fdde03",
					"owner()": "8da5cb5b",
					"pendingTreasury()": "2ed6b75d",
					"proposeTreasuryUpdate(address)": "225cf6e4",
					"renounceOwnership()": "715018a6",
					"symbol()": "95d89b41",
					"timelockExpiry()": "e0b0642e",
					"totalSupply()": "18160ddd",
					"transfer(address,uint256)": "a9059cbb",
					"transferFrom(address,address,uint256)": "23b872dd",
					"transferOwnership(address)": "f2fde38b",
					"treasury()": "61d027b3",
					"updateHalvingParams(uint256,uint256)": "bbb0b1a6",
					"updateTreasury(address)": "7f51bb1f"
				}
			},
			"storageLayout": {
				"storage": [
					{
						"astId": 307,
						"contract": "contracts/Cardeiro_2.0.sol:Cardeiro",
						"label": "_balances",
						"offset": 0,
						"slot": "0",
						"type": "t_mapping(t_address,t_uint256)"
					},
					{
						"astId": 313,
						"contract": "contracts/Cardeiro_2.0.sol:Cardeiro",
						"label": "_allowances",
						"offset": 0,
						"slot": "1",
						"type": "t_mapping(t_address,t_mapping(t_address,t_uint256))"
					},
					{
						"astId": 315,
						"contract": "contracts/Cardeiro_2.0.sol:Cardeiro",
						"label": "_totalSupply",
						"offset": 0,
						"slot": "2",
						"type": "t_uint256"
					},
					{
						"astId": 317,
						"contract": "contracts/Cardeiro_2.0.sol:Cardeiro",
						"label": "_name",
						"offset": 0,
						"slot": "3",
						"type": "t_string_storage"
					},
					{
						"astId": 319,
						"contract": "contracts/Cardeiro_2.0.sol:Cardeiro",
						"label": "_symbol",
						"offset": 0,
						"slot": "4",
						"type": "t_string_storage"
					},
					{
						"astId": 8,
						"contract": "contracts/Cardeiro_2.0.sol:Cardeiro",
						"label": "_owner",
						"offset": 0,
						"slot": "5",
						"type": "t_address"
					},
					{
						"astId": 990,
						"contract": "contracts/Cardeiro_2.0.sol:Cardeiro",
						"label": "_status",
						"offset": 0,
						"slot": "6",
						"type": "t_uint256"
					},
					{
						"astId": 1068,
						"contract": "contracts/Cardeiro_2.0.sol:Cardeiro",
						"label": "treasury",
						"offset": 0,
						"slot": "7",
						"type": "t_address"
					},
					{
						"astId": 1070,
						"contract": "contracts/Cardeiro_2.0.sol:Cardeiro",
						"label": "halvingInterval",
						"offset": 0,
						"slot": "8",
						"type": "t_uint256"
					},
					{
						"astId": 1072,
						"contract": "contracts/Cardeiro_2.0.sol:Cardeiro",
						"label": "lastHalvingTime",
						"offset": 0,
						"slot": "9",
						"type": "t_uint256"
					},
					{
						"astId": 1074,
						"contract": "contracts/Cardeiro_2.0.sol:Cardeiro",
						"label": "halvingRate",
						"offset": 0,
						"slot": "10",
						"type": "t_uint256"
					},
					{
						"astId": 1102,
						"contract": "contracts/Cardeiro_2.0.sol:Cardeiro",
						"label": "timelockExpiry",
						"offset": 0,
						"slot": "11",
						"type": "t_uint256"
					},
					{
						"astId": 1104,
						"contract": "contracts/Cardeiro_2.0.sol:Cardeiro",
						"label": "pendingTreasury",
						"offset": 0,
						"slot": "12",
						"type": "t_address"
					},
					{
						"astId": 1106,
						"contract": "contracts/Cardeiro_2.0.sol:Cardeiro",
						"label": "lastOperationTime",
						"offset": 0,
						"slot": "13",
						"type": "t_uint256"
					}
				],
				"types": {
					"t_address": {
						"encoding": "inplace",
						"label": "address",
						"numberOfBytes": "20"
					},
					"t_mapping(t_address,t_mapping(t_address,t_uint256))": {
						"encoding": "mapping",
						"key": "t_address",
						"label": "mapping(address => mapping(address => uint256))",
						"numberOfBytes": "32",
						"value": "t_mapping(t_address,t_uint256)"
					},
					"t_mapping(t_address,t_uint256)": {
						"encoding": "mapping",
						"key": "t_address",
						"label": "mapping(address => uint256)",
						"numberOfBytes": "32",
						"value": "t_uint256"
					},
					"t_string_storage": {
						"encoding": "bytes",
						"label": "string",
						"numberOfBytes": "32"
					},
					"t_uint256": {
						"encoding": "inplace",
						"label": "uint256",
						"numberOfBytes": "32"
					}
				}
			},
			"userdoc": {
				"kind": "user",
				"methods": {},
				"version": 1
			}
		}
	}
}