{
	"contracts/Cardeiro_4.sol": {
		"Cardeiro": {
			"abi": [
				{
					"inputs": [
						{
							"internalType": "uint256",
							"name": "initialSupply",
							"type": "uint256"
						},
						{
							"internalType": "address",
							"name": "_treasury",
							"type": "address"
						},
						{
							"internalType": "uint256",
							"name": "_halvingInterval",
							"type": "uint256"
						},
						{
							"internalType": "uint256",
							"name": "_halvingRate",
							"type": "uint256"
						}
					],
					"stateMutability": "nonpayable",
					"type": "constructor"
				},
				{
					"inputs": [
						{
							"internalType": "address",
							"name": "spender",
							"type": "address"
						},
						{
							"internalType": "uint256",
							"name": "allowance",
							"type": "uint256"
						},
						{
							"internalType": "uint256",
							"name": "needed",
							"type": "uint256"
						}
					],
					"name": "ERC20InsufficientAllowance",
					"type": "error"
				},
				{
					"inputs": [
						{
							"internalType": "address",
							"name": "sender",
							"type": "address"
						},
						{
							"internalType": "uint256",
							"name": "balance",
							"type": "uint256"
						},
						{
							"internalType": "uint256",
							"name": "needed",
							"type": "uint256"
						}
					],
					"name": "ERC20InsufficientBalance",
					"type": "error"
				},
				{
					"inputs": [
						{
							"internalType": "address",
							"name": "approver",
							"type": "address"
						}
					],
					"name": "ERC20InvalidApprover",
					"type": "error"
				},
				{
					"inputs": [
						{
							"internalType": "address",
							"name": "receiver",
							"type": "address"
						}
					],
					"name": "ERC20InvalidReceiver",
					"type": "error"
				},
				{
					"inputs": [
						{
							"internalType": "address",
							"name": "sender",
							"type": "address"
						}
					],
					"name": "ERC20InvalidSender",
					"type": "error"
				},
				{
					"inputs": [
						{
							"internalType": "address",
							"name": "spender",
							"type": "address"
						}
					],
					"name": "ERC20InvalidSpender",
					"type": "error"
				},
				{
					"inputs": [
						{
							"internalType": "address",
							"name": "owner",
							"type": "address"
						}
					],
					"name": "OwnableInvalidOwner",
					"type": "error"
				},
				{
					"inputs": [
						{
							"internalType": "address",
							"name": "account",
							"type": "address"
						}
					],
					"name": "OwnableUnauthorizedAccount",
					"type": "error"
				},
				{
					"inputs": [],
					"name": "ReentrancyGuardReentrantCall",
					"type": "error"
				},
				{
					"anonymous": false,
					"inputs": [
						{
							"indexed": true,
							"internalType": "address",
							"name": "owner",
							"type": "address"
						},
						{
							"indexed": true,
							"internalType": "address",
							"name": "spender",
							"type": "address"
						},
						{
							"indexed": false,
							"internalType": "uint256",
							"name": "value",
							"type": "uint256"
						}
					],
					"name": "Approval",
					"type": "event"
				},
				{
					"anonymous": false,
					"inputs": [
						{
							"indexed": false,
							"internalType": "uint256",
							"name": "burnedAmount",
							"type": "uint256"
						},
						{
							"indexed": false,
							"internalType": "uint256",
							"name": "timestamp",
							"type": "uint256"
						}
					],
					"name": "Halving",
					"type": "event"
				},
				{
					"anonymous": false,
					"inputs": [
						{
							"indexed": true,
							"internalType": "address",
							"name": "previousOwner",
							"type": "address"
						},
						{
							"indexed": true,
							"internalType": "address",
							"name": "newOwner",
							"type": "address"
						}
					],
					"name": "OwnershipTransferred",
					"type": "event"
				},
				{
					"anonymous": false,
					"inputs": [
						{
							"indexed": true,
							"internalType": "address",
							"name": "from",
							"type": "address"
						},
						{
							"indexed": true,
							"internalType": "address",
							"name": "to",
							"type": "address"
						},
						{
							"indexed": false,
							"internalType": "uint256",
							"name": "value",
							"type": "uint256"
						}
					],
					"name": "Transfer",
					"type": "event"
				},
				{
					"stateMutability": "payable",
					"type": "fallback"
				},
				{
					"inputs": [
						{
							"internalType": "address",
							"name": "owner",
							"type": "address"
						},
						{
							"internalType": "address",
							"name": "spender",
							"type": "address"
						}
					],
					"name": "allowance",
					"outputs": [
						{
							"internalType": "uint256",
							"name": "",
							"type": "uint256"
						}
					],
					"stateMutability": "view",
					"type": "function"
				},
				{
					"inputs": [
						{
							"internalType": "address",
							"name": "spender",
							"type": "address"
						},
						{
							"internalType": "uint256",
							"name": "value",
							"type": "uint256"
						}
					],
					"name": "approve",
					"outputs": [
						{
							"internalType": "bool",
							"name": "",
							"type": "bool"
						}
					],
					"stateMutability": "nonpayable",
					"type": "function"
				},
				{
					"inputs": [
						{
							"internalType": "address",
							"name": "account",
							"type": "address"
						}
					],
					"name": "balanceOf",
					"outputs": [
						{
							"internalType": "uint256",
							"name": "",
							"type": "uint256"
						}
					],
					"stateMutability": "view",
					"type": "function"
				},
				{
					"inputs": [
						{
							"internalType": "uint256",
							"name": "value",
							"type": "uint256"
						}
					],
					"name": "burn",
					"outputs": [],
					"stateMutability": "nonpayable",
					"type": "function"
				},
				{
					"inputs": [
						{
							"internalType": "address",
							"name": "account",
							"type": "address"
						},
						{
							"internalType": "uint256",
							"name": "value",
							"type": "uint256"
						}
					],
					"name": "burnFrom",
					"outputs": [],
					"stateMutability": "nonpayable",
					"type": "function"
				},
				{
					"inputs": [],
					"name": "decimals",
					"outputs": [
						{
							"internalType": "uint8",
							"name": "",
							"type": "uint8"
						}
					],
					"stateMutability": "view",
					"type": "function"
				},
				{
					"inputs": [],
					"name": "executeHalving",
					"outputs": [],
					"stateMutability": "nonpayable",
					"type": "function"
				},
				{
					"inputs": [
						{
							"internalType": "uint256",
							"name": "rate",
							"type": "uint256"
						}
					],
					"name": "getExpectedBurn",
					"outputs": [
						{
							"internalType": "uint256",
							"name": "",
							"type": "uint256"
						}
					],
					"stateMutability": "view",
					"type": "function"
				},
				{
					"inputs": [],
					"name": "halvingInterval",
					"outputs": [
						{
							"internalType": "uint256",
							"name": "",
							"type": "uint256"
						}
					],
					"stateMutability": "view",
					"type": "function"
				},
				{
					"inputs": [],
					"name": "halvingRate",
					"outputs": [
						{
							"internalType": "uint256",
							"name": "",
							"type": "uint256"
						}
					],
					"stateMutability": "view",
					"type": "function"
				},
				{
					"inputs": [],
					"name": "isHalvingDue",
					"outputs": [
						{
							"internalType": "bool",
							"name": "",
							"type": "bool"
						}
					],
					"stateMutability": "view",
					"type": "function"
				},
				{
					"inputs": [],
					"name": "lastHalvingTime",
					"outputs": [
						{
							"internalType": "uint256",
							"name": "",
							"type": "uint256"
						}
					],
					"stateMutability": "view",
					"type": "function"
				},
				{
					"inputs": [],
					"name": "name",
					"outputs": [
						{
							"internalType": "string",
							"name": "",
							"type": "string"
						}
					],
					"stateMutability": "view",
					"type": "function"
				},
				{
					"inputs": [],
					"name": "owner",
					"outputs": [
						{
							"internalType": "address",
							"name": "",
							"type": "address"
						}
					],
					"stateMutability": "view",
					"type": "function"
				},
				{
					"inputs": [],
					"name": "renounceOwnership",
					"outputs": [],
					"stateMutability": "nonpayable",
					"type": "function"
				},
				{
					"inputs": [],
					"name": "symbol",
					"outputs": [
						{
							"internalType": "string",
							"name": "",
							"type": "string"
						}
					],
					"stateMutability": "view",
					"type": "function"
				},
				{
					"inputs": [],
					"name": "totalSupply",
					"outputs": [
						{
							"internalType": "uint256",
							"name": "",
							"type": "uint256"
						}
					],
					"stateMutability": "view",
					"type": "function"
				},
				{
					"inputs": [
						{
							"internalType": "address",
							"name": "to",
							"type": "address"
						},
						{
							"internalType": "uint256",
							"name": "amount",
							"type": "uint256"
						}
					],
					"name": "transfer",
					"outputs": [
						{
							"internalType": "bool",
							"name": "",
							"type": "bool"
						}
					],
					"stateMutability": "nonpayable",
					"type": "function"
				},
				{
					"inputs": [
						{
							"internalType": "address",
							"name": "from",
							"type": "address"
						},
						{
							"internalType": "address",
							"name": "to",
							"type": "address"
						},
						{
							"internalType": "uint256",
							"name": "amount",
							"type": "uint256"
						}
					],
					"name": "transferFrom",
					"outputs": [
						{
							"internalType": "bool",
							"name": "",
							"type": "bool"
						}
					],
					"stateMutability": "nonpayable",
					"type": "function"
				},
				{
					"inputs": [
						{
							"internalType": "address",
							"name": "newOwner",
							"type": "address"
						}
					],
					"name": "transferOwnership",
					"outputs": [],
					"stateMutability": "nonpayable",
					"type": "function"
				},
				{
					"inputs": [],
					"name": "treasury",
					"outputs": [
						{
							"internalType": "address",
							"name": "",
							"type": "address"
						}
					],
					"stateMutability": "view",
					"type": "function"
				},
				{
					"inputs": [
						{
							"internalType": "uint256",
							"name": "_halvingInterval",
							"type": "uint256"
						},
						{
							"internalType": "uint256",
							"name": "_halvingRate",
							"type": "uint256"
						}
					],
					"name": "updateHalvingParams",
					"outputs": [],
					"stateMutability": "nonpayable",
					"type": "function"
				},
				{
					"inputs": [
						{
							"internalType": "address",
							"name": "_treasury",
							"type": "address"
						}
					],
					"name": "updateTreasury",
					"outputs": [],
					"stateMutability": "nonpayable",
					"type": "function"
				},
				{
					"stateMutability": "payable",
					"type": "receive"
				}
			],
			"devdoc": {
				"errors": {
					"ERC20InsufficientAllowance(address,uint256,uint256)": [
						{
							"details": "Indicates a failure with the `spender`’s `allowance`. Used in transfers.",
							"params": {
								"allowance": "Amount of tokens a `spender` is allowed to operate with.",
								"needed": "Minimum amount required to perform a transfer.",
								"spender": "Address that may be allowed to operate on tokens without being their owner."
							}
						}
					],
					"ERC20InsufficientBalance(address,uint256,uint256)": [
						{
							"details": "Indicates an error related to the current `balance` of a `sender`. Used in transfers.",
							"params": {
								"balance": "Current balance for the interacting account.",
								"needed": "Minimum amount required to perform a transfer.",
								"sender": "Address whose tokens are being transferred."
							}
						}
					],
					"ERC20InvalidApprover(address)": [
						{
							"details": "Indicates a failure with the `approver` of a token to be approved. Used in approvals.",
							"params": {
								"approver": "Address initiating an approval operation."
							}
						}
					],
					"ERC20InvalidReceiver(address)": [
						{
							"details": "Indicates a failure with the token `receiver`. Used in transfers.",
							"params": {
								"receiver": "Address to which tokens are being transferred."
							}
						}
					],
					"ERC20InvalidSender(address)": [
						{
							"details": "Indicates a failure with the token `sender`. Used in transfers.",
							"params": {
								"sender": "Address whose tokens are being transferred."
							}
						}
					],
					"ERC20InvalidSpender(address)": [
						{
							"details": "Indicates a failure with the `spender` to be approved. Used in approvals.",
							"params": {
								"spender": "Address that may be allowed to operate on tokens without being their owner."
							}
						}
					],
					"OwnableInvalidOwner(address)": [
						{
							"details": "The owner is not a valid owner account. (eg. `address(0)`)"
						}
					],
					"OwnableUnauthorizedAccount(address)": [
						{
							"details": "The caller account is not authorized to perform an operation."
						}
					],
					"ReentrancyGuardReentrantCall()": [
						{
							"details": "Unauthorized reentrant call."
						}
					]
				},
				"events": {
					"Approval(address,address,uint256)": {
						"details": "Emitted when the allowance of a `spender` for an `owner` is set by a call to {approve}. `value` is the new allowance."
					},
					"Transfer(address,address,uint256)": {
						"details": "Emitted when `value` tokens are moved from one account (`from`) to another (`to`). Note that `value` may be zero."
					}
				},
				"kind": "dev",
				"methods": {
					"allowance(address,address)": {
						"details": "See {IERC20-allowance}."
					},
					"approve(address,uint256)": {
						"details": "See {IERC20-approve}. NOTE: If `value` is the maximum `uint256`, the allowance is not updated on `transferFrom`. This is semantically equivalent to an infinite approval. Requirements: - `spender` cannot be the zero address."
					},
					"balanceOf(address)": {
						"details": "See {IERC20-balanceOf}."
					},
					"burn(uint256)": {
						"details": "Destroys a `value` amount of tokens from the caller. See {ERC20-_burn}."
					},
					"burnFrom(address,uint256)": {
						"details": "Destroys a `value` amount of tokens from `account`, deducting from the caller's allowance. See {ERC20-_burn} and {ERC20-allowance}. Requirements: - the caller must have allowance for ``accounts``'s tokens of at least `value`."
					},
					"decimals()": {
						"details": "Returns the number of decimals used to get its user representation. For example, if `decimals` equals `2`, a balance of `505` tokens should be displayed to a user as `5.05` (`505 / 10 ** 2`). Tokens usually opt for a value of 18, imitating the relationship between Ether and Wei. This is the default value returned by this function, unless it's overridden. NOTE: This information is only used for _display_ purposes: it in no way affects any of the arithmetic of the contract, including {IERC20-balanceOf} and {IERC20-transfer}."
					},
					"name()": {
						"details": "Returns the name of the token."
					},
					"owner()": {
						"details": "Returns the address of the current owner."
					},
					"renounceOwnership()": {
						"details": "Leaves the contract without owner. It will not be possible to call `onlyOwner` functions. Can only be called by the current owner. NOTE: Renouncing ownership will leave the contract without an owner, thereby disabling any functionality that is only available to the owner."
					},
					"symbol()": {
						"details": "Returns the symbol of the token, usually a shorter version of the name."
					},
					"totalSupply()": {
						"details": "See {IERC20-totalSupply}."
					},
					"transferOwnership(address)": {
						"details": "Transfers ownership of the contract to a new account (`newOwner`). Can only be called by the current owner."
					}
				},
				"version": 1
			},
			"evm": {
				"assembly": "    /* \"contracts/Cardeiro_4.sol\":563:4530  contract Cardeiro is ERC20, ERC20Burnable, Ownable, ReentrancyGuard {... */\n  mstore(0x40, 0x80)\n    /* \"contracts/Cardeiro_4.sol\":1674:2308  constructor(... */\n  callvalue\n  dup1\n  iszero\n  tag_1\n  jumpi\n  revert(0x00, 0x00)\ntag_1:\n  pop\n  mload(0x40)\n  sub(codesize, bytecodeSize)\n  dup1\n  bytecodeSize\n  dup4\n  codecopy\n  dup2\n  add\n  0x40\n  dup2\n  swap1\n  mstore\n  tag_2\n  swap2\n  tag_3\n  jump\t// in\ntag_2:\n    /* \"contracts/Cardeiro_4.sol\":1848:1858  msg.sender */\n  caller\n    /* \"@openzeppelin/contracts/token/ERC20/ERC20.sol\":1601:1714  constructor(string memory name_, string memory symbol_) {... */\n  mload(0x40)\n  dup1\n  0x40\n  add\n  0x40\n  mstore\n  dup1\n  0x08\n  dup2\n  mstore\n  0x20\n  add\n  shl(0xc0, 0x436172646569726f)\n  dup2\n  mstore\n  pop\n  mload(0x40)\n  dup1\n  0x40\n  add\n  0x40\n  mstore\n  dup1\n  0x03\n  dup2\n  mstore\n  0x20\n  add\n  shl(0xea, 0x10d115)\n  dup2\n  mstore\n  pop\n    /* \"@openzeppelin/contracts/token/ERC20/ERC20.sol\":1675:1680  name_ */\n  dup2\n    /* \"@openzeppelin/contracts/token/ERC20/ERC20.sol\":1667:1672  _name */\n  0x03\n    /* \"@openzeppelin/contracts/token/ERC20/ERC20.sol\":1667:1680  _name = name_ */\n  swap1\n  dup2\n  tag_9\n  swap2\n  swap1\n  tag_10\n  jump\t// in\ntag_9:\n  pop\n    /* \"@openzeppelin/contracts/token/ERC20/ERC20.sol\":1690:1697  _symbol */\n  0x04\n    /* \"@openzeppelin/contracts/token/ERC20/ERC20.sol\":1690:1707  _symbol = symbol_ */\n  tag_11\n    /* \"@openzeppelin/contracts/token/ERC20/ERC20.sol\":1700:1707  symbol_ */\n  dup3\n    /* \"@openzeppelin/contracts/token/ERC20/ERC20.sol\":1690:1697  _symbol */\n  dup3\n    /* \"@openzeppelin/contracts/token/ERC20/ERC20.sol\":1690:1707  _symbol = symbol_ */\n  tag_10\n  jump\t// in\ntag_11:\n  pop\n  pop\n  pop\n  sub(shl(0xa0, 0x01), 0x01)\n    /* \"@openzeppelin/contracts/access/Ownable.sol\":1273:1299  initialOwner == address(0) */\n  dup2\n  and\n    /* \"@openzeppelin/contracts/access/Ownable.sol\":1269:1364  if (initialOwner == address(0)) {... */\n  tag_13\n  jumpi\n    /* \"@openzeppelin/contracts/access/Ownable.sol\":1322:1353  OwnableInvalidOwner(address(0)) */\n  mload(0x40)\n  shl(0xe0, 0x1e4fbdf7)\n  dup2\n  mstore\n    /* \"@openzeppelin/contracts/access/Ownable.sol\":1350:1351  0 */\n  0x00\n    /* \"@openzeppelin/contracts/access/Ownable.sol\":1322:1353  OwnableInvalidOwner(address(0)) */\n  0x04\n  dup3\n  add\n    /* \"#utility.yul\":3438:3489   */\n  mstore\n    /* \"#utility.yul\":3411:3429   */\n  0x24\n  add\n    /* \"@openzeppelin/contracts/access/Ownable.sol\":1322:1353  OwnableInvalidOwner(address(0)) */\ntag_14:\n  mload(0x40)\n  dup1\n  swap2\n  sub\n  swap1\n  revert\n    /* \"@openzeppelin/contracts/access/Ownable.sol\":1269:1364  if (initialOwner == address(0)) {... */\ntag_13:\n    /* \"@openzeppelin/contracts/access/Ownable.sol\":1373:1405  _transferOwnership(initialOwner) */\n  tag_16\n    /* \"@openzeppelin/contracts/access/Ownable.sol\":1392:1404  initialOwner */\n  dup2\n    /* \"@openzeppelin/contracts/access/Ownable.sol\":1373:1391  _transferOwnership */\n  tag_17\n    /* \"@openzeppelin/contracts/access/Ownable.sol\":1373:1405  _transferOwnership(initialOwner) */\n  jump\t// in\ntag_16:\n  pop\n    /* \"@openzeppelin/contracts/utils/ReentrancyGuard.sol\":1857:1858  1 */\n  0x01\n    /* \"@openzeppelin/contracts/utils/ReentrancyGuard.sol\":2061:2068  _status */\n  0x06\n    /* \"@openzeppelin/contracts/utils/ReentrancyGuard.sol\":2061:2082  _status = NOT_ENTERED */\n  sstore\n    /* \"contracts/Cardeiro_4.sol\":1894:1897  100 */\n  0x64\n    /* \"contracts/Cardeiro_4.sol\":1878:1897  _halvingRate <= 100 */\n  dup2\n  gt\n  iszero\n    /* \"contracts/Cardeiro_4.sol\":1870:1933  require(_halvingRate <= 100, \"Halving rate cannot exceed 100%\") */\n  tag_20\n  jumpi\n  mload(0x40)\n  shl(0xe5, 0x461bcd)\n  dup2\n  mstore\n    /* \"#utility.yul\":3702:3704   */\n  0x20\n    /* \"contracts/Cardeiro_4.sol\":1870:1933  require(_halvingRate <= 100, \"Halving rate cannot exceed 100%\") */\n  0x04\n  dup3\n  add\n    /* \"#utility.yul\":3684:3705   */\n  mstore\n    /* \"#utility.yul\":3741:3743   */\n  0x1f\n    /* \"#utility.yul\":3721:3739   */\n  0x24\n  dup3\n  add\n    /* \"#utility.yul\":3714:3744   */\n  mstore\n    /* \"#utility.yul\":3780:3813   */\n  0x48616c76696e6720726174652063616e6e6f7420657863656564203130302500\n    /* \"#utility.yul\":3760:3778   */\n  0x44\n  dup3\n  add\n    /* \"#utility.yul\":3753:3814   */\n  mstore\n    /* \"#utility.yul\":3831:3849   */\n  0x64\n  add\n    /* \"contracts/Cardeiro_4.sol\":1870:1933  require(_halvingRate <= 100, \"Halving rate cannot exceed 100%\") */\n  tag_14\n    /* \"#utility.yul\":3500:3855   */\n  jump\n    /* \"contracts/Cardeiro_4.sol\":1870:1933  require(_halvingRate <= 100, \"Halving rate cannot exceed 100%\") */\ntag_20:\n    /* \"contracts/Cardeiro_4.sol\":1181:1186  86400 */\n  0x015180\n    /* \"contracts/Cardeiro_4.sol\":1951:1967  _halvingInterval */\n  dup3\n    /* \"contracts/Cardeiro_4.sol\":1951:1986  _halvingInterval >= SECONDS_PER_DAY */\n  lt\n  iszero\n    /* \"contracts/Cardeiro_4.sol\":1943:2009  require(_halvingInterval >= SECONDS_PER_DAY, \"Interval too short\") */\n  tag_23\n  jumpi\n  mload(0x40)\n  shl(0xe5, 0x461bcd)\n  dup2\n  mstore\n    /* \"#utility.yul\":4062:4064   */\n  0x20\n    /* \"contracts/Cardeiro_4.sol\":1943:2009  require(_halvingInterval >= SECONDS_PER_DAY, \"Interval too short\") */\n  0x04\n  dup3\n  add\n    /* \"#utility.yul\":4044:4065   */\n  mstore\n    /* \"#utility.yul\":4101:4103   */\n  0x12\n    /* \"#utility.yul\":4081:4099   */\n  0x24\n  dup3\n  add\n    /* \"#utility.yul\":4074:4104   */\n  mstore\n  shl(0x72, 0x125b9d195c9d985b081d1bdbc81cda1bdc9d)\n    /* \"#utility.yul\":4120:4138   */\n  0x44\n  dup3\n  add\n    /* \"#utility.yul\":4113:4161   */\n  mstore\n    /* \"#utility.yul\":4178:4196   */\n  0x64\n  add\n    /* \"contracts/Cardeiro_4.sol\":1943:2009  require(_halvingInterval >= SECONDS_PER_DAY, \"Interval too short\") */\n  tag_14\n    /* \"#utility.yul\":3860:4202   */\n  jump\n    /* \"contracts/Cardeiro_4.sol\":1943:2009  require(_halvingInterval >= SECONDS_PER_DAY, \"Interval too short\") */\ntag_23:\n    /* \"contracts/Cardeiro_4.sol\":1181:1186  86400 */\n  0x015180\n    /* \"contracts/Cardeiro_4.sol\":1262:1278  DAYS_IN_YEAR * 2 */\n  tag_26\n    /* \"contracts/Cardeiro_4.sol\":1128:1131  365 */\n  0x016d\n    /* \"contracts/Cardeiro_4.sol\":1277:1278  2 */\n  0x02\n    /* \"contracts/Cardeiro_4.sol\":1262:1278  DAYS_IN_YEAR * 2 */\n  tag_27\n  jump\t// in\ntag_26:\n    /* \"contracts/Cardeiro_4.sol\":1261:1297  (DAYS_IN_YEAR * 2) * SECONDS_PER_DAY */\n  tag_28\n  swap2\n  swap1\n  tag_27\n  jump\t// in\ntag_28:\n    /* \"contracts/Cardeiro_4.sol\":2047:2075  DEFAULT_HALVING_INTERVAL * 2 */\n  tag_29\n  swap1\n    /* \"contracts/Cardeiro_4.sol\":2074:2075  2 */\n  0x02\n    /* \"contracts/Cardeiro_4.sol\":2047:2075  DEFAULT_HALVING_INTERVAL * 2 */\n  tag_27\n  jump\t// in\ntag_29:\n    /* \"contracts/Cardeiro_4.sol\":2027:2043  _halvingInterval */\n  dup3\n    /* \"contracts/Cardeiro_4.sol\":2027:2075  _halvingInterval <= DEFAULT_HALVING_INTERVAL * 2 */\n  gt\n  iszero\n    /* \"contracts/Cardeiro_4.sol\":2019:2097  require(_halvingInterval <= DEFAULT_HALVING_INTERVAL * 2, \"Interval too long\") */\n  tag_30\n  jumpi\n  mload(0x40)\n  shl(0xe5, 0x461bcd)\n  dup2\n  mstore\n    /* \"#utility.yul\":4714:4716   */\n  0x20\n    /* \"contracts/Cardeiro_4.sol\":2019:2097  require(_halvingInterval <= DEFAULT_HALVING_INTERVAL * 2, \"Interval too long\") */\n  0x04\n  dup3\n  add\n    /* \"#utility.yul\":4696:4717   */\n  mstore\n    /* \"#utility.yul\":4753:4755   */\n  0x11\n    /* \"#utility.yul\":4733:4751   */\n  0x24\n  dup3\n  add\n    /* \"#utility.yul\":4726:4756   */\n  mstore\n  shl(0x78, 0x496e74657276616c20746f6f206c6f6e67)\n    /* \"#utility.yul\":4772:4790   */\n  0x44\n  dup3\n  add\n    /* \"#utility.yul\":4765:4812   */\n  mstore\n    /* \"#utility.yul\":4829:4847   */\n  0x64\n  add\n    /* \"contracts/Cardeiro_4.sol\":2019:2097  require(_halvingInterval <= DEFAULT_HALVING_INTERVAL * 2, \"Interval too long\") */\n  tag_14\n    /* \"#utility.yul\":4512:4853   */\n  jump\n    /* \"contracts/Cardeiro_4.sol\":2019:2097  require(_halvingInterval <= DEFAULT_HALVING_INTERVAL * 2, \"Interval too long\") */\ntag_30:\n    /* \"contracts/Cardeiro_4.sol\":2116:2148  _mint(msg.sender, initialSupply) */\n  tag_33\n    /* \"contracts/Cardeiro_4.sol\":2122:2132  msg.sender */\n  caller\n    /* \"contracts/Cardeiro_4.sol\":2134:2147  initialSupply */\n  dup6\n    /* \"contracts/Cardeiro_4.sol\":2116:2121  _mint */\n  tag_34\n    /* \"contracts/Cardeiro_4.sol\":2116:2148  _mint(msg.sender, initialSupply) */\n  jump\t// in\ntag_33:\n    /* \"contracts/Cardeiro_4.sol\":2158:2166  treasury */\n  0x07\n    /* \"contracts/Cardeiro_4.sol\":2158:2178  treasury = _treasury */\n  dup1\n  sload\n  not(sub(shl(0xa0, 0x01), 0x01))\n  and\n  sub(shl(0xa0, 0x01), 0x01)\n  swap5\n  swap1\n  swap5\n  and\n  swap4\n  swap1\n  swap4\n  or\n  swap1\n  swap3\n  sstore\n    /* \"contracts/Cardeiro_4.sol\":2188:2203  halvingInterval */\n  0x08\n    /* \"contracts/Cardeiro_4.sol\":2188:2222  halvingInterval = _halvingInterval */\n  sstore\n    /* \"contracts/Cardeiro_4.sol\":2232:2243  halvingRate */\n  0x0a\n    /* \"contracts/Cardeiro_4.sol\":2232:2258  halvingRate = _halvingRate */\n  sstore\n  pop\n    /* \"contracts/Cardeiro_4.sol\":2286:2301  block.timestamp */\n  timestamp\n    /* \"contracts/Cardeiro_4.sol\":2268:2283  lastHalvingTime */\n  0x09\n    /* \"contracts/Cardeiro_4.sol\":2268:2301  lastHalvingTime = block.timestamp */\n  sstore\n    /* \"contracts/Cardeiro_4.sol\":563:4530  contract Cardeiro is ERC20, ERC20Burnable, Ownable, ReentrancyGuard {... */\n  jump(tag_60)\n    /* \"@openzeppelin/contracts/access/Ownable.sol\":2912:3099  function _transferOwnership(address newOwner) internal virtual {... */\ntag_17:\n    /* \"@openzeppelin/contracts/access/Ownable.sol\":3004:3010  _owner */\n  0x05\n  dup1\n  sload\n  sub(shl(0xa0, 0x01), 0x01)\n    /* \"@openzeppelin/contracts/access/Ownable.sol\":3020:3037  _owner = newOwner */\n  dup4\n  dup2\n  and\n  not(sub(shl(0xa0, 0x01), 0x01))\n  dup4\n  and\n  dup2\n  or\n  swap1\n  swap4\n  sstore\n    /* \"@openzeppelin/contracts/access/Ownable.sol\":3052:3092  OwnershipTransferred(oldOwner, newOwner) */\n  mload(0x40)\n    /* \"@openzeppelin/contracts/access/Ownable.sol\":3004:3010  _owner */\n  swap2\n  and\n  swap2\n    /* \"@openzeppelin/contracts/access/Ownable.sol\":3020:3037  _owner = newOwner */\n  swap1\n    /* \"@openzeppelin/contracts/access/Ownable.sol\":3004:3010  _owner */\n  dup3\n  swap1\n    /* \"@openzeppelin/contracts/access/Ownable.sol\":3052:3092  OwnershipTransferred(oldOwner, newOwner) */\n  0x8be0079c531659141344cd1fd0a4f28419497f9722a3daafe3b4186f6b6457e0\n  swap1\n    /* \"@openzeppelin/contracts/access/Ownable.sol\":2985:3001  address oldOwner */\n  0x00\n  swap1\n    /* \"@openzeppelin/contracts/access/Ownable.sol\":3052:3092  OwnershipTransferred(oldOwner, newOwner) */\n  log3\n    /* \"@openzeppelin/contracts/access/Ownable.sol\":2975:3099  {... */\n  pop\n    /* \"@openzeppelin/contracts/access/Ownable.sol\":2912:3099  function _transferOwnership(address newOwner) internal virtual {... */\n  pop\n  jump\t// out\n    /* \"@openzeppelin/contracts/token/ERC20/ERC20.sol\":7458:7666  function _mint(address account, uint256 value) internal {... */\ntag_34:\n  sub(shl(0xa0, 0x01), 0x01)\n    /* \"@openzeppelin/contracts/token/ERC20/ERC20.sol\":7528:7549  account == address(0) */\n  dup3\n  and\n    /* \"@openzeppelin/contracts/token/ERC20/ERC20.sol\":7524:7615  if (account == address(0)) {... */\n  tag_38\n  jumpi\n    /* \"@openzeppelin/contracts/token/ERC20/ERC20.sol\":7572:7604  ERC20InvalidReceiver(address(0)) */\n  mload(0x40)\n  shl(0xe0, 0xec442f05)\n  dup2\n  mstore\n    /* \"@openzeppelin/contracts/token/ERC20/ERC20.sol\":7601:7602  0 */\n  0x00\n    /* \"@openzeppelin/contracts/token/ERC20/ERC20.sol\":7572:7604  ERC20InvalidReceiver(address(0)) */\n  0x04\n  dup3\n  add\n    /* \"#utility.yul\":3438:3489   */\n  mstore\n    /* \"#utility.yul\":3411:3429   */\n  0x24\n  add\n    /* \"@openzeppelin/contracts/token/ERC20/ERC20.sol\":7572:7604  ERC20InvalidReceiver(address(0)) */\n  tag_14\n    /* \"#utility.yul\":3292:3495   */\n  jump\n    /* \"@openzeppelin/contracts/token/ERC20/ERC20.sol\":7524:7615  if (account == address(0)) {... */\ntag_38:\n    /* \"@openzeppelin/contracts/token/ERC20/ERC20.sol\":7624:7659  _update(address(0), account, value) */\n  tag_40\n    /* \"@openzeppelin/contracts/token/ERC20/ERC20.sol\":7640:7641  0 */\n  0x00\n    /* \"@openzeppelin/contracts/token/ERC20/ERC20.sol\":7644:7651  account */\n  dup4\n    /* \"@openzeppelin/contracts/token/ERC20/ERC20.sol\":7653:7658  value */\n  dup4\n    /* \"@openzeppelin/contracts/token/ERC20/ERC20.sol\":7624:7631  _update */\n  tag_41\n    /* \"@openzeppelin/contracts/token/ERC20/ERC20.sol\":7624:7659  _update(address(0), account, value) */\n  jump\t// in\ntag_40:\n    /* \"@openzeppelin/contracts/token/ERC20/ERC20.sol\":7458:7666  function _mint(address account, uint256 value) internal {... */\n  pop\n  pop\n  jump\t// out\n    /* \"@openzeppelin/contracts/token/ERC20/ERC20.sol\":6008:7115  function _update(address from, address to, uint256 value) internal virtual {... */\ntag_41:\n  sub(shl(0xa0, 0x01), 0x01)\n    /* \"@openzeppelin/contracts/token/ERC20/ERC20.sol\":6097:6115  from == address(0) */\n  dup4\n  and\n    /* \"@openzeppelin/contracts/token/ERC20/ERC20.sol\":6093:6633  if (from == address(0)) {... */\n  tag_43\n  jumpi\n    /* \"@openzeppelin/contracts/token/ERC20/ERC20.sol\":6249:6254  value */\n  dup1\n    /* \"@openzeppelin/contracts/token/ERC20/ERC20.sol\":6233:6245  _totalSupply */\n  0x02\n  0x00\n    /* \"@openzeppelin/contracts/token/ERC20/ERC20.sol\":6233:6254  _totalSupply += value */\n  dup3\n  dup3\n  sload\n  tag_44\n  swap2\n  swap1\n  tag_45\n  jump\t// in\ntag_44:\n  swap1\n  swap2\n  sstore\n  pop\n    /* \"@openzeppelin/contracts/token/ERC20/ERC20.sol\":6093:6633  if (from == address(0)) {... */\n  tag_46\n  swap1\n  pop\n  jump\ntag_43:\n  sub(shl(0xa0, 0x01), 0x01)\n    /* \"@openzeppelin/contracts/token/ERC20/ERC20.sol\":6307:6322  _balances[from] */\n  dup4\n  and\n    /* \"@openzeppelin/contracts/token/ERC20/ERC20.sol\":6285:6304  uint256 fromBalance */\n  0x00\n    /* \"@openzeppelin/contracts/token/ERC20/ERC20.sol\":6307:6322  _balances[from] */\n  swap1\n  dup2\n  mstore\n  0x20\n  dup2\n  swap1\n  mstore\n  0x40\n  swap1\n  keccak256\n  sload\n    /* \"@openzeppelin/contracts/token/ERC20/ERC20.sol\":6340:6359  fromBalance < value */\n  dup2\n  dup2\n  lt\n    /* \"@openzeppelin/contracts/token/ERC20/ERC20.sol\":6336:6451  if (fromBalance < value) {... */\n  iszero\n  tag_47\n  jumpi\n    /* \"@openzeppelin/contracts/token/ERC20/ERC20.sol\":6386:6436  ERC20InsufficientBalance(from, fromBalance, value) */\n  mload(0x40)\n  shl(0xe2, 0x391434e3)\n  dup2\n  mstore\n  sub(shl(0xa0, 0x01), 0x01)\n    /* \"#utility.yul\":5208:5240   */\n  dup6\n  and\n    /* \"@openzeppelin/contracts/token/ERC20/ERC20.sol\":6386:6436  ERC20InsufficientBalance(from, fromBalance, value) */\n  0x04\n  dup3\n  add\n    /* \"#utility.yul\":5190:5241   */\n  mstore\n    /* \"#utility.yul\":5257:5275   */\n  0x24\n  dup2\n  add\n    /* \"#utility.yul\":5250:5284   */\n  dup3\n  swap1\n  mstore\n    /* \"#utility.yul\":5300:5318   */\n  0x44\n  dup2\n  add\n    /* \"#utility.yul\":5293:5327   */\n  dup4\n  swap1\n  mstore\n    /* \"#utility.yul\":5163:5181   */\n  0x64\n  add\n    /* \"@openzeppelin/contracts/token/ERC20/ERC20.sol\":6386:6436  ERC20InsufficientBalance(from, fromBalance, value) */\n  tag_14\n    /* \"#utility.yul\":4988:5333   */\n  jump\n    /* \"@openzeppelin/contracts/token/ERC20/ERC20.sol\":6336:6451  if (fromBalance < value) {... */\ntag_47:\n  sub(shl(0xa0, 0x01), 0x01)\n    /* \"@openzeppelin/contracts/token/ERC20/ERC20.sol\":6571:6586  _balances[from] */\n  dup5\n  and\n    /* \"@openzeppelin/contracts/token/ERC20/ERC20.sol\":6571:6580  _balances */\n  0x00\n    /* \"@openzeppelin/contracts/token/ERC20/ERC20.sol\":6571:6586  _balances[from] */\n  swap1\n  dup2\n  mstore\n  0x20\n  dup2\n  swap1\n  mstore\n  0x40\n  swap1\n  keccak256\n    /* \"@openzeppelin/contracts/token/ERC20/ERC20.sol\":6589:6608  fromBalance - value */\n  swap1\n  dup3\n  swap1\n  sub\n    /* \"@openzeppelin/contracts/token/ERC20/ERC20.sol\":6571:6608  _balances[from] = fromBalance - value */\n  swap1\n  sstore\n    /* \"@openzeppelin/contracts/token/ERC20/ERC20.sol\":6093:6633  if (from == address(0)) {... */\ntag_46:\n  sub(shl(0xa0, 0x01), 0x01)\n    /* \"@openzeppelin/contracts/token/ERC20/ERC20.sol\":6647:6663  to == address(0) */\n  dup3\n  and\n    /* \"@openzeppelin/contracts/token/ERC20/ERC20.sol\":6643:7068  if (to == address(0)) {... */\n  tag_50\n  jumpi\n    /* \"@openzeppelin/contracts/token/ERC20/ERC20.sol\":6810:6822  _totalSupply */\n  0x02\n    /* \"@openzeppelin/contracts/token/ERC20/ERC20.sol\":6810:6831  _totalSupply -= value */\n  dup1\n  sload\n  dup3\n  swap1\n  sub\n  swap1\n  sstore\n    /* \"@openzeppelin/contracts/token/ERC20/ERC20.sol\":6643:7068  if (to == address(0)) {... */\n  jump(tag_51)\ntag_50:\n  sub(shl(0xa0, 0x01), 0x01)\n    /* \"@openzeppelin/contracts/token/ERC20/ERC20.sol\":7021:7034  _balances[to] */\n  dup3\n  and\n    /* \"@openzeppelin/contracts/token/ERC20/ERC20.sol\":7021:7030  _balances */\n  0x00\n    /* \"@openzeppelin/contracts/token/ERC20/ERC20.sol\":7021:7034  _balances[to] */\n  swap1\n  dup2\n  mstore\n  0x20\n  dup2\n  swap1\n  mstore\n  0x40\n  swap1\n  keccak256\n    /* \"@openzeppelin/contracts/token/ERC20/ERC20.sol\":7021:7043  _balances[to] += value */\n  dup1\n  sload\n  dup3\n  add\n  swap1\n  sstore\n    /* \"@openzeppelin/contracts/token/ERC20/ERC20.sol\":6643:7068  if (to == address(0)) {... */\ntag_51:\n    /* \"@openzeppelin/contracts/token/ERC20/ERC20.sol\":7098:7100  to */\n  dup2\n  sub(shl(0xa0, 0x01), 0x01)\n    /* \"@openzeppelin/contracts/token/ERC20/ERC20.sol\":7083:7108  Transfer(from, to, value) */\n  and\n    /* \"@openzeppelin/contracts/token/ERC20/ERC20.sol\":7092:7096  from */\n  dup4\n  sub(shl(0xa0, 0x01), 0x01)\n    /* \"@openzeppelin/contracts/token/ERC20/ERC20.sol\":7083:7108  Transfer(from, to, value) */\n  and\n  0xddf252ad1be2c89b69c2b068fc378daa952ba7f163c4a11628f55a4df523b3ef\n    /* \"@openzeppelin/contracts/token/ERC20/ERC20.sol\":7102:7107  value */\n  dup4\n    /* \"@openzeppelin/contracts/token/ERC20/ERC20.sol\":7083:7108  Transfer(from, to, value) */\n  mload(0x40)\n  tag_52\n  swap2\n    /* \"#utility.yul\":5484:5509   */\n  dup2\n  mstore\n    /* \"#utility.yul\":5472:5474   */\n  0x20\n    /* \"#utility.yul\":5457:5475   */\n  add\n  swap1\n    /* \"#utility.yul\":5338:5515   */\n  jump\n    /* \"@openzeppelin/contracts/token/ERC20/ERC20.sol\":7083:7108  Transfer(from, to, value) */\ntag_52:\n  mload(0x40)\n  dup1\n  swap2\n  sub\n  swap1\n  log3\n    /* \"@openzeppelin/contracts/token/ERC20/ERC20.sol\":6008:7115  function _update(address from, address to, uint256 value) internal virtual {... */\n  pop\n  pop\n  pop\n  jump\t// out\n    /* \"#utility.yul\":14:646   */\ntag_3:\n    /* \"#utility.yul\":111:117   */\n  0x00\n    /* \"#utility.yul\":119:125   */\n  0x00\n    /* \"#utility.yul\":127:133   */\n  0x00\n    /* \"#utility.yul\":135:141   */\n  0x00\n    /* \"#utility.yul\":188:191   */\n  0x80\n    /* \"#utility.yul\":176:185   */\n  dup6\n    /* \"#utility.yul\":167:174   */\n  dup8\n    /* \"#utility.yul\":163:186   */\n  sub\n    /* \"#utility.yul\":159:192   */\n  slt\n    /* \"#utility.yul\":156:209   */\n  iszero\n  tag_62\n  jumpi\n    /* \"#utility.yul\":205:206   */\n  0x00\n    /* \"#utility.yul\":202:203   */\n  0x00\n    /* \"#utility.yul\":195:207   */\n  revert\n    /* \"#utility.yul\":156:209   */\ntag_62:\n    /* \"#utility.yul\":250:266   */\n  dup5\n  mload\n    /* \"#utility.yul\":335:337   */\n  0x20\n    /* \"#utility.yul\":320:338   */\n  dup7\n  add\n    /* \"#utility.yul\":314:339   */\n  mload\n    /* \"#utility.yul\":250:266   */\n  swap1\n  swap5\n  pop\n  sub(shl(0xa0, 0x01), 0x01)\n    /* \"#utility.yul\":370:403   */\n  dup2\n  and\n    /* \"#utility.yul\":358:404   */\n  dup2\n  eq\n    /* \"#utility.yul\":348:422   */\n  tag_63\n  jumpi\n    /* \"#utility.yul\":418:419   */\n  0x00\n    /* \"#utility.yul\":415:416   */\n  0x00\n    /* \"#utility.yul\":408:420   */\n  revert\n    /* \"#utility.yul\":348:422   */\ntag_63:\n    /* \"#utility.yul\":514:516   */\n  0x40\n    /* \"#utility.yul\":499:517   */\n  dup7\n  add\n    /* \"#utility.yul\":493:518   */\n  mload\n    /* \"#utility.yul\":610:612   */\n  0x60\n    /* \"#utility.yul\":595:613   */\n  swap1\n  swap7\n  add\n    /* \"#utility.yul\":589:614   */\n  mload\n    /* \"#utility.yul\":14:646   */\n  swap5\n  swap8\n    /* \"#utility.yul\":441:448   */\n  swap1\n  swap7\n  pop\n    /* \"#utility.yul\":14:646   */\n  swap3\n  pop\n  pop\n  pop\n  jump\t// out\n    /* \"#utility.yul\":651:778   */\ntag_54:\n    /* \"#utility.yul\":712:722   */\n  0x4e487b71\n    /* \"#utility.yul\":707:710   */\n  0xe0\n    /* \"#utility.yul\":703:723   */\n  shl\n    /* \"#utility.yul\":700:701   */\n  0x00\n    /* \"#utility.yul\":693:724   */\n  mstore\n    /* \"#utility.yul\":743:747   */\n  0x41\n    /* \"#utility.yul\":740:741   */\n  0x04\n    /* \"#utility.yul\":733:748   */\n  mstore\n    /* \"#utility.yul\":767:771   */\n  0x24\n    /* \"#utility.yul\":764:765   */\n  0x00\n    /* \"#utility.yul\":757:772   */\n  revert\n    /* \"#utility.yul\":783:1163   */\ntag_55:\n    /* \"#utility.yul\":862:863   */\n  0x01\n    /* \"#utility.yul\":858:870   */\n  dup2\n  dup2\n  shr\n  swap1\n    /* \"#utility.yul\":905:917   */\n  dup3\n  and\n  dup1\n    /* \"#utility.yul\":926:987   */\n  tag_66\n  jumpi\n    /* \"#utility.yul\":980:984   */\n  0x7f\n    /* \"#utility.yul\":972:978   */\n  dup3\n    /* \"#utility.yul\":968:985   */\n  and\n    /* \"#utility.yul\":958:985   */\n  swap2\n  pop\n    /* \"#utility.yul\":926:987   */\ntag_66:\n    /* \"#utility.yul\":1033:1035   */\n  0x20\n    /* \"#utility.yul\":1025:1031   */\n  dup3\n    /* \"#utility.yul\":1022:1036   */\n  lt\n    /* \"#utility.yul\":1002:1020   */\n  dup2\n    /* \"#utility.yul\":999:1037   */\n  sub\n    /* \"#utility.yul\":996:1157   */\n  tag_67\n  jumpi\n    /* \"#utility.yul\":1079:1089   */\n  0x4e487b71\n    /* \"#utility.yul\":1074:1077   */\n  0xe0\n    /* \"#utility.yul\":1070:1090   */\n  shl\n    /* \"#utility.yul\":1067:1068   */\n  0x00\n    /* \"#utility.yul\":1060:1091   */\n  mstore\n    /* \"#utility.yul\":1114:1118   */\n  0x22\n    /* \"#utility.yul\":1111:1112   */\n  0x04\n    /* \"#utility.yul\":1104:1119   */\n  mstore\n    /* \"#utility.yul\":1142:1146   */\n  0x24\n    /* \"#utility.yul\":1139:1140   */\n  0x00\n    /* \"#utility.yul\":1132:1147   */\n  revert\n    /* \"#utility.yul\":996:1157   */\ntag_67:\n  pop\n    /* \"#utility.yul\":783:1163   */\n  swap2\n  swap1\n  pop\n  jump\t// out\n    /* \"#utility.yul\":1294:1812   */\ntag_57:\n    /* \"#utility.yul\":1396:1398   */\n  0x1f\n    /* \"#utility.yul\":1391:1394   */\n  dup3\n    /* \"#utility.yul\":1388:1399   */\n  gt\n    /* \"#utility.yul\":1385:1806   */\n  iszero\n  tag_70\n  jumpi\n    /* \"#utility.yul\":1432:1437   */\n  dup1\n    /* \"#utility.yul\":1429:1430   */\n  0x00\n    /* \"#utility.yul\":1422:1438   */\n  mstore\n    /* \"#utility.yul\":1476:1480   */\n  0x20\n    /* \"#utility.yul\":1473:1474   */\n  0x00\n    /* \"#utility.yul\":1463:1481   */\n  keccak256\n    /* \"#utility.yul\":1546:1548   */\n  0x1f\n    /* \"#utility.yul\":1534:1544   */\n  dup5\n    /* \"#utility.yul\":1530:1549   */\n  add\n    /* \"#utility.yul\":1527:1528   */\n  0x05\n    /* \"#utility.yul\":1523:1550   */\n  shr\n    /* \"#utility.yul\":1517:1521   */\n  dup2\n    /* \"#utility.yul\":1513:1551   */\n  add\n    /* \"#utility.yul\":1582:1586   */\n  0x20\n    /* \"#utility.yul\":1570:1580   */\n  dup6\n    /* \"#utility.yul\":1567:1587   */\n  lt\n    /* \"#utility.yul\":1564:1611   */\n  iszero\n  tag_71\n  jumpi\n  pop\n    /* \"#utility.yul\":1605:1609   */\n  dup1\n    /* \"#utility.yul\":1564:1611   */\ntag_71:\n    /* \"#utility.yul\":1660:1662   */\n  0x1f\n    /* \"#utility.yul\":1655:1658   */\n  dup5\n    /* \"#utility.yul\":1651:1663   */\n  add\n    /* \"#utility.yul\":1648:1649   */\n  0x05\n    /* \"#utility.yul\":1644:1664   */\n  shr\n    /* \"#utility.yul\":1638:1642   */\n  dup3\n    /* \"#utility.yul\":1634:1665   */\n  add\n    /* \"#utility.yul\":1624:1665   */\n  swap2\n  pop\n    /* \"#utility.yul\":1715:1796   */\ntag_72:\n    /* \"#utility.yul\":1733:1735   */\n  dup2\n    /* \"#utility.yul\":1726:1731   */\n  dup2\n    /* \"#utility.yul\":1723:1736   */\n  lt\n    /* \"#utility.yul\":1715:1796   */\n  iszero\n  tag_74\n  jumpi\n    /* \"#utility.yul\":1792:1793   */\n  0x00\n    /* \"#utility.yul\":1778:1794   */\n  dup2\n  sstore\n    /* \"#utility.yul\":1759:1760   */\n  0x01\n    /* \"#utility.yul\":1748:1761   */\n  add\n    /* \"#utility.yul\":1715:1796   */\n  jump(tag_72)\ntag_74:\n    /* \"#utility.yul\":1719:1722   */\n  pop\n  pop\n    /* \"#utility.yul\":1385:1806   */\ntag_70:\n    /* \"#utility.yul\":1294:1812   */\n  pop\n  pop\n  pop\n  jump\t// out\n    /* \"#utility.yul\":1988:3287   */\ntag_10:\n    /* \"#utility.yul\":2108:2118   */\n  dup2\n  mload\n  sub(shl(0x40, 0x01), 0x01)\n    /* \"#utility.yul\":2130:2160   */\n  dup2\n  gt\n    /* \"#utility.yul\":2127:2183   */\n  iszero\n  tag_78\n  jumpi\n    /* \"#utility.yul\":2163:2181   */\n  tag_78\n  tag_54\n  jump\t// in\ntag_78:\n    /* \"#utility.yul\":2192:2289   */\n  tag_79\n    /* \"#utility.yul\":2282:2288   */\n  dup2\n    /* \"#utility.yul\":2242:2280   */\n  tag_80\n    /* \"#utility.yul\":2274:2278   */\n  dup5\n    /* \"#utility.yul\":2268:2279   */\n  sload\n    /* \"#utility.yul\":2242:2280   */\n  tag_55\n  jump\t// in\ntag_80:\n    /* \"#utility.yul\":2236:2240   */\n  dup5\n    /* \"#utility.yul\":2192:2289   */\n  tag_57\n  jump\t// in\ntag_79:\n    /* \"#utility.yul\":2338:2342   */\n  0x20\n    /* \"#utility.yul\":2369:2371   */\n  0x1f\n    /* \"#utility.yul\":2358:2372   */\n  dup3\n  gt\n    /* \"#utility.yul\":2386:2387   */\n  0x01\n    /* \"#utility.yul\":2381:3030   */\n  dup2\n  eq\n  tag_82\n  jumpi\n    /* \"#utility.yul\":3074:3075   */\n  0x00\n    /* \"#utility.yul\":3091:3097   */\n  dup4\n    /* \"#utility.yul\":3088:3177   */\n  iszero\n  tag_83\n  jumpi\n  pop\n    /* \"#utility.yul\":3143:3162   */\n  dup5\n  dup3\n  add\n    /* \"#utility.yul\":3137:3163   */\n  mload\n    /* \"#utility.yul\":3088:3177   */\ntag_83:\n  not(0x00)\n    /* \"#utility.yul\":1945:1946   */\n  0x03\n    /* \"#utility.yul\":1941:1952   */\n  dup6\n  swap1\n  shl\n    /* \"#utility.yul\":1937:1961   */\n  shr\n    /* \"#utility.yul\":1933:1962   */\n  not\n    /* \"#utility.yul\":1923:1963   */\n  and\n    /* \"#utility.yul\":1969:1970   */\n  0x01\n    /* \"#utility.yul\":1965:1976   */\n  dup5\n  swap1\n  shl\n    /* \"#utility.yul\":1920:1977   */\n  or\n    /* \"#utility.yul\":3190:3271   */\n  dup5\n  sstore\n    /* \"#utility.yul\":2351:3281   */\n  jump(tag_74)\n    /* \"#utility.yul\":2381:3030   */\ntag_82:\n    /* \"#utility.yul\":1241:1242   */\n  0x00\n    /* \"#utility.yul\":1234:1248   */\n  dup5\n  dup2\n  mstore\n    /* \"#utility.yul\":1278:1282   */\n  0x20\n    /* \"#utility.yul\":1265:1283   */\n  dup2\n  keccak256\n  not(0x1f)\n    /* \"#utility.yul\":2417:2437   */\n  dup6\n  and\n  swap2\n    /* \"#utility.yul\":2535:2757   */\ntag_86:\n    /* \"#utility.yul\":2549:2556   */\n  dup3\n    /* \"#utility.yul\":2546:2547   */\n  dup2\n    /* \"#utility.yul\":2543:2557   */\n  lt\n    /* \"#utility.yul\":2535:2757   */\n  iszero\n  tag_88\n  jumpi\n    /* \"#utility.yul\":2631:2650   */\n  dup8\n  dup6\n  add\n    /* \"#utility.yul\":2625:2651   */\n  mload\n    /* \"#utility.yul\":2610:2652   */\n  dup3\n  sstore\n    /* \"#utility.yul\":2738:2742   */\n  0x20\n    /* \"#utility.yul\":2723:2743   */\n  swap5\n  dup6\n  add\n  swap5\n    /* \"#utility.yul\":2691:2692   */\n  0x01\n    /* \"#utility.yul\":2679:2693   */\n  swap1\n  swap3\n  add\n  swap2\n    /* \"#utility.yul\":2565:2577   */\n  add\n    /* \"#utility.yul\":2535:2757   */\n  jump(tag_86)\ntag_88:\n    /* \"#utility.yul\":2539:2542   */\n  pop\n    /* \"#utility.yul\":2785:2791   */\n  dup5\n    /* \"#utility.yul\":2776:2783   */\n  dup3\n    /* \"#utility.yul\":2773:2792   */\n  lt\n    /* \"#utility.yul\":2770:2971   */\n  iszero\n  tag_89\n  jumpi\n    /* \"#utility.yul\":2846:2865   */\n  dup7\n  dup5\n  add\n    /* \"#utility.yul\":2840:2866   */\n  mload\n  not(0x00)\n    /* \"#utility.yul\":2929:2930   */\n  0x03\n    /* \"#utility.yul\":2925:2939   */\n  dup8\n  swap1\n  shl\n    /* \"#utility.yul\":2941:2944   */\n  0xf8\n    /* \"#utility.yul\":2921:2945   */\n  and\n    /* \"#utility.yul\":2917:2954   */\n  shr\n    /* \"#utility.yul\":2913:2955   */\n  not\n    /* \"#utility.yul\":2898:2956   */\n  and\n    /* \"#utility.yul\":2883:2957   */\n  dup2\n  sstore\n    /* \"#utility.yul\":2770:2971   */\ntag_89:\n  pop\n  pop\n  pop\n  pop\n    /* \"#utility.yul\":3017:3018   */\n  0x01\n    /* \"#utility.yul\":3001:3015   */\n  swap1\n  dup2\n  shl\n    /* \"#utility.yul\":2997:3019   */\n  add\n    /* \"#utility.yul\":2984:3020   */\n  swap1\n  sstore\n  pop\n    /* \"#utility.yul\":1988:3287   */\n  jump\t// out\n    /* \"#utility.yul\":4207:4334   */\ntag_59:\n    /* \"#utility.yul\":4268:4278   */\n  0x4e487b71\n    /* \"#utility.yul\":4263:4266   */\n  0xe0\n    /* \"#utility.yul\":4259:4279   */\n  shl\n    /* \"#utility.yul\":4256:4257   */\n  0x00\n    /* \"#utility.yul\":4249:4280   */\n  mstore\n    /* \"#utility.yul\":4299:4303   */\n  0x11\n    /* \"#utility.yul\":4296:4297   */\n  0x04\n    /* \"#utility.yul\":4289:4304   */\n  mstore\n    /* \"#utility.yul\":4323:4327   */\n  0x24\n    /* \"#utility.yul\":4320:4321   */\n  0x00\n    /* \"#utility.yul\":4313:4328   */\n  revert\n    /* \"#utility.yul\":4339:4507   */\ntag_27:\n    /* \"#utility.yul\":4412:4421   */\n  dup1\n  dup3\n  mul\n    /* \"#utility.yul\":4443:4452   */\n  dup2\n  iszero\n    /* \"#utility.yul\":4460:4475   */\n  dup3\n  dup3\n  div\n    /* \"#utility.yul\":4454:4476   */\n  dup5\n  eq\n    /* \"#utility.yul\":4440:4477   */\n  or\n    /* \"#utility.yul\":4430:4501   */\n  tag_96\n  jumpi\n    /* \"#utility.yul\":4481:4499   */\n  tag_96\n  tag_59\n  jump\t// in\ntag_96:\n    /* \"#utility.yul\":4339:4507   */\n  swap3\n  swap2\n  pop\n  pop\n  jump\t// out\n    /* \"#utility.yul\":4858:4983   */\ntag_45:\n    /* \"#utility.yul\":4923:4932   */\n  dup1\n  dup3\n  add\n    /* \"#utility.yul\":4944:4954   */\n  dup1\n  dup3\n  gt\n    /* \"#utility.yul\":4941:4977   */\n  iszero\n  tag_96\n  jumpi\n    /* \"#utility.yul\":4957:4975   */\n  tag_96\n  tag_59\n  jump\t// in\n    /* \"#utility.yul\":5338:5515   */\ntag_60:\n    /* \"contracts/Cardeiro_4.sol\":563:4530  contract Cardeiro is ERC20, ERC20Burnable, Ownable, ReentrancyGuard {... */\n  dataSize(sub_0)\n  dup1\n  dataOffset(sub_0)\n  0x00\n  codecopy\n  0x00\n  return\nstop\n\nsub_0: assembly {\n        /* \"contracts/Cardeiro_4.sol\":563:4530  contract Cardeiro is ERC20, ERC20Burnable, Ownable, ReentrancyGuard {... */\n      mstore(0x40, 0x80)\n      jumpi(tag_1, lt(calldatasize, 0x04))\n      shr(0xe0, calldataload(0x00))\n      dup1\n      0x768a4173\n      gt\n      tag_26\n      jumpi\n      dup1\n      0x95d89b41\n      gt\n      tag_27\n      jumpi\n      dup1\n      0x95d89b41\n      eq\n      tag_20\n      jumpi\n      dup1\n      0xa9059cbb\n      eq\n      tag_21\n      jumpi\n      dup1\n      0xbbb0b1a6\n      eq\n      tag_22\n      jumpi\n      dup1\n      0xdd62ed3e\n      eq\n      tag_23\n      jumpi\n      dup1\n      0xed299016\n      eq\n      tag_24\n      jumpi\n      dup1\n      0xf2fde38b\n      eq\n      tag_25\n      jumpi\n      jump(tag_2)\n    tag_27:\n      dup1\n      0x768a4173\n      eq\n      tag_14\n      jumpi\n      dup1\n      0x79cc6790\n      eq\n      tag_15\n      jumpi\n      dup1\n      0x7e6335f4\n      eq\n      tag_16\n      jumpi\n      dup1\n      0x7f51bb1f\n      eq\n      tag_17\n      jumpi\n      dup1\n      0x8cbb6df7\n      eq\n      tag_18\n      jumpi\n      dup1\n      0x8da5cb5b\n      eq\n      tag_19\n      jumpi\n      jump(tag_2)\n    tag_26:\n      dup1\n      0x313ce567\n      gt\n      tag_28\n      jumpi\n      dup1\n      0x313ce567\n      eq\n      tag_8\n      jumpi\n      dup1\n      0x42966c68\n      eq\n      tag_9\n      jumpi\n      dup1\n      0x61d027b3\n      eq\n      tag_10\n      jumpi\n      dup1\n      0x6a47aa06\n      eq\n      tag_11\n      jumpi\n      dup1\n      0x70a08231\n      eq\n      tag_12\n      jumpi\n      dup1\n      0x715018a6\n      eq\n      tag_13\n      jumpi\n      jump(tag_2)\n    tag_28:\n      dup1\n      0x06fdde03\n      eq\n      tag_3\n      jumpi\n      dup1\n      0x095ea7b3\n      eq\n      tag_4\n      jumpi\n      dup1\n      0x102b67ab\n      eq\n      tag_5\n      jumpi\n      dup1\n      0x18160ddd\n      eq\n      tag_6\n      jumpi\n      dup1\n      0x23b872dd\n      eq\n      tag_7\n      jumpi\n      jump(tag_2)\n    tag_1:\n      jumpi(tag_2, calldatasize)\n        /* \"contracts/Cardeiro_4.sol\":4485:4520  revert(\"Token does not accept ETH\") */\n      mload(0x40)\n      shl(0xe5, 0x461bcd)\n      dup2\n      mstore\n        /* \"#utility.yul\":216:218   */\n      0x20\n        /* \"contracts/Cardeiro_4.sol\":4485:4520  revert(\"Token does not accept ETH\") */\n      0x04\n      dup3\n      add\n        /* \"#utility.yul\":198:219   */\n      mstore\n        /* \"#utility.yul\":255:257   */\n      0x19\n        /* \"#utility.yul\":235:253   */\n      0x24\n      dup3\n      add\n        /* \"#utility.yul\":228:258   */\n      mstore\n      shl(0x3b, 0x0a8ded6cadc40c8decae640dcdee840c2c6c6cae0e8408aa89)\n        /* \"#utility.yul\":274:292   */\n      0x44\n      dup3\n      add\n        /* \"#utility.yul\":267:322   */\n      mstore\n        /* \"#utility.yul\":339:357   */\n      0x64\n      add\n        /* \"contracts/Cardeiro_4.sol\":4485:4520  revert(\"Token does not accept ETH\") */\n    tag_31:\n      mload(0x40)\n      dup1\n      swap2\n      sub\n      swap1\n      revert\n        /* \"contracts/Cardeiro_4.sol\":563:4530  contract Cardeiro is ERC20, ERC20Burnable, Ownable, ReentrancyGuard {... */\n    tag_2:\n        /* \"contracts/Cardeiro_4.sol\":4396:4431  revert(\"Token does not accept ETH\") */\n      mload(0x40)\n      shl(0xe5, 0x461bcd)\n      dup2\n      mstore\n        /* \"#utility.yul\":216:218   */\n      0x20\n        /* \"contracts/Cardeiro_4.sol\":4396:4431  revert(\"Token does not accept ETH\") */\n      0x04\n      dup3\n      add\n        /* \"#utility.yul\":198:219   */\n      mstore\n        /* \"#utility.yul\":255:257   */\n      0x19\n        /* \"#utility.yul\":235:253   */\n      0x24\n      dup3\n      add\n        /* \"#utility.yul\":228:258   */\n      mstore\n      shl(0x3b, 0x0a8ded6cadc40c8decae640dcdee840c2c6c6cae0e8408aa89)\n        /* \"#utility.yul\":274:292   */\n      0x44\n      dup3\n      add\n        /* \"#utility.yul\":267:322   */\n      mstore\n        /* \"#utility.yul\":339:357   */\n      0x64\n      add\n        /* \"contracts/Cardeiro_4.sol\":4396:4431  revert(\"Token does not accept ETH\") */\n      tag_31\n        /* \"#utility.yul\":14:363   */\n      jump\n        /* \"@openzeppelin/contracts/token/ERC20/ERC20.sol\":1779:1868  function name() public view virtual returns (string memory) {... */\n    tag_3:\n      callvalue\n      dup1\n      iszero\n      tag_36\n      jumpi\n      revert(0x00, 0x00)\n    tag_36:\n      pop\n      tag_37\n      tag_38\n      jump\t// in\n    tag_37:\n      mload(0x40)\n      tag_39\n      swap2\n      swap1\n      tag_40\n      jump\t// in\n    tag_39:\n      mload(0x40)\n      dup1\n      swap2\n      sub\n      swap1\n      return\n        /* \"@openzeppelin/contracts/token/ERC20/ERC20.sol\":3998:4184  function approve(address spender, uint256 value) public virtual returns (bool) {... */\n    tag_4:\n      callvalue\n      dup1\n      iszero\n      tag_41\n      jumpi\n      revert(0x00, 0x00)\n    tag_41:\n      pop\n      tag_42\n      tag_43\n      calldatasize\n      0x04\n      tag_44\n      jump\t// in\n    tag_43:\n      tag_45\n      jump\t// in\n    tag_42:\n      mload(0x40)\n        /* \"#utility.yul\":1439:1453   */\n      swap1\n      iszero\n        /* \"#utility.yul\":1432:1454   */\n      iszero\n        /* \"#utility.yul\":1414:1455   */\n      dup2\n      mstore\n        /* \"#utility.yul\":1402:1404   */\n      0x20\n        /* \"#utility.yul\":1387:1405   */\n      add\n        /* \"@openzeppelin/contracts/token/ERC20/ERC20.sol\":3998:4184  function approve(address spender, uint256 value) public virtual returns (bool) {... */\n      tag_39\n        /* \"#utility.yul\":1274:1461   */\n      jump\n        /* \"contracts/Cardeiro_4.sol\":3746:3924  function getExpectedBurn(uint256 rate) public view returns (uint256) {... */\n    tag_5:\n      callvalue\n      dup1\n      iszero\n      tag_48\n      jumpi\n      revert(0x00, 0x00)\n    tag_48:\n      pop\n      tag_49\n      tag_50\n      calldatasize\n      0x04\n      tag_51\n      jump\t// in\n    tag_50:\n      tag_52\n      jump\t// in\n    tag_49:\n      mload(0x40)\n        /* \"#utility.yul\":1843:1868   */\n      swap1\n      dup2\n      mstore\n        /* \"#utility.yul\":1831:1833   */\n      0x20\n        /* \"#utility.yul\":1816:1834   */\n      add\n        /* \"contracts/Cardeiro_4.sol\":3746:3924  function getExpectedBurn(uint256 rate) public view returns (uint256) {... */\n      tag_39\n        /* \"#utility.yul\":1697:1874   */\n      jump\n        /* \"@openzeppelin/contracts/token/ERC20/ERC20.sol\":2849:2946  function totalSupply() public view virtual returns (uint256) {... */\n    tag_6:\n      callvalue\n      dup1\n      iszero\n      tag_55\n      jumpi\n      revert(0x00, 0x00)\n    tag_55:\n      pop\n        /* \"@openzeppelin/contracts/token/ERC20/ERC20.sol\":2927:2939  _totalSupply */\n      sload(0x02)\n        /* \"@openzeppelin/contracts/token/ERC20/ERC20.sol\":2849:2946  function totalSupply() public view virtual returns (uint256) {... */\n      jump(tag_49)\n        /* \"contracts/Cardeiro_4.sol\":4133:4352  function transferFrom(address from, address to, uint256 amount)... */\n    tag_7:\n      callvalue\n      dup1\n      iszero\n      tag_59\n      jumpi\n      revert(0x00, 0x00)\n    tag_59:\n      pop\n      tag_42\n      tag_61\n      calldatasize\n      0x04\n      tag_62\n      jump\t// in\n    tag_61:\n      tag_63\n      jump\t// in\n        /* \"@openzeppelin/contracts/token/ERC20/ERC20.sol\":2707:2789  function decimals() public view virtual returns (uint8) {... */\n    tag_8:\n      callvalue\n      dup1\n      iszero\n      tag_65\n      jumpi\n      revert(0x00, 0x00)\n    tag_65:\n      pop\n      mload(0x40)\n        /* \"@openzeppelin/contracts/token/ERC20/ERC20.sol\":2780:2782  18 */\n      0x12\n        /* \"#utility.yul\":2400:2436   */\n      dup2\n      mstore\n        /* \"#utility.yul\":2388:2390   */\n      0x20\n        /* \"#utility.yul\":2373:2391   */\n      add\n        /* \"@openzeppelin/contracts/token/ERC20/ERC20.sol\":2707:2789  function decimals() public view virtual returns (uint8) {... */\n      tag_39\n        /* \"#utility.yul\":2258:2442   */\n      jump\n        /* \"@openzeppelin/contracts/token/ERC20/extensions/ERC20Burnable.sol\":618:705  function burn(uint256 value) public virtual {... */\n    tag_9:\n      callvalue\n      dup1\n      iszero\n      tag_70\n      jumpi\n      revert(0x00, 0x00)\n    tag_70:\n      pop\n      tag_71\n      tag_72\n      calldatasize\n      0x04\n      tag_51\n      jump\t// in\n    tag_72:\n      tag_73\n      jump\t// in\n    tag_71:\n      stop\n        /* \"contracts/Cardeiro_4.sol\":691:714  address public treasury */\n    tag_10:\n      callvalue\n      dup1\n      iszero\n      tag_74\n      jumpi\n      revert(0x00, 0x00)\n    tag_74:\n      pop\n      sload(0x07)\n      tag_75\n      swap1\n      sub(shl(0xa0, 0x01), 0x01)\n      and\n      dup2\n      jump\n    tag_75:\n      mload(0x40)\n      sub(shl(0xa0, 0x01), 0x01)\n        /* \"#utility.yul\":2611:2643   */\n      swap1\n      swap2\n      and\n        /* \"#utility.yul\":2593:2644   */\n      dup2\n      mstore\n        /* \"#utility.yul\":2581:2583   */\n      0x20\n        /* \"#utility.yul\":2566:2584   */\n      add\n        /* \"contracts/Cardeiro_4.sol\":691:714  address public treasury */\n      tag_39\n        /* \"#utility.yul\":2447:2650   */\n      jump\n        /* \"contracts/Cardeiro_4.sol\":762:792  uint256 public halvingInterval */\n    tag_11:\n      callvalue\n      dup1\n      iszero\n      tag_79\n      jumpi\n      revert(0x00, 0x00)\n    tag_79:\n      pop\n      tag_49\n      sload(0x08)\n      dup2\n      jump\n        /* \"@openzeppelin/contracts/token/ERC20/ERC20.sol\":3004:3120  function balanceOf(address account) public view virtual returns (uint256) {... */\n    tag_12:\n      callvalue\n      dup1\n      iszero\n      tag_83\n      jumpi\n      revert(0x00, 0x00)\n    tag_83:\n      pop\n      tag_49\n      tag_85\n      calldatasize\n      0x04\n      tag_86\n      jump\t// in\n    tag_85:\n      sub(shl(0xa0, 0x01), 0x01)\n        /* \"@openzeppelin/contracts/token/ERC20/ERC20.sol\":3095:3113  _balances[account] */\n      and\n        /* \"@openzeppelin/contracts/token/ERC20/ERC20.sol\":3069:3076  uint256 */\n      0x00\n        /* \"@openzeppelin/contracts/token/ERC20/ERC20.sol\":3095:3113  _balances[account] */\n      swap1\n      dup2\n      mstore\n      0x20\n      dup2\n      swap1\n      mstore\n      0x40\n      swap1\n      keccak256\n      sload\n      swap1\n        /* \"@openzeppelin/contracts/token/ERC20/ERC20.sol\":3004:3120  function balanceOf(address account) public view virtual returns (uint256) {... */\n      jump\n        /* \"@openzeppelin/contracts/access/Ownable.sol\":2293:2394  function renounceOwnership() public virtual onlyOwner {... */\n    tag_13:\n      callvalue\n      dup1\n      iszero\n      tag_89\n      jumpi\n      revert(0x00, 0x00)\n    tag_89:\n      pop\n      tag_71\n      tag_91\n      jump\t// in\n        /* \"contracts/Cardeiro_4.sol\":2357:2504  function isHalvingDue() public view returns (bool) {... */\n    tag_14:\n      callvalue\n      dup1\n      iszero\n      tag_92\n      jumpi\n      revert(0x00, 0x00)\n    tag_92:\n      pop\n      tag_42\n      tag_94\n      jump\t// in\n        /* \"@openzeppelin/contracts/token/ERC20/extensions/ERC20Burnable.sol\":1021:1179  function burnFrom(address account, uint256 value) public virtual {... */\n    tag_15:\n      callvalue\n      dup1\n      iszero\n      tag_96\n      jumpi\n      revert(0x00, 0x00)\n    tag_96:\n      pop\n      tag_71\n      tag_98\n      calldatasize\n      0x04\n      tag_44\n      jump\t// in\n    tag_98:\n      tag_99\n      jump\t// in\n        /* \"contracts/Cardeiro_4.sol\":937:963  uint256 public halvingRate */\n    tag_16:\n      callvalue\n      dup1\n      iszero\n      tag_100\n      jumpi\n      revert(0x00, 0x00)\n    tag_100:\n      pop\n      tag_49\n      sload(0x0a)\n      dup2\n      jump\n        /* \"contracts/Cardeiro_4.sol\":3643:3740  function updateTreasury(address _treasury) public onlyOwner {... */\n    tag_17:\n      callvalue\n      dup1\n      iszero\n      tag_104\n      jumpi\n      revert(0x00, 0x00)\n    tag_104:\n      pop\n      tag_71\n      tag_106\n      calldatasize\n      0x04\n      tag_86\n      jump\t// in\n    tag_106:\n      tag_107\n      jump\t// in\n        /* \"contracts/Cardeiro_4.sol\":840:870  uint256 public lastHalvingTime */\n    tag_18:\n      callvalue\n      dup1\n      iszero\n      tag_108\n      jumpi\n      revert(0x00, 0x00)\n    tag_108:\n      pop\n      tag_49\n      sload(0x09)\n      dup2\n      jump\n        /* \"@openzeppelin/contracts/access/Ownable.sol\":1638:1723  function owner() public view virtual returns (address) {... */\n    tag_19:\n      callvalue\n      dup1\n      iszero\n      tag_112\n      jumpi\n      revert(0x00, 0x00)\n    tag_112:\n      pop\n        /* \"@openzeppelin/contracts/access/Ownable.sol\":1710:1716  _owner */\n      and(sub(shl(0xa0, 0x01), 0x01), sload(0x05))\n        /* \"@openzeppelin/contracts/access/Ownable.sol\":1638:1723  function owner() public view virtual returns (address) {... */\n      jump(tag_75)\n        /* \"@openzeppelin/contracts/token/ERC20/ERC20.sol\":1981:2074  function symbol() public view virtual returns (string memory) {... */\n    tag_20:\n      callvalue\n      dup1\n      iszero\n      tag_116\n      jumpi\n      revert(0x00, 0x00)\n    tag_116:\n      pop\n      tag_37\n      tag_118\n      jump\t// in\n        /* \"contracts/Cardeiro_4.sol\":3930:4127  function transfer(address to, uint256 amount) ... */\n    tag_21:\n      callvalue\n      dup1\n      iszero\n      tag_120\n      jumpi\n      revert(0x00, 0x00)\n    tag_120:\n      pop\n      tag_42\n      tag_122\n      calldatasize\n      0x04\n      tag_44\n      jump\t// in\n    tag_122:\n      tag_123\n      jump\t// in\n        /* \"contracts/Cardeiro_4.sol\":3245:3577  function updateHalvingParams(uint256 _halvingInterval, uint256 _halvingRate) public onlyOwner {... */\n    tag_22:\n      callvalue\n      dup1\n      iszero\n      tag_125\n      jumpi\n      revert(0x00, 0x00)\n    tag_125:\n      pop\n      tag_71\n      tag_127\n      calldatasize\n      0x04\n      tag_128\n      jump\t// in\n    tag_127:\n      tag_129\n      jump\t// in\n        /* \"@openzeppelin/contracts/token/ERC20/ERC20.sol\":3551:3691  function allowance(address owner, address spender) public view virtual returns (uint256) {... */\n    tag_23:\n      callvalue\n      dup1\n      iszero\n      tag_130\n      jumpi\n      revert(0x00, 0x00)\n    tag_130:\n      pop\n      tag_49\n      tag_132\n      calldatasize\n      0x04\n      tag_133\n      jump\t// in\n    tag_132:\n      sub(shl(0xa0, 0x01), 0x01)\n        /* \"@openzeppelin/contracts/token/ERC20/ERC20.sol\":3657:3675  _allowances[owner] */\n      swap2\n      dup3\n      and\n        /* \"@openzeppelin/contracts/token/ERC20/ERC20.sol\":3631:3638  uint256 */\n      0x00\n        /* \"@openzeppelin/contracts/token/ERC20/ERC20.sol\":3657:3675  _allowances[owner] */\n      swap1\n      dup2\n      mstore\n        /* \"@openzeppelin/contracts/token/ERC20/ERC20.sol\":3657:3668  _allowances */\n      0x01\n        /* \"@openzeppelin/contracts/token/ERC20/ERC20.sol\":3657:3675  _allowances[owner] */\n      0x20\n      swap1\n      dup2\n      mstore\n      0x40\n      dup1\n      dup4\n      keccak256\n        /* \"@openzeppelin/contracts/token/ERC20/ERC20.sol\":3657:3684  _allowances[owner][spender] */\n      swap4\n      swap1\n      swap5\n      and\n      dup3\n      mstore\n      swap2\n      swap1\n      swap2\n      mstore\n      keccak256\n      sload\n      swap1\n        /* \"@openzeppelin/contracts/token/ERC20/ERC20.sol\":3551:3691  function allowance(address owner, address spender) public view virtual returns (uint256) {... */\n      jump\n        /* \"contracts/Cardeiro_4.sol\":2576:3177  function executeHalving() public nonReentrant {... */\n    tag_24:\n      callvalue\n      dup1\n      iszero\n      tag_136\n      jumpi\n      revert(0x00, 0x00)\n    tag_136:\n      pop\n      tag_71\n      tag_138\n      jump\t// in\n        /* \"@openzeppelin/contracts/access/Ownable.sol\":2543:2758  function transferOwnership(address newOwner) public virtual onlyOwner {... */\n    tag_25:\n      callvalue\n      dup1\n      iszero\n      tag_139\n      jumpi\n      revert(0x00, 0x00)\n    tag_139:\n      pop\n      tag_71\n      tag_141\n      calldatasize\n      0x04\n      tag_86\n      jump\t// in\n    tag_141:\n      tag_142\n      jump\t// in\n        /* \"@openzeppelin/contracts/token/ERC20/ERC20.sol\":1779:1868  function name() public view virtual returns (string memory) {... */\n    tag_38:\n        /* \"@openzeppelin/contracts/token/ERC20/ERC20.sol\":1824:1837  string memory */\n      0x60\n        /* \"@openzeppelin/contracts/token/ERC20/ERC20.sol\":1856:1861  _name */\n      0x03\n        /* \"@openzeppelin/contracts/token/ERC20/ERC20.sol\":1849:1861  return _name */\n      dup1\n      sload\n      tag_144\n      swap1\n      tag_145\n      jump\t// in\n    tag_144:\n      dup1\n      0x1f\n      add\n      0x20\n      dup1\n      swap2\n      div\n      mul\n      0x20\n      add\n      mload(0x40)\n      swap1\n      dup2\n      add\n      0x40\n      mstore\n      dup1\n      swap3\n      swap2\n      swap1\n      dup2\n      dup2\n      mstore\n      0x20\n      add\n      dup3\n      dup1\n      sload\n      tag_146\n      swap1\n      tag_145\n      jump\t// in\n    tag_146:\n      dup1\n      iszero\n      tag_147\n      jumpi\n      dup1\n      0x1f\n      lt\n      tag_148\n      jumpi\n      0x0100\n      dup1\n      dup4\n      sload\n      div\n      mul\n      dup4\n      mstore\n      swap2\n      0x20\n      add\n      swap2\n      jump(tag_147)\n    tag_148:\n      dup3\n      add\n      swap2\n      swap1\n      0x00\n      mstore\n      keccak256(0x00, 0x20)\n      swap1\n    tag_149:\n      dup2\n      sload\n      dup2\n      mstore\n      swap1\n      0x01\n      add\n      swap1\n      0x20\n      add\n      dup1\n      dup4\n      gt\n      tag_149\n      jumpi\n      dup3\n      swap1\n      sub\n      0x1f\n      and\n      dup3\n      add\n      swap2\n    tag_147:\n      pop\n      pop\n      pop\n      pop\n      pop\n      swap1\n      pop\n        /* \"@openzeppelin/contracts/token/ERC20/ERC20.sol\":1779:1868  function name() public view virtual returns (string memory) {... */\n      swap1\n      jump\t// out\n        /* \"@openzeppelin/contracts/token/ERC20/ERC20.sol\":3998:4184  function approve(address spender, uint256 value) public virtual returns (bool) {... */\n    tag_45:\n        /* \"@openzeppelin/contracts/token/ERC20/ERC20.sol\":4071:4075  bool */\n      0x00\n        /* \"@openzeppelin/contracts/utils/Context.sol\":735:745  msg.sender */\n      caller\n        /* \"@openzeppelin/contracts/token/ERC20/ERC20.sol\":4125:4156  _approve(owner, spender, value) */\n      tag_153\n        /* \"@openzeppelin/contracts/utils/Context.sol\":735:745  msg.sender */\n      dup2\n        /* \"@openzeppelin/contracts/token/ERC20/ERC20.sol\":4141:4148  spender */\n      dup6\n        /* \"@openzeppelin/contracts/token/ERC20/ERC20.sol\":4150:4155  value */\n      dup6\n        /* \"@openzeppelin/contracts/token/ERC20/ERC20.sol\":4125:4133  _approve */\n      tag_154\n        /* \"@openzeppelin/contracts/token/ERC20/ERC20.sol\":4125:4156  _approve(owner, spender, value) */\n      jump\t// in\n    tag_153:\n        /* \"@openzeppelin/contracts/token/ERC20/ERC20.sol\":4173:4177  true */\n      0x01\n        /* \"@openzeppelin/contracts/token/ERC20/ERC20.sol\":4166:4177  return true */\n      swap2\n      pop\n      pop\n        /* \"@openzeppelin/contracts/token/ERC20/ERC20.sol\":3998:4184  function approve(address spender, uint256 value) public virtual returns (bool) {... */\n    tag_150:\n      swap3\n      swap2\n      pop\n      pop\n      jump\t// out\n        /* \"contracts/Cardeiro_4.sol\":3746:3924  function getExpectedBurn(uint256 rate) public view returns (uint256) {... */\n    tag_52:\n        /* \"contracts/Cardeiro_4.sol\":3861:3869  treasury */\n      and(sub(shl(0xa0, 0x01), 0x01), sload(0x07))\n        /* \"contracts/Cardeiro_4.sol\":3806:3813  uint256 */\n      0x00\n        /* \"@openzeppelin/contracts/token/ERC20/ERC20.sol\":3095:3113  _balances[account] */\n      swap1\n      dup2\n      mstore\n      0x20\n      dup2\n      swap1\n      mstore\n      0x40\n      dup2\n      keccak256\n      sload\n        /* \"contracts/Cardeiro_4.sol\":3914:3917  100 */\n      0x64\n        /* \"contracts/Cardeiro_4.sol\":3888:3910  treasuryBalance * rate */\n      tag_157\n        /* \"contracts/Cardeiro_4.sol\":3906:3910  rate */\n      dup5\n        /* \"contracts/Cardeiro_4.sol\":3825:3870  uint256 treasuryBalance = balanceOf(treasury) */\n      dup4\n        /* \"contracts/Cardeiro_4.sol\":3888:3910  treasuryBalance * rate */\n      tag_158\n      jump\t// in\n    tag_157:\n        /* \"contracts/Cardeiro_4.sol\":3887:3917  (treasuryBalance * rate) / 100 */\n      tag_159\n      swap2\n      swap1\n      tag_160\n      jump\t// in\n    tag_159:\n        /* \"contracts/Cardeiro_4.sol\":3880:3917  return (treasuryBalance * rate) / 100 */\n      swap4\n        /* \"contracts/Cardeiro_4.sol\":3746:3924  function getExpectedBurn(uint256 rate) public view returns (uint256) {... */\n      swap3\n      pop\n      pop\n      pop\n      jump\t// out\n        /* \"contracts/Cardeiro_4.sol\":4133:4352  function transferFrom(address from, address to, uint256 amount)... */\n    tag_63:\n        /* \"contracts/Cardeiro_4.sol\":4282:4286  bool */\n      0x00\n        /* \"contracts/Cardeiro_4.sol\":1590:1604  isHalvingDue() */\n      tag_163\n        /* \"contracts/Cardeiro_4.sol\":1590:1602  isHalvingDue */\n      tag_94\n        /* \"contracts/Cardeiro_4.sol\":1590:1604  isHalvingDue() */\n      jump\t// in\n    tag_163:\n        /* \"contracts/Cardeiro_4.sol\":1586:1647  if (isHalvingDue()) {... */\n      iszero\n      tag_165\n      jumpi\n        /* \"contracts/Cardeiro_4.sol\":1620:1636  executeHalving() */\n      tag_165\n        /* \"contracts/Cardeiro_4.sol\":1620:1634  executeHalving */\n      tag_138\n        /* \"contracts/Cardeiro_4.sol\":1620:1636  executeHalving() */\n      jump\t// in\n    tag_165:\n        /* \"contracts/Cardeiro_4.sol\":4309:4345  super.transferFrom(from, to, amount) */\n      tag_167\n        /* \"contracts/Cardeiro_4.sol\":4328:4332  from */\n      dup5\n        /* \"contracts/Cardeiro_4.sol\":4334:4336  to */\n      dup5\n        /* \"contracts/Cardeiro_4.sol\":4338:4344  amount */\n      dup5\n        /* \"contracts/Cardeiro_4.sol\":4309:4327  super.transferFrom */\n      tag_168\n        /* \"contracts/Cardeiro_4.sol\":4309:4345  super.transferFrom(from, to, amount) */\n      jump\t// in\n    tag_167:\n        /* \"contracts/Cardeiro_4.sol\":4302:4345  return super.transferFrom(from, to, amount) */\n      swap5\n        /* \"contracts/Cardeiro_4.sol\":4133:4352  function transferFrom(address from, address to, uint256 amount)... */\n      swap4\n      pop\n      pop\n      pop\n      pop\n      jump\t// out\n        /* \"@openzeppelin/contracts/token/ERC20/extensions/ERC20Burnable.sol\":618:705  function burn(uint256 value) public virtual {... */\n    tag_73:\n        /* \"@openzeppelin/contracts/token/ERC20/extensions/ERC20Burnable.sol\":672:698  _burn(_msgSender(), value) */\n      tag_171\n        /* \"@openzeppelin/contracts/utils/Context.sol\":735:745  msg.sender */\n      caller\n        /* \"@openzeppelin/contracts/token/ERC20/extensions/ERC20Burnable.sol\":692:697  value */\n      dup3\n        /* \"@openzeppelin/contracts/token/ERC20/extensions/ERC20Burnable.sol\":672:677  _burn */\n      tag_173\n        /* \"@openzeppelin/contracts/token/ERC20/extensions/ERC20Burnable.sol\":672:698  _burn(_msgSender(), value) */\n      jump\t// in\n    tag_171:\n        /* \"@openzeppelin/contracts/token/ERC20/extensions/ERC20Burnable.sol\":618:705  function burn(uint256 value) public virtual {... */\n      pop\n      jump\t// out\n        /* \"@openzeppelin/contracts/access/Ownable.sol\":2293:2394  function renounceOwnership() public virtual onlyOwner {... */\n    tag_91:\n        /* \"@openzeppelin/contracts/access/Ownable.sol\":1531:1544  _checkOwner() */\n      tag_176\n        /* \"@openzeppelin/contracts/access/Ownable.sol\":1531:1542  _checkOwner */\n      tag_177\n        /* \"@openzeppelin/contracts/access/Ownable.sol\":1531:1544  _checkOwner() */\n      jump\t// in\n    tag_176:\n        /* \"@openzeppelin/contracts/access/Ownable.sol\":2357:2387  _transferOwnership(address(0)) */\n      tag_179\n        /* \"@openzeppelin/contracts/access/Ownable.sol\":2384:2385  0 */\n      0x00\n        /* \"@openzeppelin/contracts/access/Ownable.sol\":2357:2375  _transferOwnership */\n      tag_180\n        /* \"@openzeppelin/contracts/access/Ownable.sol\":2357:2387  _transferOwnership(address(0)) */\n      jump\t// in\n    tag_179:\n        /* \"@openzeppelin/contracts/access/Ownable.sol\":2293:2394  function renounceOwnership() public virtual onlyOwner {... */\n      jump\t// out\n        /* \"contracts/Cardeiro_4.sol\":2357:2504  function isHalvingDue() public view returns (bool) {... */\n    tag_94:\n        /* \"contracts/Cardeiro_4.sol\":2402:2406  bool */\n      0x00\n        /* \"contracts/Cardeiro_4.sol\":1436:1440  1800 */\n      0x0708\n        /* \"contracts/Cardeiro_4.sol\":2463:2478  halvingInterval */\n      sload(0x08)\n        /* \"contracts/Cardeiro_4.sol\":2445:2460  lastHalvingTime */\n      sload(0x09)\n        /* \"contracts/Cardeiro_4.sol\":2445:2478  lastHalvingTime + halvingInterval */\n      tag_182\n      swap2\n      swap1\n      tag_183\n      jump\t// in\n    tag_182:\n        /* \"contracts/Cardeiro_4.sol\":2445:2496  lastHalvingTime + halvingInterval + SECURITY_MARGIN */\n      tag_184\n      swap2\n      swap1\n      tag_183\n      jump\t// in\n    tag_184:\n        /* \"contracts/Cardeiro_4.sol\":2425:2440  block.timestamp */\n      timestamp\n        /* \"contracts/Cardeiro_4.sol\":2425:2497  block.timestamp >= (lastHalvingTime + halvingInterval + SECURITY_MARGIN) */\n      lt\n      iszero\n        /* \"contracts/Cardeiro_4.sol\":2418:2497  return block.timestamp >= (lastHalvingTime + halvingInterval + SECURITY_MARGIN) */\n      swap1\n      pop\n        /* \"contracts/Cardeiro_4.sol\":2357:2504  function isHalvingDue() public view returns (bool) {... */\n      swap1\n      jump\t// out\n        /* \"@openzeppelin/contracts/token/ERC20/extensions/ERC20Burnable.sol\":1021:1179  function burnFrom(address account, uint256 value) public virtual {... */\n    tag_99:\n        /* \"@openzeppelin/contracts/token/ERC20/extensions/ERC20Burnable.sol\":1096:1141  _spendAllowance(account, _msgSender(), value) */\n      tag_186\n        /* \"@openzeppelin/contracts/token/ERC20/extensions/ERC20Burnable.sol\":1112:1119  account */\n      dup3\n        /* \"@openzeppelin/contracts/utils/Context.sol\":735:745  msg.sender */\n      caller\n        /* \"@openzeppelin/contracts/token/ERC20/extensions/ERC20Burnable.sol\":1135:1140  value */\n      dup4\n        /* \"@openzeppelin/contracts/token/ERC20/extensions/ERC20Burnable.sol\":1096:1111  _spendAllowance */\n      tag_188\n        /* \"@openzeppelin/contracts/token/ERC20/extensions/ERC20Burnable.sol\":1096:1141  _spendAllowance(account, _msgSender(), value) */\n      jump\t// in\n    tag_186:\n        /* \"@openzeppelin/contracts/token/ERC20/extensions/ERC20Burnable.sol\":1151:1172  _burn(account, value) */\n      tag_189\n        /* \"@openzeppelin/contracts/token/ERC20/extensions/ERC20Burnable.sol\":1157:1164  account */\n      dup3\n        /* \"@openzeppelin/contracts/token/ERC20/extensions/ERC20Burnable.sol\":1166:1171  value */\n      dup3\n        /* \"@openzeppelin/contracts/token/ERC20/extensions/ERC20Burnable.sol\":1151:1156  _burn */\n      tag_173\n        /* \"@openzeppelin/contracts/token/ERC20/extensions/ERC20Burnable.sol\":1151:1172  _burn(account, value) */\n      jump\t// in\n    tag_189:\n        /* \"@openzeppelin/contracts/token/ERC20/extensions/ERC20Burnable.sol\":1021:1179  function burnFrom(address account, uint256 value) public virtual {... */\n      pop\n      pop\n      jump\t// out\n        /* \"contracts/Cardeiro_4.sol\":3643:3740  function updateTreasury(address _treasury) public onlyOwner {... */\n    tag_107:\n        /* \"@openzeppelin/contracts/access/Ownable.sol\":1531:1544  _checkOwner() */\n      tag_191\n        /* \"@openzeppelin/contracts/access/Ownable.sol\":1531:1542  _checkOwner */\n      tag_177\n        /* \"@openzeppelin/contracts/access/Ownable.sol\":1531:1544  _checkOwner() */\n      jump\t// in\n    tag_191:\n        /* \"contracts/Cardeiro_4.sol\":3713:3721  treasury */\n      0x07\n        /* \"contracts/Cardeiro_4.sol\":3713:3733  treasury = _treasury */\n      dup1\n      sload\n      not(sub(shl(0xa0, 0x01), 0x01))\n      and\n      sub(shl(0xa0, 0x01), 0x01)\n      swap3\n      swap1\n      swap3\n      and\n      swap2\n      swap1\n      swap2\n      or\n      swap1\n      sstore\n        /* \"contracts/Cardeiro_4.sol\":3643:3740  function updateTreasury(address _treasury) public onlyOwner {... */\n      jump\t// out\n        /* \"@openzeppelin/contracts/token/ERC20/ERC20.sol\":1981:2074  function symbol() public view virtual returns (string memory) {... */\n    tag_118:\n        /* \"@openzeppelin/contracts/token/ERC20/ERC20.sol\":2028:2041  string memory */\n      0x60\n        /* \"@openzeppelin/contracts/token/ERC20/ERC20.sol\":2060:2067  _symbol */\n      0x04\n        /* \"@openzeppelin/contracts/token/ERC20/ERC20.sol\":2053:2067  return _symbol */\n      dup1\n      sload\n      tag_144\n      swap1\n      tag_145\n      jump\t// in\n        /* \"contracts/Cardeiro_4.sol\":3930:4127  function transfer(address to, uint256 amount) ... */\n    tag_123:\n        /* \"contracts/Cardeiro_4.sol\":4066:4070  bool */\n      0x00\n        /* \"contracts/Cardeiro_4.sol\":1590:1604  isHalvingDue() */\n      tag_201\n        /* \"contracts/Cardeiro_4.sol\":1590:1602  isHalvingDue */\n      tag_94\n        /* \"contracts/Cardeiro_4.sol\":1590:1604  isHalvingDue() */\n      jump\t// in\n    tag_201:\n        /* \"contracts/Cardeiro_4.sol\":1586:1647  if (isHalvingDue()) {... */\n      iszero\n      tag_203\n      jumpi\n        /* \"contracts/Cardeiro_4.sol\":1620:1636  executeHalving() */\n      tag_203\n        /* \"contracts/Cardeiro_4.sol\":1620:1634  executeHalving */\n      tag_138\n        /* \"contracts/Cardeiro_4.sol\":1620:1636  executeHalving() */\n      jump\t// in\n    tag_203:\n        /* \"contracts/Cardeiro_4.sol\":4094:4120  super.transfer(to, amount) */\n      tag_159\n        /* \"contracts/Cardeiro_4.sol\":4109:4111  to */\n      dup4\n        /* \"contracts/Cardeiro_4.sol\":4113:4119  amount */\n      dup4\n        /* \"contracts/Cardeiro_4.sol\":4094:4108  super.transfer */\n      tag_206\n        /* \"contracts/Cardeiro_4.sol\":4094:4120  super.transfer(to, amount) */\n      jump\t// in\n        /* \"contracts/Cardeiro_4.sol\":3245:3577  function updateHalvingParams(uint256 _halvingInterval, uint256 _halvingRate) public onlyOwner {... */\n    tag_129:\n        /* \"@openzeppelin/contracts/access/Ownable.sol\":1531:1544  _checkOwner() */\n      tag_208\n        /* \"@openzeppelin/contracts/access/Ownable.sol\":1531:1542  _checkOwner */\n      tag_177\n        /* \"@openzeppelin/contracts/access/Ownable.sol\":1531:1544  _checkOwner() */\n      jump\t// in\n    tag_208:\n        /* \"contracts/Cardeiro_4.sol\":1014:1015  5 */\n      0x05\n        /* \"contracts/Cardeiro_4.sol\":3357:3369  _halvingRate */\n      dup2\n        /* \"contracts/Cardeiro_4.sol\":3357:3389  _halvingRate >= MIN_HALVING_RATE */\n      lt\n      iszero\n        /* \"contracts/Cardeiro_4.sol\":3349:3414  require(_halvingRate >= MIN_HALVING_RATE, \"Halving rate too low\") */\n      tag_210\n      jumpi\n      mload(0x40)\n      shl(0xe5, 0x461bcd)\n      dup2\n      mstore\n        /* \"#utility.yul\":4706:4708   */\n      0x20\n        /* \"contracts/Cardeiro_4.sol\":3349:3414  require(_halvingRate >= MIN_HALVING_RATE, \"Halving rate too low\") */\n      0x04\n      dup3\n      add\n        /* \"#utility.yul\":4688:4709   */\n      mstore\n        /* \"#utility.yul\":4745:4747   */\n      0x14\n        /* \"#utility.yul\":4725:4743   */\n      0x24\n      dup3\n      add\n        /* \"#utility.yul\":4718:4748   */\n      mstore\n      shl(0x60, 0x48616c76696e67207261746520746f6f206c6f77)\n        /* \"#utility.yul\":4764:4782   */\n      0x44\n      dup3\n      add\n        /* \"#utility.yul\":4757:4807   */\n      mstore\n        /* \"#utility.yul\":4824:4842   */\n      0x64\n      add\n        /* \"contracts/Cardeiro_4.sol\":3349:3414  require(_halvingRate >= MIN_HALVING_RATE, \"Halving rate too low\") */\n      tag_31\n        /* \"#utility.yul\":4504:4848   */\n      jump\n        /* \"contracts/Cardeiro_4.sol\":3349:3414  require(_halvingRate >= MIN_HALVING_RATE, \"Halving rate too low\") */\n    tag_210:\n        /* \"contracts/Cardeiro_4.sol\":1072:1074  20 */\n      0x14\n        /* \"contracts/Cardeiro_4.sol\":3432:3444  _halvingRate */\n      dup2\n        /* \"contracts/Cardeiro_4.sol\":3432:3464  _halvingRate <= MAX_HALVING_RATE */\n      gt\n      iszero\n        /* \"contracts/Cardeiro_4.sol\":3424:3490  require(_halvingRate <= MAX_HALVING_RATE, \"Halving rate too high\") */\n      tag_213\n      jumpi\n      mload(0x40)\n      shl(0xe5, 0x461bcd)\n      dup2\n      mstore\n        /* \"#utility.yul\":5055:5057   */\n      0x20\n        /* \"contracts/Cardeiro_4.sol\":3424:3490  require(_halvingRate <= MAX_HALVING_RATE, \"Halving rate too high\") */\n      0x04\n      dup3\n      add\n        /* \"#utility.yul\":5037:5058   */\n      mstore\n        /* \"#utility.yul\":5094:5096   */\n      0x15\n        /* \"#utility.yul\":5074:5092   */\n      0x24\n      dup3\n      add\n        /* \"#utility.yul\":5067:5097   */\n      mstore\n      shl(0x5b, 0x090c2d8ecd2dcce40e4c2e8ca40e8dede40d0d2ced)\n        /* \"#utility.yul\":5113:5131   */\n      0x44\n      dup3\n      add\n        /* \"#utility.yul\":5106:5157   */\n      mstore\n        /* \"#utility.yul\":5174:5192   */\n      0x64\n      add\n        /* \"contracts/Cardeiro_4.sol\":3424:3490  require(_halvingRate <= MAX_HALVING_RATE, \"Halving rate too high\") */\n      tag_31\n        /* \"#utility.yul\":4853:5198   */\n      jump\n        /* \"contracts/Cardeiro_4.sol\":3424:3490  require(_halvingRate <= MAX_HALVING_RATE, \"Halving rate too high\") */\n    tag_213:\n        /* \"contracts/Cardeiro_4.sol\":3500:3515  halvingInterval */\n      0x08\n        /* \"contracts/Cardeiro_4.sol\":3500:3534  halvingInterval = _halvingInterval */\n      swap2\n      swap1\n      swap2\n      sstore\n        /* \"contracts/Cardeiro_4.sol\":3544:3555  halvingRate */\n      0x0a\n        /* \"contracts/Cardeiro_4.sol\":3544:3570  halvingRate = _halvingRate */\n      sstore\n        /* \"contracts/Cardeiro_4.sol\":3245:3577  function updateHalvingParams(uint256 _halvingInterval, uint256 _halvingRate) public onlyOwner {... */\n      jump\t// out\n        /* \"contracts/Cardeiro_4.sol\":2576:3177  function executeHalving() public nonReentrant {... */\n    tag_138:\n        /* \"@openzeppelin/contracts/utils/ReentrancyGuard.sol\":2500:2521  _nonReentrantBefore() */\n      tag_218\n        /* \"@openzeppelin/contracts/utils/ReentrancyGuard.sol\":2500:2519  _nonReentrantBefore */\n      tag_219\n        /* \"@openzeppelin/contracts/utils/ReentrancyGuard.sol\":2500:2521  _nonReentrantBefore() */\n      jump\t// in\n    tag_218:\n        /* \"contracts/Cardeiro_4.sol\":2640:2654  isHalvingDue() */\n      tag_221\n        /* \"contracts/Cardeiro_4.sol\":2640:2652  isHalvingDue */\n      tag_94\n        /* \"contracts/Cardeiro_4.sol\":2640:2654  isHalvingDue() */\n      jump\t// in\n    tag_221:\n        /* \"contracts/Cardeiro_4.sol\":2632:2687  require(isHalvingDue(), \"Halving interval not reached\") */\n      tag_222\n      jumpi\n      mload(0x40)\n      shl(0xe5, 0x461bcd)\n      dup2\n      mstore\n        /* \"#utility.yul\":5405:5407   */\n      0x20\n        /* \"contracts/Cardeiro_4.sol\":2632:2687  require(isHalvingDue(), \"Halving interval not reached\") */\n      0x04\n      dup3\n      add\n        /* \"#utility.yul\":5387:5408   */\n      mstore\n        /* \"#utility.yul\":5444:5446   */\n      0x1c\n        /* \"#utility.yul\":5424:5442   */\n      0x24\n      dup3\n      add\n        /* \"#utility.yul\":5417:5447   */\n      mstore\n        /* \"#utility.yul\":5483:5513   */\n      0x48616c76696e6720696e74657276616c206e6f74207265616368656400000000\n        /* \"#utility.yul\":5463:5481   */\n      0x44\n      dup3\n      add\n        /* \"#utility.yul\":5456:5514   */\n      mstore\n        /* \"#utility.yul\":5531:5549   */\n      0x64\n      add\n        /* \"contracts/Cardeiro_4.sol\":2632:2687  require(isHalvingDue(), \"Halving interval not reached\") */\n      tag_31\n        /* \"#utility.yul\":5203:5555   */\n      jump\n        /* \"contracts/Cardeiro_4.sol\":2632:2687  require(isHalvingDue(), \"Halving interval not reached\") */\n    tag_222:\n        /* \"contracts/Cardeiro_4.sol\":2742:2750  treasury */\n      and(sub(shl(0xa0, 0x01), 0x01), sload(0x07))\n        /* \"contracts/Cardeiro_4.sol\":2706:2729  uint256 treasuryBalance */\n      0x00\n        /* \"@openzeppelin/contracts/token/ERC20/ERC20.sol\":3095:3113  _balances[account] */\n      swap1\n      dup2\n      mstore\n      0x20\n      dup2\n      swap1\n      mstore\n      0x40\n      dup2\n      keccak256\n      sload\n        /* \"contracts/Cardeiro_4.sol\":2706:2751  uint256 treasuryBalance = balanceOf(treasury) */\n      swap1\n      pop\n        /* \"contracts/Cardeiro_4.sol\":2761:2779  uint256 burnAmount */\n      0x00\n        /* \"contracts/Cardeiro_4.sol\":2816:2819  100 */\n      0x64\n        /* \"contracts/Cardeiro_4.sol\":2801:2812  halvingRate */\n      sload(0x0a)\n        /* \"contracts/Cardeiro_4.sol\":2783:2798  treasuryBalance */\n      dup4\n        /* \"contracts/Cardeiro_4.sol\":2783:2812  treasuryBalance * halvingRate */\n      tag_226\n      swap2\n      swap1\n      tag_158\n      jump\t// in\n    tag_226:\n        /* \"contracts/Cardeiro_4.sol\":2782:2819  (treasuryBalance * halvingRate) / 100 */\n      tag_227\n      swap2\n      swap1\n      tag_160\n      jump\t// in\n    tag_227:\n        /* \"contracts/Cardeiro_4.sol\":2761:2819  uint256 burnAmount = (treasuryBalance * halvingRate) / 100 */\n      swap1\n      pop\n        /* \"contracts/Cardeiro_4.sol\":2842:2856  burnAmount > 0 */\n      dup1\n      iszero\n        /* \"contracts/Cardeiro_4.sol\":2838:3171  if (burnAmount > 0) {... */\n      tag_228\n      jumpi\n        /* \"contracts/Cardeiro_4.sol\":2919:2927  treasury */\n      sload(0x07)\n        /* \"contracts/Cardeiro_4.sol\":2913:2940  _burn(treasury, burnAmount) */\n      tag_229\n      swap1\n      sub(shl(0xa0, 0x01), 0x01)\n        /* \"contracts/Cardeiro_4.sol\":2919:2927  treasury */\n      and\n        /* \"contracts/Cardeiro_4.sol\":2929:2939  burnAmount */\n      dup3\n        /* \"contracts/Cardeiro_4.sol\":2913:2918  _burn */\n      tag_173\n        /* \"contracts/Cardeiro_4.sol\":2913:2940  _burn(treasury, burnAmount) */\n      jump\t// in\n    tag_229:\n        /* \"contracts/Cardeiro_4.sol\":3025:3058  block.timestamp - SECURITY_MARGIN */\n      tag_230\n        /* \"contracts/Cardeiro_4.sol\":1436:1440  1800 */\n      0x0708\n        /* \"contracts/Cardeiro_4.sol\":3025:3040  block.timestamp */\n      timestamp\n        /* \"contracts/Cardeiro_4.sol\":3025:3058  block.timestamp - SECURITY_MARGIN */\n      tag_231\n      jump\t// in\n    tag_230:\n        /* \"contracts/Cardeiro_4.sol\":3007:3022  lastHalvingTime */\n      0x09\n        /* \"contracts/Cardeiro_4.sol\":3007:3058  lastHalvingTime = block.timestamp - SECURITY_MARGIN */\n      sstore\n        /* \"contracts/Cardeiro_4.sol\":3124:3160  Halving(burnAmount, block.timestamp) */\n      0x40\n      dup1\n      mload\n        /* \"#utility.yul\":5867:5892   */\n      dup3\n      dup2\n      mstore\n        /* \"contracts/Cardeiro_4.sol\":3144:3159  block.timestamp */\n      timestamp\n        /* \"#utility.yul\":5923:5925   */\n      0x20\n        /* \"#utility.yul\":5908:5926   */\n      dup3\n      add\n        /* \"#utility.yul\":5901:5935   */\n      mstore\n        /* \"contracts/Cardeiro_4.sol\":3124:3160  Halving(burnAmount, block.timestamp) */\n      0x394823b0bcaf78cd8f5876a52c05dbab91512a05f5da2a31e239a11ab66d605f\n      swap2\n        /* \"#utility.yul\":5840:5858   */\n      add\n        /* \"contracts/Cardeiro_4.sol\":3124:3160  Halving(burnAmount, block.timestamp) */\n      mload(0x40)\n      dup1\n      swap2\n      sub\n      swap1\n      log1\n        /* \"contracts/Cardeiro_4.sol\":2838:3171  if (burnAmount > 0) {... */\n    tag_228:\n        /* \"contracts/Cardeiro_4.sol\":2622:3177  {... */\n      pop\n      pop\n        /* \"@openzeppelin/contracts/utils/ReentrancyGuard.sol\":2542:2562  _nonReentrantAfter() */\n      tag_179\n        /* \"@openzeppelin/contracts/utils/ReentrancyGuard.sol\":1857:1858  1 */\n      0x01\n        /* \"@openzeppelin/contracts/utils/ReentrancyGuard.sol\":3068:3075  _status */\n      0x06\n        /* \"@openzeppelin/contracts/utils/ReentrancyGuard.sol\":3068:3089  _status = NOT_ENTERED */\n      sstore\n        /* \"@openzeppelin/contracts/utils/ReentrancyGuard.sol\":2888:3096  function _nonReentrantAfter() private {... */\n      jump\n        /* \"@openzeppelin/contracts/access/Ownable.sol\":2543:2758  function transferOwnership(address newOwner) public virtual onlyOwner {... */\n    tag_142:\n        /* \"@openzeppelin/contracts/access/Ownable.sol\":1531:1544  _checkOwner() */\n      tag_237\n        /* \"@openzeppelin/contracts/access/Ownable.sol\":1531:1542  _checkOwner */\n      tag_177\n        /* \"@openzeppelin/contracts/access/Ownable.sol\":1531:1544  _checkOwner() */\n      jump\t// in\n    tag_237:\n      sub(shl(0xa0, 0x01), 0x01)\n        /* \"@openzeppelin/contracts/access/Ownable.sol\":2627:2649  newOwner == address(0) */\n      dup2\n      and\n        /* \"@openzeppelin/contracts/access/Ownable.sol\":2623:2714  if (newOwner == address(0)) {... */\n      tag_239\n      jumpi\n        /* \"@openzeppelin/contracts/access/Ownable.sol\":2672:2703  OwnableInvalidOwner(address(0)) */\n      mload(0x40)\n      shl(0xe0, 0x1e4fbdf7)\n      dup2\n      mstore\n        /* \"@openzeppelin/contracts/access/Ownable.sol\":2700:2701  0 */\n      0x00\n        /* \"@openzeppelin/contracts/access/Ownable.sol\":2672:2703  OwnableInvalidOwner(address(0)) */\n      0x04\n      dup3\n      add\n        /* \"#utility.yul\":2593:2644   */\n      mstore\n        /* \"#utility.yul\":2566:2584   */\n      0x24\n      add\n        /* \"@openzeppelin/contracts/access/Ownable.sol\":2672:2703  OwnableInvalidOwner(address(0)) */\n      tag_31\n        /* \"#utility.yul\":2447:2650   */\n      jump\n        /* \"@openzeppelin/contracts/access/Ownable.sol\":2623:2714  if (newOwner == address(0)) {... */\n    tag_239:\n        /* \"@openzeppelin/contracts/access/Ownable.sol\":2723:2751  _transferOwnership(newOwner) */\n      tag_171\n        /* \"@openzeppelin/contracts/access/Ownable.sol\":2742:2750  newOwner */\n      dup2\n        /* \"@openzeppelin/contracts/access/Ownable.sol\":2723:2741  _transferOwnership */\n      tag_180\n        /* \"@openzeppelin/contracts/access/Ownable.sol\":2723:2751  _transferOwnership(newOwner) */\n      jump\t// in\n        /* \"@openzeppelin/contracts/token/ERC20/ERC20.sol\":8726:8854  function _approve(address owner, address spender, uint256 value) internal {... */\n    tag_154:\n        /* \"@openzeppelin/contracts/token/ERC20/ERC20.sol\":8810:8847  _approve(owner, spender, value, true) */\n      tag_244\n        /* \"@openzeppelin/contracts/token/ERC20/ERC20.sol\":8819:8824  owner */\n      dup4\n        /* \"@openzeppelin/contracts/token/ERC20/ERC20.sol\":8826:8833  spender */\n      dup4\n        /* \"@openzeppelin/contracts/token/ERC20/ERC20.sol\":8835:8840  value */\n      dup4\n        /* \"@openzeppelin/contracts/token/ERC20/ERC20.sol\":8842:8846  true */\n      0x01\n        /* \"@openzeppelin/contracts/token/ERC20/ERC20.sol\":8810:8818  _approve */\n      tag_245\n        /* \"@openzeppelin/contracts/token/ERC20/ERC20.sol\":8810:8847  _approve(owner, spender, value, true) */\n      jump\t// in\n    tag_244:\n        /* \"@openzeppelin/contracts/token/ERC20/ERC20.sol\":8726:8854  function _approve(address owner, address spender, uint256 value) internal {... */\n      pop\n      pop\n      pop\n      jump\t// out\n        /* \"@openzeppelin/contracts/token/ERC20/ERC20.sol\":4776:5020  function transferFrom(address from, address to, uint256 value) public virtual returns (bool) {... */\n    tag_168:\n        /* \"@openzeppelin/contracts/token/ERC20/ERC20.sol\":4863:4867  bool */\n      0x00\n        /* \"@openzeppelin/contracts/utils/Context.sol\":735:745  msg.sender */\n      caller\n        /* \"@openzeppelin/contracts/token/ERC20/ERC20.sol\":4919:4956  _spendAllowance(from, spender, value) */\n      tag_248\n        /* \"@openzeppelin/contracts/token/ERC20/ERC20.sol\":4935:4939  from */\n      dup6\n        /* \"@openzeppelin/contracts/utils/Context.sol\":735:745  msg.sender */\n      dup3\n        /* \"@openzeppelin/contracts/token/ERC20/ERC20.sol\":4950:4955  value */\n      dup6\n        /* \"@openzeppelin/contracts/token/ERC20/ERC20.sol\":4919:4934  _spendAllowance */\n      tag_188\n        /* \"@openzeppelin/contracts/token/ERC20/ERC20.sol\":4919:4956  _spendAllowance(from, spender, value) */\n      jump\t// in\n    tag_248:\n        /* \"@openzeppelin/contracts/token/ERC20/ERC20.sol\":4966:4992  _transfer(from, to, value) */\n      tag_249\n        /* \"@openzeppelin/contracts/token/ERC20/ERC20.sol\":4976:4980  from */\n      dup6\n        /* \"@openzeppelin/contracts/token/ERC20/ERC20.sol\":4982:4984  to */\n      dup6\n        /* \"@openzeppelin/contracts/token/ERC20/ERC20.sol\":4986:4991  value */\n      dup6\n        /* \"@openzeppelin/contracts/token/ERC20/ERC20.sol\":4966:4975  _transfer */\n      tag_250\n        /* \"@openzeppelin/contracts/token/ERC20/ERC20.sol\":4966:4992  _transfer(from, to, value) */\n      jump\t// in\n    tag_249:\n      pop\n        /* \"@openzeppelin/contracts/token/ERC20/ERC20.sol\":5009:5013  true */\n      0x01\n      swap5\n        /* \"@openzeppelin/contracts/token/ERC20/ERC20.sol\":4776:5020  function transferFrom(address from, address to, uint256 value) public virtual returns (bool) {... */\n      swap4\n      pop\n      pop\n      pop\n      pop\n      jump\t// out\n        /* \"@openzeppelin/contracts/token/ERC20/ERC20.sol\":7984:8190  function _burn(address account, uint256 value) internal {... */\n    tag_173:\n      sub(shl(0xa0, 0x01), 0x01)\n        /* \"@openzeppelin/contracts/token/ERC20/ERC20.sol\":8054:8075  account == address(0) */\n      dup3\n      and\n        /* \"@openzeppelin/contracts/token/ERC20/ERC20.sol\":8050:8139  if (account == address(0)) {... */\n      tag_252\n      jumpi\n        /* \"@openzeppelin/contracts/token/ERC20/ERC20.sol\":8098:8128  ERC20InvalidSender(address(0)) */\n      mload(0x40)\n      shl(0xe1, 0x4b637e8f)\n      dup2\n      mstore\n        /* \"@openzeppelin/contracts/token/ERC20/ERC20.sol\":8125:8126  0 */\n      0x00\n        /* \"@openzeppelin/contracts/token/ERC20/ERC20.sol\":8098:8128  ERC20InvalidSender(address(0)) */\n      0x04\n      dup3\n      add\n        /* \"#utility.yul\":2593:2644   */\n      mstore\n        /* \"#utility.yul\":2566:2584   */\n      0x24\n      add\n        /* \"@openzeppelin/contracts/token/ERC20/ERC20.sol\":8098:8128  ERC20InvalidSender(address(0)) */\n      tag_31\n        /* \"#utility.yul\":2447:2650   */\n      jump\n        /* \"@openzeppelin/contracts/token/ERC20/ERC20.sol\":8050:8139  if (account == address(0)) {... */\n    tag_252:\n        /* \"@openzeppelin/contracts/token/ERC20/ERC20.sol\":8148:8183  _update(account, address(0), value) */\n      tag_189\n        /* \"@openzeppelin/contracts/token/ERC20/ERC20.sol\":8156:8163  account */\n      dup3\n        /* \"@openzeppelin/contracts/token/ERC20/ERC20.sol\":8173:8174  0 */\n      0x00\n        /* \"@openzeppelin/contracts/token/ERC20/ERC20.sol\":8177:8182  value */\n      dup4\n        /* \"@openzeppelin/contracts/token/ERC20/ERC20.sol\":8148:8155  _update */\n      tag_255\n        /* \"@openzeppelin/contracts/token/ERC20/ERC20.sol\":8148:8183  _update(account, address(0), value) */\n      jump\t// in\n        /* \"@openzeppelin/contracts/access/Ownable.sol\":1796:1958  function _checkOwner() internal view virtual {... */\n    tag_177:\n        /* \"@openzeppelin/contracts/access/Ownable.sol\":1710:1716  _owner */\n      and(sub(shl(0xa0, 0x01), 0x01), sload(0x05))\n        /* \"@openzeppelin/contracts/utils/Context.sol\":735:745  msg.sender */\n      caller\n        /* \"@openzeppelin/contracts/access/Ownable.sol\":1855:1878  owner() != _msgSender() */\n      eq\n        /* \"@openzeppelin/contracts/access/Ownable.sol\":1851:1952  if (owner() != _msgSender()) {... */\n      tag_179\n      jumpi\n        /* \"@openzeppelin/contracts/access/Ownable.sol\":1901:1941  OwnableUnauthorizedAccount(_msgSender()) */\n      mload(0x40)\n      shl(0xe0, 0x118cdaa7)\n      dup2\n      mstore\n        /* \"@openzeppelin/contracts/utils/Context.sol\":735:745  msg.sender */\n      caller\n        /* \"@openzeppelin/contracts/access/Ownable.sol\":1901:1941  OwnableUnauthorizedAccount(_msgSender()) */\n      0x04\n      dup3\n      add\n        /* \"#utility.yul\":2593:2644   */\n      mstore\n        /* \"#utility.yul\":2566:2584   */\n      0x24\n      add\n        /* \"@openzeppelin/contracts/access/Ownable.sol\":1901:1941  OwnableUnauthorizedAccount(_msgSender()) */\n      tag_31\n        /* \"#utility.yul\":2447:2650   */\n      jump\n        /* \"@openzeppelin/contracts/access/Ownable.sol\":2912:3099  function _transferOwnership(address newOwner) internal virtual {... */\n    tag_180:\n        /* \"@openzeppelin/contracts/access/Ownable.sol\":3004:3010  _owner */\n      0x05\n      dup1\n      sload\n      sub(shl(0xa0, 0x01), 0x01)\n        /* \"@openzeppelin/contracts/access/Ownable.sol\":3020:3037  _owner = newOwner */\n      dup4\n      dup2\n      and\n      not(sub(shl(0xa0, 0x01), 0x01))\n      dup4\n      and\n      dup2\n      or\n      swap1\n      swap4\n      sstore\n        /* \"@openzeppelin/contracts/access/Ownable.sol\":3052:3092  OwnershipTransferred(oldOwner, newOwner) */\n      mload(0x40)\n        /* \"@openzeppelin/contracts/access/Ownable.sol\":3004:3010  _owner */\n      swap2\n      and\n      swap2\n        /* \"@openzeppelin/contracts/access/Ownable.sol\":3020:3037  _owner = newOwner */\n      swap1\n        /* \"@openzeppelin/contracts/access/Ownable.sol\":3004:3010  _owner */\n      dup3\n      swap1\n        /* \"@openzeppelin/contracts/access/Ownable.sol\":3052:3092  OwnershipTransferred(oldOwner, newOwner) */\n      0x8be0079c531659141344cd1fd0a4f28419497f9722a3daafe3b4186f6b6457e0\n      swap1\n        /* \"@openzeppelin/contracts/access/Ownable.sol\":2985:3001  address oldOwner */\n      0x00\n      swap1\n        /* \"@openzeppelin/contracts/access/Ownable.sol\":3052:3092  OwnershipTransferred(oldOwner, newOwner) */\n      log3\n        /* \"@openzeppelin/contracts/access/Ownable.sol\":2975:3099  {... */\n      pop\n        /* \"@openzeppelin/contracts/access/Ownable.sol\":2912:3099  function _transferOwnership(address newOwner) internal virtual {... */\n      pop\n      jump\t// out\n        /* \"@openzeppelin/contracts/token/ERC20/ERC20.sol\":10415:10891  function _spendAllowance(address owner, address spender, uint256 value) internal virtual {... */\n    tag_188:\n      sub(shl(0xa0, 0x01), 0x01)\n        /* \"@openzeppelin/contracts/token/ERC20/ERC20.sol\":3657:3675  _allowances[owner] */\n      dup4\n      dup2\n      and\n        /* \"@openzeppelin/contracts/token/ERC20/ERC20.sol\":10514:10538  uint256 currentAllowance */\n      0x00\n        /* \"@openzeppelin/contracts/token/ERC20/ERC20.sol\":3657:3675  _allowances[owner] */\n      swap1\n      dup2\n      mstore\n        /* \"@openzeppelin/contracts/token/ERC20/ERC20.sol\":3657:3668  _allowances */\n      0x01\n        /* \"@openzeppelin/contracts/token/ERC20/ERC20.sol\":3657:3675  _allowances[owner] */\n      0x20\n      swap1\n      dup2\n      mstore\n      0x40\n      dup1\n      dup4\n      keccak256\n        /* \"@openzeppelin/contracts/token/ERC20/ERC20.sol\":3657:3684  _allowances[owner][spender] */\n      swap4\n      dup7\n      and\n      dup4\n      mstore\n      swap3\n      swap1\n      mstore\n      keccak256\n      sload\n      not(0x00)\n        /* \"@openzeppelin/contracts/token/ERC20/ERC20.sol\":10580:10616  currentAllowance < type(uint256).max */\n      dup2\n      lt\n        /* \"@openzeppelin/contracts/token/ERC20/ERC20.sol\":10576:10885  if (currentAllowance < type(uint256).max) {... */\n      iszero\n      tag_269\n      jumpi\n        /* \"@openzeppelin/contracts/token/ERC20/ERC20.sol\":10655:10660  value */\n      dup2\n        /* \"@openzeppelin/contracts/token/ERC20/ERC20.sol\":10636:10652  currentAllowance */\n      dup2\n        /* \"@openzeppelin/contracts/token/ERC20/ERC20.sol\":10636:10660  currentAllowance < value */\n      lt\n        /* \"@openzeppelin/contracts/token/ERC20/ERC20.sol\":10632:10762  if (currentAllowance < value) {... */\n      iszero\n      tag_266\n      jumpi\n        /* \"@openzeppelin/contracts/token/ERC20/ERC20.sol\":10687:10747  ERC20InsufficientAllowance(spender, currentAllowance, value) */\n      mload(0x40)\n      shl(0xe1, 0x7dc7a0d9)\n      dup2\n      mstore\n      sub(shl(0xa0, 0x01), 0x01)\n        /* \"#utility.yul\":6166:6198   */\n      dup5\n      and\n        /* \"@openzeppelin/contracts/token/ERC20/ERC20.sol\":10687:10747  ERC20InsufficientAllowance(spender, currentAllowance, value) */\n      0x04\n      dup3\n      add\n        /* \"#utility.yul\":6148:6199   */\n      mstore\n        /* \"#utility.yul\":6215:6233   */\n      0x24\n      dup2\n      add\n        /* \"#utility.yul\":6208:6242   */\n      dup3\n      swap1\n      mstore\n        /* \"#utility.yul\":6258:6276   */\n      0x44\n      dup2\n      add\n        /* \"#utility.yul\":6251:6285   */\n      dup4\n      swap1\n      mstore\n        /* \"#utility.yul\":6121:6139   */\n      0x64\n      add\n        /* \"@openzeppelin/contracts/token/ERC20/ERC20.sol\":10687:10747  ERC20InsufficientAllowance(spender, currentAllowance, value) */\n      tag_31\n        /* \"#utility.yul\":5946:6291   */\n      jump\n        /* \"@openzeppelin/contracts/token/ERC20/ERC20.sol\":10632:10762  if (currentAllowance < value) {... */\n    tag_266:\n        /* \"@openzeppelin/contracts/token/ERC20/ERC20.sol\":10803:10860  _approve(owner, spender, currentAllowance - value, false) */\n      tag_269\n        /* \"@openzeppelin/contracts/token/ERC20/ERC20.sol\":10812:10817  owner */\n      dup5\n        /* \"@openzeppelin/contracts/token/ERC20/ERC20.sol\":10819:10826  spender */\n      dup5\n        /* \"@openzeppelin/contracts/token/ERC20/ERC20.sol\":10847:10852  value */\n      dup5\n        /* \"@openzeppelin/contracts/token/ERC20/ERC20.sol\":10828:10844  currentAllowance */\n      dup5\n        /* \"@openzeppelin/contracts/token/ERC20/ERC20.sol\":10828:10852  currentAllowance - value */\n      sub\n        /* \"@openzeppelin/contracts/token/ERC20/ERC20.sol\":10854:10859  false */\n      0x00\n        /* \"@openzeppelin/contracts/token/ERC20/ERC20.sol\":10803:10811  _approve */\n      tag_245\n        /* \"@openzeppelin/contracts/token/ERC20/ERC20.sol\":10803:10860  _approve(owner, spender, currentAllowance - value, false) */\n      jump\t// in\n    tag_269:\n        /* \"@openzeppelin/contracts/token/ERC20/ERC20.sol\":10504:10891  {... */\n      pop\n        /* \"@openzeppelin/contracts/token/ERC20/ERC20.sol\":10415:10891  function _spendAllowance(address owner, address spender, uint256 value) internal virtual {... */\n      pop\n      pop\n      pop\n      jump\t// out\n        /* \"@openzeppelin/contracts/token/ERC20/ERC20.sol\":3315:3493  function transfer(address to, uint256 value) public virtual returns (bool) {... */\n    tag_206:\n        /* \"@openzeppelin/contracts/token/ERC20/ERC20.sol\":3384:3388  bool */\n      0x00\n        /* \"@openzeppelin/contracts/utils/Context.sol\":735:745  msg.sender */\n      caller\n        /* \"@openzeppelin/contracts/token/ERC20/ERC20.sol\":3438:3465  _transfer(owner, to, value) */\n      tag_153\n        /* \"@openzeppelin/contracts/utils/Context.sol\":735:745  msg.sender */\n      dup2\n        /* \"@openzeppelin/contracts/token/ERC20/ERC20.sol\":3455:3457  to */\n      dup6\n        /* \"@openzeppelin/contracts/token/ERC20/ERC20.sol\":3459:3464  value */\n      dup6\n        /* \"@openzeppelin/contracts/token/ERC20/ERC20.sol\":3438:3447  _transfer */\n      tag_250\n        /* \"@openzeppelin/contracts/token/ERC20/ERC20.sol\":3438:3465  _transfer(owner, to, value) */\n      jump\t// in\n        /* \"@openzeppelin/contracts/utils/ReentrancyGuard.sol\":2575:2882  function _nonReentrantBefore() private {... */\n    tag_219:\n        /* \"@openzeppelin/contracts/utils/ReentrancyGuard.sol\":1899:1900  2 */\n      0x02\n        /* \"@openzeppelin/contracts/utils/ReentrancyGuard.sol\":2702:2709  _status */\n      sload(0x06)\n        /* \"@openzeppelin/contracts/utils/ReentrancyGuard.sol\":2702:2720  _status == ENTERED */\n      sub\n        /* \"@openzeppelin/contracts/utils/ReentrancyGuard.sol\":2698:2784  if (_status == ENTERED) {... */\n      tag_274\n      jumpi\n        /* \"@openzeppelin/contracts/utils/ReentrancyGuard.sol\":2743:2773  ReentrancyGuardReentrantCall() */\n      mload(0x40)\n      shl(0xe0, 0x3ee5aeb5)\n      dup2\n      mstore\n      0x04\n      add\n      mload(0x40)\n      dup1\n      swap2\n      sub\n      swap1\n      revert\n        /* \"@openzeppelin/contracts/utils/ReentrancyGuard.sol\":2698:2784  if (_status == ENTERED) {... */\n    tag_274:\n        /* \"@openzeppelin/contracts/utils/ReentrancyGuard.sol\":1899:1900  2 */\n      0x02\n        /* \"@openzeppelin/contracts/utils/ReentrancyGuard.sol\":2858:2865  _status */\n      0x06\n        /* \"@openzeppelin/contracts/utils/ReentrancyGuard.sol\":2858:2875  _status = ENTERED */\n      sstore\n        /* \"@openzeppelin/contracts/utils/ReentrancyGuard.sol\":2575:2882  function _nonReentrantBefore() private {... */\n      jump\t// out\n        /* \"@openzeppelin/contracts/token/ERC20/ERC20.sol\":9701:10133  function _approve(address owner, address spender, uint256 value, bool emitEvent) internal virtual {... */\n    tag_245:\n      sub(shl(0xa0, 0x01), 0x01)\n        /* \"@openzeppelin/contracts/token/ERC20/ERC20.sol\":9813:9832  owner == address(0) */\n      dup5\n      and\n        /* \"@openzeppelin/contracts/token/ERC20/ERC20.sol\":9809:9898  if (owner == address(0)) {... */\n      tag_277\n      jumpi\n        /* \"@openzeppelin/contracts/token/ERC20/ERC20.sol\":9855:9887  ERC20InvalidApprover(address(0)) */\n      mload(0x40)\n      shl(0xe0, 0xe602df05)\n      dup2\n      mstore\n        /* \"@openzeppelin/contracts/token/ERC20/ERC20.sol\":9884:9885  0 */\n      0x00\n        /* \"@openzeppelin/contracts/token/ERC20/ERC20.sol\":9855:9887  ERC20InvalidApprover(address(0)) */\n      0x04\n      dup3\n      add\n        /* \"#utility.yul\":2593:2644   */\n      mstore\n        /* \"#utility.yul\":2566:2584   */\n      0x24\n      add\n        /* \"@openzeppelin/contracts/token/ERC20/ERC20.sol\":9855:9887  ERC20InvalidApprover(address(0)) */\n      tag_31\n        /* \"#utility.yul\":2447:2650   */\n      jump\n        /* \"@openzeppelin/contracts/token/ERC20/ERC20.sol\":9809:9898  if (owner == address(0)) {... */\n    tag_277:\n      sub(shl(0xa0, 0x01), 0x01)\n        /* \"@openzeppelin/contracts/token/ERC20/ERC20.sol\":9911:9932  spender == address(0) */\n      dup4\n      and\n        /* \"@openzeppelin/contracts/token/ERC20/ERC20.sol\":9907:9997  if (spender == address(0)) {... */\n      tag_279\n      jumpi\n        /* \"@openzeppelin/contracts/token/ERC20/ERC20.sol\":9955:9986  ERC20InvalidSpender(address(0)) */\n      mload(0x40)\n      shl(0xe1, 0x4a1406b1)\n      dup2\n      mstore\n        /* \"@openzeppelin/contracts/token/ERC20/ERC20.sol\":9983:9984  0 */\n      0x00\n        /* \"@openzeppelin/contracts/token/ERC20/ERC20.sol\":9955:9986  ERC20InvalidSpender(address(0)) */\n      0x04\n      dup3\n      add\n        /* \"#utility.yul\":2593:2644   */\n      mstore\n        /* \"#utility.yul\":2566:2584   */\n      0x24\n      add\n        /* \"@openzeppelin/contracts/token/ERC20/ERC20.sol\":9955:9986  ERC20InvalidSpender(address(0)) */\n      tag_31\n        /* \"#utility.yul\":2447:2650   */\n      jump\n        /* \"@openzeppelin/contracts/token/ERC20/ERC20.sol\":9907:9997  if (spender == address(0)) {... */\n    tag_279:\n      sub(shl(0xa0, 0x01), 0x01)\n        /* \"@openzeppelin/contracts/token/ERC20/ERC20.sol\":10006:10024  _allowances[owner] */\n      dup1\n      dup6\n      and\n      0x00\n      swap1\n      dup2\n      mstore\n        /* \"@openzeppelin/contracts/token/ERC20/ERC20.sol\":10006:10017  _allowances */\n      0x01\n        /* \"@openzeppelin/contracts/token/ERC20/ERC20.sol\":10006:10024  _allowances[owner] */\n      0x20\n      swap1\n      dup2\n      mstore\n      0x40\n      dup1\n      dup4\n      keccak256\n        /* \"@openzeppelin/contracts/token/ERC20/ERC20.sol\":10006:10033  _allowances[owner][spender] */\n      swap4\n      dup8\n      and\n      dup4\n      mstore\n      swap3\n      swap1\n      mstore\n      keccak256\n        /* \"@openzeppelin/contracts/token/ERC20/ERC20.sol\":10006:10041  _allowances[owner][spender] = value */\n      dup3\n      swap1\n      sstore\n        /* \"@openzeppelin/contracts/token/ERC20/ERC20.sol\":10051:10127  if (emitEvent) {... */\n      dup1\n      iszero\n      tag_269\n      jumpi\n        /* \"@openzeppelin/contracts/token/ERC20/ERC20.sol\":10101:10108  spender */\n      dup3\n      sub(shl(0xa0, 0x01), 0x01)\n        /* \"@openzeppelin/contracts/token/ERC20/ERC20.sol\":10085:10116  Approval(owner, spender, value) */\n      and\n        /* \"@openzeppelin/contracts/token/ERC20/ERC20.sol\":10094:10099  owner */\n      dup5\n      sub(shl(0xa0, 0x01), 0x01)\n        /* \"@openzeppelin/contracts/token/ERC20/ERC20.sol\":10085:10116  Approval(owner, spender, value) */\n      and\n      0x8c5be1e5ebec7d5bd14f71427d1e84f3dd0314c0f7b2291e5b200ac8c7c3b925\n        /* \"@openzeppelin/contracts/token/ERC20/ERC20.sol\":10110:10115  value */\n      dup5\n        /* \"@openzeppelin/contracts/token/ERC20/ERC20.sol\":10085:10116  Approval(owner, spender, value) */\n      mload(0x40)\n      tag_282\n      swap2\n        /* \"#utility.yul\":1843:1868   */\n      dup2\n      mstore\n        /* \"#utility.yul\":1831:1833   */\n      0x20\n        /* \"#utility.yul\":1816:1834   */\n      add\n      swap1\n        /* \"#utility.yul\":1697:1874   */\n      jump\n        /* \"@openzeppelin/contracts/token/ERC20/ERC20.sol\":10085:10116  Approval(owner, spender, value) */\n    tag_282:\n      mload(0x40)\n      dup1\n      swap2\n      sub\n      swap1\n      log3\n        /* \"@openzeppelin/contracts/token/ERC20/ERC20.sol\":9701:10133  function _approve(address owner, address spender, uint256 value, bool emitEvent) internal virtual {... */\n      pop\n      pop\n      pop\n      pop\n      jump\t// out\n        /* \"@openzeppelin/contracts/token/ERC20/ERC20.sol\":5393:5693  function _transfer(address from, address to, uint256 value) internal {... */\n    tag_250:\n      sub(shl(0xa0, 0x01), 0x01)\n        /* \"@openzeppelin/contracts/token/ERC20/ERC20.sol\":5476:5494  from == address(0) */\n      dup4\n      and\n        /* \"@openzeppelin/contracts/token/ERC20/ERC20.sol\":5472:5558  if (from == address(0)) {... */\n      tag_284\n      jumpi\n        /* \"@openzeppelin/contracts/token/ERC20/ERC20.sol\":5517:5547  ERC20InvalidSender(address(0)) */\n      mload(0x40)\n      shl(0xe1, 0x4b637e8f)\n      dup2\n      mstore\n        /* \"@openzeppelin/contracts/token/ERC20/ERC20.sol\":5544:5545  0 */\n      0x00\n        /* \"@openzeppelin/contracts/token/ERC20/ERC20.sol\":5517:5547  ERC20InvalidSender(address(0)) */\n      0x04\n      dup3\n      add\n        /* \"#utility.yul\":2593:2644   */\n      mstore\n        /* \"#utility.yul\":2566:2584   */\n      0x24\n      add\n        /* \"@openzeppelin/contracts/token/ERC20/ERC20.sol\":5517:5547  ERC20InvalidSender(address(0)) */\n      tag_31\n        /* \"#utility.yul\":2447:2650   */\n      jump\n        /* \"@openzeppelin/contracts/token/ERC20/ERC20.sol\":5472:5558  if (from == address(0)) {... */\n    tag_284:\n      sub(shl(0xa0, 0x01), 0x01)\n        /* \"@openzeppelin/contracts/token/ERC20/ERC20.sol\":5571:5587  to == address(0) */\n      dup3\n      and\n        /* \"@openzeppelin/contracts/token/ERC20/ERC20.sol\":5567:5653  if (to == address(0)) {... */\n      tag_286\n      jumpi\n        /* \"@openzeppelin/contracts/token/ERC20/ERC20.sol\":5610:5642  ERC20InvalidReceiver(address(0)) */\n      mload(0x40)\n      shl(0xe0, 0xec442f05)\n      dup2\n      mstore\n        /* \"@openzeppelin/contracts/token/ERC20/ERC20.sol\":5639:5640  0 */\n      0x00\n        /* \"@openzeppelin/contracts/token/ERC20/ERC20.sol\":5610:5642  ERC20InvalidReceiver(address(0)) */\n      0x04\n      dup3\n      add\n        /* \"#utility.yul\":2593:2644   */\n      mstore\n        /* \"#utility.yul\":2566:2584   */\n      0x24\n      add\n        /* \"@openzeppelin/contracts/token/ERC20/ERC20.sol\":5610:5642  ERC20InvalidReceiver(address(0)) */\n      tag_31\n        /* \"#utility.yul\":2447:2650   */\n      jump\n        /* \"@openzeppelin/contracts/token/ERC20/ERC20.sol\":5567:5653  if (to == address(0)) {... */\n    tag_286:\n        /* \"@openzeppelin/contracts/token/ERC20/ERC20.sol\":5662:5686  _update(from, to, value) */\n      tag_244\n        /* \"@openzeppelin/contracts/token/ERC20/ERC20.sol\":5670:5674  from */\n      dup4\n        /* \"@openzeppelin/contracts/token/ERC20/ERC20.sol\":5676:5678  to */\n      dup4\n        /* \"@openzeppelin/contracts/token/ERC20/ERC20.sol\":5680:5685  value */\n      dup4\n        /* \"@openzeppelin/contracts/token/ERC20/ERC20.sol\":6008:7115  function _update(address from, address to, uint256 value) internal virtual {... */\n    tag_255:\n      sub(shl(0xa0, 0x01), 0x01)\n        /* \"@openzeppelin/contracts/token/ERC20/ERC20.sol\":6097:6115  from == address(0) */\n      dup4\n      and\n        /* \"@openzeppelin/contracts/token/ERC20/ERC20.sol\":6093:6633  if (from == address(0)) {... */\n      tag_290\n      jumpi\n        /* \"@openzeppelin/contracts/token/ERC20/ERC20.sol\":6249:6254  value */\n      dup1\n        /* \"@openzeppelin/contracts/token/ERC20/ERC20.sol\":6233:6245  _totalSupply */\n      0x02\n      0x00\n        /* \"@openzeppelin/contracts/token/ERC20/ERC20.sol\":6233:6254  _totalSupply += value */\n      dup3\n      dup3\n      sload\n      tag_291\n      swap2\n      swap1\n      tag_183\n      jump\t// in\n    tag_291:\n      swap1\n      swap2\n      sstore\n      pop\n        /* \"@openzeppelin/contracts/token/ERC20/ERC20.sol\":6093:6633  if (from == address(0)) {... */\n      tag_292\n      swap1\n      pop\n      jump\n    tag_290:\n      sub(shl(0xa0, 0x01), 0x01)\n        /* \"@openzeppelin/contracts/token/ERC20/ERC20.sol\":6307:6322  _balances[from] */\n      dup4\n      and\n        /* \"@openzeppelin/contracts/token/ERC20/ERC20.sol\":6285:6304  uint256 fromBalance */\n      0x00\n        /* \"@openzeppelin/contracts/token/ERC20/ERC20.sol\":6307:6322  _balances[from] */\n      swap1\n      dup2\n      mstore\n      0x20\n      dup2\n      swap1\n      mstore\n      0x40\n      swap1\n      keccak256\n      sload\n        /* \"@openzeppelin/contracts/token/ERC20/ERC20.sol\":6340:6359  fromBalance < value */\n      dup2\n      dup2\n      lt\n        /* \"@openzeppelin/contracts/token/ERC20/ERC20.sol\":6336:6451  if (fromBalance < value) {... */\n      iszero\n      tag_293\n      jumpi\n        /* \"@openzeppelin/contracts/token/ERC20/ERC20.sol\":6386:6436  ERC20InsufficientBalance(from, fromBalance, value) */\n      mload(0x40)\n      shl(0xe2, 0x391434e3)\n      dup2\n      mstore\n      sub(shl(0xa0, 0x01), 0x01)\n        /* \"#utility.yul\":6166:6198   */\n      dup6\n      and\n        /* \"@openzeppelin/contracts/token/ERC20/ERC20.sol\":6386:6436  ERC20InsufficientBalance(from, fromBalance, value) */\n      0x04\n      dup3\n      add\n        /* \"#utility.yul\":6148:6199   */\n      mstore\n        /* \"#utility.yul\":6215:6233   */\n      0x24\n      dup2\n      add\n        /* \"#utility.yul\":6208:6242   */\n      dup3\n      swap1\n      mstore\n        /* \"#utility.yul\":6258:6276   */\n      0x44\n      dup2\n      add\n        /* \"#utility.yul\":6251:6285   */\n      dup4\n      swap1\n      mstore\n        /* \"#utility.yul\":6121:6139   */\n      0x64\n      add\n        /* \"@openzeppelin/contracts/token/ERC20/ERC20.sol\":6386:6436  ERC20InsufficientBalance(from, fromBalance, value) */\n      tag_31\n        /* \"#utility.yul\":5946:6291   */\n      jump\n        /* \"@openzeppelin/contracts/token/ERC20/ERC20.sol\":6336:6451  if (fromBalance < value) {... */\n    tag_293:\n      sub(shl(0xa0, 0x01), 0x01)\n        /* \"@openzeppelin/contracts/token/ERC20/ERC20.sol\":6571:6586  _balances[from] */\n      dup5\n      and\n        /* \"@openzeppelin/contracts/token/ERC20/ERC20.sol\":6571:6580  _balances */\n      0x00\n        /* \"@openzeppelin/contracts/token/ERC20/ERC20.sol\":6571:6586  _balances[from] */\n      swap1\n      dup2\n      mstore\n      0x20\n      dup2\n      swap1\n      mstore\n      0x40\n      swap1\n      keccak256\n        /* \"@openzeppelin/contracts/token/ERC20/ERC20.sol\":6589:6608  fromBalance - value */\n      swap1\n      dup3\n      swap1\n      sub\n        /* \"@openzeppelin/contracts/token/ERC20/ERC20.sol\":6571:6608  _balances[from] = fromBalance - value */\n      swap1\n      sstore\n        /* \"@openzeppelin/contracts/token/ERC20/ERC20.sol\":6093:6633  if (from == address(0)) {... */\n    tag_292:\n      sub(shl(0xa0, 0x01), 0x01)\n        /* \"@openzeppelin/contracts/token/ERC20/ERC20.sol\":6647:6663  to == address(0) */\n      dup3\n      and\n        /* \"@openzeppelin/contracts/token/ERC20/ERC20.sol\":6643:7068  if (to == address(0)) {... */\n      tag_295\n      jumpi\n        /* \"@openzeppelin/contracts/token/ERC20/ERC20.sol\":6810:6822  _totalSupply */\n      0x02\n        /* \"@openzeppelin/contracts/token/ERC20/ERC20.sol\":6810:6831  _totalSupply -= value */\n      dup1\n      sload\n      dup3\n      swap1\n      sub\n      swap1\n      sstore\n        /* \"@openzeppelin/contracts/token/ERC20/ERC20.sol\":6643:7068  if (to == address(0)) {... */\n      jump(tag_296)\n    tag_295:\n      sub(shl(0xa0, 0x01), 0x01)\n        /* \"@openzeppelin/contracts/token/ERC20/ERC20.sol\":7021:7034  _balances[to] */\n      dup3\n      and\n        /* \"@openzeppelin/contracts/token/ERC20/ERC20.sol\":7021:7030  _balances */\n      0x00\n        /* \"@openzeppelin/contracts/token/ERC20/ERC20.sol\":7021:7034  _balances[to] */\n      swap1\n      dup2\n      mstore\n      0x20\n      dup2\n      swap1\n      mstore\n      0x40\n      swap1\n      keccak256\n        /* \"@openzeppelin/contracts/token/ERC20/ERC20.sol\":7021:7043  _balances[to] += value */\n      dup1\n      sload\n      dup3\n      add\n      swap1\n      sstore\n        /* \"@openzeppelin/contracts/token/ERC20/ERC20.sol\":6643:7068  if (to == address(0)) {... */\n    tag_296:\n        /* \"@openzeppelin/contracts/token/ERC20/ERC20.sol\":7098:7100  to */\n      dup2\n      sub(shl(0xa0, 0x01), 0x01)\n        /* \"@openzeppelin/contracts/token/ERC20/ERC20.sol\":7083:7108  Transfer(from, to, value) */\n      and\n        /* \"@openzeppelin/contracts/token/ERC20/ERC20.sol\":7092:7096  from */\n      dup4\n      sub(shl(0xa0, 0x01), 0x01)\n        /* \"@openzeppelin/contracts/token/ERC20/ERC20.sol\":7083:7108  Transfer(from, to, value) */\n      and\n      0xddf252ad1be2c89b69c2b068fc378daa952ba7f163c4a11628f55a4df523b3ef\n        /* \"@openzeppelin/contracts/token/ERC20/ERC20.sol\":7102:7107  value */\n      dup4\n        /* \"@openzeppelin/contracts/token/ERC20/ERC20.sol\":7083:7108  Transfer(from, to, value) */\n      mload(0x40)\n      tag_297\n      swap2\n        /* \"#utility.yul\":1843:1868   */\n      dup2\n      mstore\n        /* \"#utility.yul\":1831:1833   */\n      0x20\n        /* \"#utility.yul\":1816:1834   */\n      add\n      swap1\n        /* \"#utility.yul\":1697:1874   */\n      jump\n        /* \"@openzeppelin/contracts/token/ERC20/ERC20.sol\":7083:7108  Transfer(from, to, value) */\n    tag_297:\n      mload(0x40)\n      dup1\n      swap2\n      sub\n      swap1\n      log3\n        /* \"@openzeppelin/contracts/token/ERC20/ERC20.sol\":6008:7115  function _update(address from, address to, uint256 value) internal virtual {... */\n      pop\n      pop\n      pop\n      jump\t// out\n        /* \"#utility.yul\":368:786   */\n    tag_40:\n        /* \"#utility.yul\":517:519   */\n      0x20\n        /* \"#utility.yul\":506:515   */\n      dup2\n        /* \"#utility.yul\":499:520   */\n      mstore\n        /* \"#utility.yul\":480:484   */\n      0x00\n        /* \"#utility.yul\":549:555   */\n      dup3\n        /* \"#utility.yul\":543:556   */\n      mload\n        /* \"#utility.yul\":592:598   */\n      dup1\n        /* \"#utility.yul\":587:589   */\n      0x20\n        /* \"#utility.yul\":576:585   */\n      dup5\n        /* \"#utility.yul\":572:590   */\n      add\n        /* \"#utility.yul\":565:599   */\n      mstore\n        /* \"#utility.yul\":651:657   */\n      dup1\n        /* \"#utility.yul\":646:648   */\n      0x20\n        /* \"#utility.yul\":638:644   */\n      dup6\n        /* \"#utility.yul\":634:649   */\n      add\n        /* \"#utility.yul\":629:631   */\n      0x40\n        /* \"#utility.yul\":618:627   */\n      dup6\n        /* \"#utility.yul\":614:632   */\n      add\n        /* \"#utility.yul\":608:658   */\n      mcopy\n        /* \"#utility.yul\":707:708   */\n      0x00\n        /* \"#utility.yul\":702:704   */\n      0x40\n        /* \"#utility.yul\":693:699   */\n      dup3\n        /* \"#utility.yul\":682:691   */\n      dup6\n        /* \"#utility.yul\":678:700   */\n      add\n        /* \"#utility.yul\":674:705   */\n      add\n        /* \"#utility.yul\":667:709   */\n      mstore\n        /* \"#utility.yul\":777:779   */\n      0x40\n        /* \"#utility.yul\":770:772   */\n      0x1f\n        /* \"#utility.yul\":766:773   */\n      not\n        /* \"#utility.yul\":761:763   */\n      0x1f\n        /* \"#utility.yul\":753:759   */\n      dup4\n        /* \"#utility.yul\":749:764   */\n      add\n        /* \"#utility.yul\":745:774   */\n      and\n        /* \"#utility.yul\":734:743   */\n      dup5\n        /* \"#utility.yul\":730:775   */\n      add\n        /* \"#utility.yul\":726:780   */\n      add\n        /* \"#utility.yul\":718:780   */\n      swap2\n      pop\n      pop\n        /* \"#utility.yul\":368:786   */\n      swap3\n      swap2\n      pop\n      pop\n      jump\t// out\n        /* \"#utility.yul\":791:964   */\n    tag_298:\n        /* \"#utility.yul\":859:879   */\n      dup1\n      calldataload\n      sub(shl(0xa0, 0x01), 0x01)\n        /* \"#utility.yul\":908:939   */\n      dup2\n      and\n        /* \"#utility.yul\":898:940   */\n      dup2\n      eq\n        /* \"#utility.yul\":888:958   */\n      tag_304\n      jumpi\n        /* \"#utility.yul\":954:955   */\n      0x00\n        /* \"#utility.yul\":951:952   */\n      0x00\n        /* \"#utility.yul\":944:956   */\n      revert\n        /* \"#utility.yul\":888:958   */\n    tag_304:\n        /* \"#utility.yul\":791:964   */\n      swap2\n      swap1\n      pop\n      jump\t// out\n        /* \"#utility.yul\":969:1269   */\n    tag_44:\n        /* \"#utility.yul\":1037:1043   */\n      0x00\n        /* \"#utility.yul\":1045:1051   */\n      0x00\n        /* \"#utility.yul\":1098:1100   */\n      0x40\n        /* \"#utility.yul\":1086:1095   */\n      dup4\n        /* \"#utility.yul\":1077:1084   */\n      dup6\n        /* \"#utility.yul\":1073:1096   */\n      sub\n        /* \"#utility.yul\":1069:1101   */\n      slt\n        /* \"#utility.yul\":1066:1118   */\n      iszero\n      tag_306\n      jumpi\n        /* \"#utility.yul\":1114:1115   */\n      0x00\n        /* \"#utility.yul\":1111:1112   */\n      0x00\n        /* \"#utility.yul\":1104:1116   */\n      revert\n        /* \"#utility.yul\":1066:1118   */\n    tag_306:\n        /* \"#utility.yul\":1137:1166   */\n      tag_307\n        /* \"#utility.yul\":1156:1165   */\n      dup4\n        /* \"#utility.yul\":1137:1166   */\n      tag_298\n      jump\t// in\n    tag_307:\n        /* \"#utility.yul\":1127:1166   */\n      swap5\n        /* \"#utility.yul\":1235:1237   */\n      0x20\n        /* \"#utility.yul\":1220:1238   */\n      swap4\n      swap1\n      swap4\n      add\n        /* \"#utility.yul\":1207:1239   */\n      calldataload\n      swap4\n      pop\n      pop\n      pop\n        /* \"#utility.yul\":969:1269   */\n      jump\t// out\n        /* \"#utility.yul\":1466:1692   */\n    tag_51:\n        /* \"#utility.yul\":1525:1531   */\n      0x00\n        /* \"#utility.yul\":1578:1580   */\n      0x20\n        /* \"#utility.yul\":1566:1575   */\n      dup3\n        /* \"#utility.yul\":1557:1564   */\n      dup5\n        /* \"#utility.yul\":1553:1576   */\n      sub\n        /* \"#utility.yul\":1549:1581   */\n      slt\n        /* \"#utility.yul\":1546:1598   */\n      iszero\n      tag_310\n      jumpi\n        /* \"#utility.yul\":1594:1595   */\n      0x00\n        /* \"#utility.yul\":1591:1592   */\n      0x00\n        /* \"#utility.yul\":1584:1596   */\n      revert\n        /* \"#utility.yul\":1546:1598   */\n    tag_310:\n      pop\n        /* \"#utility.yul\":1639:1662   */\n      calldataload\n      swap2\n        /* \"#utility.yul\":1466:1692   */\n      swap1\n      pop\n      jump\t// out\n        /* \"#utility.yul\":1879:2253   */\n    tag_62:\n        /* \"#utility.yul\":1956:1962   */\n      0x00\n        /* \"#utility.yul\":1964:1970   */\n      0x00\n        /* \"#utility.yul\":1972:1978   */\n      0x00\n        /* \"#utility.yul\":2025:2027   */\n      0x60\n        /* \"#utility.yul\":2013:2022   */\n      dup5\n        /* \"#utility.yul\":2004:2011   */\n      dup7\n        /* \"#utility.yul\":2000:2023   */\n      sub\n        /* \"#utility.yul\":1996:2028   */\n      slt\n        /* \"#utility.yul\":1993:2045   */\n      iszero\n      tag_313\n      jumpi\n        /* \"#utility.yul\":2041:2042   */\n      0x00\n        /* \"#utility.yul\":2038:2039   */\n      0x00\n        /* \"#utility.yul\":2031:2043   */\n      revert\n        /* \"#utility.yul\":1993:2045   */\n    tag_313:\n        /* \"#utility.yul\":2064:2093   */\n      tag_314\n        /* \"#utility.yul\":2083:2092   */\n      dup5\n        /* \"#utility.yul\":2064:2093   */\n      tag_298\n      jump\t// in\n    tag_314:\n        /* \"#utility.yul\":2054:2093   */\n      swap3\n      pop\n        /* \"#utility.yul\":2112:2150   */\n      tag_315\n        /* \"#utility.yul\":2146:2148   */\n      0x20\n        /* \"#utility.yul\":2135:2144   */\n      dup6\n        /* \"#utility.yul\":2131:2149   */\n      add\n        /* \"#utility.yul\":2112:2150   */\n      tag_298\n      jump\t// in\n    tag_315:\n        /* \"#utility.yul\":1879:2253   */\n      swap3\n      swap6\n        /* \"#utility.yul\":2102:2150   */\n      swap3\n      swap5\n      pop\n      pop\n      pop\n        /* \"#utility.yul\":2219:2221   */\n      0x40\n        /* \"#utility.yul\":2204:2222   */\n      swap2\n      swap1\n      swap2\n      add\n        /* \"#utility.yul\":2191:2223   */\n      calldataload\n      swap1\n        /* \"#utility.yul\":1879:2253   */\n      jump\t// out\n        /* \"#utility.yul\":2655:2841   */\n    tag_86:\n        /* \"#utility.yul\":2714:2720   */\n      0x00\n        /* \"#utility.yul\":2767:2769   */\n      0x20\n        /* \"#utility.yul\":2755:2764   */\n      dup3\n        /* \"#utility.yul\":2746:2753   */\n      dup5\n        /* \"#utility.yul\":2742:2765   */\n      sub\n        /* \"#utility.yul\":2738:2770   */\n      slt\n        /* \"#utility.yul\":2735:2787   */\n      iszero\n      tag_319\n      jumpi\n        /* \"#utility.yul\":2783:2784   */\n      0x00\n        /* \"#utility.yul\":2780:2781   */\n      0x00\n        /* \"#utility.yul\":2773:2785   */\n      revert\n        /* \"#utility.yul\":2735:2787   */\n    tag_319:\n        /* \"#utility.yul\":2806:2835   */\n      tag_159\n        /* \"#utility.yul\":2825:2834   */\n      dup3\n        /* \"#utility.yul\":2806:2835   */\n      tag_298\n      jump\t// in\n        /* \"#utility.yul\":2846:3192   */\n    tag_128:\n        /* \"#utility.yul\":2914:2920   */\n      0x00\n        /* \"#utility.yul\":2922:2928   */\n      0x00\n        /* \"#utility.yul\":2975:2977   */\n      0x40\n        /* \"#utility.yul\":2963:2972   */\n      dup4\n        /* \"#utility.yul\":2954:2961   */\n      dup6\n        /* \"#utility.yul\":2950:2973   */\n      sub\n        /* \"#utility.yul\":2946:2978   */\n      slt\n        /* \"#utility.yul\":2943:2995   */\n      iszero\n      tag_322\n      jumpi\n        /* \"#utility.yul\":2991:2992   */\n      0x00\n        /* \"#utility.yul\":2988:2989   */\n      0x00\n        /* \"#utility.yul\":2981:2993   */\n      revert\n        /* \"#utility.yul\":2943:2995   */\n    tag_322:\n      pop\n      pop\n        /* \"#utility.yul\":3036:3059   */\n      dup1\n      calldataload\n      swap3\n        /* \"#utility.yul\":3156:3158   */\n      0x20\n        /* \"#utility.yul\":3141:3159   */\n      swap1\n      swap2\n      add\n        /* \"#utility.yul\":3128:3160   */\n      calldataload\n      swap2\n      pop\n        /* \"#utility.yul\":2846:3192   */\n      jump\t// out\n        /* \"#utility.yul\":3197:3457   */\n    tag_133:\n        /* \"#utility.yul\":3265:3271   */\n      0x00\n        /* \"#utility.yul\":3273:3279   */\n      0x00\n        /* \"#utility.yul\":3326:3328   */\n      0x40\n        /* \"#utility.yul\":3314:3323   */\n      dup4\n        /* \"#utility.yul\":3305:3312   */\n      dup6\n        /* \"#utility.yul\":3301:3324   */\n      sub\n        /* \"#utility.yul\":3297:3329   */\n      slt\n        /* \"#utility.yul\":3294:3346   */\n      iszero\n      tag_324\n      jumpi\n        /* \"#utility.yul\":3342:3343   */\n      0x00\n        /* \"#utility.yul\":3339:3340   */\n      0x00\n        /* \"#utility.yul\":3332:3344   */\n      revert\n        /* \"#utility.yul\":3294:3346   */\n    tag_324:\n        /* \"#utility.yul\":3365:3394   */\n      tag_325\n        /* \"#utility.yul\":3384:3393   */\n      dup4\n        /* \"#utility.yul\":3365:3394   */\n      tag_298\n      jump\t// in\n    tag_325:\n        /* \"#utility.yul\":3355:3394   */\n      swap2\n      pop\n        /* \"#utility.yul\":3413:3451   */\n      tag_326\n        /* \"#utility.yul\":3447:3449   */\n      0x20\n        /* \"#utility.yul\":3436:3445   */\n      dup5\n        /* \"#utility.yul\":3432:3450   */\n      add\n        /* \"#utility.yul\":3413:3451   */\n      tag_298\n      jump\t// in\n    tag_326:\n        /* \"#utility.yul\":3403:3451   */\n      swap1\n      pop\n        /* \"#utility.yul\":3197:3457   */\n      swap3\n      pop\n      swap3\n      swap1\n      pop\n      jump\t// out\n        /* \"#utility.yul\":3462:3842   */\n    tag_145:\n        /* \"#utility.yul\":3541:3542   */\n      0x01\n        /* \"#utility.yul\":3537:3549   */\n      dup2\n      dup2\n      shr\n      swap1\n        /* \"#utility.yul\":3584:3596   */\n      dup3\n      and\n      dup1\n        /* \"#utility.yul\":3605:3666   */\n      tag_328\n      jumpi\n        /* \"#utility.yul\":3659:3663   */\n      0x7f\n        /* \"#utility.yul\":3651:3657   */\n      dup3\n        /* \"#utility.yul\":3647:3664   */\n      and\n        /* \"#utility.yul\":3637:3664   */\n      swap2\n      pop\n        /* \"#utility.yul\":3605:3666   */\n    tag_328:\n        /* \"#utility.yul\":3712:3714   */\n      0x20\n        /* \"#utility.yul\":3704:3710   */\n      dup3\n        /* \"#utility.yul\":3701:3715   */\n      lt\n        /* \"#utility.yul\":3681:3699   */\n      dup2\n        /* \"#utility.yul\":3678:3716   */\n      sub\n        /* \"#utility.yul\":3675:3836   */\n      tag_329\n      jumpi\n        /* \"#utility.yul\":3758:3768   */\n      0x4e487b71\n        /* \"#utility.yul\":3753:3756   */\n      0xe0\n        /* \"#utility.yul\":3749:3769   */\n      shl\n        /* \"#utility.yul\":3746:3747   */\n      0x00\n        /* \"#utility.yul\":3739:3770   */\n      mstore\n        /* \"#utility.yul\":3793:3797   */\n      0x22\n        /* \"#utility.yul\":3790:3791   */\n      0x04\n        /* \"#utility.yul\":3783:3798   */\n      mstore\n        /* \"#utility.yul\":3821:3825   */\n      0x24\n        /* \"#utility.yul\":3818:3819   */\n      0x00\n        /* \"#utility.yul\":3811:3826   */\n      revert\n        /* \"#utility.yul\":3675:3836   */\n    tag_329:\n      pop\n        /* \"#utility.yul\":3462:3842   */\n      swap2\n      swap1\n      pop\n      jump\t// out\n        /* \"#utility.yul\":3847:3974   */\n    tag_299:\n        /* \"#utility.yul\":3908:3918   */\n      0x4e487b71\n        /* \"#utility.yul\":3903:3906   */\n      0xe0\n        /* \"#utility.yul\":3899:3919   */\n      shl\n        /* \"#utility.yul\":3896:3897   */\n      0x00\n        /* \"#utility.yul\":3889:3920   */\n      mstore\n        /* \"#utility.yul\":3939:3943   */\n      0x11\n        /* \"#utility.yul\":3936:3937   */\n      0x04\n        /* \"#utility.yul\":3929:3944   */\n      mstore\n        /* \"#utility.yul\":3963:3967   */\n      0x24\n        /* \"#utility.yul\":3960:3961   */\n      0x00\n        /* \"#utility.yul\":3953:3968   */\n      revert\n        /* \"#utility.yul\":3979:4147   */\n    tag_158:\n        /* \"#utility.yul\":4052:4061   */\n      dup1\n      dup3\n      mul\n        /* \"#utility.yul\":4083:4092   */\n      dup2\n      iszero\n        /* \"#utility.yul\":4100:4115   */\n      dup3\n      dup3\n      div\n        /* \"#utility.yul\":4094:4116   */\n      dup5\n      eq\n        /* \"#utility.yul\":4080:4117   */\n      or\n        /* \"#utility.yul\":4070:4141   */\n      tag_150\n      jumpi\n        /* \"#utility.yul\":4121:4139   */\n      tag_150\n      tag_299\n      jump\t// in\n        /* \"#utility.yul\":4152:4369   */\n    tag_160:\n        /* \"#utility.yul\":4192:4193   */\n      0x00\n        /* \"#utility.yul\":4218:4219   */\n      dup3\n        /* \"#utility.yul\":4208:4340   */\n      tag_335\n      jumpi\n        /* \"#utility.yul\":4262:4272   */\n      0x4e487b71\n        /* \"#utility.yul\":4257:4260   */\n      0xe0\n        /* \"#utility.yul\":4253:4273   */\n      shl\n        /* \"#utility.yul\":4250:4251   */\n      0x00\n        /* \"#utility.yul\":4243:4274   */\n      mstore\n        /* \"#utility.yul\":4297:4301   */\n      0x12\n        /* \"#utility.yul\":4294:4295   */\n      0x04\n        /* \"#utility.yul\":4287:4302   */\n      mstore\n        /* \"#utility.yul\":4325:4329   */\n      0x24\n        /* \"#utility.yul\":4322:4323   */\n      0x00\n        /* \"#utility.yul\":4315:4330   */\n      revert\n        /* \"#utility.yul\":4208:4340   */\n    tag_335:\n      pop\n        /* \"#utility.yul\":4354:4363   */\n      div\n      swap1\n        /* \"#utility.yul\":4152:4369   */\n      jump\t// out\n        /* \"#utility.yul\":4374:4499   */\n    tag_183:\n        /* \"#utility.yul\":4439:4448   */\n      dup1\n      dup3\n      add\n        /* \"#utility.yul\":4460:4470   */\n      dup1\n      dup3\n      gt\n        /* \"#utility.yul\":4457:4493   */\n      iszero\n      tag_150\n      jumpi\n        /* \"#utility.yul\":4473:4491   */\n      tag_150\n      tag_299\n      jump\t// in\n        /* \"#utility.yul\":5560:5688   */\n    tag_231:\n        /* \"#utility.yul\":5627:5636   */\n      dup2\n      dup2\n      sub\n        /* \"#utility.yul\":5648:5659   */\n      dup2\n      dup2\n      gt\n        /* \"#utility.yul\":5645:5682   */\n      iszero\n      tag_150\n      jumpi\n        /* \"#utility.yul\":5662:5680   */\n      tag_150\n      tag_299\n      jump\t// in\n\n    auxdata: 0xa264697066735822122059cf05bc20986ac4dae2d4ad43851b784b3a7454e95a591ef88d1b40a443667e64736f6c634300081d0033\n}\n",
				"bytecode": {
					"linkReferences": {},
					"object": "608060405234801561000f575f5ffd5b506040516113fe3803806113fe83398101604081905261002e916103b4565b3360405180604001604052806008815260200167436172646569726f60c01b8152506040518060400160405280600381526020016210d11560ea1b815250816003908161007b9190610493565b5060046100888282610493565b5050506001600160a01b0381166100b957604051631e4fbdf760e01b81525f60048201526024015b60405180910390fd5b6100c281610205565b50600160065560648111156101195760405162461bcd60e51b815260206004820152601f60248201527f48616c76696e6720726174652063616e6e6f742065786365656420313030250060448201526064016100b0565b620151808210156101615760405162461bcd60e51b8152602060048201526012602482015271125b9d195c9d985b081d1bdbc81cda1bdc9d60721b60448201526064016100b0565b6201518061017261016d6002610561565b61017c9190610561565b610187906002610561565b8211156101ca5760405162461bcd60e51b8152602060048201526011602482015270496e74657276616c20746f6f206c6f6e6760781b60448201526064016100b0565b6101d43385610256565b600780546001600160a01b0319166001600160a01b039490941693909317909255600855600a555042600955610591565b600580546001600160a01b038381166001600160a01b0319831681179093556040519116919082907f8be0079c531659141344cd1fd0a4f28419497f9722a3daafe3b4186f6b6457e0905f90a35050565b6001600160a01b03821661027f5760405163ec442f0560e01b81525f60048201526024016100b0565b61028a5f838361028e565b5050565b6001600160a01b0383166102b8578060025f8282546102ad919061057e565b909155506103289050565b6001600160a01b0383165f908152602081905260409020548181101561030a5760405163391434e360e21b81526001600160a01b038516600482015260248101829052604481018390526064016100b0565b6001600160a01b0384165f9081526020819052604090209082900390555b6001600160a01b03821661034457600280548290039055610362565b6001600160a01b0382165f9081526020819052604090208054820190555b816001600160a01b0316836001600160a01b03167fddf252ad1be2c89b69c2b068fc378daa952ba7f163c4a11628f55a4df523b3ef836040516103a791815260200190565b60405180910390a3505050565b5f5f5f5f608085870312156103c7575f5ffd5b845160208601519094506001600160a01b03811681146103e5575f5ffd5b6040860151606090960151949790965092505050565b634e487b7160e01b5f52604160045260245ffd5b600181811c9082168061042357607f821691505b60208210810361044157634e487b7160e01b5f52602260045260245ffd5b50919050565b601f82111561048e57805f5260205f20601f840160051c8101602085101561046c5750805b601f840160051c820191505b8181101561048b575f8155600101610478565b50505b505050565b81516001600160401b038111156104ac576104ac6103fb565b6104c0816104ba845461040f565b84610447565b6020601f8211600181146104f2575f83156104db5750848201515b5f19600385901b1c1916600184901b17845561048b565b5f84815260208120601f198516915b828110156105215787850151825560209485019460019092019101610501565b508482101561053e57868401515f19600387901b60f8161c191681555b50505050600190811b01905550565b634e487b7160e01b5f52601160045260245ffd5b80820281158282048414176105785761057861054d565b92915050565b808201808211156105785761057861054d565b610e608061059e5f395ff3fe608060405260043610610143575f3560e01c8063768a4173116100b557806395d89b411161006e57806395d89b41146103f7578063a9059cbb1461040b578063bbb0b1a61461042a578063dd62ed3e14610449578063ed2990161461048d578063f2fde38b146104a157610191565b8063768a41731461035e57806379cc6790146103725780637e6335f4146103915780637f51bb1f146103a65780638cbb6df7146103c55780638da5cb5b146103da57610191565b8063313ce56711610107578063313ce5671461028e57806342966c68146102a957806361d027b3146102ca5780636a47aa061461030157806370a0823114610316578063715018a61461034a57610191565b806306fdde03146101d5578063095ea7b3146101ff578063102b67ab1461022e57806318160ddd1461025b57806323b872dd1461026f57610191565b366101915760405162461bcd60e51b81526020600482015260196024820152780a8ded6cadc40c8decae640dcdee840c2c6c6cae0e8408aa89603b1b60448201526064015b60405180910390fd5b60405162461bcd60e51b81526020600482015260196024820152780a8ded6cadc40c8decae640dcdee840c2c6c6cae0e8408aa89603b1b6044820152606401610188565b3480156101e0575f5ffd5b506101e96104c0565b6040516101f69190610c4f565b60405180910390f35b34801561020a575f5ffd5b5061021e610219366004610c9f565b610550565b60405190151581526020016101f6565b348015610239575f5ffd5b5061024d610248366004610cc7565b610569565b6040519081526020016101f6565b348015610266575f5ffd5b5060025461024d565b34801561027a575f5ffd5b5061021e610289366004610cde565b6105a0565b348015610299575f5ffd5b50604051601281526020016101f6565b3480156102b4575f5ffd5b506102c86102c3366004610cc7565b6105c9565b005b3480156102d5575f5ffd5b506007546102e9906001600160a01b031681565b6040516001600160a01b0390911681526020016101f6565b34801561030c575f5ffd5b5061024d60085481565b348015610321575f5ffd5b5061024d610330366004610d18565b6001600160a01b03165f9081526020819052604090205490565b348015610355575f5ffd5b506102c86105d6565b348015610369575f5ffd5b5061021e6105e9565b34801561037d575f5ffd5b506102c861038c366004610c9f565b61060f565b34801561039c575f5ffd5b5061024d600a5481565b3480156103b1575f5ffd5b506102c86103c0366004610d18565b610628565b3480156103d0575f5ffd5b5061024d60095481565b3480156103e5575f5ffd5b506005546001600160a01b03166102e9565b348015610402575f5ffd5b506101e9610652565b348015610416575f5ffd5b5061021e610425366004610c9f565b610661565b348015610435575f5ffd5b506102c8610444366004610d31565b610681565b348015610454575f5ffd5b5061024d610463366004610d51565b6001600160a01b039182165f90815260016020908152604080832093909416825291909152205490565b348015610498575f5ffd5b506102c8610725565b3480156104ac575f5ffd5b506102c86104bb366004610d18565b61082a565b6060600380546104cf90610d82565b80601f01602080910402602001604051908101604052809291908181526020018280546104fb90610d82565b80156105465780601f1061051d57610100808354040283529160200191610546565b820191905f5260205f20905b81548152906001019060200180831161052957829003601f168201915b5050505050905090565b5f3361055d818585610864565b60019150505b92915050565b6007546001600160a01b03165f90815260208190526040812054606461058f8483610dce565b6105999190610de5565b9392505050565b5f6105a96105e9565b156105b6576105b6610725565b6105c1848484610876565b949350505050565b6105d33382610899565b50565b6105de6108cd565b6105e75f6108fa565b565b5f6107086008546009546105fd9190610e04565b6106079190610e04565b421015905090565b61061a82338361094b565b6106248282610899565b5050565b6106306108cd565b600780546001600160a01b0319166001600160a01b0392909216919091179055565b6060600480546104cf90610d82565b5f61066a6105e9565b1561067757610677610725565b61059983836109c7565b6106896108cd565b60058110156106d15760405162461bcd60e51b815260206004820152601460248201527348616c76696e67207261746520746f6f206c6f7760601b6044820152606401610188565b601481111561071a5760405162461bcd60e51b8152602060048201526015602482015274090c2d8ecd2dcce40e4c2e8ca40e8dede40d0d2ced605b1b6044820152606401610188565b600891909155600a55565b61072d6109d4565b6107356105e9565b6107815760405162461bcd60e51b815260206004820152601c60248201527f48616c76696e6720696e74657276616c206e6f742072656163686564000000006044820152606401610188565b6007546001600160a01b03165f9081526020819052604081205490505f6064600a54836107ae9190610dce565b6107b89190610de5565b9050801561081e576007546107d6906001600160a01b031682610899565b6107e261070842610e17565b600955604080518281524260208201527f394823b0bcaf78cd8f5876a52c05dbab91512a05f5da2a31e239a11ab66d605f910160405180910390a15b50506105e76001600655565b6108326108cd565b6001600160a01b03811661085b57604051631e4fbdf760e01b81525f6004820152602401610188565b6105d3816108fa565b61087183838360016109fe565b505050565b5f3361088385828561094b565b61088e858585610ad0565b506001949350505050565b6001600160a01b0382166108c257604051634b637e8f60e11b81525f6004820152602401610188565b610624825f83610b29565b6005546001600160a01b031633146105e75760405163118cdaa760e01b8152336004820152602401610188565b600580546001600160a01b038381166001600160a01b0319831681179093556040519116919082907f8be0079c531659141344cd1fd0a4f28419497f9722a3daafe3b4186f6b6457e0905f90a35050565b6001600160a01b038381165f908152600160209081526040808320938616835292905220545f198110156109c157818110156109b357604051637dc7a0d960e11b81526001600160a01b03841660048201526024810182905260448101839052606401610188565b6109c184848484035f6109fe565b50505050565b5f3361055d818585610ad0565b6002600654036109f757604051633ee5aeb560e01b815260040160405180910390fd5b6002600655565b6001600160a01b038416610a275760405163e602df0560e01b81525f6004820152602401610188565b6001600160a01b038316610a5057604051634a1406b160e11b81525f6004820152602401610188565b6001600160a01b038085165f90815260016020908152604080832093871683529290522082905580156109c157826001600160a01b0316846001600160a01b03167f8c5be1e5ebec7d5bd14f71427d1e84f3dd0314c0f7b2291e5b200ac8c7c3b92584604051610ac291815260200190565b60405180910390a350505050565b6001600160a01b038316610af957604051634b637e8f60e11b81525f6004820152602401610188565b6001600160a01b038216610b225760405163ec442f0560e01b81525f6004820152602401610188565b6108718383835b6001600160a01b038316610b53578060025f828254610b489190610e04565b90915550610bc39050565b6001600160a01b0383165f9081526020819052604090205481811015610ba55760405163391434e360e21b81526001600160a01b03851660048201526024810182905260448101839052606401610188565b6001600160a01b0384165f9081526020819052604090209082900390555b6001600160a01b038216610bdf57600280548290039055610bfd565b6001600160a01b0382165f9081526020819052604090208054820190555b816001600160a01b0316836001600160a01b03167fddf252ad1be2c89b69c2b068fc378daa952ba7f163c4a11628f55a4df523b3ef83604051610c4291815260200190565b60405180910390a3505050565b602081525f82518060208401528060208501604085015e5f604082850101526040601f19601f83011684010191505092915050565b80356001600160a01b0381168114610c9a575f5ffd5b919050565b5f5f60408385031215610cb0575f5ffd5b610cb983610c84565b946020939093013593505050565b5f60208284031215610cd7575f5ffd5b5035919050565b5f5f5f60608486031215610cf0575f5ffd5b610cf984610c84565b9250610d0760208501610c84565b929592945050506040919091013590565b5f60208284031215610d28575f5ffd5b61059982610c84565b5f5f60408385031215610d42575f5ffd5b50508035926020909101359150565b5f5f60408385031215610d62575f5ffd5b610d6b83610c84565b9150610d7960208401610c84565b90509250929050565b600181811c90821680610d9657607f821691505b602082108103610db457634e487b7160e01b5f52602260045260245ffd5b50919050565b634e487b7160e01b5f52601160045260245ffd5b808202811582820484141761056357610563610dba565b5f82610dff57634e487b7160e01b5f52601260045260245ffd5b500490565b8082018082111561056357610563610dba565b8181038181111561056357610563610dba56fea264697066735822122059cf05bc20986ac4dae2d4ad43851b784b3a7454e95a591ef88d1b40a443667e64736f6c634300081d0033",
					"opcodes": "PUSH1 0x80 PUSH1 0x40 MSTORE CALLVALUE DUP1 ISZERO PUSH2 0xF JUMPI PUSH0 PUSH0 REVERT JUMPDEST POP PUSH1 0x40 MLOAD PUSH2 0x13FE CODESIZE SUB DUP1 PUSH2 0x13FE DUP4 CODECOPY DUP2 ADD PUSH1 0x40 DUP2 SWAP1 MSTORE PUSH2 0x2E SWAP2 PUSH2 0x3B4 JUMP JUMPDEST CALLER PUSH1 0x40 MLOAD DUP1 PUSH1 0x40 ADD PUSH1 0x40 MSTORE DUP1 PUSH1 0x8 DUP2 MSTORE PUSH1 0x20 ADD PUSH8 0x436172646569726F PUSH1 0xC0 SHL DUP2 MSTORE POP PUSH1 0x40 MLOAD DUP1 PUSH1 0x40 ADD PUSH1 0x40 MSTORE DUP1 PUSH1 0x3 DUP2 MSTORE PUSH1 0x20 ADD PUSH3 0x10D115 PUSH1 0xEA SHL DUP2 MSTORE POP DUP2 PUSH1 0x3 SWAP1 DUP2 PUSH2 0x7B SWAP2 SWAP1 PUSH2 0x493 JUMP JUMPDEST POP PUSH1 0x4 PUSH2 0x88 DUP3 DUP3 PUSH2 0x493 JUMP JUMPDEST POP POP POP PUSH1 0x1 PUSH1 0x1 PUSH1 0xA0 SHL SUB DUP2 AND PUSH2 0xB9 JUMPI PUSH1 0x40 MLOAD PUSH4 0x1E4FBDF7 PUSH1 0xE0 SHL DUP2 MSTORE PUSH0 PUSH1 0x4 DUP3 ADD MSTORE PUSH1 0x24 ADD JUMPDEST PUSH1 0x40 MLOAD DUP1 SWAP2 SUB SWAP1 REVERT JUMPDEST PUSH2 0xC2 DUP2 PUSH2 0x205 JUMP JUMPDEST POP PUSH1 0x1 PUSH1 0x6 SSTORE PUSH1 0x64 DUP2 GT ISZERO PUSH2 0x119 JUMPI PUSH1 0x40 MLOAD PUSH3 0x461BCD PUSH1 0xE5 SHL DUP2 MSTORE PUSH1 0x20 PUSH1 0x4 DUP3 ADD MSTORE PUSH1 0x1F PUSH1 0x24 DUP3 ADD MSTORE PUSH32 0x48616C76696E6720726174652063616E6E6F7420657863656564203130302500 PUSH1 0x44 DUP3 ADD MSTORE PUSH1 0x64 ADD PUSH2 0xB0 JUMP JUMPDEST PUSH3 0x15180 DUP3 LT ISZERO PUSH2 0x161 JUMPI PUSH1 0x40 MLOAD PUSH3 0x461BCD PUSH1 0xE5 SHL DUP2 MSTORE PUSH1 0x20 PUSH1 0x4 DUP3 ADD MSTORE PUSH1 0x12 PUSH1 0x24 DUP3 ADD MSTORE PUSH18 0x125B9D195C9D985B081D1BDBC81CDA1BDC9D PUSH1 0x72 SHL PUSH1 0x44 DUP3 ADD MSTORE PUSH1 0x64 ADD PUSH2 0xB0 JUMP JUMPDEST PUSH3 0x15180 PUSH2 0x172 PUSH2 0x16D PUSH1 0x2 PUSH2 0x561 JUMP JUMPDEST PUSH2 0x17C SWAP2 SWAP1 PUSH2 0x561 JUMP JUMPDEST PUSH2 0x187 SWAP1 PUSH1 0x2 PUSH2 0x561 JUMP JUMPDEST DUP3 GT ISZERO PUSH2 0x1CA JUMPI PUSH1 0x40 MLOAD PUSH3 0x461BCD PUSH1 0xE5 SHL DUP2 MSTORE PUSH1 0x20 PUSH1 0x4 DUP3 ADD MSTORE PUSH1 0x11 PUSH1 0x24 DUP3 ADD MSTORE PUSH17 0x496E74657276616C20746F6F206C6F6E67 PUSH1 0x78 SHL PUSH1 0x44 DUP3 ADD MSTORE PUSH1 0x64 ADD PUSH2 0xB0 JUMP JUMPDEST PUSH2 0x1D4 CALLER DUP6 PUSH2 0x256 JUMP JUMPDEST PUSH1 0x7 DUP1 SLOAD PUSH1 0x1 PUSH1 0x1 PUSH1 0xA0 SHL SUB NOT AND PUSH1 0x1 PUSH1 0x1 PUSH1 0xA0 SHL SUB SWAP5 SWAP1 SWAP5 AND SWAP4 SWAP1 SWAP4 OR SWAP1 SWAP3 SSTORE PUSH1 0x8 SSTORE PUSH1 0xA SSTORE POP TIMESTAMP PUSH1 0x9 SSTORE PUSH2 0x591 JUMP JUMPDEST PUSH1 0x5 DUP1 SLOAD PUSH1 0x1 PUSH1 0x1 PUSH1 0xA0 SHL SUB DUP4 DUP2 AND PUSH1 0x1 PUSH1 0x1 PUSH1 0xA0 SHL SUB NOT DUP4 AND DUP2 OR SWAP1 SWAP4 SSTORE PUSH1 0x40 MLOAD SWAP2 AND SWAP2 SWAP1 DUP3 SWAP1 PUSH32 0x8BE0079C531659141344CD1FD0A4F28419497F9722A3DAAFE3B4186F6B6457E0 SWAP1 PUSH0 SWAP1 LOG3 POP POP JUMP JUMPDEST PUSH1 0x1 PUSH1 0x1 PUSH1 0xA0 SHL SUB DUP3 AND PUSH2 0x27F JUMPI PUSH1 0x40 MLOAD PUSH4 0xEC442F05 PUSH1 0xE0 SHL DUP2 MSTORE PUSH0 PUSH1 0x4 DUP3 ADD MSTORE PUSH1 0x24 ADD PUSH2 0xB0 JUMP JUMPDEST PUSH2 0x28A PUSH0 DUP4 DUP4 PUSH2 0x28E JUMP JUMPDEST POP POP JUMP JUMPDEST PUSH1 0x1 PUSH1 0x1 PUSH1 0xA0 SHL SUB DUP4 AND PUSH2 0x2B8 JUMPI DUP1 PUSH1 0x2 PUSH0 DUP3 DUP3 SLOAD PUSH2 0x2AD SWAP2 SWAP1 PUSH2 0x57E JUMP JUMPDEST SWAP1 SWAP2 SSTORE POP PUSH2 0x328 SWAP1 POP JUMP JUMPDEST PUSH1 0x1 PUSH1 0x1 PUSH1 0xA0 SHL SUB DUP4 AND PUSH0 SWAP1 DUP2 MSTORE PUSH1 0x20 DUP2 SWAP1 MSTORE PUSH1 0x40 SWAP1 KECCAK256 SLOAD DUP2 DUP2 LT ISZERO PUSH2 0x30A JUMPI PUSH1 0x40 MLOAD PUSH4 0x391434E3 PUSH1 0xE2 SHL DUP2 MSTORE PUSH1 0x1 PUSH1 0x1 PUSH1 0xA0 SHL SUB DUP6 AND PUSH1 0x4 DUP3 ADD MSTORE PUSH1 0x24 DUP2 ADD DUP3 SWAP1 MSTORE PUSH1 0x44 DUP2 ADD DUP4 SWAP1 MSTORE PUSH1 0x64 ADD PUSH2 0xB0 JUMP JUMPDEST PUSH1 0x1 PUSH1 0x1 PUSH1 0xA0 SHL SUB DUP5 AND PUSH0 SWAP1 DUP2 MSTORE PUSH1 0x20 DUP2 SWAP1 MSTORE PUSH1 0x40 SWAP1 KECCAK256 SWAP1 DUP3 SWAP1 SUB SWAP1 SSTORE JUMPDEST PUSH1 0x1 PUSH1 0x1 PUSH1 0xA0 SHL SUB DUP3 AND PUSH2 0x344 JUMPI PUSH1 0x2 DUP1 SLOAD DUP3 SWAP1 SUB SWAP1 SSTORE PUSH2 0x362 JUMP JUMPDEST PUSH1 0x1 PUSH1 0x1 PUSH1 0xA0 SHL SUB DUP3 AND PUSH0 SWAP1 DUP2 MSTORE PUSH1 0x20 DUP2 SWAP1 MSTORE PUSH1 0x40 SWAP1 KECCAK256 DUP1 SLOAD DUP3 ADD SWAP1 SSTORE JUMPDEST DUP2 PUSH1 0x1 PUSH1 0x1 PUSH1 0xA0 SHL SUB AND DUP4 PUSH1 0x1 PUSH1 0x1 PUSH1 0xA0 SHL SUB AND PUSH32 0xDDF252AD1BE2C89B69C2B068FC378DAA952BA7F163C4A11628F55A4DF523B3EF DUP4 PUSH1 0x40 MLOAD PUSH2 0x3A7 SWAP2 DUP2 MSTORE PUSH1 0x20 ADD SWAP1 JUMP JUMPDEST PUSH1 0x40 MLOAD DUP1 SWAP2 SUB SWAP1 LOG3 POP POP POP JUMP JUMPDEST PUSH0 PUSH0 PUSH0 PUSH0 PUSH1 0x80 DUP6 DUP8 SUB SLT ISZERO PUSH2 0x3C7 JUMPI PUSH0 PUSH0 REVERT JUMPDEST DUP5 MLOAD PUSH1 0x20 DUP7 ADD MLOAD SWAP1 SWAP5 POP PUSH1 0x1 PUSH1 0x1 PUSH1 0xA0 SHL SUB DUP2 AND DUP2 EQ PUSH2 0x3E5 JUMPI PUSH0 PUSH0 REVERT JUMPDEST PUSH1 0x40 DUP7 ADD MLOAD PUSH1 0x60 SWAP1 SWAP7 ADD MLOAD SWAP5 SWAP8 SWAP1 SWAP7 POP SWAP3 POP POP POP JUMP JUMPDEST PUSH4 0x4E487B71 PUSH1 0xE0 SHL PUSH0 MSTORE PUSH1 0x41 PUSH1 0x4 MSTORE PUSH1 0x24 PUSH0 REVERT JUMPDEST PUSH1 0x1 DUP2 DUP2 SHR SWAP1 DUP3 AND DUP1 PUSH2 0x423 JUMPI PUSH1 0x7F DUP3 AND SWAP2 POP JUMPDEST PUSH1 0x20 DUP3 LT DUP2 SUB PUSH2 0x441 JUMPI PUSH4 0x4E487B71 PUSH1 0xE0 SHL PUSH0 MSTORE PUSH1 0x22 PUSH1 0x4 MSTORE PUSH1 0x24 PUSH0 REVERT JUMPDEST POP SWAP2 SWAP1 POP JUMP JUMPDEST PUSH1 0x1F DUP3 GT ISZERO PUSH2 0x48E JUMPI DUP1 PUSH0 MSTORE PUSH1 0x20 PUSH0 KECCAK256 PUSH1 0x1F DUP5 ADD PUSH1 0x5 SHR DUP2 ADD PUSH1 0x20 DUP6 LT ISZERO PUSH2 0x46C JUMPI POP DUP1 JUMPDEST PUSH1 0x1F DUP5 ADD PUSH1 0x5 SHR DUP3 ADD SWAP2 POP JUMPDEST DUP2 DUP2 LT ISZERO PUSH2 0x48B JUMPI PUSH0 DUP2 SSTORE PUSH1 0x1 ADD PUSH2 0x478 JUMP JUMPDEST POP POP JUMPDEST POP POP POP JUMP JUMPDEST DUP2 MLOAD PUSH1 0x1 PUSH1 0x1 PUSH1 0x40 SHL SUB DUP2 GT ISZERO PUSH2 0x4AC JUMPI PUSH2 0x4AC PUSH2 0x3FB JUMP JUMPDEST PUSH2 0x4C0 DUP2 PUSH2 0x4BA DUP5 SLOAD PUSH2 0x40F JUMP JUMPDEST DUP5 PUSH2 0x447 JUMP JUMPDEST PUSH1 0x20 PUSH1 0x1F DUP3 GT PUSH1 0x1 DUP2 EQ PUSH2 0x4F2 JUMPI PUSH0 DUP4 ISZERO PUSH2 0x4DB JUMPI POP DUP5 DUP3 ADD MLOAD JUMPDEST PUSH0 NOT PUSH1 0x3 DUP6 SWAP1 SHL SHR NOT AND PUSH1 0x1 DUP5 SWAP1 SHL OR DUP5 SSTORE PUSH2 0x48B JUMP JUMPDEST PUSH0 DUP5 DUP2 MSTORE PUSH1 0x20 DUP2 KECCAK256 PUSH1 0x1F NOT DUP6 AND SWAP2 JUMPDEST DUP3 DUP2 LT ISZERO PUSH2 0x521 JUMPI DUP8 DUP6 ADD MLOAD DUP3 SSTORE PUSH1 0x20 SWAP5 DUP6 ADD SWAP5 PUSH1 0x1 SWAP1 SWAP3 ADD SWAP2 ADD PUSH2 0x501 JUMP JUMPDEST POP DUP5 DUP3 LT ISZERO PUSH2 0x53E JUMPI DUP7 DUP5 ADD MLOAD PUSH0 NOT PUSH1 0x3 DUP8 SWAP1 SHL PUSH1 0xF8 AND SHR NOT AND DUP2 SSTORE JUMPDEST POP POP POP POP PUSH1 0x1 SWAP1 DUP2 SHL ADD SWAP1 SSTORE POP JUMP JUMPDEST PUSH4 0x4E487B71 PUSH1 0xE0 SHL PUSH0 MSTORE PUSH1 0x11 PUSH1 0x4 MSTORE PUSH1 0x24 PUSH0 REVERT JUMPDEST DUP1 DUP3 MUL DUP2 ISZERO DUP3 DUP3 DIV DUP5 EQ OR PUSH2 0x578 JUMPI PUSH2 0x578 PUSH2 0x54D JUMP JUMPDEST SWAP3 SWAP2 POP POP JUMP JUMPDEST DUP1 DUP3 ADD DUP1 DUP3 GT ISZERO PUSH2 0x578 JUMPI PUSH2 0x578 PUSH2 0x54D JUMP JUMPDEST PUSH2 0xE60 DUP1 PUSH2 0x59E PUSH0 CODECOPY PUSH0 RETURN INVALID PUSH1 0x80 PUSH1 0x40 MSTORE PUSH1 0x4 CALLDATASIZE LT PUSH2 0x143 JUMPI PUSH0 CALLDATALOAD PUSH1 0xE0 SHR DUP1 PUSH4 0x768A4173 GT PUSH2 0xB5 JUMPI DUP1 PUSH4 0x95D89B41 GT PUSH2 0x6E JUMPI DUP1 PUSH4 0x95D89B41 EQ PUSH2 0x3F7 JUMPI DUP1 PUSH4 0xA9059CBB EQ PUSH2 0x40B JUMPI DUP1 PUSH4 0xBBB0B1A6 EQ PUSH2 0x42A JUMPI DUP1 PUSH4 0xDD62ED3E EQ PUSH2 0x449 JUMPI DUP1 PUSH4 0xED299016 EQ PUSH2 0x48D JUMPI DUP1 PUSH4 0xF2FDE38B EQ PUSH2 0x4A1 JUMPI PUSH2 0x191 JUMP JUMPDEST DUP1 PUSH4 0x768A4173 EQ PUSH2 0x35E JUMPI DUP1 PUSH4 0x79CC6790 EQ PUSH2 0x372 JUMPI DUP1 PUSH4 0x7E6335F4 EQ PUSH2 0x391 JUMPI DUP1 PUSH4 0x7F51BB1F EQ PUSH2 0x3A6 JUMPI DUP1 PUSH4 0x8CBB6DF7 EQ PUSH2 0x3C5 JUMPI DUP1 PUSH4 0x8DA5CB5B EQ PUSH2 0x3DA JUMPI PUSH2 0x191 JUMP JUMPDEST DUP1 PUSH4 0x313CE567 GT PUSH2 0x107 JUMPI DUP1 PUSH4 0x313CE567 EQ PUSH2 0x28E JUMPI DUP1 PUSH4 0x42966C68 EQ PUSH2 0x2A9 JUMPI DUP1 PUSH4 0x61D027B3 EQ PUSH2 0x2CA JUMPI DUP1 PUSH4 0x6A47AA06 EQ PUSH2 0x301 JUMPI DUP1 PUSH4 0x70A08231 EQ PUSH2 0x316 JUMPI DUP1 PUSH4 0x715018A6 EQ PUSH2 0x34A JUMPI PUSH2 0x191 JUMP JUMPDEST DUP1 PUSH4 0x6FDDE03 EQ PUSH2 0x1D5 JUMPI DUP1 PUSH4 0x95EA7B3 EQ PUSH2 0x1FF JUMPI DUP1 PUSH4 0x102B67AB EQ PUSH2 0x22E JUMPI DUP1 PUSH4 0x18160DDD EQ PUSH2 0x25B JUMPI DUP1 PUSH4 0x23B872DD EQ PUSH2 0x26F JUMPI PUSH2 0x191 JUMP JUMPDEST CALLDATASIZE PUSH2 0x191 JUMPI PUSH1 0x40 MLOAD PUSH3 0x461BCD PUSH1 0xE5 SHL DUP2 MSTORE PUSH1 0x20 PUSH1 0x4 DUP3 ADD MSTORE PUSH1 0x19 PUSH1 0x24 DUP3 ADD MSTORE PUSH25 0xA8DED6CADC40C8DECAE640DCDEE840C2C6C6CAE0E8408AA89 PUSH1 0x3B SHL PUSH1 0x44 DUP3 ADD MSTORE PUSH1 0x64 ADD JUMPDEST PUSH1 0x40 MLOAD DUP1 SWAP2 SUB SWAP1 REVERT JUMPDEST PUSH1 0x40 MLOAD PUSH3 0x461BCD PUSH1 0xE5 SHL DUP2 MSTORE PUSH1 0x20 PUSH1 0x4 DUP3 ADD MSTORE PUSH1 0x19 PUSH1 0x24 DUP3 ADD MSTORE PUSH25 0xA8DED6CADC40C8DECAE640DCDEE840C2C6C6CAE0E8408AA89 PUSH1 0x3B SHL PUSH1 0x44 DUP3 ADD MSTORE PUSH1 0x64 ADD PUSH2 0x188 JUMP JUMPDEST CALLVALUE DUP1 ISZERO PUSH2 0x1E0 JUMPI PUSH0 PUSH0 REVERT JUMPDEST POP PUSH2 0x1E9 PUSH2 0x4C0 JUMP JUMPDEST PUSH1 0x40 MLOAD PUSH2 0x1F6 SWAP2 SWAP1 PUSH2 0xC4F JUMP JUMPDEST PUSH1 0x40 MLOAD DUP1 SWAP2 SUB SWAP1 RETURN JUMPDEST CALLVALUE DUP1 ISZERO PUSH2 0x20A JUMPI PUSH0 PUSH0 REVERT JUMPDEST POP PUSH2 0x21E PUSH2 0x219 CALLDATASIZE PUSH1 0x4 PUSH2 0xC9F JUMP JUMPDEST PUSH2 0x550 JUMP JUMPDEST PUSH1 0x40 MLOAD SWAP1 ISZERO ISZERO DUP2 MSTORE PUSH1 0x20 ADD PUSH2 0x1F6 JUMP JUMPDEST CALLVALUE DUP1 ISZERO PUSH2 0x239 JUMPI PUSH0 PUSH0 REVERT JUMPDEST POP PUSH2 0x24D PUSH2 0x248 CALLDATASIZE PUSH1 0x4 PUSH2 0xCC7 JUMP JUMPDEST PUSH2 0x569 JUMP JUMPDEST PUSH1 0x40 MLOAD SWAP1 DUP2 MSTORE PUSH1 0x20 ADD PUSH2 0x1F6 JUMP JUMPDEST CALLVALUE DUP1 ISZERO PUSH2 0x266 JUMPI PUSH0 PUSH0 REVERT JUMPDEST POP PUSH1 0x2 SLOAD PUSH2 0x24D JUMP JUMPDEST CALLVALUE DUP1 ISZERO PUSH2 0x27A JUMPI PUSH0 PUSH0 REVERT JUMPDEST POP PUSH2 0x21E PUSH2 0x289 CALLDATASIZE PUSH1 0x4 PUSH2 0xCDE JUMP JUMPDEST PUSH2 0x5A0 JUMP JUMPDEST CALLVALUE DUP1 ISZERO PUSH2 0x299 JUMPI PUSH0 PUSH0 REVERT JUMPDEST POP PUSH1 0x40 MLOAD PUSH1 0x12 DUP2 MSTORE PUSH1 0x20 ADD PUSH2 0x1F6 JUMP JUMPDEST CALLVALUE DUP1 ISZERO PUSH2 0x2B4 JUMPI PUSH0 PUSH0 REVERT JUMPDEST POP PUSH2 0x2C8 PUSH2 0x2C3 CALLDATASIZE PUSH1 0x4 PUSH2 0xCC7 JUMP JUMPDEST PUSH2 0x5C9 JUMP JUMPDEST STOP JUMPDEST CALLVALUE DUP1 ISZERO PUSH2 0x2D5 JUMPI PUSH0 PUSH0 REVERT JUMPDEST POP PUSH1 0x7 SLOAD PUSH2 0x2E9 SWAP1 PUSH1 0x1 PUSH1 0x1 PUSH1 0xA0 SHL SUB AND DUP2 JUMP JUMPDEST PUSH1 0x40 MLOAD PUSH1 0x1 PUSH1 0x1 PUSH1 0xA0 SHL SUB SWAP1 SWAP2 AND DUP2 MSTORE PUSH1 0x20 ADD PUSH2 0x1F6 JUMP JUMPDEST CALLVALUE DUP1 ISZERO PUSH2 0x30C JUMPI PUSH0 PUSH0 REVERT JUMPDEST POP PUSH2 0x24D PUSH1 0x8 SLOAD DUP2 JUMP JUMPDEST CALLVALUE DUP1 ISZERO PUSH2 0x321 JUMPI PUSH0 PUSH0 REVERT JUMPDEST POP PUSH2 0x24D PUSH2 0x330 CALLDATASIZE PUSH1 0x4 PUSH2 0xD18 JUMP JUMPDEST PUSH1 0x1 PUSH1 0x1 PUSH1 0xA0 SHL SUB AND PUSH0 SWAP1 DUP2 MSTORE PUSH1 0x20 DUP2 SWAP1 MSTORE PUSH1 0x40 SWAP1 KECCAK256 SLOAD SWAP1 JUMP JUMPDEST CALLVALUE DUP1 ISZERO PUSH2 0x355 JUMPI PUSH0 PUSH0 REVERT JUMPDEST POP PUSH2 0x2C8 PUSH2 0x5D6 JUMP JUMPDEST CALLVALUE DUP1 ISZERO PUSH2 0x369 JUMPI PUSH0 PUSH0 REVERT JUMPDEST POP PUSH2 0x21E PUSH2 0x5E9 JUMP JUMPDEST CALLVALUE DUP1 ISZERO PUSH2 0x37D JUMPI PUSH0 PUSH0 REVERT JUMPDEST POP PUSH2 0x2C8 PUSH2 0x38C CALLDATASIZE PUSH1 0x4 PUSH2 0xC9F JUMP JUMPDEST PUSH2 0x60F JUMP JUMPDEST CALLVALUE DUP1 ISZERO PUSH2 0x39C JUMPI PUSH0 PUSH0 REVERT JUMPDEST POP PUSH2 0x24D PUSH1 0xA SLOAD DUP2 JUMP JUMPDEST CALLVALUE DUP1 ISZERO PUSH2 0x3B1 JUMPI PUSH0 PUSH0 REVERT JUMPDEST POP PUSH2 0x2C8 PUSH2 0x3C0 CALLDATASIZE PUSH1 0x4 PUSH2 0xD18 JUMP JUMPDEST PUSH2 0x628 JUMP JUMPDEST CALLVALUE DUP1 ISZERO PUSH2 0x3D0 JUMPI PUSH0 PUSH0 REVERT JUMPDEST POP PUSH2 0x24D PUSH1 0x9 SLOAD DUP2 JUMP JUMPDEST CALLVALUE DUP1 ISZERO PUSH2 0x3E5 JUMPI PUSH0 PUSH0 REVERT JUMPDEST POP PUSH1 0x5 SLOAD PUSH1 0x1 PUSH1 0x1 PUSH1 0xA0 SHL SUB AND PUSH2 0x2E9 JUMP JUMPDEST CALLVALUE DUP1 ISZERO PUSH2 0x402 JUMPI PUSH0 PUSH0 REVERT JUMPDEST POP PUSH2 0x1E9 PUSH2 0x652 JUMP JUMPDEST CALLVALUE DUP1 ISZERO PUSH2 0x416 JUMPI PUSH0 PUSH0 REVERT JUMPDEST POP PUSH2 0x21E PUSH2 0x425 CALLDATASIZE PUSH1 0x4 PUSH2 0xC9F JUMP JUMPDEST PUSH2 0x661 JUMP JUMPDEST CALLVALUE DUP1 ISZERO PUSH2 0x435 JUMPI PUSH0 PUSH0 REVERT JUMPDEST POP PUSH2 0x2C8 PUSH2 0x444 CALLDATASIZE PUSH1 0x4 PUSH2 0xD31 JUMP JUMPDEST PUSH2 0x681 JUMP JUMPDEST CALLVALUE DUP1 ISZERO PUSH2 0x454 JUMPI PUSH0 PUSH0 REVERT JUMPDEST POP PUSH2 0x24D PUSH2 0x463 CALLDATASIZE PUSH1 0x4 PUSH2 0xD51 JUMP JUMPDEST PUSH1 0x1 PUSH1 0x1 PUSH1 0xA0 SHL SUB SWAP2 DUP3 AND PUSH0 SWAP1 DUP2 MSTORE PUSH1 0x1 PUSH1 0x20 SWAP1 DUP2 MSTORE PUSH1 0x40 DUP1 DUP4 KECCAK256 SWAP4 SWAP1 SWAP5 AND DUP3 MSTORE SWAP2 SWAP1 SWAP2 MSTORE KECCAK256 SLOAD SWAP1 JUMP JUMPDEST CALLVALUE DUP1 ISZERO PUSH2 0x498 JUMPI PUSH0 PUSH0 REVERT JUMPDEST POP PUSH2 0x2C8 PUSH2 0x725 JUMP JUMPDEST CALLVALUE DUP1 ISZERO PUSH2 0x4AC JUMPI PUSH0 PUSH0 REVERT JUMPDEST POP PUSH2 0x2C8 PUSH2 0x4BB CALLDATASIZE PUSH1 0x4 PUSH2 0xD18 JUMP JUMPDEST PUSH2 0x82A JUMP JUMPDEST PUSH1 0x60 PUSH1 0x3 DUP1 SLOAD PUSH2 0x4CF SWAP1 PUSH2 0xD82 JUMP JUMPDEST DUP1 PUSH1 0x1F ADD PUSH1 0x20 DUP1 SWAP2 DIV MUL PUSH1 0x20 ADD PUSH1 0x40 MLOAD SWAP1 DUP2 ADD PUSH1 0x40 MSTORE DUP1 SWAP3 SWAP2 SWAP1 DUP2 DUP2 MSTORE PUSH1 0x20 ADD DUP3 DUP1 SLOAD PUSH2 0x4FB SWAP1 PUSH2 0xD82 JUMP JUMPDEST DUP1 ISZERO PUSH2 0x546 JUMPI DUP1 PUSH1 0x1F LT PUSH2 0x51D JUMPI PUSH2 0x100 DUP1 DUP4 SLOAD DIV MUL DUP4 MSTORE SWAP2 PUSH1 0x20 ADD SWAP2 PUSH2 0x546 JUMP JUMPDEST DUP3 ADD SWAP2 SWAP1 PUSH0 MSTORE PUSH1 0x20 PUSH0 KECCAK256 SWAP1 JUMPDEST DUP2 SLOAD DUP2 MSTORE SWAP1 PUSH1 0x1 ADD SWAP1 PUSH1 0x20 ADD DUP1 DUP4 GT PUSH2 0x529 JUMPI DUP3 SWAP1 SUB PUSH1 0x1F AND DUP3 ADD SWAP2 JUMPDEST POP POP POP POP POP SWAP1 POP SWAP1 JUMP JUMPDEST PUSH0 CALLER PUSH2 0x55D DUP2 DUP6 DUP6 PUSH2 0x864 JUMP JUMPDEST PUSH1 0x1 SWAP2 POP POP JUMPDEST SWAP3 SWAP2 POP POP JUMP JUMPDEST PUSH1 0x7 SLOAD PUSH1 0x1 PUSH1 0x1 PUSH1 0xA0 SHL SUB AND PUSH0 SWAP1 DUP2 MSTORE PUSH1 0x20 DUP2 SWAP1 MSTORE PUSH1 0x40 DUP2 KECCAK256 SLOAD PUSH1 0x64 PUSH2 0x58F DUP5 DUP4 PUSH2 0xDCE JUMP JUMPDEST PUSH2 0x599 SWAP2 SWAP1 PUSH2 0xDE5 JUMP JUMPDEST SWAP4 SWAP3 POP POP POP JUMP JUMPDEST PUSH0 PUSH2 0x5A9 PUSH2 0x5E9 JUMP JUMPDEST ISZERO PUSH2 0x5B6 JUMPI PUSH2 0x5B6 PUSH2 0x725 JUMP JUMPDEST PUSH2 0x5C1 DUP5 DUP5 DUP5 PUSH2 0x876 JUMP JUMPDEST SWAP5 SWAP4 POP POP POP POP JUMP JUMPDEST PUSH2 0x5D3 CALLER DUP3 PUSH2 0x899 JUMP JUMPDEST POP JUMP JUMPDEST PUSH2 0x5DE PUSH2 0x8CD JUMP JUMPDEST PUSH2 0x5E7 PUSH0 PUSH2 0x8FA JUMP JUMPDEST JUMP JUMPDEST PUSH0 PUSH2 0x708 PUSH1 0x8 SLOAD PUSH1 0x9 SLOAD PUSH2 0x5FD SWAP2 SWAP1 PUSH2 0xE04 JUMP JUMPDEST PUSH2 0x607 SWAP2 SWAP1 PUSH2 0xE04 JUMP JUMPDEST TIMESTAMP LT ISZERO SWAP1 POP SWAP1 JUMP JUMPDEST PUSH2 0x61A DUP3 CALLER DUP4 PUSH2 0x94B JUMP JUMPDEST PUSH2 0x624 DUP3 DUP3 PUSH2 0x899 JUMP JUMPDEST POP POP JUMP JUMPDEST PUSH2 0x630 PUSH2 0x8CD JUMP JUMPDEST PUSH1 0x7 DUP1 SLOAD PUSH1 0x1 PUSH1 0x1 PUSH1 0xA0 SHL SUB NOT AND PUSH1 0x1 PUSH1 0x1 PUSH1 0xA0 SHL SUB SWAP3 SWAP1 SWAP3 AND SWAP2 SWAP1 SWAP2 OR SWAP1 SSTORE JUMP JUMPDEST PUSH1 0x60 PUSH1 0x4 DUP1 SLOAD PUSH2 0x4CF SWAP1 PUSH2 0xD82 JUMP JUMPDEST PUSH0 PUSH2 0x66A PUSH2 0x5E9 JUMP JUMPDEST ISZERO PUSH2 0x677 JUMPI PUSH2 0x677 PUSH2 0x725 JUMP JUMPDEST PUSH2 0x599 DUP4 DUP4 PUSH2 0x9C7 JUMP JUMPDEST PUSH2 0x689 PUSH2 0x8CD JUMP JUMPDEST PUSH1 0x5 DUP2 LT ISZERO PUSH2 0x6D1 JUMPI PUSH1 0x40 MLOAD PUSH3 0x461BCD PUSH1 0xE5 SHL DUP2 MSTORE PUSH1 0x20 PUSH1 0x4 DUP3 ADD MSTORE PUSH1 0x14 PUSH1 0x24 DUP3 ADD MSTORE PUSH20 0x48616C76696E67207261746520746F6F206C6F77 PUSH1 0x60 SHL PUSH1 0x44 DUP3 ADD MSTORE PUSH1 0x64 ADD PUSH2 0x188 JUMP JUMPDEST PUSH1 0x14 DUP2 GT ISZERO PUSH2 0x71A JUMPI PUSH1 0x40 MLOAD PUSH3 0x461BCD PUSH1 0xE5 SHL DUP2 MSTORE PUSH1 0x20 PUSH1 0x4 DUP3 ADD MSTORE PUSH1 0x15 PUSH1 0x24 DUP3 ADD MSTORE PUSH21 0x90C2D8ECD2DCCE40E4C2E8CA40E8DEDE40D0D2CED PUSH1 0x5B SHL PUSH1 0x44 DUP3 ADD MSTORE PUSH1 0x64 ADD PUSH2 0x188 JUMP JUMPDEST PUSH1 0x8 SWAP2 SWAP1 SWAP2 SSTORE PUSH1 0xA SSTORE JUMP JUMPDEST PUSH2 0x72D PUSH2 0x9D4 JUMP JUMPDEST PUSH2 0x735 PUSH2 0x5E9 JUMP JUMPDEST PUSH2 0x781 JUMPI PUSH1 0x40 MLOAD PUSH3 0x461BCD PUSH1 0xE5 SHL DUP2 MSTORE PUSH1 0x20 PUSH1 0x4 DUP3 ADD MSTORE PUSH1 0x1C PUSH1 0x24 DUP3 ADD MSTORE PUSH32 0x48616C76696E6720696E74657276616C206E6F74207265616368656400000000 PUSH1 0x44 DUP3 ADD MSTORE PUSH1 0x64 ADD PUSH2 0x188 JUMP JUMPDEST PUSH1 0x7 SLOAD PUSH1 0x1 PUSH1 0x1 PUSH1 0xA0 SHL SUB AND PUSH0 SWAP1 DUP2 MSTORE PUSH1 0x20 DUP2 SWAP1 MSTORE PUSH1 0x40 DUP2 KECCAK256 SLOAD SWAP1 POP PUSH0 PUSH1 0x64 PUSH1 0xA SLOAD DUP4 PUSH2 0x7AE SWAP2 SWAP1 PUSH2 0xDCE JUMP JUMPDEST PUSH2 0x7B8 SWAP2 SWAP1 PUSH2 0xDE5 JUMP JUMPDEST SWAP1 POP DUP1 ISZERO PUSH2 0x81E JUMPI PUSH1 0x7 SLOAD PUSH2 0x7D6 SWAP1 PUSH1 0x1 PUSH1 0x1 PUSH1 0xA0 SHL SUB AND DUP3 PUSH2 0x899 JUMP JUMPDEST PUSH2 0x7E2 PUSH2 0x708 TIMESTAMP PUSH2 0xE17 JUMP JUMPDEST PUSH1 0x9 SSTORE PUSH1 0x40 DUP1 MLOAD DUP3 DUP2 MSTORE TIMESTAMP PUSH1 0x20 DUP3 ADD MSTORE PUSH32 0x394823B0BCAF78CD8F5876A52C05DBAB91512A05F5DA2A31E239A11AB66D605F SWAP2 ADD PUSH1 0x40 MLOAD DUP1 SWAP2 SUB SWAP1 LOG1 JUMPDEST POP POP PUSH2 0x5E7 PUSH1 0x1 PUSH1 0x6 SSTORE JUMP JUMPDEST PUSH2 0x832 PUSH2 0x8CD JUMP JUMPDEST PUSH1 0x1 PUSH1 0x1 PUSH1 0xA0 SHL SUB DUP2 AND PUSH2 0x85B JUMPI PUSH1 0x40 MLOAD PUSH4 0x1E4FBDF7 PUSH1 0xE0 SHL DUP2 MSTORE PUSH0 PUSH1 0x4 DUP3 ADD MSTORE PUSH1 0x24 ADD PUSH2 0x188 JUMP JUMPDEST PUSH2 0x5D3 DUP2 PUSH2 0x8FA JUMP JUMPDEST PUSH2 0x871 DUP4 DUP4 DUP4 PUSH1 0x1 PUSH2 0x9FE JUMP JUMPDEST POP POP POP JUMP JUMPDEST PUSH0 CALLER PUSH2 0x883 DUP6 DUP3 DUP6 PUSH2 0x94B JUMP JUMPDEST PUSH2 0x88E DUP6 DUP6 DUP6 PUSH2 0xAD0 JUMP JUMPDEST POP PUSH1 0x1 SWAP5 SWAP4 POP POP POP POP JUMP JUMPDEST PUSH1 0x1 PUSH1 0x1 PUSH1 0xA0 SHL SUB DUP3 AND PUSH2 0x8C2 JUMPI PUSH1 0x40 MLOAD PUSH4 0x4B637E8F PUSH1 0xE1 SHL DUP2 MSTORE PUSH0 PUSH1 0x4 DUP3 ADD MSTORE PUSH1 0x24 ADD PUSH2 0x188 JUMP JUMPDEST PUSH2 0x624 DUP3 PUSH0 DUP4 PUSH2 0xB29 JUMP JUMPDEST PUSH1 0x5 SLOAD PUSH1 0x1 PUSH1 0x1 PUSH1 0xA0 SHL SUB AND CALLER EQ PUSH2 0x5E7 JUMPI PUSH1 0x40 MLOAD PUSH4 0x118CDAA7 PUSH1 0xE0 SHL DUP2 MSTORE CALLER PUSH1 0x4 DUP3 ADD MSTORE PUSH1 0x24 ADD PUSH2 0x188 JUMP JUMPDEST PUSH1 0x5 DUP1 SLOAD PUSH1 0x1 PUSH1 0x1 PUSH1 0xA0 SHL SUB DUP4 DUP2 AND PUSH1 0x1 PUSH1 0x1 PUSH1 0xA0 SHL SUB NOT DUP4 AND DUP2 OR SWAP1 SWAP4 SSTORE PUSH1 0x40 MLOAD SWAP2 AND SWAP2 SWAP1 DUP3 SWAP1 PUSH32 0x8BE0079C531659141344CD1FD0A4F28419497F9722A3DAAFE3B4186F6B6457E0 SWAP1 PUSH0 SWAP1 LOG3 POP POP JUMP JUMPDEST PUSH1 0x1 PUSH1 0x1 PUSH1 0xA0 SHL SUB DUP4 DUP2 AND PUSH0 SWAP1 DUP2 MSTORE PUSH1 0x1 PUSH1 0x20 SWAP1 DUP2 MSTORE PUSH1 0x40 DUP1 DUP4 KECCAK256 SWAP4 DUP7 AND DUP4 MSTORE SWAP3 SWAP1 MSTORE KECCAK256 SLOAD PUSH0 NOT DUP2 LT ISZERO PUSH2 0x9C1 JUMPI DUP2 DUP2 LT ISZERO PUSH2 0x9B3 JUMPI PUSH1 0x40 MLOAD PUSH4 0x7DC7A0D9 PUSH1 0xE1 SHL DUP2 MSTORE PUSH1 0x1 PUSH1 0x1 PUSH1 0xA0 SHL SUB DUP5 AND PUSH1 0x4 DUP3 ADD MSTORE PUSH1 0x24 DUP2 ADD DUP3 SWAP1 MSTORE PUSH1 0x44 DUP2 ADD DUP4 SWAP1 MSTORE PUSH1 0x64 ADD PUSH2 0x188 JUMP JUMPDEST PUSH2 0x9C1 DUP5 DUP5 DUP5 DUP5 SUB PUSH0 PUSH2 0x9FE JUMP JUMPDEST POP POP POP POP JUMP JUMPDEST PUSH0 CALLER PUSH2 0x55D DUP2 DUP6 DUP6 PUSH2 0xAD0 JUMP JUMPDEST PUSH1 0x2 PUSH1 0x6 SLOAD SUB PUSH2 0x9F7 JUMPI PUSH1 0x40 MLOAD PUSH4 0x3EE5AEB5 PUSH1 0xE0 SHL DUP2 MSTORE PUSH1 0x4 ADD PUSH1 0x40 MLOAD DUP1 SWAP2 SUB SWAP1 REVERT JUMPDEST PUSH1 0x2 PUSH1 0x6 SSTORE JUMP JUMPDEST PUSH1 0x1 PUSH1 0x1 PUSH1 0xA0 SHL SUB DUP5 AND PUSH2 0xA27 JUMPI PUSH1 0x40 MLOAD PUSH4 0xE602DF05 PUSH1 0xE0 SHL DUP2 MSTORE PUSH0 PUSH1 0x4 DUP3 ADD MSTORE PUSH1 0x24 ADD PUSH2 0x188 JUMP JUMPDEST PUSH1 0x1 PUSH1 0x1 PUSH1 0xA0 SHL SUB DUP4 AND PUSH2 0xA50 JUMPI PUSH1 0x40 MLOAD PUSH4 0x4A1406B1 PUSH1 0xE1 SHL DUP2 MSTORE PUSH0 PUSH1 0x4 DUP3 ADD MSTORE PUSH1 0x24 ADD PUSH2 0x188 JUMP JUMPDEST PUSH1 0x1 PUSH1 0x1 PUSH1 0xA0 SHL SUB DUP1 DUP6 AND PUSH0 SWAP1 DUP2 MSTORE PUSH1 0x1 PUSH1 0x20 SWAP1 DUP2 MSTORE PUSH1 0x40 DUP1 DUP4 KECCAK256 SWAP4 DUP8 AND DUP4 MSTORE SWAP3 SWAP1 MSTORE KECCAK256 DUP3 SWAP1 SSTORE DUP1 ISZERO PUSH2 0x9C1 JUMPI DUP3 PUSH1 0x1 PUSH1 0x1 PUSH1 0xA0 SHL SUB AND DUP5 PUSH1 0x1 PUSH1 0x1 PUSH1 0xA0 SHL SUB AND PUSH32 0x8C5BE1E5EBEC7D5BD14F71427D1E84F3DD0314C0F7B2291E5B200AC8C7C3B925 DUP5 PUSH1 0x40 MLOAD PUSH2 0xAC2 SWAP2 DUP2 MSTORE PUSH1 0x20 ADD SWAP1 JUMP JUMPDEST PUSH1 0x40 MLOAD DUP1 SWAP2 SUB SWAP1 LOG3 POP POP POP POP JUMP JUMPDEST PUSH1 0x1 PUSH1 0x1 PUSH1 0xA0 SHL SUB DUP4 AND PUSH2 0xAF9 JUMPI PUSH1 0x40 MLOAD PUSH4 0x4B637E8F PUSH1 0xE1 SHL DUP2 MSTORE PUSH0 PUSH1 0x4 DUP3 ADD MSTORE PUSH1 0x24 ADD PUSH2 0x188 JUMP JUMPDEST PUSH1 0x1 PUSH1 0x1 PUSH1 0xA0 SHL SUB DUP3 AND PUSH2 0xB22 JUMPI PUSH1 0x40 MLOAD PUSH4 0xEC442F05 PUSH1 0xE0 SHL DUP2 MSTORE PUSH0 PUSH1 0x4 DUP3 ADD MSTORE PUSH1 0x24 ADD PUSH2 0x188 JUMP JUMPDEST PUSH2 0x871 DUP4 DUP4 DUP4 JUMPDEST PUSH1 0x1 PUSH1 0x1 PUSH1 0xA0 SHL SUB DUP4 AND PUSH2 0xB53 JUMPI DUP1 PUSH1 0x2 PUSH0 DUP3 DUP3 SLOAD PUSH2 0xB48 SWAP2 SWAP1 PUSH2 0xE04 JUMP JUMPDEST SWAP1 SWAP2 SSTORE POP PUSH2 0xBC3 SWAP1 POP JUMP JUMPDEST PUSH1 0x1 PUSH1 0x1 PUSH1 0xA0 SHL SUB DUP4 AND PUSH0 SWAP1 DUP2 MSTORE PUSH1 0x20 DUP2 SWAP1 MSTORE PUSH1 0x40 SWAP1 KECCAK256 SLOAD DUP2 DUP2 LT ISZERO PUSH2 0xBA5 JUMPI PUSH1 0x40 MLOAD PUSH4 0x391434E3 PUSH1 0xE2 SHL DUP2 MSTORE PUSH1 0x1 PUSH1 0x1 PUSH1 0xA0 SHL SUB DUP6 AND PUSH1 0x4 DUP3 ADD MSTORE PUSH1 0x24 DUP2 ADD DUP3 SWAP1 MSTORE PUSH1 0x44 DUP2 ADD DUP4 SWAP1 MSTORE PUSH1 0x64 ADD PUSH2 0x188 JUMP JUMPDEST PUSH1 0x1 PUSH1 0x1 PUSH1 0xA0 SHL SUB DUP5 AND PUSH0 SWAP1 DUP2 MSTORE PUSH1 0x20 DUP2 SWAP1 MSTORE PUSH1 0x40 SWAP1 KECCAK256 SWAP1 DUP3 SWAP1 SUB SWAP1 SSTORE JUMPDEST PUSH1 0x1 PUSH1 0x1 PUSH1 0xA0 SHL SUB DUP3 AND PUSH2 0xBDF JUMPI PUSH1 0x2 DUP1 SLOAD DUP3 SWAP1 SUB SWAP1 SSTORE PUSH2 0xBFD JUMP JUMPDEST PUSH1 0x1 PUSH1 0x1 PUSH1 0xA0 SHL SUB DUP3 AND PUSH0 SWAP1 DUP2 MSTORE PUSH1 0x20 DUP2 SWAP1 MSTORE PUSH1 0x40 SWAP1 KECCAK256 DUP1 SLOAD DUP3 ADD SWAP1 SSTORE JUMPDEST DUP2 PUSH1 0x1 PUSH1 0x1 PUSH1 0xA0 SHL SUB AND DUP4 PUSH1 0x1 PUSH1 0x1 PUSH1 0xA0 SHL SUB AND PUSH32 0xDDF252AD1BE2C89B69C2B068FC378DAA952BA7F163C4A11628F55A4DF523B3EF DUP4 PUSH1 0x40 MLOAD PUSH2 0xC42 SWAP2 DUP2 MSTORE PUSH1 0x20 ADD SWAP1 JUMP JUMPDEST PUSH1 0x40 MLOAD DUP1 SWAP2 SUB SWAP1 LOG3 POP POP POP JUMP JUMPDEST PUSH1 0x20 DUP2 MSTORE PUSH0 DUP3 MLOAD DUP1 PUSH1 0x20 DUP5 ADD MSTORE DUP1 PUSH1 0x20 DUP6 ADD PUSH1 0x40 DUP6 ADD MCOPY PUSH0 PUSH1 0x40 DUP3 DUP6 ADD ADD MSTORE PUSH1 0x40 PUSH1 0x1F NOT PUSH1 0x1F DUP4 ADD AND DUP5 ADD ADD SWAP2 POP POP SWAP3 SWAP2 POP POP JUMP JUMPDEST DUP1 CALLDATALOAD PUSH1 0x1 PUSH1 0x1 PUSH1 0xA0 SHL SUB DUP2 AND DUP2 EQ PUSH2 0xC9A JUMPI PUSH0 PUSH0 REVERT JUMPDEST SWAP2 SWAP1 POP JUMP JUMPDEST PUSH0 PUSH0 PUSH1 0x40 DUP4 DUP6 SUB SLT ISZERO PUSH2 0xCB0 JUMPI PUSH0 PUSH0 REVERT JUMPDEST PUSH2 0xCB9 DUP4 PUSH2 0xC84 JUMP JUMPDEST SWAP5 PUSH1 0x20 SWAP4 SWAP1 SWAP4 ADD CALLDATALOAD SWAP4 POP POP POP JUMP JUMPDEST PUSH0 PUSH1 0x20 DUP3 DUP5 SUB SLT ISZERO PUSH2 0xCD7 JUMPI PUSH0 PUSH0 REVERT JUMPDEST POP CALLDATALOAD SWAP2 SWAP1 POP JUMP JUMPDEST PUSH0 PUSH0 PUSH0 PUSH1 0x60 DUP5 DUP7 SUB SLT ISZERO PUSH2 0xCF0 JUMPI PUSH0 PUSH0 REVERT JUMPDEST PUSH2 0xCF9 DUP5 PUSH2 0xC84 JUMP JUMPDEST SWAP3 POP PUSH2 0xD07 PUSH1 0x20 DUP6 ADD PUSH2 0xC84 JUMP JUMPDEST SWAP3 SWAP6 SWAP3 SWAP5 POP POP POP PUSH1 0x40 SWAP2 SWAP1 SWAP2 ADD CALLDATALOAD SWAP1 JUMP JUMPDEST PUSH0 PUSH1 0x20 DUP3 DUP5 SUB SLT ISZERO PUSH2 0xD28 JUMPI PUSH0 PUSH0 REVERT JUMPDEST PUSH2 0x599 DUP3 PUSH2 0xC84 JUMP JUMPDEST PUSH0 PUSH0 PUSH1 0x40 DUP4 DUP6 SUB SLT ISZERO PUSH2 0xD42 JUMPI PUSH0 PUSH0 REVERT JUMPDEST POP POP DUP1 CALLDATALOAD SWAP3 PUSH1 0x20 SWAP1 SWAP2 ADD CALLDATALOAD SWAP2 POP JUMP JUMPDEST PUSH0 PUSH0 PUSH1 0x40 DUP4 DUP6 SUB SLT ISZERO PUSH2 0xD62 JUMPI PUSH0 PUSH0 REVERT JUMPDEST PUSH2 0xD6B DUP4 PUSH2 0xC84 JUMP JUMPDEST SWAP2 POP PUSH2 0xD79 PUSH1 0x20 DUP5 ADD PUSH2 0xC84 JUMP JUMPDEST SWAP1 POP SWAP3 POP SWAP3 SWAP1 POP JUMP JUMPDEST PUSH1 0x1 DUP2 DUP2 SHR SWAP1 DUP3 AND DUP1 PUSH2 0xD96 JUMPI PUSH1 0x7F DUP3 AND SWAP2 POP JUMPDEST PUSH1 0x20 DUP3 LT DUP2 SUB PUSH2 0xDB4 JUMPI PUSH4 0x4E487B71 PUSH1 0xE0 SHL PUSH0 MSTORE PUSH1 0x22 PUSH1 0x4 MSTORE PUSH1 0x24 PUSH0 REVERT JUMPDEST POP SWAP2 SWAP1 POP JUMP JUMPDEST PUSH4 0x4E487B71 PUSH1 0xE0 SHL PUSH0 MSTORE PUSH1 0x11 PUSH1 0x4 MSTORE PUSH1 0x24 PUSH0 REVERT JUMPDEST DUP1 DUP3 MUL DUP2 ISZERO DUP3 DUP3 DIV DUP5 EQ OR PUSH2 0x563 JUMPI PUSH2 0x563 PUSH2 0xDBA JUMP JUMPDEST PUSH0 DUP3 PUSH2 0xDFF JUMPI PUSH4 0x4E487B71 PUSH1 0xE0 SHL PUSH0 MSTORE PUSH1 0x12 PUSH1 0x4 MSTORE PUSH1 0x24 PUSH0 REVERT JUMPDEST POP DIV SWAP1 JUMP JUMPDEST DUP1 DUP3 ADD DUP1 DUP3 GT ISZERO PUSH2 0x563 JUMPI PUSH2 0x563 PUSH2 0xDBA JUMP JUMPDEST DUP2 DUP2 SUB DUP2 DUP2 GT ISZERO PUSH2 0x563 JUMPI PUSH2 0x563 PUSH2 0xDBA JUMP INVALID LOG2 PUSH5 0x6970667358 0x22 SLT KECCAK256 MSIZE 0xCF SDIV 0xBC KECCAK256 SWAP9 PUSH11 0xC4DAE2D4AD43851B784B3A PUSH21 0x54E95A591EF88D1B40A443667E64736F6C63430008 SAR STOP CALLER "
				},
				"gasEstimates": {
					"creation": {
						"codeDepositCost": "736000",
						"executionCost": "infinite",
						"totalCost": "infinite"
					},
					"external": {
						"": "341",
						"allowance(address,address)": "infinite",
						"approve(address,uint256)": "24757",
						"balanceOf(address)": "2648",
						"burn(uint256)": "50961",
						"burnFrom(address,uint256)": "infinite",
						"decimals()": "199",
						"executeHalving()": "infinite",
						"getExpectedBurn(uint256)": "4801",
						"halvingInterval()": "2383",
						"halvingRate()": "2361",
						"isHalvingDue()": "infinite",
						"lastHalvingTime()": "2405",
						"name()": "infinite",
						"owner()": "2463",
						"renounceOwnership()": "infinite",
						"symbol()": "infinite",
						"totalSupply()": "2381",
						"transfer(address,uint256)": "infinite",
						"transferFrom(address,address,uint256)": "infinite",
						"transferOwnership(address)": "28465",
						"treasury()": "2403",
						"updateHalvingParams(uint256,uint256)": "46738",
						"updateTreasury(address)": "26822"
					}
				},
				"methodIdentifiers": {
					"allowance(address,address)": "dd62ed3e",
					"approve(address,uint256)": "095ea7b3",
					"balanceOf(address)": "70a08231",
					"burn(uint256)": "42966c68",
					"burnFrom(address,uint256)": "79cc6790",
					"decimals()": "313ce567",
					"executeHalving()": "ed299016",
					"getExpectedBurn(uint256)": "102b67ab",
					"halvingInterval()": "6a47aa06",
					"halvingRate()": "7e6335f4",
					"isHalvingDue()": "768a4173",
					"lastHalvingTime()": "8cbb6df7",
					"name()": "06fdde03",
					"owner()": "8da5cb5b",
					"renounceOwnership()": "715018a6",
					"symbol()": "95d89b41",
					"totalSupply()": "18160ddd",
					"transfer(address,uint256)": "a9059cbb",
					"transferFrom(address,address,uint256)": "23b872dd",
					"transferOwnership(address)": "f2fde38b",
					"treasury()": "61d027b3",
					"updateHalvingParams(uint256,uint256)": "bbb0b1a6",
					"updateTreasury(address)": "7f51bb1f"
				}
			},
			"storageLayout": {
				"storage": [
					{
						"astId": 307,
						"contract": "contracts/Cardeiro_4.sol:Cardeiro",
						"label": "_balances",
						"offset": 0,
						"slot": "0",
						"type": "t_mapping(t_address,t_uint256)"
					},
					{
						"astId": 313,
						"contract": "contracts/Cardeiro_4.sol:Cardeiro",
						"label": "_allowances",
						"offset": 0,
						"slot": "1",
						"type": "t_mapping(t_address,t_mapping(t_address,t_uint256))"
					},
					{
						"astId": 315,
						"contract": "contracts/Cardeiro_4.sol:Cardeiro",
						"label": "_totalSupply",
						"offset": 0,
						"slot": "2",
						"type": "t_uint256"
					},
					{
						"astId": 317,
						"contract": "contracts/Cardeiro_4.sol:Cardeiro",
						"label": "_name",
						"offset": 0,
						"slot": "3",
						"type": "t_string_storage"
					},
					{
						"astId": 319,
						"contract": "contracts/Cardeiro_4.sol:Cardeiro",
						"label": "_symbol",
						"offset": 0,
						"slot": "4",
						"type": "t_string_storage"
					},
					{
						"astId": 8,
						"contract": "contracts/Cardeiro_4.sol:Cardeiro",
						"label": "_owner",
						"offset": 0,
						"slot": "5",
						"type": "t_address"
					},
					{
						"astId": 990,
						"contract": "contracts/Cardeiro_4.sol:Cardeiro",
						"label": "_status",
						"offset": 0,
						"slot": "6",
						"type": "t_uint256"
					},
					{
						"astId": 1068,
						"contract": "contracts/Cardeiro_4.sol:Cardeiro",
						"label": "treasury",
						"offset": 0,
						"slot": "7",
						"type": "t_address"
					},
					{
						"astId": 1070,
						"contract": "contracts/Cardeiro_4.sol:Cardeiro",
						"label": "halvingInterval",
						"offset": 0,
						"slot": "8",
						"type": "t_uint256"
					},
					{
						"astId": 1072,
						"contract": "contracts/Cardeiro_4.sol:Cardeiro",
						"label": "lastHalvingTime",
						"offset": 0,
						"slot": "9",
						"type": "t_uint256"
					},
					{
						"astId": 1074,
						"contract": "contracts/Cardeiro_4.sol:Cardeiro",
						"label": "halvingRate",
						"offset": 0,
						"slot": "10",
						"type": "t_uint256"
					}
				],
				"types": {
					"t_address": {
						"encoding": "inplace",
						"label": "address",
						"numberOfBytes": "20"
					},
					"t_mapping(t_address,t_mapping(t_address,t_uint256))": {
						"encoding": "mapping",
						"key": "t_address",
						"label": "mapping(address => mapping(address => uint256))",
						"numberOfBytes": "32",
						"value": "t_mapping(t_address,t_uint256)"
					},
					"t_mapping(t_address,t_uint256)": {
						"encoding": "mapping",
						"key": "t_address",
						"label": "mapping(address => uint256)",
						"numberOfBytes": "32",
						"value": "t_uint256"
					},
					"t_string_storage": {
						"encoding": "bytes",
						"label": "string",
						"numberOfBytes": "32"
					},
					"t_uint256": {
						"encoding": "inplace",
						"label": "uint256",
						"numberOfBytes": "32"
					}
				}
			},
			"userdoc": {
				"kind": "user",
				"methods": {},
				"version": 1
			}
		}
	}
}