{
	"contracts/Cardeiro.sol": {
		"Cardeiro": {
			"abi": [
				{
					"inputs": [
						{
							"internalType": "uint256",
							"name": "initialSupply",
							"type": "uint256"
						},
						{
							"internalType": "address",
							"name": "_treasury",
							"type": "address"
						},
						{
							"internalType": "uint256",
							"name": "_halvingInterval",
							"type": "uint256"
						},
						{
							"internalType": "uint256",
							"name": "_halvingRate",
							"type": "uint256"
						}
					],
					"stateMutability": "nonpayable",
					"type": "constructor"
				},
				{
					"inputs": [
						{
							"internalType": "address",
							"name": "spender",
							"type": "address"
						},
						{
							"internalType": "uint256",
							"name": "allowance",
							"type": "uint256"
						},
						{
							"internalType": "uint256",
							"name": "needed",
							"type": "uint256"
						}
					],
					"name": "ERC20InsufficientAllowance",
					"type": "error"
				},
				{
					"inputs": [
						{
							"internalType": "address",
							"name": "sender",
							"type": "address"
						},
						{
							"internalType": "uint256",
							"name": "balance",
							"type": "uint256"
						},
						{
							"internalType": "uint256",
							"name": "needed",
							"type": "uint256"
						}
					],
					"name": "ERC20InsufficientBalance",
					"type": "error"
				},
				{
					"inputs": [
						{
							"internalType": "address",
							"name": "approver",
							"type": "address"
						}
					],
					"name": "ERC20InvalidApprover",
					"type": "error"
				},
				{
					"inputs": [
						{
							"internalType": "address",
							"name": "receiver",
							"type": "address"
						}
					],
					"name": "ERC20InvalidReceiver",
					"type": "error"
				},
				{
					"inputs": [
						{
							"internalType": "address",
							"name": "sender",
							"type": "address"
						}
					],
					"name": "ERC20InvalidSender",
					"type": "error"
				},
				{
					"inputs": [
						{
							"internalType": "address",
							"name": "spender",
							"type": "address"
						}
					],
					"name": "ERC20InvalidSpender",
					"type": "error"
				},
				{
					"inputs": [
						{
							"internalType": "address",
							"name": "owner",
							"type": "address"
						}
					],
					"name": "OwnableInvalidOwner",
					"type": "error"
				},
				{
					"inputs": [
						{
							"internalType": "address",
							"name": "account",
							"type": "address"
						}
					],
					"name": "OwnableUnauthorizedAccount",
					"type": "error"
				},
				{
					"anonymous": false,
					"inputs": [
						{
							"indexed": true,
							"internalType": "address",
							"name": "owner",
							"type": "address"
						},
						{
							"indexed": true,
							"internalType": "address",
							"name": "spender",
							"type": "address"
						},
						{
							"indexed": false,
							"internalType": "uint256",
							"name": "value",
							"type": "uint256"
						}
					],
					"name": "Approval",
					"type": "event"
				},
				{
					"anonymous": false,
					"inputs": [
						{
							"indexed": false,
							"internalType": "uint256",
							"name": "burnedAmount",
							"type": "uint256"
						},
						{
							"indexed": false,
							"internalType": "uint256",
							"name": "timestamp",
							"type": "uint256"
						}
					],
					"name": "Halving",
					"type": "event"
				},
				{
					"anonymous": false,
					"inputs": [
						{
							"indexed": true,
							"internalType": "address",
							"name": "previousOwner",
							"type": "address"
						},
						{
							"indexed": true,
							"internalType": "address",
							"name": "newOwner",
							"type": "address"
						}
					],
					"name": "OwnershipTransferred",
					"type": "event"
				},
				{
					"anonymous": false,
					"inputs": [
						{
							"indexed": true,
							"internalType": "address",
							"name": "from",
							"type": "address"
						},
						{
							"indexed": true,
							"internalType": "address",
							"name": "to",
							"type": "address"
						},
						{
							"indexed": false,
							"internalType": "uint256",
							"name": "value",
							"type": "uint256"
						}
					],
					"name": "Transfer",
					"type": "event"
				},
				{
					"inputs": [
						{
							"internalType": "address",
							"name": "owner",
							"type": "address"
						},
						{
							"internalType": "address",
							"name": "spender",
							"type": "address"
						}
					],
					"name": "allowance",
					"outputs": [
						{
							"internalType": "uint256",
							"name": "",
							"type": "uint256"
						}
					],
					"stateMutability": "view",
					"type": "function"
				},
				{
					"inputs": [
						{
							"internalType": "address",
							"name": "spender",
							"type": "address"
						},
						{
							"internalType": "uint256",
							"name": "value",
							"type": "uint256"
						}
					],
					"name": "approve",
					"outputs": [
						{
							"internalType": "bool",
							"name": "",
							"type": "bool"
						}
					],
					"stateMutability": "nonpayable",
					"type": "function"
				},
				{
					"inputs": [
						{
							"internalType": "address",
							"name": "account",
							"type": "address"
						}
					],
					"name": "balanceOf",
					"outputs": [
						{
							"internalType": "uint256",
							"name": "",
							"type": "uint256"
						}
					],
					"stateMutability": "view",
					"type": "function"
				},
				{
					"inputs": [
						{
							"internalType": "uint256",
							"name": "value",
							"type": "uint256"
						}
					],
					"name": "burn",
					"outputs": [],
					"stateMutability": "nonpayable",
					"type": "function"
				},
				{
					"inputs": [
						{
							"internalType": "address",
							"name": "account",
							"type": "address"
						},
						{
							"internalType": "uint256",
							"name": "value",
							"type": "uint256"
						}
					],
					"name": "burnFrom",
					"outputs": [],
					"stateMutability": "nonpayable",
					"type": "function"
				},
				{
					"inputs": [],
					"name": "decimals",
					"outputs": [
						{
							"internalType": "uint8",
							"name": "",
							"type": "uint8"
						}
					],
					"stateMutability": "view",
					"type": "function"
				},
				{
					"inputs": [],
					"name": "executeHalving",
					"outputs": [],
					"stateMutability": "nonpayable",
					"type": "function"
				},
				{
					"inputs": [
						{
							"internalType": "uint256",
							"name": "rate",
							"type": "uint256"
						}
					],
					"name": "getExpectedBurn",
					"outputs": [
						{
							"internalType": "uint256",
							"name": "",
							"type": "uint256"
						}
					],
					"stateMutability": "view",
					"type": "function"
				},
				{
					"inputs": [],
					"name": "halvingInterval",
					"outputs": [
						{
							"internalType": "uint256",
							"name": "",
							"type": "uint256"
						}
					],
					"stateMutability": "view",
					"type": "function"
				},
				{
					"inputs": [],
					"name": "halvingRate",
					"outputs": [
						{
							"internalType": "uint256",
							"name": "",
							"type": "uint256"
						}
					],
					"stateMutability": "view",
					"type": "function"
				},
				{
					"inputs": [],
					"name": "isHalvingDue",
					"outputs": [
						{
							"internalType": "bool",
							"name": "",
							"type": "bool"
						}
					],
					"stateMutability": "view",
					"type": "function"
				},
				{
					"inputs": [],
					"name": "lastHalvingTime",
					"outputs": [
						{
							"internalType": "uint256",
							"name": "",
							"type": "uint256"
						}
					],
					"stateMutability": "view",
					"type": "function"
				},
				{
					"inputs": [],
					"name": "name",
					"outputs": [
						{
							"internalType": "string",
							"name": "",
							"type": "string"
						}
					],
					"stateMutability": "view",
					"type": "function"
				},
				{
					"inputs": [],
					"name": "owner",
					"outputs": [
						{
							"internalType": "address",
							"name": "",
							"type": "address"
						}
					],
					"stateMutability": "view",
					"type": "function"
				},
				{
					"inputs": [],
					"name": "renounceOwnership",
					"outputs": [],
					"stateMutability": "nonpayable",
					"type": "function"
				},
				{
					"inputs": [],
					"name": "symbol",
					"outputs": [
						{
							"internalType": "string",
							"name": "",
							"type": "string"
						}
					],
					"stateMutability": "view",
					"type": "function"
				},
				{
					"inputs": [],
					"name": "totalSupply",
					"outputs": [
						{
							"internalType": "uint256",
							"name": "",
							"type": "uint256"
						}
					],
					"stateMutability": "view",
					"type": "function"
				},
				{
					"inputs": [
						{
							"internalType": "address",
							"name": "to",
							"type": "address"
						},
						{
							"internalType": "uint256",
							"name": "amount",
							"type": "uint256"
						}
					],
					"name": "transfer",
					"outputs": [
						{
							"internalType": "bool",
							"name": "",
							"type": "bool"
						}
					],
					"stateMutability": "nonpayable",
					"type": "function"
				},
				{
					"inputs": [
						{
							"internalType": "address",
							"name": "from",
							"type": "address"
						},
						{
							"internalType": "address",
							"name": "to",
							"type": "address"
						},
						{
							"internalType": "uint256",
							"name": "amount",
							"type": "uint256"
						}
					],
					"name": "transferFrom",
					"outputs": [
						{
							"internalType": "bool",
							"name": "",
							"type": "bool"
						}
					],
					"stateMutability": "nonpayable",
					"type": "function"
				},
				{
					"inputs": [
						{
							"internalType": "address",
							"name": "newOwner",
							"type": "address"
						}
					],
					"name": "transferOwnership",
					"outputs": [],
					"stateMutability": "nonpayable",
					"type": "function"
				},
				{
					"inputs": [],
					"name": "treasury",
					"outputs": [
						{
							"internalType": "address",
							"name": "",
							"type": "address"
						}
					],
					"stateMutability": "view",
					"type": "function"
				},
				{
					"inputs": [
						{
							"internalType": "uint256",
							"name": "_halvingInterval",
							"type": "uint256"
						},
						{
							"internalType": "uint256",
							"name": "_halvingRate",
							"type": "uint256"
						}
					],
					"name": "updateHalvingParams",
					"outputs": [],
					"stateMutability": "nonpayable",
					"type": "function"
				},
				{
					"inputs": [
						{
							"internalType": "address",
							"name": "_treasury",
							"type": "address"
						}
					],
					"name": "updateTreasury",
					"outputs": [],
					"stateMutability": "nonpayable",
					"type": "function"
				}
			],
			"devdoc": {
				"errors": {
					"ERC20InsufficientAllowance(address,uint256,uint256)": [
						{
							"details": "Indicates a failure with the `spender`’s `allowance`. Used in transfers.",
							"params": {
								"allowance": "Amount of tokens a `spender` is allowed to operate with.",
								"needed": "Minimum amount required to perform a transfer.",
								"spender": "Address that may be allowed to operate on tokens without being their owner."
							}
						}
					],
					"ERC20InsufficientBalance(address,uint256,uint256)": [
						{
							"details": "Indicates an error related to the current `balance` of a `sender`. Used in transfers.",
							"params": {
								"balance": "Current balance for the interacting account.",
								"needed": "Minimum amount required to perform a transfer.",
								"sender": "Address whose tokens are being transferred."
							}
						}
					],
					"ERC20InvalidApprover(address)": [
						{
							"details": "Indicates a failure with the `approver` of a token to be approved. Used in approvals.",
							"params": {
								"approver": "Address initiating an approval operation."
							}
						}
					],
					"ERC20InvalidReceiver(address)": [
						{
							"details": "Indicates a failure with the token `receiver`. Used in transfers.",
							"params": {
								"receiver": "Address to which tokens are being transferred."
							}
						}
					],
					"ERC20InvalidSender(address)": [
						{
							"details": "Indicates a failure with the token `sender`. Used in transfers.",
							"params": {
								"sender": "Address whose tokens are being transferred."
							}
						}
					],
					"ERC20InvalidSpender(address)": [
						{
							"details": "Indicates a failure with the `spender` to be approved. Used in approvals.",
							"params": {
								"spender": "Address that may be allowed to operate on tokens without being their owner."
							}
						}
					],
					"OwnableInvalidOwner(address)": [
						{
							"details": "The owner is not a valid owner account. (eg. `address(0)`)"
						}
					],
					"OwnableUnauthorizedAccount(address)": [
						{
							"details": "The caller account is not authorized to perform an operation."
						}
					]
				},
				"events": {
					"Approval(address,address,uint256)": {
						"details": "Emitted when the allowance of a `spender` for an `owner` is set by a call to {approve}. `value` is the new allowance."
					},
					"Transfer(address,address,uint256)": {
						"details": "Emitted when `value` tokens are moved from one account (`from`) to another (`to`). Note that `value` may be zero."
					}
				},
				"kind": "dev",
				"methods": {
					"allowance(address,address)": {
						"details": "See {IERC20-allowance}."
					},
					"approve(address,uint256)": {
						"details": "See {IERC20-approve}. NOTE: If `value` is the maximum `uint256`, the allowance is not updated on `transferFrom`. This is semantically equivalent to an infinite approval. Requirements: - `spender` cannot be the zero address."
					},
					"balanceOf(address)": {
						"details": "See {IERC20-balanceOf}."
					},
					"burn(uint256)": {
						"details": "Destroys a `value` amount of tokens from the caller. See {ERC20-_burn}."
					},
					"burnFrom(address,uint256)": {
						"details": "Destroys a `value` amount of tokens from `account`, deducting from the caller's allowance. See {ERC20-_burn} and {ERC20-allowance}. Requirements: - the caller must have allowance for ``accounts``'s tokens of at least `value`."
					},
					"decimals()": {
						"details": "Returns the number of decimals used to get its user representation. For example, if `decimals` equals `2`, a balance of `505` tokens should be displayed to a user as `5.05` (`505 / 10 ** 2`). Tokens usually opt for a value of 18, imitating the relationship between Ether and Wei. This is the default value returned by this function, unless it's overridden. NOTE: This information is only used for _display_ purposes: it in no way affects any of the arithmetic of the contract, including {IERC20-balanceOf} and {IERC20-transfer}."
					},
					"name()": {
						"details": "Returns the name of the token."
					},
					"owner()": {
						"details": "Returns the address of the current owner."
					},
					"renounceOwnership()": {
						"details": "Leaves the contract without owner. It will not be possible to call `onlyOwner` functions. Can only be called by the current owner. NOTE: Renouncing ownership will leave the contract without an owner, thereby disabling any functionality that is only available to the owner."
					},
					"symbol()": {
						"details": "Returns the symbol of the token, usually a shorter version of the name."
					},
					"totalSupply()": {
						"details": "See {IERC20-totalSupply}."
					},
					"transferOwnership(address)": {
						"details": "Transfers ownership of the contract to a new account (`newOwner`). Can only be called by the current owner."
					}
				},
				"version": 1
			},
			"evm": {
				"assembly": "    /* \"contracts/Cardeiro.sol\":480:4241  contract Cardeiro is ERC20, ERC20Burnable, Ownable{... */\n  mstore(0x40, 0x80)\n    /* \"contracts/Cardeiro.sol\":1573:2207  constructor(... */\n  callvalue\n  dup1\n  iszero\n  tag_1\n  jumpi\n  revert(0x00, 0x00)\ntag_1:\n  pop\n  mload(0x40)\n  sub(codesize, bytecodeSize)\n  dup1\n  bytecodeSize\n  dup4\n  codecopy\n  dup2\n  add\n  0x40\n  dup2\n  swap1\n  mstore\n  tag_2\n  swap2\n  tag_3\n  jump\t// in\ntag_2:\n    /* \"contracts/Cardeiro.sol\":1747:1757  msg.sender */\n  caller\n    /* \"@openzeppelin/contracts/token/ERC20/ERC20.sol\":1601:1714  constructor(string memory name_, string memory symbol_) {... */\n  mload(0x40)\n  dup1\n  0x40\n  add\n  0x40\n  mstore\n  dup1\n  0x08\n  dup2\n  mstore\n  0x20\n  add\n  shl(0xc0, 0x436172646569726f)\n  dup2\n  mstore\n  pop\n  mload(0x40)\n  dup1\n  0x40\n  add\n  0x40\n  mstore\n  dup1\n  0x03\n  dup2\n  mstore\n  0x20\n  add\n  shl(0xea, 0x10d115)\n  dup2\n  mstore\n  pop\n    /* \"@openzeppelin/contracts/token/ERC20/ERC20.sol\":1675:1680  name_ */\n  dup2\n    /* \"@openzeppelin/contracts/token/ERC20/ERC20.sol\":1667:1672  _name */\n  0x03\n    /* \"@openzeppelin/contracts/token/ERC20/ERC20.sol\":1667:1680  _name = name_ */\n  swap1\n  dup2\n  tag_8\n  swap2\n  swap1\n  tag_9\n  jump\t// in\ntag_8:\n  pop\n    /* \"@openzeppelin/contracts/token/ERC20/ERC20.sol\":1690:1697  _symbol */\n  0x04\n    /* \"@openzeppelin/contracts/token/ERC20/ERC20.sol\":1690:1707  _symbol = symbol_ */\n  tag_10\n    /* \"@openzeppelin/contracts/token/ERC20/ERC20.sol\":1700:1707  symbol_ */\n  dup3\n    /* \"@openzeppelin/contracts/token/ERC20/ERC20.sol\":1690:1697  _symbol */\n  dup3\n    /* \"@openzeppelin/contracts/token/ERC20/ERC20.sol\":1690:1707  _symbol = symbol_ */\n  tag_9\n  jump\t// in\ntag_10:\n  pop\n  pop\n  pop\n  sub(shl(0xa0, 0x01), 0x01)\n    /* \"@openzeppelin/contracts/access/Ownable.sol\":1273:1299  initialOwner == address(0) */\n  dup2\n  and\n    /* \"@openzeppelin/contracts/access/Ownable.sol\":1269:1364  if (initialOwner == address(0)) {... */\n  tag_12\n  jumpi\n    /* \"@openzeppelin/contracts/access/Ownable.sol\":1322:1353  OwnableInvalidOwner(address(0)) */\n  mload(0x40)\n  shl(0xe0, 0x1e4fbdf7)\n  dup2\n  mstore\n    /* \"@openzeppelin/contracts/access/Ownable.sol\":1350:1351  0 */\n  0x00\n    /* \"@openzeppelin/contracts/access/Ownable.sol\":1322:1353  OwnableInvalidOwner(address(0)) */\n  0x04\n  dup3\n  add\n    /* \"#utility.yul\":3438:3489   */\n  mstore\n    /* \"#utility.yul\":3411:3429   */\n  0x24\n  add\n    /* \"@openzeppelin/contracts/access/Ownable.sol\":1322:1353  OwnableInvalidOwner(address(0)) */\ntag_13:\n  mload(0x40)\n  dup1\n  swap2\n  sub\n  swap1\n  revert\n    /* \"@openzeppelin/contracts/access/Ownable.sol\":1269:1364  if (initialOwner == address(0)) {... */\ntag_12:\n    /* \"@openzeppelin/contracts/access/Ownable.sol\":1373:1405  _transferOwnership(initialOwner) */\n  tag_15\n    /* \"@openzeppelin/contracts/access/Ownable.sol\":1392:1404  initialOwner */\n  dup2\n    /* \"@openzeppelin/contracts/access/Ownable.sol\":1373:1391  _transferOwnership */\n  tag_16\n    /* \"@openzeppelin/contracts/access/Ownable.sol\":1373:1405  _transferOwnership(initialOwner) */\n  jump\t// in\ntag_15:\n    /* \"@openzeppelin/contracts/access/Ownable.sol\":1225:1412  constructor(address initialOwner) {... */\n  pop\n    /* \"contracts/Cardeiro.sol\":1793:1796  100 */\n  0x64\n    /* \"contracts/Cardeiro.sol\":1777:1789  _halvingRate */\n  dup2\n    /* \"contracts/Cardeiro.sol\":1777:1796  _halvingRate <= 100 */\n  gt\n  iszero\n    /* \"contracts/Cardeiro.sol\":1769:1832  require(_halvingRate <= 100, \"Halving rate cannot exceed 100%\") */\n  tag_18\n  jumpi\n  mload(0x40)\n  shl(0xe5, 0x461bcd)\n  dup2\n  mstore\n    /* \"#utility.yul\":3702:3704   */\n  0x20\n    /* \"contracts/Cardeiro.sol\":1769:1832  require(_halvingRate <= 100, \"Halving rate cannot exceed 100%\") */\n  0x04\n  dup3\n  add\n    /* \"#utility.yul\":3684:3705   */\n  mstore\n    /* \"#utility.yul\":3741:3743   */\n  0x1f\n    /* \"#utility.yul\":3721:3739   */\n  0x24\n  dup3\n  add\n    /* \"#utility.yul\":3714:3744   */\n  mstore\n    /* \"#utility.yul\":3780:3813   */\n  0x48616c76696e6720726174652063616e6e6f7420657863656564203130302500\n    /* \"#utility.yul\":3760:3778   */\n  0x44\n  dup3\n  add\n    /* \"#utility.yul\":3753:3814   */\n  mstore\n    /* \"#utility.yul\":3831:3849   */\n  0x64\n  add\n    /* \"contracts/Cardeiro.sol\":1769:1832  require(_halvingRate <= 100, \"Halving rate cannot exceed 100%\") */\n  tag_13\n    /* \"#utility.yul\":3500:3855   */\n  jump\n    /* \"contracts/Cardeiro.sol\":1769:1832  require(_halvingRate <= 100, \"Halving rate cannot exceed 100%\") */\ntag_18:\n    /* \"contracts/Cardeiro.sol\":1080:1085  86400 */\n  0x015180\n    /* \"contracts/Cardeiro.sol\":1850:1866  _halvingInterval */\n  dup3\n    /* \"contracts/Cardeiro.sol\":1850:1885  _halvingInterval >= SECONDS_PER_DAY */\n  lt\n  iszero\n    /* \"contracts/Cardeiro.sol\":1842:1908  require(_halvingInterval >= SECONDS_PER_DAY, \"Interval too short\") */\n  tag_21\n  jumpi\n  mload(0x40)\n  shl(0xe5, 0x461bcd)\n  dup2\n  mstore\n    /* \"#utility.yul\":4062:4064   */\n  0x20\n    /* \"contracts/Cardeiro.sol\":1842:1908  require(_halvingInterval >= SECONDS_PER_DAY, \"Interval too short\") */\n  0x04\n  dup3\n  add\n    /* \"#utility.yul\":4044:4065   */\n  mstore\n    /* \"#utility.yul\":4101:4103   */\n  0x12\n    /* \"#utility.yul\":4081:4099   */\n  0x24\n  dup3\n  add\n    /* \"#utility.yul\":4074:4104   */\n  mstore\n  shl(0x72, 0x125b9d195c9d985b081d1bdbc81cda1bdc9d)\n    /* \"#utility.yul\":4120:4138   */\n  0x44\n  dup3\n  add\n    /* \"#utility.yul\":4113:4161   */\n  mstore\n    /* \"#utility.yul\":4178:4196   */\n  0x64\n  add\n    /* \"contracts/Cardeiro.sol\":1842:1908  require(_halvingInterval >= SECONDS_PER_DAY, \"Interval too short\") */\n  tag_13\n    /* \"#utility.yul\":3860:4202   */\n  jump\n    /* \"contracts/Cardeiro.sol\":1842:1908  require(_halvingInterval >= SECONDS_PER_DAY, \"Interval too short\") */\ntag_21:\n    /* \"contracts/Cardeiro.sol\":1080:1085  86400 */\n  0x015180\n    /* \"contracts/Cardeiro.sol\":1161:1177  DAYS_IN_YEAR * 2 */\n  tag_24\n    /* \"contracts/Cardeiro.sol\":1027:1030  365 */\n  0x016d\n    /* \"contracts/Cardeiro.sol\":1176:1177  2 */\n  0x02\n    /* \"contracts/Cardeiro.sol\":1161:1177  DAYS_IN_YEAR * 2 */\n  tag_25\n  jump\t// in\ntag_24:\n    /* \"contracts/Cardeiro.sol\":1160:1196  (DAYS_IN_YEAR * 2) * SECONDS_PER_DAY */\n  tag_26\n  swap2\n  swap1\n  tag_25\n  jump\t// in\ntag_26:\n    /* \"contracts/Cardeiro.sol\":1946:1974  DEFAULT_HALVING_INTERVAL * 2 */\n  tag_27\n  swap1\n    /* \"contracts/Cardeiro.sol\":1973:1974  2 */\n  0x02\n    /* \"contracts/Cardeiro.sol\":1946:1974  DEFAULT_HALVING_INTERVAL * 2 */\n  tag_25\n  jump\t// in\ntag_27:\n    /* \"contracts/Cardeiro.sol\":1926:1942  _halvingInterval */\n  dup3\n    /* \"contracts/Cardeiro.sol\":1926:1974  _halvingInterval <= DEFAULT_HALVING_INTERVAL * 2 */\n  gt\n  iszero\n    /* \"contracts/Cardeiro.sol\":1918:1996  require(_halvingInterval <= DEFAULT_HALVING_INTERVAL * 2, \"Interval too long\") */\n  tag_28\n  jumpi\n  mload(0x40)\n  shl(0xe5, 0x461bcd)\n  dup2\n  mstore\n    /* \"#utility.yul\":4714:4716   */\n  0x20\n    /* \"contracts/Cardeiro.sol\":1918:1996  require(_halvingInterval <= DEFAULT_HALVING_INTERVAL * 2, \"Interval too long\") */\n  0x04\n  dup3\n  add\n    /* \"#utility.yul\":4696:4717   */\n  mstore\n    /* \"#utility.yul\":4753:4755   */\n  0x11\n    /* \"#utility.yul\":4733:4751   */\n  0x24\n  dup3\n  add\n    /* \"#utility.yul\":4726:4756   */\n  mstore\n  shl(0x78, 0x496e74657276616c20746f6f206c6f6e67)\n    /* \"#utility.yul\":4772:4790   */\n  0x44\n  dup3\n  add\n    /* \"#utility.yul\":4765:4812   */\n  mstore\n    /* \"#utility.yul\":4829:4847   */\n  0x64\n  add\n    /* \"contracts/Cardeiro.sol\":1918:1996  require(_halvingInterval <= DEFAULT_HALVING_INTERVAL * 2, \"Interval too long\") */\n  tag_13\n    /* \"#utility.yul\":4512:4853   */\n  jump\n    /* \"contracts/Cardeiro.sol\":1918:1996  require(_halvingInterval <= DEFAULT_HALVING_INTERVAL * 2, \"Interval too long\") */\ntag_28:\n    /* \"contracts/Cardeiro.sol\":2015:2047  _mint(msg.sender, initialSupply) */\n  tag_31\n    /* \"contracts/Cardeiro.sol\":2021:2031  msg.sender */\n  caller\n    /* \"contracts/Cardeiro.sol\":2033:2046  initialSupply */\n  dup6\n    /* \"contracts/Cardeiro.sol\":2015:2020  _mint */\n  tag_32\n    /* \"contracts/Cardeiro.sol\":2015:2047  _mint(msg.sender, initialSupply) */\n  jump\t// in\ntag_31:\n    /* \"contracts/Cardeiro.sol\":2057:2065  treasury */\n  0x06\n    /* \"contracts/Cardeiro.sol\":2057:2077  treasury = _treasury */\n  dup1\n  sload\n  not(sub(shl(0xa0, 0x01), 0x01))\n  and\n  sub(shl(0xa0, 0x01), 0x01)\n  swap5\n  swap1\n  swap5\n  and\n  swap4\n  swap1\n  swap4\n  or\n  swap1\n  swap3\n  sstore\n    /* \"contracts/Cardeiro.sol\":2087:2102  halvingInterval */\n  0x07\n    /* \"contracts/Cardeiro.sol\":2087:2121  halvingInterval = _halvingInterval */\n  sstore\n    /* \"contracts/Cardeiro.sol\":2131:2142  halvingRate */\n  0x09\n    /* \"contracts/Cardeiro.sol\":2131:2157  halvingRate = _halvingRate */\n  sstore\n  pop\n    /* \"contracts/Cardeiro.sol\":2185:2200  block.timestamp */\n  timestamp\n    /* \"contracts/Cardeiro.sol\":2167:2182  lastHalvingTime */\n  0x08\n    /* \"contracts/Cardeiro.sol\":2167:2200  lastHalvingTime = block.timestamp */\n  sstore\n    /* \"contracts/Cardeiro.sol\":480:4241  contract Cardeiro is ERC20, ERC20Burnable, Ownable{... */\n  jump(tag_58)\n    /* \"@openzeppelin/contracts/access/Ownable.sol\":2912:3099  function _transferOwnership(address newOwner) internal virtual {... */\ntag_16:\n    /* \"@openzeppelin/contracts/access/Ownable.sol\":3004:3010  _owner */\n  0x05\n  dup1\n  sload\n  sub(shl(0xa0, 0x01), 0x01)\n    /* \"@openzeppelin/contracts/access/Ownable.sol\":3020:3037  _owner = newOwner */\n  dup4\n  dup2\n  and\n  not(sub(shl(0xa0, 0x01), 0x01))\n  dup4\n  and\n  dup2\n  or\n  swap1\n  swap4\n  sstore\n    /* \"@openzeppelin/contracts/access/Ownable.sol\":3052:3092  OwnershipTransferred(oldOwner, newOwner) */\n  mload(0x40)\n    /* \"@openzeppelin/contracts/access/Ownable.sol\":3004:3010  _owner */\n  swap2\n  and\n  swap2\n    /* \"@openzeppelin/contracts/access/Ownable.sol\":3020:3037  _owner = newOwner */\n  swap1\n    /* \"@openzeppelin/contracts/access/Ownable.sol\":3004:3010  _owner */\n  dup3\n  swap1\n    /* \"@openzeppelin/contracts/access/Ownable.sol\":3052:3092  OwnershipTransferred(oldOwner, newOwner) */\n  0x8be0079c531659141344cd1fd0a4f28419497f9722a3daafe3b4186f6b6457e0\n  swap1\n    /* \"@openzeppelin/contracts/access/Ownable.sol\":2985:3001  address oldOwner */\n  0x00\n  swap1\n    /* \"@openzeppelin/contracts/access/Ownable.sol\":3052:3092  OwnershipTransferred(oldOwner, newOwner) */\n  log3\n    /* \"@openzeppelin/contracts/access/Ownable.sol\":2975:3099  {... */\n  pop\n    /* \"@openzeppelin/contracts/access/Ownable.sol\":2912:3099  function _transferOwnership(address newOwner) internal virtual {... */\n  pop\n  jump\t// out\n    /* \"@openzeppelin/contracts/token/ERC20/ERC20.sol\":7458:7666  function _mint(address account, uint256 value) internal {... */\ntag_32:\n  sub(shl(0xa0, 0x01), 0x01)\n    /* \"@openzeppelin/contracts/token/ERC20/ERC20.sol\":7528:7549  account == address(0) */\n  dup3\n  and\n    /* \"@openzeppelin/contracts/token/ERC20/ERC20.sol\":7524:7615  if (account == address(0)) {... */\n  tag_36\n  jumpi\n    /* \"@openzeppelin/contracts/token/ERC20/ERC20.sol\":7572:7604  ERC20InvalidReceiver(address(0)) */\n  mload(0x40)\n  shl(0xe0, 0xec442f05)\n  dup2\n  mstore\n    /* \"@openzeppelin/contracts/token/ERC20/ERC20.sol\":7601:7602  0 */\n  0x00\n    /* \"@openzeppelin/contracts/token/ERC20/ERC20.sol\":7572:7604  ERC20InvalidReceiver(address(0)) */\n  0x04\n  dup3\n  add\n    /* \"#utility.yul\":3438:3489   */\n  mstore\n    /* \"#utility.yul\":3411:3429   */\n  0x24\n  add\n    /* \"@openzeppelin/contracts/token/ERC20/ERC20.sol\":7572:7604  ERC20InvalidReceiver(address(0)) */\n  tag_13\n    /* \"#utility.yul\":3292:3495   */\n  jump\n    /* \"@openzeppelin/contracts/token/ERC20/ERC20.sol\":7524:7615  if (account == address(0)) {... */\ntag_36:\n    /* \"@openzeppelin/contracts/token/ERC20/ERC20.sol\":7624:7659  _update(address(0), account, value) */\n  tag_38\n    /* \"@openzeppelin/contracts/token/ERC20/ERC20.sol\":7640:7641  0 */\n  0x00\n    /* \"@openzeppelin/contracts/token/ERC20/ERC20.sol\":7644:7651  account */\n  dup4\n    /* \"@openzeppelin/contracts/token/ERC20/ERC20.sol\":7653:7658  value */\n  dup4\n    /* \"@openzeppelin/contracts/token/ERC20/ERC20.sol\":7624:7631  _update */\n  tag_39\n    /* \"@openzeppelin/contracts/token/ERC20/ERC20.sol\":7624:7659  _update(address(0), account, value) */\n  jump\t// in\ntag_38:\n    /* \"@openzeppelin/contracts/token/ERC20/ERC20.sol\":7458:7666  function _mint(address account, uint256 value) internal {... */\n  pop\n  pop\n  jump\t// out\n    /* \"@openzeppelin/contracts/token/ERC20/ERC20.sol\":6008:7115  function _update(address from, address to, uint256 value) internal virtual {... */\ntag_39:\n  sub(shl(0xa0, 0x01), 0x01)\n    /* \"@openzeppelin/contracts/token/ERC20/ERC20.sol\":6097:6115  from == address(0) */\n  dup4\n  and\n    /* \"@openzeppelin/contracts/token/ERC20/ERC20.sol\":6093:6633  if (from == address(0)) {... */\n  tag_41\n  jumpi\n    /* \"@openzeppelin/contracts/token/ERC20/ERC20.sol\":6249:6254  value */\n  dup1\n    /* \"@openzeppelin/contracts/token/ERC20/ERC20.sol\":6233:6245  _totalSupply */\n  0x02\n  0x00\n    /* \"@openzeppelin/contracts/token/ERC20/ERC20.sol\":6233:6254  _totalSupply += value */\n  dup3\n  dup3\n  sload\n  tag_42\n  swap2\n  swap1\n  tag_43\n  jump\t// in\ntag_42:\n  swap1\n  swap2\n  sstore\n  pop\n    /* \"@openzeppelin/contracts/token/ERC20/ERC20.sol\":6093:6633  if (from == address(0)) {... */\n  tag_44\n  swap1\n  pop\n  jump\ntag_41:\n  sub(shl(0xa0, 0x01), 0x01)\n    /* \"@openzeppelin/contracts/token/ERC20/ERC20.sol\":6307:6322  _balances[from] */\n  dup4\n  and\n    /* \"@openzeppelin/contracts/token/ERC20/ERC20.sol\":6285:6304  uint256 fromBalance */\n  0x00\n    /* \"@openzeppelin/contracts/token/ERC20/ERC20.sol\":6307:6322  _balances[from] */\n  swap1\n  dup2\n  mstore\n  0x20\n  dup2\n  swap1\n  mstore\n  0x40\n  swap1\n  keccak256\n  sload\n    /* \"@openzeppelin/contracts/token/ERC20/ERC20.sol\":6340:6359  fromBalance < value */\n  dup2\n  dup2\n  lt\n    /* \"@openzeppelin/contracts/token/ERC20/ERC20.sol\":6336:6451  if (fromBalance < value) {... */\n  iszero\n  tag_45\n  jumpi\n    /* \"@openzeppelin/contracts/token/ERC20/ERC20.sol\":6386:6436  ERC20InsufficientBalance(from, fromBalance, value) */\n  mload(0x40)\n  shl(0xe2, 0x391434e3)\n  dup2\n  mstore\n  sub(shl(0xa0, 0x01), 0x01)\n    /* \"#utility.yul\":5208:5240   */\n  dup6\n  and\n    /* \"@openzeppelin/contracts/token/ERC20/ERC20.sol\":6386:6436  ERC20InsufficientBalance(from, fromBalance, value) */\n  0x04\n  dup3\n  add\n    /* \"#utility.yul\":5190:5241   */\n  mstore\n    /* \"#utility.yul\":5257:5275   */\n  0x24\n  dup2\n  add\n    /* \"#utility.yul\":5250:5284   */\n  dup3\n  swap1\n  mstore\n    /* \"#utility.yul\":5300:5318   */\n  0x44\n  dup2\n  add\n    /* \"#utility.yul\":5293:5327   */\n  dup4\n  swap1\n  mstore\n    /* \"#utility.yul\":5163:5181   */\n  0x64\n  add\n    /* \"@openzeppelin/contracts/token/ERC20/ERC20.sol\":6386:6436  ERC20InsufficientBalance(from, fromBalance, value) */\n  tag_13\n    /* \"#utility.yul\":4988:5333   */\n  jump\n    /* \"@openzeppelin/contracts/token/ERC20/ERC20.sol\":6336:6451  if (fromBalance < value) {... */\ntag_45:\n  sub(shl(0xa0, 0x01), 0x01)\n    /* \"@openzeppelin/contracts/token/ERC20/ERC20.sol\":6571:6586  _balances[from] */\n  dup5\n  and\n    /* \"@openzeppelin/contracts/token/ERC20/ERC20.sol\":6571:6580  _balances */\n  0x00\n    /* \"@openzeppelin/contracts/token/ERC20/ERC20.sol\":6571:6586  _balances[from] */\n  swap1\n  dup2\n  mstore\n  0x20\n  dup2\n  swap1\n  mstore\n  0x40\n  swap1\n  keccak256\n    /* \"@openzeppelin/contracts/token/ERC20/ERC20.sol\":6589:6608  fromBalance - value */\n  swap1\n  dup3\n  swap1\n  sub\n    /* \"@openzeppelin/contracts/token/ERC20/ERC20.sol\":6571:6608  _balances[from] = fromBalance - value */\n  swap1\n  sstore\n    /* \"@openzeppelin/contracts/token/ERC20/ERC20.sol\":6093:6633  if (from == address(0)) {... */\ntag_44:\n  sub(shl(0xa0, 0x01), 0x01)\n    /* \"@openzeppelin/contracts/token/ERC20/ERC20.sol\":6647:6663  to == address(0) */\n  dup3\n  and\n    /* \"@openzeppelin/contracts/token/ERC20/ERC20.sol\":6643:7068  if (to == address(0)) {... */\n  tag_48\n  jumpi\n    /* \"@openzeppelin/contracts/token/ERC20/ERC20.sol\":6810:6822  _totalSupply */\n  0x02\n    /* \"@openzeppelin/contracts/token/ERC20/ERC20.sol\":6810:6831  _totalSupply -= value */\n  dup1\n  sload\n  dup3\n  swap1\n  sub\n  swap1\n  sstore\n    /* \"@openzeppelin/contracts/token/ERC20/ERC20.sol\":6643:7068  if (to == address(0)) {... */\n  jump(tag_49)\ntag_48:\n  sub(shl(0xa0, 0x01), 0x01)\n    /* \"@openzeppelin/contracts/token/ERC20/ERC20.sol\":7021:7034  _balances[to] */\n  dup3\n  and\n    /* \"@openzeppelin/contracts/token/ERC20/ERC20.sol\":7021:7030  _balances */\n  0x00\n    /* \"@openzeppelin/contracts/token/ERC20/ERC20.sol\":7021:7034  _balances[to] */\n  swap1\n  dup2\n  mstore\n  0x20\n  dup2\n  swap1\n  mstore\n  0x40\n  swap1\n  keccak256\n    /* \"@openzeppelin/contracts/token/ERC20/ERC20.sol\":7021:7043  _balances[to] += value */\n  dup1\n  sload\n  dup3\n  add\n  swap1\n  sstore\n    /* \"@openzeppelin/contracts/token/ERC20/ERC20.sol\":6643:7068  if (to == address(0)) {... */\ntag_49:\n    /* \"@openzeppelin/contracts/token/ERC20/ERC20.sol\":7098:7100  to */\n  dup2\n  sub(shl(0xa0, 0x01), 0x01)\n    /* \"@openzeppelin/contracts/token/ERC20/ERC20.sol\":7083:7108  Transfer(from, to, value) */\n  and\n    /* \"@openzeppelin/contracts/token/ERC20/ERC20.sol\":7092:7096  from */\n  dup4\n  sub(shl(0xa0, 0x01), 0x01)\n    /* \"@openzeppelin/contracts/token/ERC20/ERC20.sol\":7083:7108  Transfer(from, to, value) */\n  and\n  0xddf252ad1be2c89b69c2b068fc378daa952ba7f163c4a11628f55a4df523b3ef\n    /* \"@openzeppelin/contracts/token/ERC20/ERC20.sol\":7102:7107  value */\n  dup4\n    /* \"@openzeppelin/contracts/token/ERC20/ERC20.sol\":7083:7108  Transfer(from, to, value) */\n  mload(0x40)\n  tag_50\n  swap2\n    /* \"#utility.yul\":5484:5509   */\n  dup2\n  mstore\n    /* \"#utility.yul\":5472:5474   */\n  0x20\n    /* \"#utility.yul\":5457:5475   */\n  add\n  swap1\n    /* \"#utility.yul\":5338:5515   */\n  jump\n    /* \"@openzeppelin/contracts/token/ERC20/ERC20.sol\":7083:7108  Transfer(from, to, value) */\ntag_50:\n  mload(0x40)\n  dup1\n  swap2\n  sub\n  swap1\n  log3\n    /* \"@openzeppelin/contracts/token/ERC20/ERC20.sol\":6008:7115  function _update(address from, address to, uint256 value) internal virtual {... */\n  pop\n  pop\n  pop\n  jump\t// out\n    /* \"#utility.yul\":14:646   */\ntag_3:\n    /* \"#utility.yul\":111:117   */\n  0x00\n    /* \"#utility.yul\":119:125   */\n  0x00\n    /* \"#utility.yul\":127:133   */\n  0x00\n    /* \"#utility.yul\":135:141   */\n  0x00\n    /* \"#utility.yul\":188:191   */\n  0x80\n    /* \"#utility.yul\":176:185   */\n  dup6\n    /* \"#utility.yul\":167:174   */\n  dup8\n    /* \"#utility.yul\":163:186   */\n  sub\n    /* \"#utility.yul\":159:192   */\n  slt\n    /* \"#utility.yul\":156:209   */\n  iszero\n  tag_60\n  jumpi\n    /* \"#utility.yul\":205:206   */\n  0x00\n    /* \"#utility.yul\":202:203   */\n  0x00\n    /* \"#utility.yul\":195:207   */\n  revert\n    /* \"#utility.yul\":156:209   */\ntag_60:\n    /* \"#utility.yul\":250:266   */\n  dup5\n  mload\n    /* \"#utility.yul\":335:337   */\n  0x20\n    /* \"#utility.yul\":320:338   */\n  dup7\n  add\n    /* \"#utility.yul\":314:339   */\n  mload\n    /* \"#utility.yul\":250:266   */\n  swap1\n  swap5\n  pop\n  sub(shl(0xa0, 0x01), 0x01)\n    /* \"#utility.yul\":370:403   */\n  dup2\n  and\n    /* \"#utility.yul\":358:404   */\n  dup2\n  eq\n    /* \"#utility.yul\":348:422   */\n  tag_61\n  jumpi\n    /* \"#utility.yul\":418:419   */\n  0x00\n    /* \"#utility.yul\":415:416   */\n  0x00\n    /* \"#utility.yul\":408:420   */\n  revert\n    /* \"#utility.yul\":348:422   */\ntag_61:\n    /* \"#utility.yul\":514:516   */\n  0x40\n    /* \"#utility.yul\":499:517   */\n  dup7\n  add\n    /* \"#utility.yul\":493:518   */\n  mload\n    /* \"#utility.yul\":610:612   */\n  0x60\n    /* \"#utility.yul\":595:613   */\n  swap1\n  swap7\n  add\n    /* \"#utility.yul\":589:614   */\n  mload\n    /* \"#utility.yul\":14:646   */\n  swap5\n  swap8\n    /* \"#utility.yul\":441:448   */\n  swap1\n  swap7\n  pop\n    /* \"#utility.yul\":14:646   */\n  swap3\n  pop\n  pop\n  pop\n  jump\t// out\n    /* \"#utility.yul\":651:778   */\ntag_52:\n    /* \"#utility.yul\":712:722   */\n  0x4e487b71\n    /* \"#utility.yul\":707:710   */\n  0xe0\n    /* \"#utility.yul\":703:723   */\n  shl\n    /* \"#utility.yul\":700:701   */\n  0x00\n    /* \"#utility.yul\":693:724   */\n  mstore\n    /* \"#utility.yul\":743:747   */\n  0x41\n    /* \"#utility.yul\":740:741   */\n  0x04\n    /* \"#utility.yul\":733:748   */\n  mstore\n    /* \"#utility.yul\":767:771   */\n  0x24\n    /* \"#utility.yul\":764:765   */\n  0x00\n    /* \"#utility.yul\":757:772   */\n  revert\n    /* \"#utility.yul\":783:1163   */\ntag_53:\n    /* \"#utility.yul\":862:863   */\n  0x01\n    /* \"#utility.yul\":858:870   */\n  dup2\n  dup2\n  shr\n  swap1\n    /* \"#utility.yul\":905:917   */\n  dup3\n  and\n  dup1\n    /* \"#utility.yul\":926:987   */\n  tag_64\n  jumpi\n    /* \"#utility.yul\":980:984   */\n  0x7f\n    /* \"#utility.yul\":972:978   */\n  dup3\n    /* \"#utility.yul\":968:985   */\n  and\n    /* \"#utility.yul\":958:985   */\n  swap2\n  pop\n    /* \"#utility.yul\":926:987   */\ntag_64:\n    /* \"#utility.yul\":1033:1035   */\n  0x20\n    /* \"#utility.yul\":1025:1031   */\n  dup3\n    /* \"#utility.yul\":1022:1036   */\n  lt\n    /* \"#utility.yul\":1002:1020   */\n  dup2\n    /* \"#utility.yul\":999:1037   */\n  sub\n    /* \"#utility.yul\":996:1157   */\n  tag_65\n  jumpi\n    /* \"#utility.yul\":1079:1089   */\n  0x4e487b71\n    /* \"#utility.yul\":1074:1077   */\n  0xe0\n    /* \"#utility.yul\":1070:1090   */\n  shl\n    /* \"#utility.yul\":1067:1068   */\n  0x00\n    /* \"#utility.yul\":1060:1091   */\n  mstore\n    /* \"#utility.yul\":1114:1118   */\n  0x22\n    /* \"#utility.yul\":1111:1112   */\n  0x04\n    /* \"#utility.yul\":1104:1119   */\n  mstore\n    /* \"#utility.yul\":1142:1146   */\n  0x24\n    /* \"#utility.yul\":1139:1140   */\n  0x00\n    /* \"#utility.yul\":1132:1147   */\n  revert\n    /* \"#utility.yul\":996:1157   */\ntag_65:\n  pop\n    /* \"#utility.yul\":783:1163   */\n  swap2\n  swap1\n  pop\n  jump\t// out\n    /* \"#utility.yul\":1294:1812   */\ntag_55:\n    /* \"#utility.yul\":1396:1398   */\n  0x1f\n    /* \"#utility.yul\":1391:1394   */\n  dup3\n    /* \"#utility.yul\":1388:1399   */\n  gt\n    /* \"#utility.yul\":1385:1806   */\n  iszero\n  tag_68\n  jumpi\n    /* \"#utility.yul\":1432:1437   */\n  dup1\n    /* \"#utility.yul\":1429:1430   */\n  0x00\n    /* \"#utility.yul\":1422:1438   */\n  mstore\n    /* \"#utility.yul\":1476:1480   */\n  0x20\n    /* \"#utility.yul\":1473:1474   */\n  0x00\n    /* \"#utility.yul\":1463:1481   */\n  keccak256\n    /* \"#utility.yul\":1546:1548   */\n  0x1f\n    /* \"#utility.yul\":1534:1544   */\n  dup5\n    /* \"#utility.yul\":1530:1549   */\n  add\n    /* \"#utility.yul\":1527:1528   */\n  0x05\n    /* \"#utility.yul\":1523:1550   */\n  shr\n    /* \"#utility.yul\":1517:1521   */\n  dup2\n    /* \"#utility.yul\":1513:1551   */\n  add\n    /* \"#utility.yul\":1582:1586   */\n  0x20\n    /* \"#utility.yul\":1570:1580   */\n  dup6\n    /* \"#utility.yul\":1567:1587   */\n  lt\n    /* \"#utility.yul\":1564:1611   */\n  iszero\n  tag_69\n  jumpi\n  pop\n    /* \"#utility.yul\":1605:1609   */\n  dup1\n    /* \"#utility.yul\":1564:1611   */\ntag_69:\n    /* \"#utility.yul\":1660:1662   */\n  0x1f\n    /* \"#utility.yul\":1655:1658   */\n  dup5\n    /* \"#utility.yul\":1651:1663   */\n  add\n    /* \"#utility.yul\":1648:1649   */\n  0x05\n    /* \"#utility.yul\":1644:1664   */\n  shr\n    /* \"#utility.yul\":1638:1642   */\n  dup3\n    /* \"#utility.yul\":1634:1665   */\n  add\n    /* \"#utility.yul\":1624:1665   */\n  swap2\n  pop\n    /* \"#utility.yul\":1715:1796   */\ntag_70:\n    /* \"#utility.yul\":1733:1735   */\n  dup2\n    /* \"#utility.yul\":1726:1731   */\n  dup2\n    /* \"#utility.yul\":1723:1736   */\n  lt\n    /* \"#utility.yul\":1715:1796   */\n  iszero\n  tag_72\n  jumpi\n    /* \"#utility.yul\":1792:1793   */\n  0x00\n    /* \"#utility.yul\":1778:1794   */\n  dup2\n  sstore\n    /* \"#utility.yul\":1759:1760   */\n  0x01\n    /* \"#utility.yul\":1748:1761   */\n  add\n    /* \"#utility.yul\":1715:1796   */\n  jump(tag_70)\ntag_72:\n    /* \"#utility.yul\":1719:1722   */\n  pop\n  pop\n    /* \"#utility.yul\":1385:1806   */\ntag_68:\n    /* \"#utility.yul\":1294:1812   */\n  pop\n  pop\n  pop\n  jump\t// out\n    /* \"#utility.yul\":1988:3287   */\ntag_9:\n    /* \"#utility.yul\":2108:2118   */\n  dup2\n  mload\n  sub(shl(0x40, 0x01), 0x01)\n    /* \"#utility.yul\":2130:2160   */\n  dup2\n  gt\n    /* \"#utility.yul\":2127:2183   */\n  iszero\n  tag_76\n  jumpi\n    /* \"#utility.yul\":2163:2181   */\n  tag_76\n  tag_52\n  jump\t// in\ntag_76:\n    /* \"#utility.yul\":2192:2289   */\n  tag_77\n    /* \"#utility.yul\":2282:2288   */\n  dup2\n    /* \"#utility.yul\":2242:2280   */\n  tag_78\n    /* \"#utility.yul\":2274:2278   */\n  dup5\n    /* \"#utility.yul\":2268:2279   */\n  sload\n    /* \"#utility.yul\":2242:2280   */\n  tag_53\n  jump\t// in\ntag_78:\n    /* \"#utility.yul\":2236:2240   */\n  dup5\n    /* \"#utility.yul\":2192:2289   */\n  tag_55\n  jump\t// in\ntag_77:\n    /* \"#utility.yul\":2338:2342   */\n  0x20\n    /* \"#utility.yul\":2369:2371   */\n  0x1f\n    /* \"#utility.yul\":2358:2372   */\n  dup3\n  gt\n    /* \"#utility.yul\":2386:2387   */\n  0x01\n    /* \"#utility.yul\":2381:3030   */\n  dup2\n  eq\n  tag_80\n  jumpi\n    /* \"#utility.yul\":3074:3075   */\n  0x00\n    /* \"#utility.yul\":3091:3097   */\n  dup4\n    /* \"#utility.yul\":3088:3177   */\n  iszero\n  tag_81\n  jumpi\n  pop\n    /* \"#utility.yul\":3143:3162   */\n  dup5\n  dup3\n  add\n    /* \"#utility.yul\":3137:3163   */\n  mload\n    /* \"#utility.yul\":3088:3177   */\ntag_81:\n  not(0x00)\n    /* \"#utility.yul\":1945:1946   */\n  0x03\n    /* \"#utility.yul\":1941:1952   */\n  dup6\n  swap1\n  shl\n    /* \"#utility.yul\":1937:1961   */\n  shr\n    /* \"#utility.yul\":1933:1962   */\n  not\n    /* \"#utility.yul\":1923:1963   */\n  and\n    /* \"#utility.yul\":1969:1970   */\n  0x01\n    /* \"#utility.yul\":1965:1976   */\n  dup5\n  swap1\n  shl\n    /* \"#utility.yul\":1920:1977   */\n  or\n    /* \"#utility.yul\":3190:3271   */\n  dup5\n  sstore\n    /* \"#utility.yul\":2351:3281   */\n  jump(tag_72)\n    /* \"#utility.yul\":2381:3030   */\ntag_80:\n    /* \"#utility.yul\":1241:1242   */\n  0x00\n    /* \"#utility.yul\":1234:1248   */\n  dup5\n  dup2\n  mstore\n    /* \"#utility.yul\":1278:1282   */\n  0x20\n    /* \"#utility.yul\":1265:1283   */\n  dup2\n  keccak256\n  not(0x1f)\n    /* \"#utility.yul\":2417:2437   */\n  dup6\n  and\n  swap2\n    /* \"#utility.yul\":2535:2757   */\ntag_84:\n    /* \"#utility.yul\":2549:2556   */\n  dup3\n    /* \"#utility.yul\":2546:2547   */\n  dup2\n    /* \"#utility.yul\":2543:2557   */\n  lt\n    /* \"#utility.yul\":2535:2757   */\n  iszero\n  tag_86\n  jumpi\n    /* \"#utility.yul\":2631:2650   */\n  dup8\n  dup6\n  add\n    /* \"#utility.yul\":2625:2651   */\n  mload\n    /* \"#utility.yul\":2610:2652   */\n  dup3\n  sstore\n    /* \"#utility.yul\":2738:2742   */\n  0x20\n    /* \"#utility.yul\":2723:2743   */\n  swap5\n  dup6\n  add\n  swap5\n    /* \"#utility.yul\":2691:2692   */\n  0x01\n    /* \"#utility.yul\":2679:2693   */\n  swap1\n  swap3\n  add\n  swap2\n    /* \"#utility.yul\":2565:2577   */\n  add\n    /* \"#utility.yul\":2535:2757   */\n  jump(tag_84)\ntag_86:\n    /* \"#utility.yul\":2539:2542   */\n  pop\n    /* \"#utility.yul\":2785:2791   */\n  dup5\n    /* \"#utility.yul\":2776:2783   */\n  dup3\n    /* \"#utility.yul\":2773:2792   */\n  lt\n    /* \"#utility.yul\":2770:2971   */\n  iszero\n  tag_87\n  jumpi\n    /* \"#utility.yul\":2846:2865   */\n  dup7\n  dup5\n  add\n    /* \"#utility.yul\":2840:2866   */\n  mload\n  not(0x00)\n    /* \"#utility.yul\":2929:2930   */\n  0x03\n    /* \"#utility.yul\":2925:2939   */\n  dup8\n  swap1\n  shl\n    /* \"#utility.yul\":2941:2944   */\n  0xf8\n    /* \"#utility.yul\":2921:2945   */\n  and\n    /* \"#utility.yul\":2917:2954   */\n  shr\n    /* \"#utility.yul\":2913:2955   */\n  not\n    /* \"#utility.yul\":2898:2956   */\n  and\n    /* \"#utility.yul\":2883:2957   */\n  dup2\n  sstore\n    /* \"#utility.yul\":2770:2971   */\ntag_87:\n  pop\n  pop\n  pop\n  pop\n    /* \"#utility.yul\":3017:3018   */\n  0x01\n    /* \"#utility.yul\":3001:3015   */\n  swap1\n  dup2\n  shl\n    /* \"#utility.yul\":2997:3019   */\n  add\n    /* \"#utility.yul\":2984:3020   */\n  swap1\n  sstore\n  pop\n    /* \"#utility.yul\":1988:3287   */\n  jump\t// out\n    /* \"#utility.yul\":4207:4334   */\ntag_57:\n    /* \"#utility.yul\":4268:4278   */\n  0x4e487b71\n    /* \"#utility.yul\":4263:4266   */\n  0xe0\n    /* \"#utility.yul\":4259:4279   */\n  shl\n    /* \"#utility.yul\":4256:4257   */\n  0x00\n    /* \"#utility.yul\":4249:4280   */\n  mstore\n    /* \"#utility.yul\":4299:4303   */\n  0x11\n    /* \"#utility.yul\":4296:4297   */\n  0x04\n    /* \"#utility.yul\":4289:4304   */\n  mstore\n    /* \"#utility.yul\":4323:4327   */\n  0x24\n    /* \"#utility.yul\":4320:4321   */\n  0x00\n    /* \"#utility.yul\":4313:4328   */\n  revert\n    /* \"#utility.yul\":4339:4507   */\ntag_25:\n    /* \"#utility.yul\":4412:4421   */\n  dup1\n  dup3\n  mul\n    /* \"#utility.yul\":4443:4452   */\n  dup2\n  iszero\n    /* \"#utility.yul\":4460:4475   */\n  dup3\n  dup3\n  div\n    /* \"#utility.yul\":4454:4476   */\n  dup5\n  eq\n    /* \"#utility.yul\":4440:4477   */\n  or\n    /* \"#utility.yul\":4430:4501   */\n  tag_94\n  jumpi\n    /* \"#utility.yul\":4481:4499   */\n  tag_94\n  tag_57\n  jump\t// in\ntag_94:\n    /* \"#utility.yul\":4339:4507   */\n  swap3\n  swap2\n  pop\n  pop\n  jump\t// out\n    /* \"#utility.yul\":4858:4983   */\ntag_43:\n    /* \"#utility.yul\":4923:4932   */\n  dup1\n  dup3\n  add\n    /* \"#utility.yul\":4944:4954   */\n  dup1\n  dup3\n  gt\n    /* \"#utility.yul\":4941:4977   */\n  iszero\n  tag_94\n  jumpi\n    /* \"#utility.yul\":4957:4975   */\n  tag_94\n  tag_57\n  jump\t// in\n    /* \"#utility.yul\":5338:5515   */\ntag_58:\n    /* \"contracts/Cardeiro.sol\":480:4241  contract Cardeiro is ERC20, ERC20Burnable, Ownable{... */\n  dataSize(sub_0)\n  dup1\n  dataOffset(sub_0)\n  0x00\n  codecopy\n  0x00\n  return\nstop\n\nsub_0: assembly {\n        /* \"contracts/Cardeiro.sol\":480:4241  contract Cardeiro is ERC20, ERC20Burnable, Ownable{... */\n      mstore(0x40, 0x80)\n      callvalue\n      dup1\n      iszero\n      tag_1\n      jumpi\n      revert(0x00, 0x00)\n    tag_1:\n      pop\n      jumpi(tag_2, lt(calldatasize, 0x04))\n      shr(0xe0, calldataload(0x00))\n      dup1\n      0x768a4173\n      gt\n      tag_26\n      jumpi\n      dup1\n      0x95d89b41\n      gt\n      tag_27\n      jumpi\n      dup1\n      0x95d89b41\n      eq\n      tag_20\n      jumpi\n      dup1\n      0xa9059cbb\n      eq\n      tag_21\n      jumpi\n      dup1\n      0xbbb0b1a6\n      eq\n      tag_22\n      jumpi\n      dup1\n      0xdd62ed3e\n      eq\n      tag_23\n      jumpi\n      dup1\n      0xed299016\n      eq\n      tag_24\n      jumpi\n      dup1\n      0xf2fde38b\n      eq\n      tag_25\n      jumpi\n      revert(0x00, 0x00)\n    tag_27:\n      dup1\n      0x768a4173\n      eq\n      tag_14\n      jumpi\n      dup1\n      0x79cc6790\n      eq\n      tag_15\n      jumpi\n      dup1\n      0x7e6335f4\n      eq\n      tag_16\n      jumpi\n      dup1\n      0x7f51bb1f\n      eq\n      tag_17\n      jumpi\n      dup1\n      0x8cbb6df7\n      eq\n      tag_18\n      jumpi\n      dup1\n      0x8da5cb5b\n      eq\n      tag_19\n      jumpi\n      revert(0x00, 0x00)\n    tag_26:\n      dup1\n      0x313ce567\n      gt\n      tag_28\n      jumpi\n      dup1\n      0x313ce567\n      eq\n      tag_8\n      jumpi\n      dup1\n      0x42966c68\n      eq\n      tag_9\n      jumpi\n      dup1\n      0x61d027b3\n      eq\n      tag_10\n      jumpi\n      dup1\n      0x6a47aa06\n      eq\n      tag_11\n      jumpi\n      dup1\n      0x70a08231\n      eq\n      tag_12\n      jumpi\n      dup1\n      0x715018a6\n      eq\n      tag_13\n      jumpi\n      revert(0x00, 0x00)\n    tag_28:\n      dup1\n      0x06fdde03\n      eq\n      tag_3\n      jumpi\n      dup1\n      0x095ea7b3\n      eq\n      tag_4\n      jumpi\n      dup1\n      0x102b67ab\n      eq\n      tag_5\n      jumpi\n      dup1\n      0x18160ddd\n      eq\n      tag_6\n      jumpi\n      dup1\n      0x23b872dd\n      eq\n      tag_7\n      jumpi\n    tag_2:\n      revert(0x00, 0x00)\n        /* \"@openzeppelin/contracts/token/ERC20/ERC20.sol\":1779:1868  function name() public view virtual returns (string memory) {... */\n    tag_3:\n      tag_29\n      tag_30\n      jump\t// in\n    tag_29:\n      mload(0x40)\n      tag_31\n      swap2\n      swap1\n      tag_32\n      jump\t// in\n    tag_31:\n      mload(0x40)\n      dup1\n      swap2\n      sub\n      swap1\n      return\n        /* \"@openzeppelin/contracts/token/ERC20/ERC20.sol\":3998:4184  function approve(address spender, uint256 value) public virtual returns (bool) {... */\n    tag_4:\n      tag_33\n      tag_34\n      calldatasize\n      0x04\n      tag_35\n      jump\t// in\n    tag_34:\n      tag_36\n      jump\t// in\n    tag_33:\n      mload(0x40)\n        /* \"#utility.yul\":1085:1099   */\n      swap1\n      iszero\n        /* \"#utility.yul\":1078:1100   */\n      iszero\n        /* \"#utility.yul\":1060:1101   */\n      dup2\n      mstore\n        /* \"#utility.yul\":1048:1050   */\n      0x20\n        /* \"#utility.yul\":1033:1051   */\n      add\n        /* \"@openzeppelin/contracts/token/ERC20/ERC20.sol\":3998:4184  function approve(address spender, uint256 value) public virtual returns (bool) {... */\n      tag_31\n        /* \"#utility.yul\":920:1107   */\n      jump\n        /* \"contracts/Cardeiro.sol\":3632:3810  function getExpectedBurn(uint256 rate) public view returns (uint256) {... */\n    tag_5:\n      tag_39\n      tag_40\n      calldatasize\n      0x04\n      tag_41\n      jump\t// in\n    tag_40:\n      tag_42\n      jump\t// in\n    tag_39:\n      mload(0x40)\n        /* \"#utility.yul\":1489:1514   */\n      swap1\n      dup2\n      mstore\n        /* \"#utility.yul\":1477:1479   */\n      0x20\n        /* \"#utility.yul\":1462:1480   */\n      add\n        /* \"contracts/Cardeiro.sol\":3632:3810  function getExpectedBurn(uint256 rate) public view returns (uint256) {... */\n      tag_31\n        /* \"#utility.yul\":1343:1520   */\n      jump\n        /* \"@openzeppelin/contracts/token/ERC20/ERC20.sol\":2849:2946  function totalSupply() public view virtual returns (uint256) {... */\n    tag_6:\n        /* \"@openzeppelin/contracts/token/ERC20/ERC20.sol\":2927:2939  _totalSupply */\n      sload(0x02)\n        /* \"@openzeppelin/contracts/token/ERC20/ERC20.sol\":2849:2946  function totalSupply() public view virtual returns (uint256) {... */\n      jump(tag_39)\n        /* \"contracts/Cardeiro.sol\":4019:4238  function transferFrom(address from, address to, uint256 amount)... */\n    tag_7:\n      tag_33\n      tag_49\n      calldatasize\n      0x04\n      tag_50\n      jump\t// in\n    tag_49:\n      tag_51\n      jump\t// in\n        /* \"@openzeppelin/contracts/token/ERC20/ERC20.sol\":2707:2789  function decimals() public view virtual returns (uint8) {... */\n    tag_8:\n      mload(0x40)\n        /* \"@openzeppelin/contracts/token/ERC20/ERC20.sol\":2780:2782  18 */\n      0x12\n        /* \"#utility.yul\":2046:2082   */\n      dup2\n      mstore\n        /* \"#utility.yul\":2034:2036   */\n      0x20\n        /* \"#utility.yul\":2019:2037   */\n      add\n        /* \"@openzeppelin/contracts/token/ERC20/ERC20.sol\":2707:2789  function decimals() public view virtual returns (uint8) {... */\n      tag_31\n        /* \"#utility.yul\":1904:2088   */\n      jump\n        /* \"@openzeppelin/contracts/token/ERC20/extensions/ERC20Burnable.sol\":618:705  function burn(uint256 value) public virtual {... */\n    tag_9:\n      tag_57\n      tag_58\n      calldatasize\n      0x04\n      tag_41\n      jump\t// in\n    tag_58:\n      tag_59\n      jump\t// in\n    tag_57:\n      stop\n        /* \"contracts/Cardeiro.sol\":590:613  address public treasury */\n    tag_10:\n      sload(0x06)\n      tag_60\n      swap1\n      sub(shl(0xa0, 0x01), 0x01)\n      and\n      dup2\n      jump\n    tag_60:\n      mload(0x40)\n      sub(shl(0xa0, 0x01), 0x01)\n        /* \"#utility.yul\":2257:2289   */\n      swap1\n      swap2\n      and\n        /* \"#utility.yul\":2239:2290   */\n      dup2\n      mstore\n        /* \"#utility.yul\":2227:2229   */\n      0x20\n        /* \"#utility.yul\":2212:2230   */\n      add\n        /* \"contracts/Cardeiro.sol\":590:613  address public treasury */\n      tag_31\n        /* \"#utility.yul\":2093:2296   */\n      jump\n        /* \"contracts/Cardeiro.sol\":661:691  uint256 public halvingInterval */\n    tag_11:\n      tag_39\n      sload(0x07)\n      dup2\n      jump\n        /* \"@openzeppelin/contracts/token/ERC20/ERC20.sol\":3004:3120  function balanceOf(address account) public view virtual returns (uint256) {... */\n    tag_12:\n      tag_39\n      tag_68\n      calldatasize\n      0x04\n      tag_69\n      jump\t// in\n    tag_68:\n      sub(shl(0xa0, 0x01), 0x01)\n        /* \"@openzeppelin/contracts/token/ERC20/ERC20.sol\":3095:3113  _balances[account] */\n      and\n        /* \"@openzeppelin/contracts/token/ERC20/ERC20.sol\":3069:3076  uint256 */\n      0x00\n        /* \"@openzeppelin/contracts/token/ERC20/ERC20.sol\":3095:3113  _balances[account] */\n      swap1\n      dup2\n      mstore\n      0x20\n      dup2\n      swap1\n      mstore\n      0x40\n      swap1\n      keccak256\n      sload\n      swap1\n        /* \"@openzeppelin/contracts/token/ERC20/ERC20.sol\":3004:3120  function balanceOf(address account) public view virtual returns (uint256) {... */\n      jump\n        /* \"@openzeppelin/contracts/access/Ownable.sol\":2293:2394  function renounceOwnership() public virtual onlyOwner {... */\n    tag_13:\n      tag_57\n      tag_73\n      jump\t// in\n        /* \"contracts/Cardeiro.sol\":2256:2403  function isHalvingDue() public view returns (bool) {... */\n    tag_14:\n      tag_33\n      tag_75\n      jump\t// in\n        /* \"@openzeppelin/contracts/token/ERC20/extensions/ERC20Burnable.sol\":1021:1179  function burnFrom(address account, uint256 value) public virtual {... */\n    tag_15:\n      tag_57\n      tag_78\n      calldatasize\n      0x04\n      tag_35\n      jump\t// in\n    tag_78:\n      tag_79\n      jump\t// in\n        /* \"contracts/Cardeiro.sol\":836:862  uint256 public halvingRate */\n    tag_16:\n      tag_39\n      sload(0x09)\n      dup2\n      jump\n        /* \"contracts/Cardeiro.sol\":3529:3626  function updateTreasury(address _treasury) public onlyOwner {... */\n    tag_17:\n      tag_57\n      tag_84\n      calldatasize\n      0x04\n      tag_69\n      jump\t// in\n    tag_84:\n      tag_85\n      jump\t// in\n        /* \"contracts/Cardeiro.sol\":739:769  uint256 public lastHalvingTime */\n    tag_18:\n      tag_39\n      sload(0x08)\n      dup2\n      jump\n        /* \"@openzeppelin/contracts/access/Ownable.sol\":1638:1723  function owner() public view virtual returns (address) {... */\n    tag_19:\n        /* \"@openzeppelin/contracts/access/Ownable.sol\":1710:1716  _owner */\n      and(sub(shl(0xa0, 0x01), 0x01), sload(0x05))\n        /* \"@openzeppelin/contracts/access/Ownable.sol\":1638:1723  function owner() public view virtual returns (address) {... */\n      jump(tag_60)\n        /* \"@openzeppelin/contracts/token/ERC20/ERC20.sol\":1981:2074  function symbol() public view virtual returns (string memory) {... */\n    tag_20:\n      tag_29\n      tag_93\n      jump\t// in\n        /* \"contracts/Cardeiro.sol\":3816:4013  function transfer(address to, uint256 amount) ... */\n    tag_21:\n      tag_33\n      tag_96\n      calldatasize\n      0x04\n      tag_35\n      jump\t// in\n    tag_96:\n      tag_97\n      jump\t// in\n        /* \"contracts/Cardeiro.sol\":3131:3463  function updateHalvingParams(uint256 _halvingInterval, uint256 _halvingRate) public onlyOwner {... */\n    tag_22:\n      tag_57\n      tag_100\n      calldatasize\n      0x04\n      tag_101\n      jump\t// in\n    tag_100:\n      tag_102\n      jump\t// in\n        /* \"@openzeppelin/contracts/token/ERC20/ERC20.sol\":3551:3691  function allowance(address owner, address spender) public view virtual returns (uint256) {... */\n    tag_23:\n      tag_39\n      tag_104\n      calldatasize\n      0x04\n      tag_105\n      jump\t// in\n    tag_104:\n      sub(shl(0xa0, 0x01), 0x01)\n        /* \"@openzeppelin/contracts/token/ERC20/ERC20.sol\":3657:3675  _allowances[owner] */\n      swap2\n      dup3\n      and\n        /* \"@openzeppelin/contracts/token/ERC20/ERC20.sol\":3631:3638  uint256 */\n      0x00\n        /* \"@openzeppelin/contracts/token/ERC20/ERC20.sol\":3657:3675  _allowances[owner] */\n      swap1\n      dup2\n      mstore\n        /* \"@openzeppelin/contracts/token/ERC20/ERC20.sol\":3657:3668  _allowances */\n      0x01\n        /* \"@openzeppelin/contracts/token/ERC20/ERC20.sol\":3657:3675  _allowances[owner] */\n      0x20\n      swap1\n      dup2\n      mstore\n      0x40\n      dup1\n      dup4\n      keccak256\n        /* \"@openzeppelin/contracts/token/ERC20/ERC20.sol\":3657:3684  _allowances[owner][spender] */\n      swap4\n      swap1\n      swap5\n      and\n      dup3\n      mstore\n      swap2\n      swap1\n      swap2\n      mstore\n      keccak256\n      sload\n      swap1\n        /* \"@openzeppelin/contracts/token/ERC20/ERC20.sol\":3551:3691  function allowance(address owner, address spender) public view virtual returns (uint256) {... */\n      jump\n        /* \"contracts/Cardeiro.sol\":2475:3063  function executeHalving() public {... */\n    tag_24:\n      tag_57\n      tag_109\n      jump\t// in\n        /* \"@openzeppelin/contracts/access/Ownable.sol\":2543:2758  function transferOwnership(address newOwner) public virtual onlyOwner {... */\n    tag_25:\n      tag_57\n      tag_111\n      calldatasize\n      0x04\n      tag_69\n      jump\t// in\n    tag_111:\n      tag_112\n      jump\t// in\n        /* \"@openzeppelin/contracts/token/ERC20/ERC20.sol\":1779:1868  function name() public view virtual returns (string memory) {... */\n    tag_30:\n        /* \"@openzeppelin/contracts/token/ERC20/ERC20.sol\":1824:1837  string memory */\n      0x60\n        /* \"@openzeppelin/contracts/token/ERC20/ERC20.sol\":1856:1861  _name */\n      0x03\n        /* \"@openzeppelin/contracts/token/ERC20/ERC20.sol\":1849:1861  return _name */\n      dup1\n      sload\n      tag_114\n      swap1\n      tag_115\n      jump\t// in\n    tag_114:\n      dup1\n      0x1f\n      add\n      0x20\n      dup1\n      swap2\n      div\n      mul\n      0x20\n      add\n      mload(0x40)\n      swap1\n      dup2\n      add\n      0x40\n      mstore\n      dup1\n      swap3\n      swap2\n      swap1\n      dup2\n      dup2\n      mstore\n      0x20\n      add\n      dup3\n      dup1\n      sload\n      tag_116\n      swap1\n      tag_115\n      jump\t// in\n    tag_116:\n      dup1\n      iszero\n      tag_117\n      jumpi\n      dup1\n      0x1f\n      lt\n      tag_118\n      jumpi\n      0x0100\n      dup1\n      dup4\n      sload\n      div\n      mul\n      dup4\n      mstore\n      swap2\n      0x20\n      add\n      swap2\n      jump(tag_117)\n    tag_118:\n      dup3\n      add\n      swap2\n      swap1\n      0x00\n      mstore\n      keccak256(0x00, 0x20)\n      swap1\n    tag_119:\n      dup2\n      sload\n      dup2\n      mstore\n      swap1\n      0x01\n      add\n      swap1\n      0x20\n      add\n      dup1\n      dup4\n      gt\n      tag_119\n      jumpi\n      dup3\n      swap1\n      sub\n      0x1f\n      and\n      dup3\n      add\n      swap2\n    tag_117:\n      pop\n      pop\n      pop\n      pop\n      pop\n      swap1\n      pop\n        /* \"@openzeppelin/contracts/token/ERC20/ERC20.sol\":1779:1868  function name() public view virtual returns (string memory) {... */\n      swap1\n      jump\t// out\n        /* \"@openzeppelin/contracts/token/ERC20/ERC20.sol\":3998:4184  function approve(address spender, uint256 value) public virtual returns (bool) {... */\n    tag_36:\n        /* \"@openzeppelin/contracts/token/ERC20/ERC20.sol\":4071:4075  bool */\n      0x00\n        /* \"@openzeppelin/contracts/utils/Context.sol\":735:745  msg.sender */\n      caller\n        /* \"@openzeppelin/contracts/token/ERC20/ERC20.sol\":4125:4156  _approve(owner, spender, value) */\n      tag_123\n        /* \"@openzeppelin/contracts/utils/Context.sol\":735:745  msg.sender */\n      dup2\n        /* \"@openzeppelin/contracts/token/ERC20/ERC20.sol\":4141:4148  spender */\n      dup6\n        /* \"@openzeppelin/contracts/token/ERC20/ERC20.sol\":4150:4155  value */\n      dup6\n        /* \"@openzeppelin/contracts/token/ERC20/ERC20.sol\":4125:4133  _approve */\n      tag_124\n        /* \"@openzeppelin/contracts/token/ERC20/ERC20.sol\":4125:4156  _approve(owner, spender, value) */\n      jump\t// in\n    tag_123:\n        /* \"@openzeppelin/contracts/token/ERC20/ERC20.sol\":4173:4177  true */\n      0x01\n        /* \"@openzeppelin/contracts/token/ERC20/ERC20.sol\":4166:4177  return true */\n      swap2\n      pop\n      pop\n        /* \"@openzeppelin/contracts/token/ERC20/ERC20.sol\":3998:4184  function approve(address spender, uint256 value) public virtual returns (bool) {... */\n    tag_120:\n      swap3\n      swap2\n      pop\n      pop\n      jump\t// out\n        /* \"contracts/Cardeiro.sol\":3632:3810  function getExpectedBurn(uint256 rate) public view returns (uint256) {... */\n    tag_42:\n        /* \"contracts/Cardeiro.sol\":3747:3755  treasury */\n      and(sub(shl(0xa0, 0x01), 0x01), sload(0x06))\n        /* \"contracts/Cardeiro.sol\":3692:3699  uint256 */\n      0x00\n        /* \"@openzeppelin/contracts/token/ERC20/ERC20.sol\":3095:3113  _balances[account] */\n      swap1\n      dup2\n      mstore\n      0x20\n      dup2\n      swap1\n      mstore\n      0x40\n      dup2\n      keccak256\n      sload\n        /* \"contracts/Cardeiro.sol\":3800:3803  100 */\n      0x64\n        /* \"contracts/Cardeiro.sol\":3774:3796  treasuryBalance * rate */\n      tag_127\n        /* \"contracts/Cardeiro.sol\":3792:3796  rate */\n      dup5\n        /* \"contracts/Cardeiro.sol\":3711:3756  uint256 treasuryBalance = balanceOf(treasury) */\n      dup4\n        /* \"contracts/Cardeiro.sol\":3774:3796  treasuryBalance * rate */\n      tag_128\n      jump\t// in\n    tag_127:\n        /* \"contracts/Cardeiro.sol\":3773:3803  (treasuryBalance * rate) / 100 */\n      tag_129\n      swap2\n      swap1\n      tag_130\n      jump\t// in\n    tag_129:\n        /* \"contracts/Cardeiro.sol\":3766:3803  return (treasuryBalance * rate) / 100 */\n      swap4\n        /* \"contracts/Cardeiro.sol\":3632:3810  function getExpectedBurn(uint256 rate) public view returns (uint256) {... */\n      swap3\n      pop\n      pop\n      pop\n      jump\t// out\n        /* \"contracts/Cardeiro.sol\":4019:4238  function transferFrom(address from, address to, uint256 amount)... */\n    tag_51:\n        /* \"contracts/Cardeiro.sol\":4168:4172  bool */\n      0x00\n        /* \"contracts/Cardeiro.sol\":1489:1503  isHalvingDue() */\n      tag_133\n        /* \"contracts/Cardeiro.sol\":1489:1501  isHalvingDue */\n      tag_75\n        /* \"contracts/Cardeiro.sol\":1489:1503  isHalvingDue() */\n      jump\t// in\n    tag_133:\n        /* \"contracts/Cardeiro.sol\":1485:1546  if (isHalvingDue()) {... */\n      iszero\n      tag_135\n      jumpi\n        /* \"contracts/Cardeiro.sol\":1519:1535  executeHalving() */\n      tag_135\n        /* \"contracts/Cardeiro.sol\":1519:1533  executeHalving */\n      tag_109\n        /* \"contracts/Cardeiro.sol\":1519:1535  executeHalving() */\n      jump\t// in\n    tag_135:\n        /* \"contracts/Cardeiro.sol\":4195:4231  super.transferFrom(from, to, amount) */\n      tag_137\n        /* \"contracts/Cardeiro.sol\":4214:4218  from */\n      dup5\n        /* \"contracts/Cardeiro.sol\":4220:4222  to */\n      dup5\n        /* \"contracts/Cardeiro.sol\":4224:4230  amount */\n      dup5\n        /* \"contracts/Cardeiro.sol\":4195:4213  super.transferFrom */\n      tag_138\n        /* \"contracts/Cardeiro.sol\":4195:4231  super.transferFrom(from, to, amount) */\n      jump\t// in\n    tag_137:\n        /* \"contracts/Cardeiro.sol\":4188:4231  return super.transferFrom(from, to, amount) */\n      swap5\n        /* \"contracts/Cardeiro.sol\":4019:4238  function transferFrom(address from, address to, uint256 amount)... */\n      swap4\n      pop\n      pop\n      pop\n      pop\n      jump\t// out\n        /* \"@openzeppelin/contracts/token/ERC20/extensions/ERC20Burnable.sol\":618:705  function burn(uint256 value) public virtual {... */\n    tag_59:\n        /* \"@openzeppelin/contracts/token/ERC20/extensions/ERC20Burnable.sol\":672:698  _burn(_msgSender(), value) */\n      tag_141\n        /* \"@openzeppelin/contracts/utils/Context.sol\":735:745  msg.sender */\n      caller\n        /* \"@openzeppelin/contracts/token/ERC20/extensions/ERC20Burnable.sol\":692:697  value */\n      dup3\n        /* \"@openzeppelin/contracts/token/ERC20/extensions/ERC20Burnable.sol\":672:677  _burn */\n      tag_143\n        /* \"@openzeppelin/contracts/token/ERC20/extensions/ERC20Burnable.sol\":672:698  _burn(_msgSender(), value) */\n      jump\t// in\n    tag_141:\n        /* \"@openzeppelin/contracts/token/ERC20/extensions/ERC20Burnable.sol\":618:705  function burn(uint256 value) public virtual {... */\n      pop\n      jump\t// out\n        /* \"@openzeppelin/contracts/access/Ownable.sol\":2293:2394  function renounceOwnership() public virtual onlyOwner {... */\n    tag_73:\n        /* \"@openzeppelin/contracts/access/Ownable.sol\":1531:1544  _checkOwner() */\n      tag_146\n        /* \"@openzeppelin/contracts/access/Ownable.sol\":1531:1542  _checkOwner */\n      tag_147\n        /* \"@openzeppelin/contracts/access/Ownable.sol\":1531:1544  _checkOwner() */\n      jump\t// in\n    tag_146:\n        /* \"@openzeppelin/contracts/access/Ownable.sol\":2357:2387  _transferOwnership(address(0)) */\n      tag_149\n        /* \"@openzeppelin/contracts/access/Ownable.sol\":2384:2385  0 */\n      0x00\n        /* \"@openzeppelin/contracts/access/Ownable.sol\":2357:2375  _transferOwnership */\n      tag_150\n        /* \"@openzeppelin/contracts/access/Ownable.sol\":2357:2387  _transferOwnership(address(0)) */\n      jump\t// in\n    tag_149:\n        /* \"@openzeppelin/contracts/access/Ownable.sol\":2293:2394  function renounceOwnership() public virtual onlyOwner {... */\n      jump\t// out\n        /* \"contracts/Cardeiro.sol\":2256:2403  function isHalvingDue() public view returns (bool) {... */\n    tag_75:\n        /* \"contracts/Cardeiro.sol\":2301:2305  bool */\n      0x00\n        /* \"contracts/Cardeiro.sol\":1335:1339  1800 */\n      0x0708\n        /* \"contracts/Cardeiro.sol\":2362:2377  halvingInterval */\n      sload(0x07)\n        /* \"contracts/Cardeiro.sol\":2344:2359  lastHalvingTime */\n      sload(0x08)\n        /* \"contracts/Cardeiro.sol\":2344:2377  lastHalvingTime + halvingInterval */\n      tag_152\n      swap2\n      swap1\n      tag_153\n      jump\t// in\n    tag_152:\n        /* \"contracts/Cardeiro.sol\":2344:2395  lastHalvingTime + halvingInterval + SECURITY_MARGIN */\n      tag_154\n      swap2\n      swap1\n      tag_153\n      jump\t// in\n    tag_154:\n        /* \"contracts/Cardeiro.sol\":2324:2339  block.timestamp */\n      timestamp\n        /* \"contracts/Cardeiro.sol\":2324:2396  block.timestamp >= (lastHalvingTime + halvingInterval + SECURITY_MARGIN) */\n      lt\n      iszero\n        /* \"contracts/Cardeiro.sol\":2317:2396  return block.timestamp >= (lastHalvingTime + halvingInterval + SECURITY_MARGIN) */\n      swap1\n      pop\n        /* \"contracts/Cardeiro.sol\":2256:2403  function isHalvingDue() public view returns (bool) {... */\n      swap1\n      jump\t// out\n        /* \"@openzeppelin/contracts/token/ERC20/extensions/ERC20Burnable.sol\":1021:1179  function burnFrom(address account, uint256 value) public virtual {... */\n    tag_79:\n        /* \"@openzeppelin/contracts/token/ERC20/extensions/ERC20Burnable.sol\":1096:1141  _spendAllowance(account, _msgSender(), value) */\n      tag_156\n        /* \"@openzeppelin/contracts/token/ERC20/extensions/ERC20Burnable.sol\":1112:1119  account */\n      dup3\n        /* \"@openzeppelin/contracts/utils/Context.sol\":735:745  msg.sender */\n      caller\n        /* \"@openzeppelin/contracts/token/ERC20/extensions/ERC20Burnable.sol\":1135:1140  value */\n      dup4\n        /* \"@openzeppelin/contracts/token/ERC20/extensions/ERC20Burnable.sol\":1096:1111  _spendAllowance */\n      tag_158\n        /* \"@openzeppelin/contracts/token/ERC20/extensions/ERC20Burnable.sol\":1096:1141  _spendAllowance(account, _msgSender(), value) */\n      jump\t// in\n    tag_156:\n        /* \"@openzeppelin/contracts/token/ERC20/extensions/ERC20Burnable.sol\":1151:1172  _burn(account, value) */\n      tag_159\n        /* \"@openzeppelin/contracts/token/ERC20/extensions/ERC20Burnable.sol\":1157:1164  account */\n      dup3\n        /* \"@openzeppelin/contracts/token/ERC20/extensions/ERC20Burnable.sol\":1166:1171  value */\n      dup3\n        /* \"@openzeppelin/contracts/token/ERC20/extensions/ERC20Burnable.sol\":1151:1156  _burn */\n      tag_143\n        /* \"@openzeppelin/contracts/token/ERC20/extensions/ERC20Burnable.sol\":1151:1172  _burn(account, value) */\n      jump\t// in\n    tag_159:\n        /* \"@openzeppelin/contracts/token/ERC20/extensions/ERC20Burnable.sol\":1021:1179  function burnFrom(address account, uint256 value) public virtual {... */\n      pop\n      pop\n      jump\t// out\n        /* \"contracts/Cardeiro.sol\":3529:3626  function updateTreasury(address _treasury) public onlyOwner {... */\n    tag_85:\n        /* \"@openzeppelin/contracts/access/Ownable.sol\":1531:1544  _checkOwner() */\n      tag_161\n        /* \"@openzeppelin/contracts/access/Ownable.sol\":1531:1542  _checkOwner */\n      tag_147\n        /* \"@openzeppelin/contracts/access/Ownable.sol\":1531:1544  _checkOwner() */\n      jump\t// in\n    tag_161:\n        /* \"contracts/Cardeiro.sol\":3599:3607  treasury */\n      0x06\n        /* \"contracts/Cardeiro.sol\":3599:3619  treasury = _treasury */\n      dup1\n      sload\n      not(sub(shl(0xa0, 0x01), 0x01))\n      and\n      sub(shl(0xa0, 0x01), 0x01)\n      swap3\n      swap1\n      swap3\n      and\n      swap2\n      swap1\n      swap2\n      or\n      swap1\n      sstore\n        /* \"contracts/Cardeiro.sol\":3529:3626  function updateTreasury(address _treasury) public onlyOwner {... */\n      jump\t// out\n        /* \"@openzeppelin/contracts/token/ERC20/ERC20.sol\":1981:2074  function symbol() public view virtual returns (string memory) {... */\n    tag_93:\n        /* \"@openzeppelin/contracts/token/ERC20/ERC20.sol\":2028:2041  string memory */\n      0x60\n        /* \"@openzeppelin/contracts/token/ERC20/ERC20.sol\":2060:2067  _symbol */\n      0x04\n        /* \"@openzeppelin/contracts/token/ERC20/ERC20.sol\":2053:2067  return _symbol */\n      dup1\n      sload\n      tag_114\n      swap1\n      tag_115\n      jump\t// in\n        /* \"contracts/Cardeiro.sol\":3816:4013  function transfer(address to, uint256 amount) ... */\n    tag_97:\n        /* \"contracts/Cardeiro.sol\":3952:3956  bool */\n      0x00\n        /* \"contracts/Cardeiro.sol\":1489:1503  isHalvingDue() */\n      tag_171\n        /* \"contracts/Cardeiro.sol\":1489:1501  isHalvingDue */\n      tag_75\n        /* \"contracts/Cardeiro.sol\":1489:1503  isHalvingDue() */\n      jump\t// in\n    tag_171:\n        /* \"contracts/Cardeiro.sol\":1485:1546  if (isHalvingDue()) {... */\n      iszero\n      tag_173\n      jumpi\n        /* \"contracts/Cardeiro.sol\":1519:1535  executeHalving() */\n      tag_173\n        /* \"contracts/Cardeiro.sol\":1519:1533  executeHalving */\n      tag_109\n        /* \"contracts/Cardeiro.sol\":1519:1535  executeHalving() */\n      jump\t// in\n    tag_173:\n        /* \"contracts/Cardeiro.sol\":3980:4006  super.transfer(to, amount) */\n      tag_129\n        /* \"contracts/Cardeiro.sol\":3995:3997  to */\n      dup4\n        /* \"contracts/Cardeiro.sol\":3999:4005  amount */\n      dup4\n        /* \"contracts/Cardeiro.sol\":3980:3994  super.transfer */\n      tag_176\n        /* \"contracts/Cardeiro.sol\":3980:4006  super.transfer(to, amount) */\n      jump\t// in\n        /* \"contracts/Cardeiro.sol\":3131:3463  function updateHalvingParams(uint256 _halvingInterval, uint256 _halvingRate) public onlyOwner {... */\n    tag_102:\n        /* \"@openzeppelin/contracts/access/Ownable.sol\":1531:1544  _checkOwner() */\n      tag_178\n        /* \"@openzeppelin/contracts/access/Ownable.sol\":1531:1542  _checkOwner */\n      tag_147\n        /* \"@openzeppelin/contracts/access/Ownable.sol\":1531:1544  _checkOwner() */\n      jump\t// in\n    tag_178:\n        /* \"contracts/Cardeiro.sol\":913:914  5 */\n      0x05\n        /* \"contracts/Cardeiro.sol\":3243:3255  _halvingRate */\n      dup2\n        /* \"contracts/Cardeiro.sol\":3243:3275  _halvingRate >= MIN_HALVING_RATE */\n      lt\n      iszero\n        /* \"contracts/Cardeiro.sol\":3235:3300  require(_halvingRate >= MIN_HALVING_RATE, \"Halving rate too low\") */\n      tag_180\n      jumpi\n      mload(0x40)\n      shl(0xe5, 0x461bcd)\n      dup2\n      mstore\n        /* \"#utility.yul\":4352:4354   */\n      0x20\n        /* \"contracts/Cardeiro.sol\":3235:3300  require(_halvingRate >= MIN_HALVING_RATE, \"Halving rate too low\") */\n      0x04\n      dup3\n      add\n        /* \"#utility.yul\":4334:4355   */\n      mstore\n        /* \"#utility.yul\":4391:4393   */\n      0x14\n        /* \"#utility.yul\":4371:4389   */\n      0x24\n      dup3\n      add\n        /* \"#utility.yul\":4364:4394   */\n      mstore\n      shl(0x60, 0x48616c76696e67207261746520746f6f206c6f77)\n        /* \"#utility.yul\":4410:4428   */\n      0x44\n      dup3\n      add\n        /* \"#utility.yul\":4403:4453   */\n      mstore\n        /* \"#utility.yul\":4470:4488   */\n      0x64\n      add\n        /* \"contracts/Cardeiro.sol\":3235:3300  require(_halvingRate >= MIN_HALVING_RATE, \"Halving rate too low\") */\n    tag_181:\n      mload(0x40)\n      dup1\n      swap2\n      sub\n      swap1\n      revert\n    tag_180:\n        /* \"contracts/Cardeiro.sol\":971:973  20 */\n      0x14\n        /* \"contracts/Cardeiro.sol\":3318:3330  _halvingRate */\n      dup2\n        /* \"contracts/Cardeiro.sol\":3318:3350  _halvingRate <= MAX_HALVING_RATE */\n      gt\n      iszero\n        /* \"contracts/Cardeiro.sol\":3310:3376  require(_halvingRate <= MAX_HALVING_RATE, \"Halving rate too high\") */\n      tag_183\n      jumpi\n      mload(0x40)\n      shl(0xe5, 0x461bcd)\n      dup2\n      mstore\n        /* \"#utility.yul\":4701:4703   */\n      0x20\n        /* \"contracts/Cardeiro.sol\":3310:3376  require(_halvingRate <= MAX_HALVING_RATE, \"Halving rate too high\") */\n      0x04\n      dup3\n      add\n        /* \"#utility.yul\":4683:4704   */\n      mstore\n        /* \"#utility.yul\":4740:4742   */\n      0x15\n        /* \"#utility.yul\":4720:4738   */\n      0x24\n      dup3\n      add\n        /* \"#utility.yul\":4713:4743   */\n      mstore\n      shl(0x5b, 0x090c2d8ecd2dcce40e4c2e8ca40e8dede40d0d2ced)\n        /* \"#utility.yul\":4759:4777   */\n      0x44\n      dup3\n      add\n        /* \"#utility.yul\":4752:4803   */\n      mstore\n        /* \"#utility.yul\":4820:4838   */\n      0x64\n      add\n        /* \"contracts/Cardeiro.sol\":3310:3376  require(_halvingRate <= MAX_HALVING_RATE, \"Halving rate too high\") */\n      tag_181\n        /* \"#utility.yul\":4499:4844   */\n      jump\n        /* \"contracts/Cardeiro.sol\":3310:3376  require(_halvingRate <= MAX_HALVING_RATE, \"Halving rate too high\") */\n    tag_183:\n        /* \"contracts/Cardeiro.sol\":3386:3401  halvingInterval */\n      0x07\n        /* \"contracts/Cardeiro.sol\":3386:3420  halvingInterval = _halvingInterval */\n      swap2\n      swap1\n      swap2\n      sstore\n        /* \"contracts/Cardeiro.sol\":3430:3441  halvingRate */\n      0x09\n        /* \"contracts/Cardeiro.sol\":3430:3456  halvingRate = _halvingRate */\n      sstore\n        /* \"contracts/Cardeiro.sol\":3131:3463  function updateHalvingParams(uint256 _halvingInterval, uint256 _halvingRate) public onlyOwner {... */\n      jump\t// out\n        /* \"contracts/Cardeiro.sol\":2475:3063  function executeHalving() public {... */\n    tag_109:\n        /* \"contracts/Cardeiro.sol\":2526:2540  isHalvingDue() */\n      tag_188\n        /* \"contracts/Cardeiro.sol\":2526:2538  isHalvingDue */\n      tag_75\n        /* \"contracts/Cardeiro.sol\":2526:2540  isHalvingDue() */\n      jump\t// in\n    tag_188:\n        /* \"contracts/Cardeiro.sol\":2518:2573  require(isHalvingDue(), \"Halving interval not reached\") */\n      tag_189\n      jumpi\n      mload(0x40)\n      shl(0xe5, 0x461bcd)\n      dup2\n      mstore\n        /* \"#utility.yul\":5051:5053   */\n      0x20\n        /* \"contracts/Cardeiro.sol\":2518:2573  require(isHalvingDue(), \"Halving interval not reached\") */\n      0x04\n      dup3\n      add\n        /* \"#utility.yul\":5033:5054   */\n      mstore\n        /* \"#utility.yul\":5090:5092   */\n      0x1c\n        /* \"#utility.yul\":5070:5088   */\n      0x24\n      dup3\n      add\n        /* \"#utility.yul\":5063:5093   */\n      mstore\n        /* \"#utility.yul\":5129:5159   */\n      0x48616c76696e6720696e74657276616c206e6f74207265616368656400000000\n        /* \"#utility.yul\":5109:5127   */\n      0x44\n      dup3\n      add\n        /* \"#utility.yul\":5102:5160   */\n      mstore\n        /* \"#utility.yul\":5177:5195   */\n      0x64\n      add\n        /* \"contracts/Cardeiro.sol\":2518:2573  require(isHalvingDue(), \"Halving interval not reached\") */\n      tag_181\n        /* \"#utility.yul\":4849:5201   */\n      jump\n        /* \"contracts/Cardeiro.sol\":2518:2573  require(isHalvingDue(), \"Halving interval not reached\") */\n    tag_189:\n        /* \"contracts/Cardeiro.sol\":2628:2636  treasury */\n      and(sub(shl(0xa0, 0x01), 0x01), sload(0x06))\n        /* \"contracts/Cardeiro.sol\":2592:2615  uint256 treasuryBalance */\n      0x00\n        /* \"@openzeppelin/contracts/token/ERC20/ERC20.sol\":3095:3113  _balances[account] */\n      swap1\n      dup2\n      mstore\n      0x20\n      dup2\n      swap1\n      mstore\n      0x40\n      dup2\n      keccak256\n      sload\n        /* \"contracts/Cardeiro.sol\":2592:2637  uint256 treasuryBalance = balanceOf(treasury) */\n      swap1\n      pop\n        /* \"contracts/Cardeiro.sol\":2647:2665  uint256 burnAmount */\n      0x00\n        /* \"contracts/Cardeiro.sol\":2702:2705  100 */\n      0x64\n        /* \"contracts/Cardeiro.sol\":2687:2698  halvingRate */\n      sload(0x09)\n        /* \"contracts/Cardeiro.sol\":2669:2684  treasuryBalance */\n      dup4\n        /* \"contracts/Cardeiro.sol\":2669:2698  treasuryBalance * halvingRate */\n      tag_193\n      swap2\n      swap1\n      tag_128\n      jump\t// in\n    tag_193:\n        /* \"contracts/Cardeiro.sol\":2668:2705  (treasuryBalance * halvingRate) / 100 */\n      tag_194\n      swap2\n      swap1\n      tag_130\n      jump\t// in\n    tag_194:\n        /* \"contracts/Cardeiro.sol\":2647:2705  uint256 burnAmount = (treasuryBalance * halvingRate) / 100 */\n      swap1\n      pop\n        /* \"contracts/Cardeiro.sol\":2728:2742  burnAmount > 0 */\n      dup1\n      iszero\n        /* \"contracts/Cardeiro.sol\":2724:3057  if (burnAmount > 0) {... */\n      tag_159\n      jumpi\n        /* \"contracts/Cardeiro.sol\":2805:2813  treasury */\n      sload(0x06)\n        /* \"contracts/Cardeiro.sol\":2799:2826  _burn(treasury, burnAmount) */\n      tag_196\n      swap1\n      sub(shl(0xa0, 0x01), 0x01)\n        /* \"contracts/Cardeiro.sol\":2805:2813  treasury */\n      and\n        /* \"contracts/Cardeiro.sol\":2815:2825  burnAmount */\n      dup3\n        /* \"contracts/Cardeiro.sol\":2799:2804  _burn */\n      tag_143\n        /* \"contracts/Cardeiro.sol\":2799:2826  _burn(treasury, burnAmount) */\n      jump\t// in\n    tag_196:\n        /* \"contracts/Cardeiro.sol\":2911:2944  block.timestamp - SECURITY_MARGIN */\n      tag_197\n        /* \"contracts/Cardeiro.sol\":1335:1339  1800 */\n      0x0708\n        /* \"contracts/Cardeiro.sol\":2911:2926  block.timestamp */\n      timestamp\n        /* \"contracts/Cardeiro.sol\":2911:2944  block.timestamp - SECURITY_MARGIN */\n      tag_198\n      jump\t// in\n    tag_197:\n        /* \"contracts/Cardeiro.sol\":2893:2908  lastHalvingTime */\n      0x08\n        /* \"contracts/Cardeiro.sol\":2893:2944  lastHalvingTime = block.timestamp - SECURITY_MARGIN */\n      sstore\n        /* \"contracts/Cardeiro.sol\":3010:3046  Halving(burnAmount, block.timestamp) */\n      0x40\n      dup1\n      mload\n        /* \"#utility.yul\":5513:5538   */\n      dup3\n      dup2\n      mstore\n        /* \"contracts/Cardeiro.sol\":3030:3045  block.timestamp */\n      timestamp\n        /* \"#utility.yul\":5569:5571   */\n      0x20\n        /* \"#utility.yul\":5554:5572   */\n      dup3\n      add\n        /* \"#utility.yul\":5547:5581   */\n      mstore\n        /* \"contracts/Cardeiro.sol\":3010:3046  Halving(burnAmount, block.timestamp) */\n      0x394823b0bcaf78cd8f5876a52c05dbab91512a05f5da2a31e239a11ab66d605f\n      swap2\n        /* \"#utility.yul\":5486:5504   */\n      add\n        /* \"contracts/Cardeiro.sol\":3010:3046  Halving(burnAmount, block.timestamp) */\n      mload(0x40)\n      dup1\n      swap2\n      sub\n      swap1\n      log1\n        /* \"contracts/Cardeiro.sol\":2508:3063  {... */\n      pop\n      pop\n        /* \"contracts/Cardeiro.sol\":2475:3063  function executeHalving() public {... */\n      jump\t// out\n        /* \"@openzeppelin/contracts/access/Ownable.sol\":2543:2758  function transferOwnership(address newOwner) public virtual onlyOwner {... */\n    tag_112:\n        /* \"@openzeppelin/contracts/access/Ownable.sol\":1531:1544  _checkOwner() */\n      tag_202\n        /* \"@openzeppelin/contracts/access/Ownable.sol\":1531:1542  _checkOwner */\n      tag_147\n        /* \"@openzeppelin/contracts/access/Ownable.sol\":1531:1544  _checkOwner() */\n      jump\t// in\n    tag_202:\n      sub(shl(0xa0, 0x01), 0x01)\n        /* \"@openzeppelin/contracts/access/Ownable.sol\":2627:2649  newOwner == address(0) */\n      dup2\n      and\n        /* \"@openzeppelin/contracts/access/Ownable.sol\":2623:2714  if (newOwner == address(0)) {... */\n      tag_204\n      jumpi\n        /* \"@openzeppelin/contracts/access/Ownable.sol\":2672:2703  OwnableInvalidOwner(address(0)) */\n      mload(0x40)\n      shl(0xe0, 0x1e4fbdf7)\n      dup2\n      mstore\n        /* \"@openzeppelin/contracts/access/Ownable.sol\":2700:2701  0 */\n      0x00\n        /* \"@openzeppelin/contracts/access/Ownable.sol\":2672:2703  OwnableInvalidOwner(address(0)) */\n      0x04\n      dup3\n      add\n        /* \"#utility.yul\":2239:2290   */\n      mstore\n        /* \"#utility.yul\":2212:2230   */\n      0x24\n      add\n        /* \"@openzeppelin/contracts/access/Ownable.sol\":2672:2703  OwnableInvalidOwner(address(0)) */\n      tag_181\n        /* \"#utility.yul\":2093:2296   */\n      jump\n        /* \"@openzeppelin/contracts/access/Ownable.sol\":2623:2714  if (newOwner == address(0)) {... */\n    tag_204:\n        /* \"@openzeppelin/contracts/access/Ownable.sol\":2723:2751  _transferOwnership(newOwner) */\n      tag_141\n        /* \"@openzeppelin/contracts/access/Ownable.sol\":2742:2750  newOwner */\n      dup2\n        /* \"@openzeppelin/contracts/access/Ownable.sol\":2723:2741  _transferOwnership */\n      tag_150\n        /* \"@openzeppelin/contracts/access/Ownable.sol\":2723:2751  _transferOwnership(newOwner) */\n      jump\t// in\n        /* \"@openzeppelin/contracts/token/ERC20/ERC20.sol\":8726:8854  function _approve(address owner, address spender, uint256 value) internal {... */\n    tag_124:\n        /* \"@openzeppelin/contracts/token/ERC20/ERC20.sol\":8810:8847  _approve(owner, spender, value, true) */\n      tag_209\n        /* \"@openzeppelin/contracts/token/ERC20/ERC20.sol\":8819:8824  owner */\n      dup4\n        /* \"@openzeppelin/contracts/token/ERC20/ERC20.sol\":8826:8833  spender */\n      dup4\n        /* \"@openzeppelin/contracts/token/ERC20/ERC20.sol\":8835:8840  value */\n      dup4\n        /* \"@openzeppelin/contracts/token/ERC20/ERC20.sol\":8842:8846  true */\n      0x01\n        /* \"@openzeppelin/contracts/token/ERC20/ERC20.sol\":8810:8818  _approve */\n      tag_210\n        /* \"@openzeppelin/contracts/token/ERC20/ERC20.sol\":8810:8847  _approve(owner, spender, value, true) */\n      jump\t// in\n    tag_209:\n        /* \"@openzeppelin/contracts/token/ERC20/ERC20.sol\":8726:8854  function _approve(address owner, address spender, uint256 value) internal {... */\n      pop\n      pop\n      pop\n      jump\t// out\n        /* \"@openzeppelin/contracts/token/ERC20/ERC20.sol\":4776:5020  function transferFrom(address from, address to, uint256 value) public virtual returns (bool) {... */\n    tag_138:\n        /* \"@openzeppelin/contracts/token/ERC20/ERC20.sol\":4863:4867  bool */\n      0x00\n        /* \"@openzeppelin/contracts/utils/Context.sol\":735:745  msg.sender */\n      caller\n        /* \"@openzeppelin/contracts/token/ERC20/ERC20.sol\":4919:4956  _spendAllowance(from, spender, value) */\n      tag_213\n        /* \"@openzeppelin/contracts/token/ERC20/ERC20.sol\":4935:4939  from */\n      dup6\n        /* \"@openzeppelin/contracts/utils/Context.sol\":735:745  msg.sender */\n      dup3\n        /* \"@openzeppelin/contracts/token/ERC20/ERC20.sol\":4950:4955  value */\n      dup6\n        /* \"@openzeppelin/contracts/token/ERC20/ERC20.sol\":4919:4934  _spendAllowance */\n      tag_158\n        /* \"@openzeppelin/contracts/token/ERC20/ERC20.sol\":4919:4956  _spendAllowance(from, spender, value) */\n      jump\t// in\n    tag_213:\n        /* \"@openzeppelin/contracts/token/ERC20/ERC20.sol\":4966:4992  _transfer(from, to, value) */\n      tag_214\n        /* \"@openzeppelin/contracts/token/ERC20/ERC20.sol\":4976:4980  from */\n      dup6\n        /* \"@openzeppelin/contracts/token/ERC20/ERC20.sol\":4982:4984  to */\n      dup6\n        /* \"@openzeppelin/contracts/token/ERC20/ERC20.sol\":4986:4991  value */\n      dup6\n        /* \"@openzeppelin/contracts/token/ERC20/ERC20.sol\":4966:4975  _transfer */\n      tag_215\n        /* \"@openzeppelin/contracts/token/ERC20/ERC20.sol\":4966:4992  _transfer(from, to, value) */\n      jump\t// in\n    tag_214:\n      pop\n        /* \"@openzeppelin/contracts/token/ERC20/ERC20.sol\":5009:5013  true */\n      0x01\n      swap5\n        /* \"@openzeppelin/contracts/token/ERC20/ERC20.sol\":4776:5020  function transferFrom(address from, address to, uint256 value) public virtual returns (bool) {... */\n      swap4\n      pop\n      pop\n      pop\n      pop\n      jump\t// out\n        /* \"@openzeppelin/contracts/token/ERC20/ERC20.sol\":7984:8190  function _burn(address account, uint256 value) internal {... */\n    tag_143:\n      sub(shl(0xa0, 0x01), 0x01)\n        /* \"@openzeppelin/contracts/token/ERC20/ERC20.sol\":8054:8075  account == address(0) */\n      dup3\n      and\n        /* \"@openzeppelin/contracts/token/ERC20/ERC20.sol\":8050:8139  if (account == address(0)) {... */\n      tag_217\n      jumpi\n        /* \"@openzeppelin/contracts/token/ERC20/ERC20.sol\":8098:8128  ERC20InvalidSender(address(0)) */\n      mload(0x40)\n      shl(0xe1, 0x4b637e8f)\n      dup2\n      mstore\n        /* \"@openzeppelin/contracts/token/ERC20/ERC20.sol\":8125:8126  0 */\n      0x00\n        /* \"@openzeppelin/contracts/token/ERC20/ERC20.sol\":8098:8128  ERC20InvalidSender(address(0)) */\n      0x04\n      dup3\n      add\n        /* \"#utility.yul\":2239:2290   */\n      mstore\n        /* \"#utility.yul\":2212:2230   */\n      0x24\n      add\n        /* \"@openzeppelin/contracts/token/ERC20/ERC20.sol\":8098:8128  ERC20InvalidSender(address(0)) */\n      tag_181\n        /* \"#utility.yul\":2093:2296   */\n      jump\n        /* \"@openzeppelin/contracts/token/ERC20/ERC20.sol\":8050:8139  if (account == address(0)) {... */\n    tag_217:\n        /* \"@openzeppelin/contracts/token/ERC20/ERC20.sol\":8148:8183  _update(account, address(0), value) */\n      tag_159\n        /* \"@openzeppelin/contracts/token/ERC20/ERC20.sol\":8156:8163  account */\n      dup3\n        /* \"@openzeppelin/contracts/token/ERC20/ERC20.sol\":8173:8174  0 */\n      0x00\n        /* \"@openzeppelin/contracts/token/ERC20/ERC20.sol\":8177:8182  value */\n      dup4\n        /* \"@openzeppelin/contracts/token/ERC20/ERC20.sol\":8148:8155  _update */\n      tag_220\n        /* \"@openzeppelin/contracts/token/ERC20/ERC20.sol\":8148:8183  _update(account, address(0), value) */\n      jump\t// in\n        /* \"@openzeppelin/contracts/access/Ownable.sol\":1796:1958  function _checkOwner() internal view virtual {... */\n    tag_147:\n        /* \"@openzeppelin/contracts/access/Ownable.sol\":1710:1716  _owner */\n      and(sub(shl(0xa0, 0x01), 0x01), sload(0x05))\n        /* \"@openzeppelin/contracts/utils/Context.sol\":735:745  msg.sender */\n      caller\n        /* \"@openzeppelin/contracts/access/Ownable.sol\":1855:1878  owner() != _msgSender() */\n      eq\n        /* \"@openzeppelin/contracts/access/Ownable.sol\":1851:1952  if (owner() != _msgSender()) {... */\n      tag_149\n      jumpi\n        /* \"@openzeppelin/contracts/access/Ownable.sol\":1901:1941  OwnableUnauthorizedAccount(_msgSender()) */\n      mload(0x40)\n      shl(0xe0, 0x118cdaa7)\n      dup2\n      mstore\n        /* \"@openzeppelin/contracts/utils/Context.sol\":735:745  msg.sender */\n      caller\n        /* \"@openzeppelin/contracts/access/Ownable.sol\":1901:1941  OwnableUnauthorizedAccount(_msgSender()) */\n      0x04\n      dup3\n      add\n        /* \"#utility.yul\":2239:2290   */\n      mstore\n        /* \"#utility.yul\":2212:2230   */\n      0x24\n      add\n        /* \"@openzeppelin/contracts/access/Ownable.sol\":1901:1941  OwnableUnauthorizedAccount(_msgSender()) */\n      tag_181\n        /* \"#utility.yul\":2093:2296   */\n      jump\n        /* \"@openzeppelin/contracts/access/Ownable.sol\":2912:3099  function _transferOwnership(address newOwner) internal virtual {... */\n    tag_150:\n        /* \"@openzeppelin/contracts/access/Ownable.sol\":3004:3010  _owner */\n      0x05\n      dup1\n      sload\n      sub(shl(0xa0, 0x01), 0x01)\n        /* \"@openzeppelin/contracts/access/Ownable.sol\":3020:3037  _owner = newOwner */\n      dup4\n      dup2\n      and\n      not(sub(shl(0xa0, 0x01), 0x01))\n      dup4\n      and\n      dup2\n      or\n      swap1\n      swap4\n      sstore\n        /* \"@openzeppelin/contracts/access/Ownable.sol\":3052:3092  OwnershipTransferred(oldOwner, newOwner) */\n      mload(0x40)\n        /* \"@openzeppelin/contracts/access/Ownable.sol\":3004:3010  _owner */\n      swap2\n      and\n      swap2\n        /* \"@openzeppelin/contracts/access/Ownable.sol\":3020:3037  _owner = newOwner */\n      swap1\n        /* \"@openzeppelin/contracts/access/Ownable.sol\":3004:3010  _owner */\n      dup3\n      swap1\n        /* \"@openzeppelin/contracts/access/Ownable.sol\":3052:3092  OwnershipTransferred(oldOwner, newOwner) */\n      0x8be0079c531659141344cd1fd0a4f28419497f9722a3daafe3b4186f6b6457e0\n      swap1\n        /* \"@openzeppelin/contracts/access/Ownable.sol\":2985:3001  address oldOwner */\n      0x00\n      swap1\n        /* \"@openzeppelin/contracts/access/Ownable.sol\":3052:3092  OwnershipTransferred(oldOwner, newOwner) */\n      log3\n        /* \"@openzeppelin/contracts/access/Ownable.sol\":2975:3099  {... */\n      pop\n        /* \"@openzeppelin/contracts/access/Ownable.sol\":2912:3099  function _transferOwnership(address newOwner) internal virtual {... */\n      pop\n      jump\t// out\n        /* \"@openzeppelin/contracts/token/ERC20/ERC20.sol\":10415:10891  function _spendAllowance(address owner, address spender, uint256 value) internal virtual {... */\n    tag_158:\n      sub(shl(0xa0, 0x01), 0x01)\n        /* \"@openzeppelin/contracts/token/ERC20/ERC20.sol\":3657:3675  _allowances[owner] */\n      dup4\n      dup2\n      and\n        /* \"@openzeppelin/contracts/token/ERC20/ERC20.sol\":10514:10538  uint256 currentAllowance */\n      0x00\n        /* \"@openzeppelin/contracts/token/ERC20/ERC20.sol\":3657:3675  _allowances[owner] */\n      swap1\n      dup2\n      mstore\n        /* \"@openzeppelin/contracts/token/ERC20/ERC20.sol\":3657:3668  _allowances */\n      0x01\n        /* \"@openzeppelin/contracts/token/ERC20/ERC20.sol\":3657:3675  _allowances[owner] */\n      0x20\n      swap1\n      dup2\n      mstore\n      0x40\n      dup1\n      dup4\n      keccak256\n        /* \"@openzeppelin/contracts/token/ERC20/ERC20.sol\":3657:3684  _allowances[owner][spender] */\n      swap4\n      dup7\n      and\n      dup4\n      mstore\n      swap3\n      swap1\n      mstore\n      keccak256\n      sload\n      not(0x00)\n        /* \"@openzeppelin/contracts/token/ERC20/ERC20.sol\":10580:10616  currentAllowance < type(uint256).max */\n      dup2\n      lt\n        /* \"@openzeppelin/contracts/token/ERC20/ERC20.sol\":10576:10885  if (currentAllowance < type(uint256).max) {... */\n      iszero\n      tag_234\n      jumpi\n        /* \"@openzeppelin/contracts/token/ERC20/ERC20.sol\":10655:10660  value */\n      dup2\n        /* \"@openzeppelin/contracts/token/ERC20/ERC20.sol\":10636:10652  currentAllowance */\n      dup2\n        /* \"@openzeppelin/contracts/token/ERC20/ERC20.sol\":10636:10660  currentAllowance < value */\n      lt\n        /* \"@openzeppelin/contracts/token/ERC20/ERC20.sol\":10632:10762  if (currentAllowance < value) {... */\n      iszero\n      tag_231\n      jumpi\n        /* \"@openzeppelin/contracts/token/ERC20/ERC20.sol\":10687:10747  ERC20InsufficientAllowance(spender, currentAllowance, value) */\n      mload(0x40)\n      shl(0xe1, 0x7dc7a0d9)\n      dup2\n      mstore\n      sub(shl(0xa0, 0x01), 0x01)\n        /* \"#utility.yul\":5812:5844   */\n      dup5\n      and\n        /* \"@openzeppelin/contracts/token/ERC20/ERC20.sol\":10687:10747  ERC20InsufficientAllowance(spender, currentAllowance, value) */\n      0x04\n      dup3\n      add\n        /* \"#utility.yul\":5794:5845   */\n      mstore\n        /* \"#utility.yul\":5861:5879   */\n      0x24\n      dup2\n      add\n        /* \"#utility.yul\":5854:5888   */\n      dup3\n      swap1\n      mstore\n        /* \"#utility.yul\":5904:5922   */\n      0x44\n      dup2\n      add\n        /* \"#utility.yul\":5897:5931   */\n      dup4\n      swap1\n      mstore\n        /* \"#utility.yul\":5767:5785   */\n      0x64\n      add\n        /* \"@openzeppelin/contracts/token/ERC20/ERC20.sol\":10687:10747  ERC20InsufficientAllowance(spender, currentAllowance, value) */\n      tag_181\n        /* \"#utility.yul\":5592:5937   */\n      jump\n        /* \"@openzeppelin/contracts/token/ERC20/ERC20.sol\":10632:10762  if (currentAllowance < value) {... */\n    tag_231:\n        /* \"@openzeppelin/contracts/token/ERC20/ERC20.sol\":10803:10860  _approve(owner, spender, currentAllowance - value, false) */\n      tag_234\n        /* \"@openzeppelin/contracts/token/ERC20/ERC20.sol\":10812:10817  owner */\n      dup5\n        /* \"@openzeppelin/contracts/token/ERC20/ERC20.sol\":10819:10826  spender */\n      dup5\n        /* \"@openzeppelin/contracts/token/ERC20/ERC20.sol\":10847:10852  value */\n      dup5\n        /* \"@openzeppelin/contracts/token/ERC20/ERC20.sol\":10828:10844  currentAllowance */\n      dup5\n        /* \"@openzeppelin/contracts/token/ERC20/ERC20.sol\":10828:10852  currentAllowance - value */\n      sub\n        /* \"@openzeppelin/contracts/token/ERC20/ERC20.sol\":10854:10859  false */\n      0x00\n        /* \"@openzeppelin/contracts/token/ERC20/ERC20.sol\":10803:10811  _approve */\n      tag_210\n        /* \"@openzeppelin/contracts/token/ERC20/ERC20.sol\":10803:10860  _approve(owner, spender, currentAllowance - value, false) */\n      jump\t// in\n    tag_234:\n        /* \"@openzeppelin/contracts/token/ERC20/ERC20.sol\":10504:10891  {... */\n      pop\n        /* \"@openzeppelin/contracts/token/ERC20/ERC20.sol\":10415:10891  function _spendAllowance(address owner, address spender, uint256 value) internal virtual {... */\n      pop\n      pop\n      pop\n      jump\t// out\n        /* \"@openzeppelin/contracts/token/ERC20/ERC20.sol\":3315:3493  function transfer(address to, uint256 value) public virtual returns (bool) {... */\n    tag_176:\n        /* \"@openzeppelin/contracts/token/ERC20/ERC20.sol\":3384:3388  bool */\n      0x00\n        /* \"@openzeppelin/contracts/utils/Context.sol\":735:745  msg.sender */\n      caller\n        /* \"@openzeppelin/contracts/token/ERC20/ERC20.sol\":3438:3465  _transfer(owner, to, value) */\n      tag_123\n        /* \"@openzeppelin/contracts/utils/Context.sol\":735:745  msg.sender */\n      dup2\n        /* \"@openzeppelin/contracts/token/ERC20/ERC20.sol\":3455:3457  to */\n      dup6\n        /* \"@openzeppelin/contracts/token/ERC20/ERC20.sol\":3459:3464  value */\n      dup6\n        /* \"@openzeppelin/contracts/token/ERC20/ERC20.sol\":3438:3447  _transfer */\n      tag_215\n        /* \"@openzeppelin/contracts/token/ERC20/ERC20.sol\":3438:3465  _transfer(owner, to, value) */\n      jump\t// in\n        /* \"@openzeppelin/contracts/token/ERC20/ERC20.sol\":9701:10133  function _approve(address owner, address spender, uint256 value, bool emitEvent) internal virtual {... */\n    tag_210:\n      sub(shl(0xa0, 0x01), 0x01)\n        /* \"@openzeppelin/contracts/token/ERC20/ERC20.sol\":9813:9832  owner == address(0) */\n      dup5\n      and\n        /* \"@openzeppelin/contracts/token/ERC20/ERC20.sol\":9809:9898  if (owner == address(0)) {... */\n      tag_239\n      jumpi\n        /* \"@openzeppelin/contracts/token/ERC20/ERC20.sol\":9855:9887  ERC20InvalidApprover(address(0)) */\n      mload(0x40)\n      shl(0xe0, 0xe602df05)\n      dup2\n      mstore\n        /* \"@openzeppelin/contracts/token/ERC20/ERC20.sol\":9884:9885  0 */\n      0x00\n        /* \"@openzeppelin/contracts/token/ERC20/ERC20.sol\":9855:9887  ERC20InvalidApprover(address(0)) */\n      0x04\n      dup3\n      add\n        /* \"#utility.yul\":2239:2290   */\n      mstore\n        /* \"#utility.yul\":2212:2230   */\n      0x24\n      add\n        /* \"@openzeppelin/contracts/token/ERC20/ERC20.sol\":9855:9887  ERC20InvalidApprover(address(0)) */\n      tag_181\n        /* \"#utility.yul\":2093:2296   */\n      jump\n        /* \"@openzeppelin/contracts/token/ERC20/ERC20.sol\":9809:9898  if (owner == address(0)) {... */\n    tag_239:\n      sub(shl(0xa0, 0x01), 0x01)\n        /* \"@openzeppelin/contracts/token/ERC20/ERC20.sol\":9911:9932  spender == address(0) */\n      dup4\n      and\n        /* \"@openzeppelin/contracts/token/ERC20/ERC20.sol\":9907:9997  if (spender == address(0)) {... */\n      tag_241\n      jumpi\n        /* \"@openzeppelin/contracts/token/ERC20/ERC20.sol\":9955:9986  ERC20InvalidSpender(address(0)) */\n      mload(0x40)\n      shl(0xe1, 0x4a1406b1)\n      dup2\n      mstore\n        /* \"@openzeppelin/contracts/token/ERC20/ERC20.sol\":9983:9984  0 */\n      0x00\n        /* \"@openzeppelin/contracts/token/ERC20/ERC20.sol\":9955:9986  ERC20InvalidSpender(address(0)) */\n      0x04\n      dup3\n      add\n        /* \"#utility.yul\":2239:2290   */\n      mstore\n        /* \"#utility.yul\":2212:2230   */\n      0x24\n      add\n        /* \"@openzeppelin/contracts/token/ERC20/ERC20.sol\":9955:9986  ERC20InvalidSpender(address(0)) */\n      tag_181\n        /* \"#utility.yul\":2093:2296   */\n      jump\n        /* \"@openzeppelin/contracts/token/ERC20/ERC20.sol\":9907:9997  if (spender == address(0)) {... */\n    tag_241:\n      sub(shl(0xa0, 0x01), 0x01)\n        /* \"@openzeppelin/contracts/token/ERC20/ERC20.sol\":10006:10024  _allowances[owner] */\n      dup1\n      dup6\n      and\n      0x00\n      swap1\n      dup2\n      mstore\n        /* \"@openzeppelin/contracts/token/ERC20/ERC20.sol\":10006:10017  _allowances */\n      0x01\n        /* \"@openzeppelin/contracts/token/ERC20/ERC20.sol\":10006:10024  _allowances[owner] */\n      0x20\n      swap1\n      dup2\n      mstore\n      0x40\n      dup1\n      dup4\n      keccak256\n        /* \"@openzeppelin/contracts/token/ERC20/ERC20.sol\":10006:10033  _allowances[owner][spender] */\n      swap4\n      dup8\n      and\n      dup4\n      mstore\n      swap3\n      swap1\n      mstore\n      keccak256\n        /* \"@openzeppelin/contracts/token/ERC20/ERC20.sol\":10006:10041  _allowances[owner][spender] = value */\n      dup3\n      swap1\n      sstore\n        /* \"@openzeppelin/contracts/token/ERC20/ERC20.sol\":10051:10127  if (emitEvent) {... */\n      dup1\n      iszero\n      tag_234\n      jumpi\n        /* \"@openzeppelin/contracts/token/ERC20/ERC20.sol\":10101:10108  spender */\n      dup3\n      sub(shl(0xa0, 0x01), 0x01)\n        /* \"@openzeppelin/contracts/token/ERC20/ERC20.sol\":10085:10116  Approval(owner, spender, value) */\n      and\n        /* \"@openzeppelin/contracts/token/ERC20/ERC20.sol\":10094:10099  owner */\n      dup5\n      sub(shl(0xa0, 0x01), 0x01)\n        /* \"@openzeppelin/contracts/token/ERC20/ERC20.sol\":10085:10116  Approval(owner, spender, value) */\n      and\n      0x8c5be1e5ebec7d5bd14f71427d1e84f3dd0314c0f7b2291e5b200ac8c7c3b925\n        /* \"@openzeppelin/contracts/token/ERC20/ERC20.sol\":10110:10115  value */\n      dup5\n        /* \"@openzeppelin/contracts/token/ERC20/ERC20.sol\":10085:10116  Approval(owner, spender, value) */\n      mload(0x40)\n      tag_244\n      swap2\n        /* \"#utility.yul\":1489:1514   */\n      dup2\n      mstore\n        /* \"#utility.yul\":1477:1479   */\n      0x20\n        /* \"#utility.yul\":1462:1480   */\n      add\n      swap1\n        /* \"#utility.yul\":1343:1520   */\n      jump\n        /* \"@openzeppelin/contracts/token/ERC20/ERC20.sol\":10085:10116  Approval(owner, spender, value) */\n    tag_244:\n      mload(0x40)\n      dup1\n      swap2\n      sub\n      swap1\n      log3\n        /* \"@openzeppelin/contracts/token/ERC20/ERC20.sol\":9701:10133  function _approve(address owner, address spender, uint256 value, bool emitEvent) internal virtual {... */\n      pop\n      pop\n      pop\n      pop\n      jump\t// out\n        /* \"@openzeppelin/contracts/token/ERC20/ERC20.sol\":5393:5693  function _transfer(address from, address to, uint256 value) internal {... */\n    tag_215:\n      sub(shl(0xa0, 0x01), 0x01)\n        /* \"@openzeppelin/contracts/token/ERC20/ERC20.sol\":5476:5494  from == address(0) */\n      dup4\n      and\n        /* \"@openzeppelin/contracts/token/ERC20/ERC20.sol\":5472:5558  if (from == address(0)) {... */\n      tag_246\n      jumpi\n        /* \"@openzeppelin/contracts/token/ERC20/ERC20.sol\":5517:5547  ERC20InvalidSender(address(0)) */\n      mload(0x40)\n      shl(0xe1, 0x4b637e8f)\n      dup2\n      mstore\n        /* \"@openzeppelin/contracts/token/ERC20/ERC20.sol\":5544:5545  0 */\n      0x00\n        /* \"@openzeppelin/contracts/token/ERC20/ERC20.sol\":5517:5547  ERC20InvalidSender(address(0)) */\n      0x04\n      dup3\n      add\n        /* \"#utility.yul\":2239:2290   */\n      mstore\n        /* \"#utility.yul\":2212:2230   */\n      0x24\n      add\n        /* \"@openzeppelin/contracts/token/ERC20/ERC20.sol\":5517:5547  ERC20InvalidSender(address(0)) */\n      tag_181\n        /* \"#utility.yul\":2093:2296   */\n      jump\n        /* \"@openzeppelin/contracts/token/ERC20/ERC20.sol\":5472:5558  if (from == address(0)) {... */\n    tag_246:\n      sub(shl(0xa0, 0x01), 0x01)\n        /* \"@openzeppelin/contracts/token/ERC20/ERC20.sol\":5571:5587  to == address(0) */\n      dup3\n      and\n        /* \"@openzeppelin/contracts/token/ERC20/ERC20.sol\":5567:5653  if (to == address(0)) {... */\n      tag_248\n      jumpi\n        /* \"@openzeppelin/contracts/token/ERC20/ERC20.sol\":5610:5642  ERC20InvalidReceiver(address(0)) */\n      mload(0x40)\n      shl(0xe0, 0xec442f05)\n      dup2\n      mstore\n        /* \"@openzeppelin/contracts/token/ERC20/ERC20.sol\":5639:5640  0 */\n      0x00\n        /* \"@openzeppelin/contracts/token/ERC20/ERC20.sol\":5610:5642  ERC20InvalidReceiver(address(0)) */\n      0x04\n      dup3\n      add\n        /* \"#utility.yul\":2239:2290   */\n      mstore\n        /* \"#utility.yul\":2212:2230   */\n      0x24\n      add\n        /* \"@openzeppelin/contracts/token/ERC20/ERC20.sol\":5610:5642  ERC20InvalidReceiver(address(0)) */\n      tag_181\n        /* \"#utility.yul\":2093:2296   */\n      jump\n        /* \"@openzeppelin/contracts/token/ERC20/ERC20.sol\":5567:5653  if (to == address(0)) {... */\n    tag_248:\n        /* \"@openzeppelin/contracts/token/ERC20/ERC20.sol\":5662:5686  _update(from, to, value) */\n      tag_209\n        /* \"@openzeppelin/contracts/token/ERC20/ERC20.sol\":5670:5674  from */\n      dup4\n        /* \"@openzeppelin/contracts/token/ERC20/ERC20.sol\":5676:5678  to */\n      dup4\n        /* \"@openzeppelin/contracts/token/ERC20/ERC20.sol\":5680:5685  value */\n      dup4\n        /* \"@openzeppelin/contracts/token/ERC20/ERC20.sol\":6008:7115  function _update(address from, address to, uint256 value) internal virtual {... */\n    tag_220:\n      sub(shl(0xa0, 0x01), 0x01)\n        /* \"@openzeppelin/contracts/token/ERC20/ERC20.sol\":6097:6115  from == address(0) */\n      dup4\n      and\n        /* \"@openzeppelin/contracts/token/ERC20/ERC20.sol\":6093:6633  if (from == address(0)) {... */\n      tag_252\n      jumpi\n        /* \"@openzeppelin/contracts/token/ERC20/ERC20.sol\":6249:6254  value */\n      dup1\n        /* \"@openzeppelin/contracts/token/ERC20/ERC20.sol\":6233:6245  _totalSupply */\n      0x02\n      0x00\n        /* \"@openzeppelin/contracts/token/ERC20/ERC20.sol\":6233:6254  _totalSupply += value */\n      dup3\n      dup3\n      sload\n      tag_253\n      swap2\n      swap1\n      tag_153\n      jump\t// in\n    tag_253:\n      swap1\n      swap2\n      sstore\n      pop\n        /* \"@openzeppelin/contracts/token/ERC20/ERC20.sol\":6093:6633  if (from == address(0)) {... */\n      tag_254\n      swap1\n      pop\n      jump\n    tag_252:\n      sub(shl(0xa0, 0x01), 0x01)\n        /* \"@openzeppelin/contracts/token/ERC20/ERC20.sol\":6307:6322  _balances[from] */\n      dup4\n      and\n        /* \"@openzeppelin/contracts/token/ERC20/ERC20.sol\":6285:6304  uint256 fromBalance */\n      0x00\n        /* \"@openzeppelin/contracts/token/ERC20/ERC20.sol\":6307:6322  _balances[from] */\n      swap1\n      dup2\n      mstore\n      0x20\n      dup2\n      swap1\n      mstore\n      0x40\n      swap1\n      keccak256\n      sload\n        /* \"@openzeppelin/contracts/token/ERC20/ERC20.sol\":6340:6359  fromBalance < value */\n      dup2\n      dup2\n      lt\n        /* \"@openzeppelin/contracts/token/ERC20/ERC20.sol\":6336:6451  if (fromBalance < value) {... */\n      iszero\n      tag_255\n      jumpi\n        /* \"@openzeppelin/contracts/token/ERC20/ERC20.sol\":6386:6436  ERC20InsufficientBalance(from, fromBalance, value) */\n      mload(0x40)\n      shl(0xe2, 0x391434e3)\n      dup2\n      mstore\n      sub(shl(0xa0, 0x01), 0x01)\n        /* \"#utility.yul\":5812:5844   */\n      dup6\n      and\n        /* \"@openzeppelin/contracts/token/ERC20/ERC20.sol\":6386:6436  ERC20InsufficientBalance(from, fromBalance, value) */\n      0x04\n      dup3\n      add\n        /* \"#utility.yul\":5794:5845   */\n      mstore\n        /* \"#utility.yul\":5861:5879   */\n      0x24\n      dup2\n      add\n        /* \"#utility.yul\":5854:5888   */\n      dup3\n      swap1\n      mstore\n        /* \"#utility.yul\":5904:5922   */\n      0x44\n      dup2\n      add\n        /* \"#utility.yul\":5897:5931   */\n      dup4\n      swap1\n      mstore\n        /* \"#utility.yul\":5767:5785   */\n      0x64\n      add\n        /* \"@openzeppelin/contracts/token/ERC20/ERC20.sol\":6386:6436  ERC20InsufficientBalance(from, fromBalance, value) */\n      tag_181\n        /* \"#utility.yul\":5592:5937   */\n      jump\n        /* \"@openzeppelin/contracts/token/ERC20/ERC20.sol\":6336:6451  if (fromBalance < value) {... */\n    tag_255:\n      sub(shl(0xa0, 0x01), 0x01)\n        /* \"@openzeppelin/contracts/token/ERC20/ERC20.sol\":6571:6586  _balances[from] */\n      dup5\n      and\n        /* \"@openzeppelin/contracts/token/ERC20/ERC20.sol\":6571:6580  _balances */\n      0x00\n        /* \"@openzeppelin/contracts/token/ERC20/ERC20.sol\":6571:6586  _balances[from] */\n      swap1\n      dup2\n      mstore\n      0x20\n      dup2\n      swap1\n      mstore\n      0x40\n      swap1\n      keccak256\n        /* \"@openzeppelin/contracts/token/ERC20/ERC20.sol\":6589:6608  fromBalance - value */\n      swap1\n      dup3\n      swap1\n      sub\n        /* \"@openzeppelin/contracts/token/ERC20/ERC20.sol\":6571:6608  _balances[from] = fromBalance - value */\n      swap1\n      sstore\n        /* \"@openzeppelin/contracts/token/ERC20/ERC20.sol\":6093:6633  if (from == address(0)) {... */\n    tag_254:\n      sub(shl(0xa0, 0x01), 0x01)\n        /* \"@openzeppelin/contracts/token/ERC20/ERC20.sol\":6647:6663  to == address(0) */\n      dup3\n      and\n        /* \"@openzeppelin/contracts/token/ERC20/ERC20.sol\":6643:7068  if (to == address(0)) {... */\n      tag_257\n      jumpi\n        /* \"@openzeppelin/contracts/token/ERC20/ERC20.sol\":6810:6822  _totalSupply */\n      0x02\n        /* \"@openzeppelin/contracts/token/ERC20/ERC20.sol\":6810:6831  _totalSupply -= value */\n      dup1\n      sload\n      dup3\n      swap1\n      sub\n      swap1\n      sstore\n        /* \"@openzeppelin/contracts/token/ERC20/ERC20.sol\":6643:7068  if (to == address(0)) {... */\n      jump(tag_258)\n    tag_257:\n      sub(shl(0xa0, 0x01), 0x01)\n        /* \"@openzeppelin/contracts/token/ERC20/ERC20.sol\":7021:7034  _balances[to] */\n      dup3\n      and\n        /* \"@openzeppelin/contracts/token/ERC20/ERC20.sol\":7021:7030  _balances */\n      0x00\n        /* \"@openzeppelin/contracts/token/ERC20/ERC20.sol\":7021:7034  _balances[to] */\n      swap1\n      dup2\n      mstore\n      0x20\n      dup2\n      swap1\n      mstore\n      0x40\n      swap1\n      keccak256\n        /* \"@openzeppelin/contracts/token/ERC20/ERC20.sol\":7021:7043  _balances[to] += value */\n      dup1\n      sload\n      dup3\n      add\n      swap1\n      sstore\n        /* \"@openzeppelin/contracts/token/ERC20/ERC20.sol\":6643:7068  if (to == address(0)) {... */\n    tag_258:\n        /* \"@openzeppelin/contracts/token/ERC20/ERC20.sol\":7098:7100  to */\n      dup2\n      sub(shl(0xa0, 0x01), 0x01)\n        /* \"@openzeppelin/contracts/token/ERC20/ERC20.sol\":7083:7108  Transfer(from, to, value) */\n      and\n        /* \"@openzeppelin/contracts/token/ERC20/ERC20.sol\":7092:7096  from */\n      dup4\n      sub(shl(0xa0, 0x01), 0x01)\n        /* \"@openzeppelin/contracts/token/ERC20/ERC20.sol\":7083:7108  Transfer(from, to, value) */\n      and\n      0xddf252ad1be2c89b69c2b068fc378daa952ba7f163c4a11628f55a4df523b3ef\n        /* \"@openzeppelin/contracts/token/ERC20/ERC20.sol\":7102:7107  value */\n      dup4\n        /* \"@openzeppelin/contracts/token/ERC20/ERC20.sol\":7083:7108  Transfer(from, to, value) */\n      mload(0x40)\n      tag_259\n      swap2\n        /* \"#utility.yul\":1489:1514   */\n      dup2\n      mstore\n        /* \"#utility.yul\":1477:1479   */\n      0x20\n        /* \"#utility.yul\":1462:1480   */\n      add\n      swap1\n        /* \"#utility.yul\":1343:1520   */\n      jump\n        /* \"@openzeppelin/contracts/token/ERC20/ERC20.sol\":7083:7108  Transfer(from, to, value) */\n    tag_259:\n      mload(0x40)\n      dup1\n      swap2\n      sub\n      swap1\n      log3\n        /* \"@openzeppelin/contracts/token/ERC20/ERC20.sol\":6008:7115  function _update(address from, address to, uint256 value) internal virtual {... */\n      pop\n      pop\n      pop\n      jump\t// out\n        /* \"#utility.yul\":14:432   */\n    tag_32:\n        /* \"#utility.yul\":163:165   */\n      0x20\n        /* \"#utility.yul\":152:161   */\n      dup2\n        /* \"#utility.yul\":145:166   */\n      mstore\n        /* \"#utility.yul\":126:130   */\n      0x00\n        /* \"#utility.yul\":195:201   */\n      dup3\n        /* \"#utility.yul\":189:202   */\n      mload\n        /* \"#utility.yul\":238:244   */\n      dup1\n        /* \"#utility.yul\":233:235   */\n      0x20\n        /* \"#utility.yul\":222:231   */\n      dup5\n        /* \"#utility.yul\":218:236   */\n      add\n        /* \"#utility.yul\":211:245   */\n      mstore\n        /* \"#utility.yul\":297:303   */\n      dup1\n        /* \"#utility.yul\":292:294   */\n      0x20\n        /* \"#utility.yul\":284:290   */\n      dup6\n        /* \"#utility.yul\":280:295   */\n      add\n        /* \"#utility.yul\":275:277   */\n      0x40\n        /* \"#utility.yul\":264:273   */\n      dup6\n        /* \"#utility.yul\":260:278   */\n      add\n        /* \"#utility.yul\":254:304   */\n      mcopy\n        /* \"#utility.yul\":353:354   */\n      0x00\n        /* \"#utility.yul\":348:350   */\n      0x40\n        /* \"#utility.yul\":339:345   */\n      dup3\n        /* \"#utility.yul\":328:337   */\n      dup6\n        /* \"#utility.yul\":324:346   */\n      add\n        /* \"#utility.yul\":320:351   */\n      add\n        /* \"#utility.yul\":313:355   */\n      mstore\n        /* \"#utility.yul\":423:425   */\n      0x40\n        /* \"#utility.yul\":416:418   */\n      0x1f\n        /* \"#utility.yul\":412:419   */\n      not\n        /* \"#utility.yul\":407:409   */\n      0x1f\n        /* \"#utility.yul\":399:405   */\n      dup4\n        /* \"#utility.yul\":395:410   */\n      add\n        /* \"#utility.yul\":391:420   */\n      and\n        /* \"#utility.yul\":380:389   */\n      dup5\n        /* \"#utility.yul\":376:421   */\n      add\n        /* \"#utility.yul\":372:426   */\n      add\n        /* \"#utility.yul\":364:426   */\n      swap2\n      pop\n      pop\n        /* \"#utility.yul\":14:432   */\n      swap3\n      swap2\n      pop\n      pop\n      jump\t// out\n        /* \"#utility.yul\":437:610   */\n    tag_260:\n        /* \"#utility.yul\":505:525   */\n      dup1\n      calldataload\n      sub(shl(0xa0, 0x01), 0x01)\n        /* \"#utility.yul\":554:585   */\n      dup2\n      and\n        /* \"#utility.yul\":544:586   */\n      dup2\n      eq\n        /* \"#utility.yul\":534:604   */\n      tag_265\n      jumpi\n        /* \"#utility.yul\":600:601   */\n      0x00\n        /* \"#utility.yul\":597:598   */\n      0x00\n        /* \"#utility.yul\":590:602   */\n      revert\n        /* \"#utility.yul\":534:604   */\n    tag_265:\n        /* \"#utility.yul\":437:610   */\n      swap2\n      swap1\n      pop\n      jump\t// out\n        /* \"#utility.yul\":615:915   */\n    tag_35:\n        /* \"#utility.yul\":683:689   */\n      0x00\n        /* \"#utility.yul\":691:697   */\n      0x00\n        /* \"#utility.yul\":744:746   */\n      0x40\n        /* \"#utility.yul\":732:741   */\n      dup4\n        /* \"#utility.yul\":723:730   */\n      dup6\n        /* \"#utility.yul\":719:742   */\n      sub\n        /* \"#utility.yul\":715:747   */\n      slt\n        /* \"#utility.yul\":712:764   */\n      iszero\n      tag_267\n      jumpi\n        /* \"#utility.yul\":760:761   */\n      0x00\n        /* \"#utility.yul\":757:758   */\n      0x00\n        /* \"#utility.yul\":750:762   */\n      revert\n        /* \"#utility.yul\":712:764   */\n    tag_267:\n        /* \"#utility.yul\":783:812   */\n      tag_268\n        /* \"#utility.yul\":802:811   */\n      dup4\n        /* \"#utility.yul\":783:812   */\n      tag_260\n      jump\t// in\n    tag_268:\n        /* \"#utility.yul\":773:812   */\n      swap5\n        /* \"#utility.yul\":881:883   */\n      0x20\n        /* \"#utility.yul\":866:884   */\n      swap4\n      swap1\n      swap4\n      add\n        /* \"#utility.yul\":853:885   */\n      calldataload\n      swap4\n      pop\n      pop\n      pop\n        /* \"#utility.yul\":615:915   */\n      jump\t// out\n        /* \"#utility.yul\":1112:1338   */\n    tag_41:\n        /* \"#utility.yul\":1171:1177   */\n      0x00\n        /* \"#utility.yul\":1224:1226   */\n      0x20\n        /* \"#utility.yul\":1212:1221   */\n      dup3\n        /* \"#utility.yul\":1203:1210   */\n      dup5\n        /* \"#utility.yul\":1199:1222   */\n      sub\n        /* \"#utility.yul\":1195:1227   */\n      slt\n        /* \"#utility.yul\":1192:1244   */\n      iszero\n      tag_271\n      jumpi\n        /* \"#utility.yul\":1240:1241   */\n      0x00\n        /* \"#utility.yul\":1237:1238   */\n      0x00\n        /* \"#utility.yul\":1230:1242   */\n      revert\n        /* \"#utility.yul\":1192:1244   */\n    tag_271:\n      pop\n        /* \"#utility.yul\":1285:1308   */\n      calldataload\n      swap2\n        /* \"#utility.yul\":1112:1338   */\n      swap1\n      pop\n      jump\t// out\n        /* \"#utility.yul\":1525:1899   */\n    tag_50:\n        /* \"#utility.yul\":1602:1608   */\n      0x00\n        /* \"#utility.yul\":1610:1616   */\n      0x00\n        /* \"#utility.yul\":1618:1624   */\n      0x00\n        /* \"#utility.yul\":1671:1673   */\n      0x60\n        /* \"#utility.yul\":1659:1668   */\n      dup5\n        /* \"#utility.yul\":1650:1657   */\n      dup7\n        /* \"#utility.yul\":1646:1669   */\n      sub\n        /* \"#utility.yul\":1642:1674   */\n      slt\n        /* \"#utility.yul\":1639:1691   */\n      iszero\n      tag_274\n      jumpi\n        /* \"#utility.yul\":1687:1688   */\n      0x00\n        /* \"#utility.yul\":1684:1685   */\n      0x00\n        /* \"#utility.yul\":1677:1689   */\n      revert\n        /* \"#utility.yul\":1639:1691   */\n    tag_274:\n        /* \"#utility.yul\":1710:1739   */\n      tag_275\n        /* \"#utility.yul\":1729:1738   */\n      dup5\n        /* \"#utility.yul\":1710:1739   */\n      tag_260\n      jump\t// in\n    tag_275:\n        /* \"#utility.yul\":1700:1739   */\n      swap3\n      pop\n        /* \"#utility.yul\":1758:1796   */\n      tag_276\n        /* \"#utility.yul\":1792:1794   */\n      0x20\n        /* \"#utility.yul\":1781:1790   */\n      dup6\n        /* \"#utility.yul\":1777:1795   */\n      add\n        /* \"#utility.yul\":1758:1796   */\n      tag_260\n      jump\t// in\n    tag_276:\n        /* \"#utility.yul\":1525:1899   */\n      swap3\n      swap6\n        /* \"#utility.yul\":1748:1796   */\n      swap3\n      swap5\n      pop\n      pop\n      pop\n        /* \"#utility.yul\":1865:1867   */\n      0x40\n        /* \"#utility.yul\":1850:1868   */\n      swap2\n      swap1\n      swap2\n      add\n        /* \"#utility.yul\":1837:1869   */\n      calldataload\n      swap1\n        /* \"#utility.yul\":1525:1899   */\n      jump\t// out\n        /* \"#utility.yul\":2301:2487   */\n    tag_69:\n        /* \"#utility.yul\":2360:2366   */\n      0x00\n        /* \"#utility.yul\":2413:2415   */\n      0x20\n        /* \"#utility.yul\":2401:2410   */\n      dup3\n        /* \"#utility.yul\":2392:2399   */\n      dup5\n        /* \"#utility.yul\":2388:2411   */\n      sub\n        /* \"#utility.yul\":2384:2416   */\n      slt\n        /* \"#utility.yul\":2381:2433   */\n      iszero\n      tag_280\n      jumpi\n        /* \"#utility.yul\":2429:2430   */\n      0x00\n        /* \"#utility.yul\":2426:2427   */\n      0x00\n        /* \"#utility.yul\":2419:2431   */\n      revert\n        /* \"#utility.yul\":2381:2433   */\n    tag_280:\n        /* \"#utility.yul\":2452:2481   */\n      tag_129\n        /* \"#utility.yul\":2471:2480   */\n      dup3\n        /* \"#utility.yul\":2452:2481   */\n      tag_260\n      jump\t// in\n        /* \"#utility.yul\":2492:2838   */\n    tag_101:\n        /* \"#utility.yul\":2560:2566   */\n      0x00\n        /* \"#utility.yul\":2568:2574   */\n      0x00\n        /* \"#utility.yul\":2621:2623   */\n      0x40\n        /* \"#utility.yul\":2609:2618   */\n      dup4\n        /* \"#utility.yul\":2600:2607   */\n      dup6\n        /* \"#utility.yul\":2596:2619   */\n      sub\n        /* \"#utility.yul\":2592:2624   */\n      slt\n        /* \"#utility.yul\":2589:2641   */\n      iszero\n      tag_283\n      jumpi\n        /* \"#utility.yul\":2637:2638   */\n      0x00\n        /* \"#utility.yul\":2634:2635   */\n      0x00\n        /* \"#utility.yul\":2627:2639   */\n      revert\n        /* \"#utility.yul\":2589:2641   */\n    tag_283:\n      pop\n      pop\n        /* \"#utility.yul\":2682:2705   */\n      dup1\n      calldataload\n      swap3\n        /* \"#utility.yul\":2802:2804   */\n      0x20\n        /* \"#utility.yul\":2787:2805   */\n      swap1\n      swap2\n      add\n        /* \"#utility.yul\":2774:2806   */\n      calldataload\n      swap2\n      pop\n        /* \"#utility.yul\":2492:2838   */\n      jump\t// out\n        /* \"#utility.yul\":2843:3103   */\n    tag_105:\n        /* \"#utility.yul\":2911:2917   */\n      0x00\n        /* \"#utility.yul\":2919:2925   */\n      0x00\n        /* \"#utility.yul\":2972:2974   */\n      0x40\n        /* \"#utility.yul\":2960:2969   */\n      dup4\n        /* \"#utility.yul\":2951:2958   */\n      dup6\n        /* \"#utility.yul\":2947:2970   */\n      sub\n        /* \"#utility.yul\":2943:2975   */\n      slt\n        /* \"#utility.yul\":2940:2992   */\n      iszero\n      tag_285\n      jumpi\n        /* \"#utility.yul\":2988:2989   */\n      0x00\n        /* \"#utility.yul\":2985:2986   */\n      0x00\n        /* \"#utility.yul\":2978:2990   */\n      revert\n        /* \"#utility.yul\":2940:2992   */\n    tag_285:\n        /* \"#utility.yul\":3011:3040   */\n      tag_286\n        /* \"#utility.yul\":3030:3039   */\n      dup4\n        /* \"#utility.yul\":3011:3040   */\n      tag_260\n      jump\t// in\n    tag_286:\n        /* \"#utility.yul\":3001:3040   */\n      swap2\n      pop\n        /* \"#utility.yul\":3059:3097   */\n      tag_287\n        /* \"#utility.yul\":3093:3095   */\n      0x20\n        /* \"#utility.yul\":3082:3091   */\n      dup5\n        /* \"#utility.yul\":3078:3096   */\n      add\n        /* \"#utility.yul\":3059:3097   */\n      tag_260\n      jump\t// in\n    tag_287:\n        /* \"#utility.yul\":3049:3097   */\n      swap1\n      pop\n        /* \"#utility.yul\":2843:3103   */\n      swap3\n      pop\n      swap3\n      swap1\n      pop\n      jump\t// out\n        /* \"#utility.yul\":3108:3488   */\n    tag_115:\n        /* \"#utility.yul\":3187:3188   */\n      0x01\n        /* \"#utility.yul\":3183:3195   */\n      dup2\n      dup2\n      shr\n      swap1\n        /* \"#utility.yul\":3230:3242   */\n      dup3\n      and\n      dup1\n        /* \"#utility.yul\":3251:3312   */\n      tag_289\n      jumpi\n        /* \"#utility.yul\":3305:3309   */\n      0x7f\n        /* \"#utility.yul\":3297:3303   */\n      dup3\n        /* \"#utility.yul\":3293:3310   */\n      and\n        /* \"#utility.yul\":3283:3310   */\n      swap2\n      pop\n        /* \"#utility.yul\":3251:3312   */\n    tag_289:\n        /* \"#utility.yul\":3358:3360   */\n      0x20\n        /* \"#utility.yul\":3350:3356   */\n      dup3\n        /* \"#utility.yul\":3347:3361   */\n      lt\n        /* \"#utility.yul\":3327:3345   */\n      dup2\n        /* \"#utility.yul\":3324:3362   */\n      sub\n        /* \"#utility.yul\":3321:3482   */\n      tag_290\n      jumpi\n        /* \"#utility.yul\":3404:3414   */\n      0x4e487b71\n        /* \"#utility.yul\":3399:3402   */\n      0xe0\n        /* \"#utility.yul\":3395:3415   */\n      shl\n        /* \"#utility.yul\":3392:3393   */\n      0x00\n        /* \"#utility.yul\":3385:3416   */\n      mstore\n        /* \"#utility.yul\":3439:3443   */\n      0x22\n        /* \"#utility.yul\":3436:3437   */\n      0x04\n        /* \"#utility.yul\":3429:3444   */\n      mstore\n        /* \"#utility.yul\":3467:3471   */\n      0x24\n        /* \"#utility.yul\":3464:3465   */\n      0x00\n        /* \"#utility.yul\":3457:3472   */\n      revert\n        /* \"#utility.yul\":3321:3482   */\n    tag_290:\n      pop\n        /* \"#utility.yul\":3108:3488   */\n      swap2\n      swap1\n      pop\n      jump\t// out\n        /* \"#utility.yul\":3493:3620   */\n    tag_261:\n        /* \"#utility.yul\":3554:3564   */\n      0x4e487b71\n        /* \"#utility.yul\":3549:3552   */\n      0xe0\n        /* \"#utility.yul\":3545:3565   */\n      shl\n        /* \"#utility.yul\":3542:3543   */\n      0x00\n        /* \"#utility.yul\":3535:3566   */\n      mstore\n        /* \"#utility.yul\":3585:3589   */\n      0x11\n        /* \"#utility.yul\":3582:3583   */\n      0x04\n        /* \"#utility.yul\":3575:3590   */\n      mstore\n        /* \"#utility.yul\":3609:3613   */\n      0x24\n        /* \"#utility.yul\":3606:3607   */\n      0x00\n        /* \"#utility.yul\":3599:3614   */\n      revert\n        /* \"#utility.yul\":3625:3793   */\n    tag_128:\n        /* \"#utility.yul\":3698:3707   */\n      dup1\n      dup3\n      mul\n        /* \"#utility.yul\":3729:3738   */\n      dup2\n      iszero\n        /* \"#utility.yul\":3746:3761   */\n      dup3\n      dup3\n      div\n        /* \"#utility.yul\":3740:3762   */\n      dup5\n      eq\n        /* \"#utility.yul\":3726:3763   */\n      or\n        /* \"#utility.yul\":3716:3787   */\n      tag_120\n      jumpi\n        /* \"#utility.yul\":3767:3785   */\n      tag_120\n      tag_261\n      jump\t// in\n        /* \"#utility.yul\":3798:4015   */\n    tag_130:\n        /* \"#utility.yul\":3838:3839   */\n      0x00\n        /* \"#utility.yul\":3864:3865   */\n      dup3\n        /* \"#utility.yul\":3854:3986   */\n      tag_296\n      jumpi\n        /* \"#utility.yul\":3908:3918   */\n      0x4e487b71\n        /* \"#utility.yul\":3903:3906   */\n      0xe0\n        /* \"#utility.yul\":3899:3919   */\n      shl\n        /* \"#utility.yul\":3896:3897   */\n      0x00\n        /* \"#utility.yul\":3889:3920   */\n      mstore\n        /* \"#utility.yul\":3943:3947   */\n      0x12\n        /* \"#utility.yul\":3940:3941   */\n      0x04\n        /* \"#utility.yul\":3933:3948   */\n      mstore\n        /* \"#utility.yul\":3971:3975   */\n      0x24\n        /* \"#utility.yul\":3968:3969   */\n      0x00\n        /* \"#utility.yul\":3961:3976   */\n      revert\n        /* \"#utility.yul\":3854:3986   */\n    tag_296:\n      pop\n        /* \"#utility.yul\":4000:4009   */\n      div\n      swap1\n        /* \"#utility.yul\":3798:4015   */\n      jump\t// out\n        /* \"#utility.yul\":4020:4145   */\n    tag_153:\n        /* \"#utility.yul\":4085:4094   */\n      dup1\n      dup3\n      add\n        /* \"#utility.yul\":4106:4116   */\n      dup1\n      dup3\n      gt\n        /* \"#utility.yul\":4103:4139   */\n      iszero\n      tag_120\n      jumpi\n        /* \"#utility.yul\":4119:4137   */\n      tag_120\n      tag_261\n      jump\t// in\n        /* \"#utility.yul\":5206:5334   */\n    tag_198:\n        /* \"#utility.yul\":5273:5282   */\n      dup2\n      dup2\n      sub\n        /* \"#utility.yul\":5294:5305   */\n      dup2\n      dup2\n      gt\n        /* \"#utility.yul\":5291:5328   */\n      iszero\n      tag_120\n      jumpi\n        /* \"#utility.yul\":5308:5326   */\n      tag_120\n      tag_261\n      jump\t// in\n\n    auxdata: 0xa2646970667358221220dad6b25e93f44b638d21d743ff1b77432dd6900fec79b663fbf9efb08b6b0aad64736f6c634300081d0033\n}\n",
				"bytecode": {
					"linkReferences": {},
					"object": "608060405234801561000f575f5ffd5b5060405161122638038061122683398101604081905261002e916103af565b3360405180604001604052806008815260200167436172646569726f60c01b8152506040518060400160405280600381526020016210d11560ea1b815250816003908161007b919061048e565b506004610088828261048e565b5050506001600160a01b0381166100b957604051631e4fbdf760e01b81525f60048201526024015b60405180910390fd5b6100c281610200565b5060648111156101145760405162461bcd60e51b815260206004820152601f60248201527f48616c76696e6720726174652063616e6e6f742065786365656420313030250060448201526064016100b0565b6201518082101561015c5760405162461bcd60e51b8152602060048201526012602482015271125b9d195c9d985b081d1bdbc81cda1bdc9d60721b60448201526064016100b0565b6201518061016d61016d600261055c565b610177919061055c565b61018290600261055c565b8211156101c55760405162461bcd60e51b8152602060048201526011602482015270496e74657276616c20746f6f206c6f6e6760781b60448201526064016100b0565b6101cf3385610251565b600680546001600160a01b0319166001600160a01b039490941693909317909255600755600955504260085561058c565b600580546001600160a01b038381166001600160a01b0319831681179093556040519116919082907f8be0079c531659141344cd1fd0a4f28419497f9722a3daafe3b4186f6b6457e0905f90a35050565b6001600160a01b03821661027a5760405163ec442f0560e01b81525f60048201526024016100b0565b6102855f8383610289565b5050565b6001600160a01b0383166102b3578060025f8282546102a89190610579565b909155506103239050565b6001600160a01b0383165f90815260208190526040902054818110156103055760405163391434e360e21b81526001600160a01b038516600482015260248101829052604481018390526064016100b0565b6001600160a01b0384165f9081526020819052604090209082900390555b6001600160a01b03821661033f5760028054829003905561035d565b6001600160a01b0382165f9081526020819052604090208054820190555b816001600160a01b0316836001600160a01b03167fddf252ad1be2c89b69c2b068fc378daa952ba7f163c4a11628f55a4df523b3ef836040516103a291815260200190565b60405180910390a3505050565b5f5f5f5f608085870312156103c2575f5ffd5b845160208601519094506001600160a01b03811681146103e0575f5ffd5b6040860151606090960151949790965092505050565b634e487b7160e01b5f52604160045260245ffd5b600181811c9082168061041e57607f821691505b60208210810361043c57634e487b7160e01b5f52602260045260245ffd5b50919050565b601f82111561048957805f5260205f20601f840160051c810160208510156104675750805b601f840160051c820191505b81811015610486575f8155600101610473565b50505b505050565b81516001600160401b038111156104a7576104a76103f6565b6104bb816104b5845461040a565b84610442565b6020601f8211600181146104ed575f83156104d65750848201515b5f19600385901b1c1916600184901b178455610486565b5f84815260208120601f198516915b8281101561051c57878501518255602094850194600190920191016104fc565b508482101561053957868401515f19600387901b60f8161c191681555b50505050600190811b01905550565b634e487b7160e01b5f52601160045260245ffd5b808202811582820484141761057357610573610548565b92915050565b8082018082111561057357610573610548565b610c8d806105995f395ff3fe608060405234801561000f575f5ffd5b5060043610610148575f3560e01c8063768a4173116100bf57806395d89b411161007957806395d89b41146102a2578063a9059cbb146102aa578063bbb0b1a6146102bd578063dd62ed3e146102d0578063ed29901614610308578063f2fde38b14610310575f5ffd5b8063768a41731461025157806379cc6790146102595780637e6335f41461026c5780637f51bb1f146102755780638cbb6df7146102885780638da5cb5b14610291575f5ffd5b8063313ce56711610110578063313ce567146101c957806342966c68146101d857806361d027b3146101ed5780636a47aa061461021857806370a0823114610221578063715018a614610249575f5ffd5b806306fdde031461014c578063095ea7b31461016a578063102b67ab1461018d57806318160ddd146101ae57806323b872dd146101b6575b5f5ffd5b610154610323565b6040516101619190610a7c565b60405180910390f35b61017d610178366004610acc565b6103b3565b6040519015158152602001610161565b6101a061019b366004610af4565b6103cc565b604051908152602001610161565b6002546101a0565b61017d6101c4366004610b0b565b610403565b60405160128152602001610161565b6101eb6101e6366004610af4565b61042c565b005b600654610200906001600160a01b031681565b6040516001600160a01b039091168152602001610161565b6101a060075481565b6101a061022f366004610b45565b6001600160a01b03165f9081526020819052604090205490565b6101eb610439565b61017d61044c565b6101eb610267366004610acc565b610472565b6101a060095481565b6101eb610283366004610b45565b61048b565b6101a060085481565b6005546001600160a01b0316610200565b6101546104b5565b61017d6102b8366004610acc565b6104c4565b6101eb6102cb366004610b5e565b6104e4565b6101a06102de366004610b7e565b6001600160a01b039182165f90815260016020908152604080832093909416825291909152205490565b6101eb61058d565b6101eb61031e366004610b45565b610681565b60606003805461033290610baf565b80601f016020809104026020016040519081016040528092919081815260200182805461035e90610baf565b80156103a95780601f10610380576101008083540402835291602001916103a9565b820191905f5260205f20905b81548152906001019060200180831161038c57829003601f168201915b5050505050905090565b5f336103c08185856106bb565b60019150505b92915050565b6006546001600160a01b03165f9081526020819052604081205460646103f28483610bfb565b6103fc9190610c12565b9392505050565b5f61040c61044c565b156104195761041961058d565b6104248484846106cd565b949350505050565b61043633826106f0565b50565b610441610724565b61044a5f610751565b565b5f6107086007546008546104609190610c31565b61046a9190610c31565b421015905090565b61047d8233836107a2565b61048782826106f0565b5050565b610493610724565b600680546001600160a01b0319166001600160a01b0392909216919091179055565b60606004805461033290610baf565b5f6104cd61044c565b156104da576104da61058d565b6103fc838361081e565b6104ec610724565b60058110156105395760405162461bcd60e51b815260206004820152601460248201527348616c76696e67207261746520746f6f206c6f7760601b60448201526064015b60405180910390fd5b60148111156105825760405162461bcd60e51b8152602060048201526015602482015274090c2d8ecd2dcce40e4c2e8ca40e8dede40d0d2ced605b1b6044820152606401610530565b600791909155600955565b61059561044c565b6105e15760405162461bcd60e51b815260206004820152601c60248201527f48616c76696e6720696e74657276616c206e6f742072656163686564000000006044820152606401610530565b6006546001600160a01b03165f9081526020819052604081205490505f60646009548361060e9190610bfb565b6106189190610c12565b9050801561048757600654610636906001600160a01b0316826106f0565b61064261070842610c44565b600855604080518281524260208201527f394823b0bcaf78cd8f5876a52c05dbab91512a05f5da2a31e239a11ab66d605f910160405180910390a15050565b610689610724565b6001600160a01b0381166106b257604051631e4fbdf760e01b81525f6004820152602401610530565b61043681610751565b6106c8838383600161082b565b505050565b5f336106da8582856107a2565b6106e58585856108fd565b506001949350505050565b6001600160a01b03821661071957604051634b637e8f60e11b81525f6004820152602401610530565b610487825f83610956565b6005546001600160a01b0316331461044a5760405163118cdaa760e01b8152336004820152602401610530565b600580546001600160a01b038381166001600160a01b0319831681179093556040519116919082907f8be0079c531659141344cd1fd0a4f28419497f9722a3daafe3b4186f6b6457e0905f90a35050565b6001600160a01b038381165f908152600160209081526040808320938616835292905220545f19811015610818578181101561080a57604051637dc7a0d960e11b81526001600160a01b03841660048201526024810182905260448101839052606401610530565b61081884848484035f61082b565b50505050565b5f336103c08185856108fd565b6001600160a01b0384166108545760405163e602df0560e01b81525f6004820152602401610530565b6001600160a01b03831661087d57604051634a1406b160e11b81525f6004820152602401610530565b6001600160a01b038085165f908152600160209081526040808320938716835292905220829055801561081857826001600160a01b0316846001600160a01b03167f8c5be1e5ebec7d5bd14f71427d1e84f3dd0314c0f7b2291e5b200ac8c7c3b925846040516108ef91815260200190565b60405180910390a350505050565b6001600160a01b03831661092657604051634b637e8f60e11b81525f6004820152602401610530565b6001600160a01b03821661094f5760405163ec442f0560e01b81525f6004820152602401610530565b6106c88383835b6001600160a01b038316610980578060025f8282546109759190610c31565b909155506109f09050565b6001600160a01b0383165f90815260208190526040902054818110156109d25760405163391434e360e21b81526001600160a01b03851660048201526024810182905260448101839052606401610530565b6001600160a01b0384165f9081526020819052604090209082900390555b6001600160a01b038216610a0c57600280548290039055610a2a565b6001600160a01b0382165f9081526020819052604090208054820190555b816001600160a01b0316836001600160a01b03167fddf252ad1be2c89b69c2b068fc378daa952ba7f163c4a11628f55a4df523b3ef83604051610a6f91815260200190565b60405180910390a3505050565b602081525f82518060208401528060208501604085015e5f604082850101526040601f19601f83011684010191505092915050565b80356001600160a01b0381168114610ac7575f5ffd5b919050565b5f5f60408385031215610add575f5ffd5b610ae683610ab1565b946020939093013593505050565b5f60208284031215610b04575f5ffd5b5035919050565b5f5f5f60608486031215610b1d575f5ffd5b610b2684610ab1565b9250610b3460208501610ab1565b929592945050506040919091013590565b5f60208284031215610b55575f5ffd5b6103fc82610ab1565b5f5f60408385031215610b6f575f5ffd5b50508035926020909101359150565b5f5f60408385031215610b8f575f5ffd5b610b9883610ab1565b9150610ba660208401610ab1565b90509250929050565b600181811c90821680610bc357607f821691505b602082108103610be157634e487b7160e01b5f52602260045260245ffd5b50919050565b634e487b7160e01b5f52601160045260245ffd5b80820281158282048414176103c6576103c6610be7565b5f82610c2c57634e487b7160e01b5f52601260045260245ffd5b500490565b808201808211156103c6576103c6610be7565b818103818111156103c6576103c6610be756fea2646970667358221220dad6b25e93f44b638d21d743ff1b77432dd6900fec79b663fbf9efb08b6b0aad64736f6c634300081d0033",
					"opcodes": "PUSH1 0x80 PUSH1 0x40 MSTORE CALLVALUE DUP1 ISZERO PUSH2 0xF JUMPI PUSH0 PUSH0 REVERT JUMPDEST POP PUSH1 0x40 MLOAD PUSH2 0x1226 CODESIZE SUB DUP1 PUSH2 0x1226 DUP4 CODECOPY DUP2 ADD PUSH1 0x40 DUP2 SWAP1 MSTORE PUSH2 0x2E SWAP2 PUSH2 0x3AF JUMP JUMPDEST CALLER PUSH1 0x40 MLOAD DUP1 PUSH1 0x40 ADD PUSH1 0x40 MSTORE DUP1 PUSH1 0x8 DUP2 MSTORE PUSH1 0x20 ADD PUSH8 0x436172646569726F PUSH1 0xC0 SHL DUP2 MSTORE POP PUSH1 0x40 MLOAD DUP1 PUSH1 0x40 ADD PUSH1 0x40 MSTORE DUP1 PUSH1 0x3 DUP2 MSTORE PUSH1 0x20 ADD PUSH3 0x10D115 PUSH1 0xEA SHL DUP2 MSTORE POP DUP2 PUSH1 0x3 SWAP1 DUP2 PUSH2 0x7B SWAP2 SWAP1 PUSH2 0x48E JUMP JUMPDEST POP PUSH1 0x4 PUSH2 0x88 DUP3 DUP3 PUSH2 0x48E JUMP JUMPDEST POP POP POP PUSH1 0x1 PUSH1 0x1 PUSH1 0xA0 SHL SUB DUP2 AND PUSH2 0xB9 JUMPI PUSH1 0x40 MLOAD PUSH4 0x1E4FBDF7 PUSH1 0xE0 SHL DUP2 MSTORE PUSH0 PUSH1 0x4 DUP3 ADD MSTORE PUSH1 0x24 ADD JUMPDEST PUSH1 0x40 MLOAD DUP1 SWAP2 SUB SWAP1 REVERT JUMPDEST PUSH2 0xC2 DUP2 PUSH2 0x200 JUMP JUMPDEST POP PUSH1 0x64 DUP2 GT ISZERO PUSH2 0x114 JUMPI PUSH1 0x40 MLOAD PUSH3 0x461BCD PUSH1 0xE5 SHL DUP2 MSTORE PUSH1 0x20 PUSH1 0x4 DUP3 ADD MSTORE PUSH1 0x1F PUSH1 0x24 DUP3 ADD MSTORE PUSH32 0x48616C76696E6720726174652063616E6E6F7420657863656564203130302500 PUSH1 0x44 DUP3 ADD MSTORE PUSH1 0x64 ADD PUSH2 0xB0 JUMP JUMPDEST PUSH3 0x15180 DUP3 LT ISZERO PUSH2 0x15C JUMPI PUSH1 0x40 MLOAD PUSH3 0x461BCD PUSH1 0xE5 SHL DUP2 MSTORE PUSH1 0x20 PUSH1 0x4 DUP3 ADD MSTORE PUSH1 0x12 PUSH1 0x24 DUP3 ADD MSTORE PUSH18 0x125B9D195C9D985B081D1BDBC81CDA1BDC9D PUSH1 0x72 SHL PUSH1 0x44 DUP3 ADD MSTORE PUSH1 0x64 ADD PUSH2 0xB0 JUMP JUMPDEST PUSH3 0x15180 PUSH2 0x16D PUSH2 0x16D PUSH1 0x2 PUSH2 0x55C JUMP JUMPDEST PUSH2 0x177 SWAP2 SWAP1 PUSH2 0x55C JUMP JUMPDEST PUSH2 0x182 SWAP1 PUSH1 0x2 PUSH2 0x55C JUMP JUMPDEST DUP3 GT ISZERO PUSH2 0x1C5 JUMPI PUSH1 0x40 MLOAD PUSH3 0x461BCD PUSH1 0xE5 SHL DUP2 MSTORE PUSH1 0x20 PUSH1 0x4 DUP3 ADD MSTORE PUSH1 0x11 PUSH1 0x24 DUP3 ADD MSTORE PUSH17 0x496E74657276616C20746F6F206C6F6E67 PUSH1 0x78 SHL PUSH1 0x44 DUP3 ADD MSTORE PUSH1 0x64 ADD PUSH2 0xB0 JUMP JUMPDEST PUSH2 0x1CF CALLER DUP6 PUSH2 0x251 JUMP JUMPDEST PUSH1 0x6 DUP1 SLOAD PUSH1 0x1 PUSH1 0x1 PUSH1 0xA0 SHL SUB NOT AND PUSH1 0x1 PUSH1 0x1 PUSH1 0xA0 SHL SUB SWAP5 SWAP1 SWAP5 AND SWAP4 SWAP1 SWAP4 OR SWAP1 SWAP3 SSTORE PUSH1 0x7 SSTORE PUSH1 0x9 SSTORE POP TIMESTAMP PUSH1 0x8 SSTORE PUSH2 0x58C JUMP JUMPDEST PUSH1 0x5 DUP1 SLOAD PUSH1 0x1 PUSH1 0x1 PUSH1 0xA0 SHL SUB DUP4 DUP2 AND PUSH1 0x1 PUSH1 0x1 PUSH1 0xA0 SHL SUB NOT DUP4 AND DUP2 OR SWAP1 SWAP4 SSTORE PUSH1 0x40 MLOAD SWAP2 AND SWAP2 SWAP1 DUP3 SWAP1 PUSH32 0x8BE0079C531659141344CD1FD0A4F28419497F9722A3DAAFE3B4186F6B6457E0 SWAP1 PUSH0 SWAP1 LOG3 POP POP JUMP JUMPDEST PUSH1 0x1 PUSH1 0x1 PUSH1 0xA0 SHL SUB DUP3 AND PUSH2 0x27A JUMPI PUSH1 0x40 MLOAD PUSH4 0xEC442F05 PUSH1 0xE0 SHL DUP2 MSTORE PUSH0 PUSH1 0x4 DUP3 ADD MSTORE PUSH1 0x24 ADD PUSH2 0xB0 JUMP JUMPDEST PUSH2 0x285 PUSH0 DUP4 DUP4 PUSH2 0x289 JUMP JUMPDEST POP POP JUMP JUMPDEST PUSH1 0x1 PUSH1 0x1 PUSH1 0xA0 SHL SUB DUP4 AND PUSH2 0x2B3 JUMPI DUP1 PUSH1 0x2 PUSH0 DUP3 DUP3 SLOAD PUSH2 0x2A8 SWAP2 SWAP1 PUSH2 0x579 JUMP JUMPDEST SWAP1 SWAP2 SSTORE POP PUSH2 0x323 SWAP1 POP JUMP JUMPDEST PUSH1 0x1 PUSH1 0x1 PUSH1 0xA0 SHL SUB DUP4 AND PUSH0 SWAP1 DUP2 MSTORE PUSH1 0x20 DUP2 SWAP1 MSTORE PUSH1 0x40 SWAP1 KECCAK256 SLOAD DUP2 DUP2 LT ISZERO PUSH2 0x305 JUMPI PUSH1 0x40 MLOAD PUSH4 0x391434E3 PUSH1 0xE2 SHL DUP2 MSTORE PUSH1 0x1 PUSH1 0x1 PUSH1 0xA0 SHL SUB DUP6 AND PUSH1 0x4 DUP3 ADD MSTORE PUSH1 0x24 DUP2 ADD DUP3 SWAP1 MSTORE PUSH1 0x44 DUP2 ADD DUP4 SWAP1 MSTORE PUSH1 0x64 ADD PUSH2 0xB0 JUMP JUMPDEST PUSH1 0x1 PUSH1 0x1 PUSH1 0xA0 SHL SUB DUP5 AND PUSH0 SWAP1 DUP2 MSTORE PUSH1 0x20 DUP2 SWAP1 MSTORE PUSH1 0x40 SWAP1 KECCAK256 SWAP1 DUP3 SWAP1 SUB SWAP1 SSTORE JUMPDEST PUSH1 0x1 PUSH1 0x1 PUSH1 0xA0 SHL SUB DUP3 AND PUSH2 0x33F JUMPI PUSH1 0x2 DUP1 SLOAD DUP3 SWAP1 SUB SWAP1 SSTORE PUSH2 0x35D JUMP JUMPDEST PUSH1 0x1 PUSH1 0x1 PUSH1 0xA0 SHL SUB DUP3 AND PUSH0 SWAP1 DUP2 MSTORE PUSH1 0x20 DUP2 SWAP1 MSTORE PUSH1 0x40 SWAP1 KECCAK256 DUP1 SLOAD DUP3 ADD SWAP1 SSTORE JUMPDEST DUP2 PUSH1 0x1 PUSH1 0x1 PUSH1 0xA0 SHL SUB AND DUP4 PUSH1 0x1 PUSH1 0x1 PUSH1 0xA0 SHL SUB AND PUSH32 0xDDF252AD1BE2C89B69C2B068FC378DAA952BA7F163C4A11628F55A4DF523B3EF DUP4 PUSH1 0x40 MLOAD PUSH2 0x3A2 SWAP2 DUP2 MSTORE PUSH1 0x20 ADD SWAP1 JUMP JUMPDEST PUSH1 0x40 MLOAD DUP1 SWAP2 SUB SWAP1 LOG3 POP POP POP JUMP JUMPDEST PUSH0 PUSH0 PUSH0 PUSH0 PUSH1 0x80 DUP6 DUP8 SUB SLT ISZERO PUSH2 0x3C2 JUMPI PUSH0 PUSH0 REVERT JUMPDEST DUP5 MLOAD PUSH1 0x20 DUP7 ADD MLOAD SWAP1 SWAP5 POP PUSH1 0x1 PUSH1 0x1 PUSH1 0xA0 SHL SUB DUP2 AND DUP2 EQ PUSH2 0x3E0 JUMPI PUSH0 PUSH0 REVERT JUMPDEST PUSH1 0x40 DUP7 ADD MLOAD PUSH1 0x60 SWAP1 SWAP7 ADD MLOAD SWAP5 SWAP8 SWAP1 SWAP7 POP SWAP3 POP POP POP JUMP JUMPDEST PUSH4 0x4E487B71 PUSH1 0xE0 SHL PUSH0 MSTORE PUSH1 0x41 PUSH1 0x4 MSTORE PUSH1 0x24 PUSH0 REVERT JUMPDEST PUSH1 0x1 DUP2 DUP2 SHR SWAP1 DUP3 AND DUP1 PUSH2 0x41E JUMPI PUSH1 0x7F DUP3 AND SWAP2 POP JUMPDEST PUSH1 0x20 DUP3 LT DUP2 SUB PUSH2 0x43C JUMPI PUSH4 0x4E487B71 PUSH1 0xE0 SHL PUSH0 MSTORE PUSH1 0x22 PUSH1 0x4 MSTORE PUSH1 0x24 PUSH0 REVERT JUMPDEST POP SWAP2 SWAP1 POP JUMP JUMPDEST PUSH1 0x1F DUP3 GT ISZERO PUSH2 0x489 JUMPI DUP1 PUSH0 MSTORE PUSH1 0x20 PUSH0 KECCAK256 PUSH1 0x1F DUP5 ADD PUSH1 0x5 SHR DUP2 ADD PUSH1 0x20 DUP6 LT ISZERO PUSH2 0x467 JUMPI POP DUP1 JUMPDEST PUSH1 0x1F DUP5 ADD PUSH1 0x5 SHR DUP3 ADD SWAP2 POP JUMPDEST DUP2 DUP2 LT ISZERO PUSH2 0x486 JUMPI PUSH0 DUP2 SSTORE PUSH1 0x1 ADD PUSH2 0x473 JUMP JUMPDEST POP POP JUMPDEST POP POP POP JUMP JUMPDEST DUP2 MLOAD PUSH1 0x1 PUSH1 0x1 PUSH1 0x40 SHL SUB DUP2 GT ISZERO PUSH2 0x4A7 JUMPI PUSH2 0x4A7 PUSH2 0x3F6 JUMP JUMPDEST PUSH2 0x4BB DUP2 PUSH2 0x4B5 DUP5 SLOAD PUSH2 0x40A JUMP JUMPDEST DUP5 PUSH2 0x442 JUMP JUMPDEST PUSH1 0x20 PUSH1 0x1F DUP3 GT PUSH1 0x1 DUP2 EQ PUSH2 0x4ED JUMPI PUSH0 DUP4 ISZERO PUSH2 0x4D6 JUMPI POP DUP5 DUP3 ADD MLOAD JUMPDEST PUSH0 NOT PUSH1 0x3 DUP6 SWAP1 SHL SHR NOT AND PUSH1 0x1 DUP5 SWAP1 SHL OR DUP5 SSTORE PUSH2 0x486 JUMP JUMPDEST PUSH0 DUP5 DUP2 MSTORE PUSH1 0x20 DUP2 KECCAK256 PUSH1 0x1F NOT DUP6 AND SWAP2 JUMPDEST DUP3 DUP2 LT ISZERO PUSH2 0x51C JUMPI DUP8 DUP6 ADD MLOAD DUP3 SSTORE PUSH1 0x20 SWAP5 DUP6 ADD SWAP5 PUSH1 0x1 SWAP1 SWAP3 ADD SWAP2 ADD PUSH2 0x4FC JUMP JUMPDEST POP DUP5 DUP3 LT ISZERO PUSH2 0x539 JUMPI DUP7 DUP5 ADD MLOAD PUSH0 NOT PUSH1 0x3 DUP8 SWAP1 SHL PUSH1 0xF8 AND SHR NOT AND DUP2 SSTORE JUMPDEST POP POP POP POP PUSH1 0x1 SWAP1 DUP2 SHL ADD SWAP1 SSTORE POP JUMP JUMPDEST PUSH4 0x4E487B71 PUSH1 0xE0 SHL PUSH0 MSTORE PUSH1 0x11 PUSH1 0x4 MSTORE PUSH1 0x24 PUSH0 REVERT JUMPDEST DUP1 DUP3 MUL DUP2 ISZERO DUP3 DUP3 DIV DUP5 EQ OR PUSH2 0x573 JUMPI PUSH2 0x573 PUSH2 0x548 JUMP JUMPDEST SWAP3 SWAP2 POP POP JUMP JUMPDEST DUP1 DUP3 ADD DUP1 DUP3 GT ISZERO PUSH2 0x573 JUMPI PUSH2 0x573 PUSH2 0x548 JUMP JUMPDEST PUSH2 0xC8D DUP1 PUSH2 0x599 PUSH0 CODECOPY PUSH0 RETURN INVALID PUSH1 0x80 PUSH1 0x40 MSTORE CALLVALUE DUP1 ISZERO PUSH2 0xF JUMPI PUSH0 PUSH0 REVERT JUMPDEST POP PUSH1 0x4 CALLDATASIZE LT PUSH2 0x148 JUMPI PUSH0 CALLDATALOAD PUSH1 0xE0 SHR DUP1 PUSH4 0x768A4173 GT PUSH2 0xBF JUMPI DUP1 PUSH4 0x95D89B41 GT PUSH2 0x79 JUMPI DUP1 PUSH4 0x95D89B41 EQ PUSH2 0x2A2 JUMPI DUP1 PUSH4 0xA9059CBB EQ PUSH2 0x2AA JUMPI DUP1 PUSH4 0xBBB0B1A6 EQ PUSH2 0x2BD JUMPI DUP1 PUSH4 0xDD62ED3E EQ PUSH2 0x2D0 JUMPI DUP1 PUSH4 0xED299016 EQ PUSH2 0x308 JUMPI DUP1 PUSH4 0xF2FDE38B EQ PUSH2 0x310 JUMPI PUSH0 PUSH0 REVERT JUMPDEST DUP1 PUSH4 0x768A4173 EQ PUSH2 0x251 JUMPI DUP1 PUSH4 0x79CC6790 EQ PUSH2 0x259 JUMPI DUP1 PUSH4 0x7E6335F4 EQ PUSH2 0x26C JUMPI DUP1 PUSH4 0x7F51BB1F EQ PUSH2 0x275 JUMPI DUP1 PUSH4 0x8CBB6DF7 EQ PUSH2 0x288 JUMPI DUP1 PUSH4 0x8DA5CB5B EQ PUSH2 0x291 JUMPI PUSH0 PUSH0 REVERT JUMPDEST DUP1 PUSH4 0x313CE567 GT PUSH2 0x110 JUMPI DUP1 PUSH4 0x313CE567 EQ PUSH2 0x1C9 JUMPI DUP1 PUSH4 0x42966C68 EQ PUSH2 0x1D8 JUMPI DUP1 PUSH4 0x61D027B3 EQ PUSH2 0x1ED JUMPI DUP1 PUSH4 0x6A47AA06 EQ PUSH2 0x218 JUMPI DUP1 PUSH4 0x70A08231 EQ PUSH2 0x221 JUMPI DUP1 PUSH4 0x715018A6 EQ PUSH2 0x249 JUMPI PUSH0 PUSH0 REVERT JUMPDEST DUP1 PUSH4 0x6FDDE03 EQ PUSH2 0x14C JUMPI DUP1 PUSH4 0x95EA7B3 EQ PUSH2 0x16A JUMPI DUP1 PUSH4 0x102B67AB EQ PUSH2 0x18D JUMPI DUP1 PUSH4 0x18160DDD EQ PUSH2 0x1AE JUMPI DUP1 PUSH4 0x23B872DD EQ PUSH2 0x1B6 JUMPI JUMPDEST PUSH0 PUSH0 REVERT JUMPDEST PUSH2 0x154 PUSH2 0x323 JUMP JUMPDEST PUSH1 0x40 MLOAD PUSH2 0x161 SWAP2 SWAP1 PUSH2 0xA7C JUMP JUMPDEST PUSH1 0x40 MLOAD DUP1 SWAP2 SUB SWAP1 RETURN JUMPDEST PUSH2 0x17D PUSH2 0x178 CALLDATASIZE PUSH1 0x4 PUSH2 0xACC JUMP JUMPDEST PUSH2 0x3B3 JUMP JUMPDEST PUSH1 0x40 MLOAD SWAP1 ISZERO ISZERO DUP2 MSTORE PUSH1 0x20 ADD PUSH2 0x161 JUMP JUMPDEST PUSH2 0x1A0 PUSH2 0x19B CALLDATASIZE PUSH1 0x4 PUSH2 0xAF4 JUMP JUMPDEST PUSH2 0x3CC JUMP JUMPDEST PUSH1 0x40 MLOAD SWAP1 DUP2 MSTORE PUSH1 0x20 ADD PUSH2 0x161 JUMP JUMPDEST PUSH1 0x2 SLOAD PUSH2 0x1A0 JUMP JUMPDEST PUSH2 0x17D PUSH2 0x1C4 CALLDATASIZE PUSH1 0x4 PUSH2 0xB0B JUMP JUMPDEST PUSH2 0x403 JUMP JUMPDEST PUSH1 0x40 MLOAD PUSH1 0x12 DUP2 MSTORE PUSH1 0x20 ADD PUSH2 0x161 JUMP JUMPDEST PUSH2 0x1EB PUSH2 0x1E6 CALLDATASIZE PUSH1 0x4 PUSH2 0xAF4 JUMP JUMPDEST PUSH2 0x42C JUMP JUMPDEST STOP JUMPDEST PUSH1 0x6 SLOAD PUSH2 0x200 SWAP1 PUSH1 0x1 PUSH1 0x1 PUSH1 0xA0 SHL SUB AND DUP2 JUMP JUMPDEST PUSH1 0x40 MLOAD PUSH1 0x1 PUSH1 0x1 PUSH1 0xA0 SHL SUB SWAP1 SWAP2 AND DUP2 MSTORE PUSH1 0x20 ADD PUSH2 0x161 JUMP JUMPDEST PUSH2 0x1A0 PUSH1 0x7 SLOAD DUP2 JUMP JUMPDEST PUSH2 0x1A0 PUSH2 0x22F CALLDATASIZE PUSH1 0x4 PUSH2 0xB45 JUMP JUMPDEST PUSH1 0x1 PUSH1 0x1 PUSH1 0xA0 SHL SUB AND PUSH0 SWAP1 DUP2 MSTORE PUSH1 0x20 DUP2 SWAP1 MSTORE PUSH1 0x40 SWAP1 KECCAK256 SLOAD SWAP1 JUMP JUMPDEST PUSH2 0x1EB PUSH2 0x439 JUMP JUMPDEST PUSH2 0x17D PUSH2 0x44C JUMP JUMPDEST PUSH2 0x1EB PUSH2 0x267 CALLDATASIZE PUSH1 0x4 PUSH2 0xACC JUMP JUMPDEST PUSH2 0x472 JUMP JUMPDEST PUSH2 0x1A0 PUSH1 0x9 SLOAD DUP2 JUMP JUMPDEST PUSH2 0x1EB PUSH2 0x283 CALLDATASIZE PUSH1 0x4 PUSH2 0xB45 JUMP JUMPDEST PUSH2 0x48B JUMP JUMPDEST PUSH2 0x1A0 PUSH1 0x8 SLOAD DUP2 JUMP JUMPDEST PUSH1 0x5 SLOAD PUSH1 0x1 PUSH1 0x1 PUSH1 0xA0 SHL SUB AND PUSH2 0x200 JUMP JUMPDEST PUSH2 0x154 PUSH2 0x4B5 JUMP JUMPDEST PUSH2 0x17D PUSH2 0x2B8 CALLDATASIZE PUSH1 0x4 PUSH2 0xACC JUMP JUMPDEST PUSH2 0x4C4 JUMP JUMPDEST PUSH2 0x1EB PUSH2 0x2CB CALLDATASIZE PUSH1 0x4 PUSH2 0xB5E JUMP JUMPDEST PUSH2 0x4E4 JUMP JUMPDEST PUSH2 0x1A0 PUSH2 0x2DE CALLDATASIZE PUSH1 0x4 PUSH2 0xB7E JUMP JUMPDEST PUSH1 0x1 PUSH1 0x1 PUSH1 0xA0 SHL SUB SWAP2 DUP3 AND PUSH0 SWAP1 DUP2 MSTORE PUSH1 0x1 PUSH1 0x20 SWAP1 DUP2 MSTORE PUSH1 0x40 DUP1 DUP4 KECCAK256 SWAP4 SWAP1 SWAP5 AND DUP3 MSTORE SWAP2 SWAP1 SWAP2 MSTORE KECCAK256 SLOAD SWAP1 JUMP JUMPDEST PUSH2 0x1EB PUSH2 0x58D JUMP JUMPDEST PUSH2 0x1EB PUSH2 0x31E CALLDATASIZE PUSH1 0x4 PUSH2 0xB45 JUMP JUMPDEST PUSH2 0x681 JUMP JUMPDEST PUSH1 0x60 PUSH1 0x3 DUP1 SLOAD PUSH2 0x332 SWAP1 PUSH2 0xBAF JUMP JUMPDEST DUP1 PUSH1 0x1F ADD PUSH1 0x20 DUP1 SWAP2 DIV MUL PUSH1 0x20 ADD PUSH1 0x40 MLOAD SWAP1 DUP2 ADD PUSH1 0x40 MSTORE DUP1 SWAP3 SWAP2 SWAP1 DUP2 DUP2 MSTORE PUSH1 0x20 ADD DUP3 DUP1 SLOAD PUSH2 0x35E SWAP1 PUSH2 0xBAF JUMP JUMPDEST DUP1 ISZERO PUSH2 0x3A9 JUMPI DUP1 PUSH1 0x1F LT PUSH2 0x380 JUMPI PUSH2 0x100 DUP1 DUP4 SLOAD DIV MUL DUP4 MSTORE SWAP2 PUSH1 0x20 ADD SWAP2 PUSH2 0x3A9 JUMP JUMPDEST DUP3 ADD SWAP2 SWAP1 PUSH0 MSTORE PUSH1 0x20 PUSH0 KECCAK256 SWAP1 JUMPDEST DUP2 SLOAD DUP2 MSTORE SWAP1 PUSH1 0x1 ADD SWAP1 PUSH1 0x20 ADD DUP1 DUP4 GT PUSH2 0x38C JUMPI DUP3 SWAP1 SUB PUSH1 0x1F AND DUP3 ADD SWAP2 JUMPDEST POP POP POP POP POP SWAP1 POP SWAP1 JUMP JUMPDEST PUSH0 CALLER PUSH2 0x3C0 DUP2 DUP6 DUP6 PUSH2 0x6BB JUMP JUMPDEST PUSH1 0x1 SWAP2 POP POP JUMPDEST SWAP3 SWAP2 POP POP JUMP JUMPDEST PUSH1 0x6 SLOAD PUSH1 0x1 PUSH1 0x1 PUSH1 0xA0 SHL SUB AND PUSH0 SWAP1 DUP2 MSTORE PUSH1 0x20 DUP2 SWAP1 MSTORE PUSH1 0x40 DUP2 KECCAK256 SLOAD PUSH1 0x64 PUSH2 0x3F2 DUP5 DUP4 PUSH2 0xBFB JUMP JUMPDEST PUSH2 0x3FC SWAP2 SWAP1 PUSH2 0xC12 JUMP JUMPDEST SWAP4 SWAP3 POP POP POP JUMP JUMPDEST PUSH0 PUSH2 0x40C PUSH2 0x44C JUMP JUMPDEST ISZERO PUSH2 0x419 JUMPI PUSH2 0x419 PUSH2 0x58D JUMP JUMPDEST PUSH2 0x424 DUP5 DUP5 DUP5 PUSH2 0x6CD JUMP JUMPDEST SWAP5 SWAP4 POP POP POP POP JUMP JUMPDEST PUSH2 0x436 CALLER DUP3 PUSH2 0x6F0 JUMP JUMPDEST POP JUMP JUMPDEST PUSH2 0x441 PUSH2 0x724 JUMP JUMPDEST PUSH2 0x44A PUSH0 PUSH2 0x751 JUMP JUMPDEST JUMP JUMPDEST PUSH0 PUSH2 0x708 PUSH1 0x7 SLOAD PUSH1 0x8 SLOAD PUSH2 0x460 SWAP2 SWAP1 PUSH2 0xC31 JUMP JUMPDEST PUSH2 0x46A SWAP2 SWAP1 PUSH2 0xC31 JUMP JUMPDEST TIMESTAMP LT ISZERO SWAP1 POP SWAP1 JUMP JUMPDEST PUSH2 0x47D DUP3 CALLER DUP4 PUSH2 0x7A2 JUMP JUMPDEST PUSH2 0x487 DUP3 DUP3 PUSH2 0x6F0 JUMP JUMPDEST POP POP JUMP JUMPDEST PUSH2 0x493 PUSH2 0x724 JUMP JUMPDEST PUSH1 0x6 DUP1 SLOAD PUSH1 0x1 PUSH1 0x1 PUSH1 0xA0 SHL SUB NOT AND PUSH1 0x1 PUSH1 0x1 PUSH1 0xA0 SHL SUB SWAP3 SWAP1 SWAP3 AND SWAP2 SWAP1 SWAP2 OR SWAP1 SSTORE JUMP JUMPDEST PUSH1 0x60 PUSH1 0x4 DUP1 SLOAD PUSH2 0x332 SWAP1 PUSH2 0xBAF JUMP JUMPDEST PUSH0 PUSH2 0x4CD PUSH2 0x44C JUMP JUMPDEST ISZERO PUSH2 0x4DA JUMPI PUSH2 0x4DA PUSH2 0x58D JUMP JUMPDEST PUSH2 0x3FC DUP4 DUP4 PUSH2 0x81E JUMP JUMPDEST PUSH2 0x4EC PUSH2 0x724 JUMP JUMPDEST PUSH1 0x5 DUP2 LT ISZERO PUSH2 0x539 JUMPI PUSH1 0x40 MLOAD PUSH3 0x461BCD PUSH1 0xE5 SHL DUP2 MSTORE PUSH1 0x20 PUSH1 0x4 DUP3 ADD MSTORE PUSH1 0x14 PUSH1 0x24 DUP3 ADD MSTORE PUSH20 0x48616C76696E67207261746520746F6F206C6F77 PUSH1 0x60 SHL PUSH1 0x44 DUP3 ADD MSTORE PUSH1 0x64 ADD JUMPDEST PUSH1 0x40 MLOAD DUP1 SWAP2 SUB SWAP1 REVERT JUMPDEST PUSH1 0x14 DUP2 GT ISZERO PUSH2 0x582 JUMPI PUSH1 0x40 MLOAD PUSH3 0x461BCD PUSH1 0xE5 SHL DUP2 MSTORE PUSH1 0x20 PUSH1 0x4 DUP3 ADD MSTORE PUSH1 0x15 PUSH1 0x24 DUP3 ADD MSTORE PUSH21 0x90C2D8ECD2DCCE40E4C2E8CA40E8DEDE40D0D2CED PUSH1 0x5B SHL PUSH1 0x44 DUP3 ADD MSTORE PUSH1 0x64 ADD PUSH2 0x530 JUMP JUMPDEST PUSH1 0x7 SWAP2 SWAP1 SWAP2 SSTORE PUSH1 0x9 SSTORE JUMP JUMPDEST PUSH2 0x595 PUSH2 0x44C JUMP JUMPDEST PUSH2 0x5E1 JUMPI PUSH1 0x40 MLOAD PUSH3 0x461BCD PUSH1 0xE5 SHL DUP2 MSTORE PUSH1 0x20 PUSH1 0x4 DUP3 ADD MSTORE PUSH1 0x1C PUSH1 0x24 DUP3 ADD MSTORE PUSH32 0x48616C76696E6720696E74657276616C206E6F74207265616368656400000000 PUSH1 0x44 DUP3 ADD MSTORE PUSH1 0x64 ADD PUSH2 0x530 JUMP JUMPDEST PUSH1 0x6 SLOAD PUSH1 0x1 PUSH1 0x1 PUSH1 0xA0 SHL SUB AND PUSH0 SWAP1 DUP2 MSTORE PUSH1 0x20 DUP2 SWAP1 MSTORE PUSH1 0x40 DUP2 KECCAK256 SLOAD SWAP1 POP PUSH0 PUSH1 0x64 PUSH1 0x9 SLOAD DUP4 PUSH2 0x60E SWAP2 SWAP1 PUSH2 0xBFB JUMP JUMPDEST PUSH2 0x618 SWAP2 SWAP1 PUSH2 0xC12 JUMP JUMPDEST SWAP1 POP DUP1 ISZERO PUSH2 0x487 JUMPI PUSH1 0x6 SLOAD PUSH2 0x636 SWAP1 PUSH1 0x1 PUSH1 0x1 PUSH1 0xA0 SHL SUB AND DUP3 PUSH2 0x6F0 JUMP JUMPDEST PUSH2 0x642 PUSH2 0x708 TIMESTAMP PUSH2 0xC44 JUMP JUMPDEST PUSH1 0x8 SSTORE PUSH1 0x40 DUP1 MLOAD DUP3 DUP2 MSTORE TIMESTAMP PUSH1 0x20 DUP3 ADD MSTORE PUSH32 0x394823B0BCAF78CD8F5876A52C05DBAB91512A05F5DA2A31E239A11AB66D605F SWAP2 ADD PUSH1 0x40 MLOAD DUP1 SWAP2 SUB SWAP1 LOG1 POP POP JUMP JUMPDEST PUSH2 0x689 PUSH2 0x724 JUMP JUMPDEST PUSH1 0x1 PUSH1 0x1 PUSH1 0xA0 SHL SUB DUP2 AND PUSH2 0x6B2 JUMPI PUSH1 0x40 MLOAD PUSH4 0x1E4FBDF7 PUSH1 0xE0 SHL DUP2 MSTORE PUSH0 PUSH1 0x4 DUP3 ADD MSTORE PUSH1 0x24 ADD PUSH2 0x530 JUMP JUMPDEST PUSH2 0x436 DUP2 PUSH2 0x751 JUMP JUMPDEST PUSH2 0x6C8 DUP4 DUP4 DUP4 PUSH1 0x1 PUSH2 0x82B JUMP JUMPDEST POP POP POP JUMP JUMPDEST PUSH0 CALLER PUSH2 0x6DA DUP6 DUP3 DUP6 PUSH2 0x7A2 JUMP JUMPDEST PUSH2 0x6E5 DUP6 DUP6 DUP6 PUSH2 0x8FD JUMP JUMPDEST POP PUSH1 0x1 SWAP5 SWAP4 POP POP POP POP JUMP JUMPDEST PUSH1 0x1 PUSH1 0x1 PUSH1 0xA0 SHL SUB DUP3 AND PUSH2 0x719 JUMPI PUSH1 0x40 MLOAD PUSH4 0x4B637E8F PUSH1 0xE1 SHL DUP2 MSTORE PUSH0 PUSH1 0x4 DUP3 ADD MSTORE PUSH1 0x24 ADD PUSH2 0x530 JUMP JUMPDEST PUSH2 0x487 DUP3 PUSH0 DUP4 PUSH2 0x956 JUMP JUMPDEST PUSH1 0x5 SLOAD PUSH1 0x1 PUSH1 0x1 PUSH1 0xA0 SHL SUB AND CALLER EQ PUSH2 0x44A JUMPI PUSH1 0x40 MLOAD PUSH4 0x118CDAA7 PUSH1 0xE0 SHL DUP2 MSTORE CALLER PUSH1 0x4 DUP3 ADD MSTORE PUSH1 0x24 ADD PUSH2 0x530 JUMP JUMPDEST PUSH1 0x5 DUP1 SLOAD PUSH1 0x1 PUSH1 0x1 PUSH1 0xA0 SHL SUB DUP4 DUP2 AND PUSH1 0x1 PUSH1 0x1 PUSH1 0xA0 SHL SUB NOT DUP4 AND DUP2 OR SWAP1 SWAP4 SSTORE PUSH1 0x40 MLOAD SWAP2 AND SWAP2 SWAP1 DUP3 SWAP1 PUSH32 0x8BE0079C531659141344CD1FD0A4F28419497F9722A3DAAFE3B4186F6B6457E0 SWAP1 PUSH0 SWAP1 LOG3 POP POP JUMP JUMPDEST PUSH1 0x1 PUSH1 0x1 PUSH1 0xA0 SHL SUB DUP4 DUP2 AND PUSH0 SWAP1 DUP2 MSTORE PUSH1 0x1 PUSH1 0x20 SWAP1 DUP2 MSTORE PUSH1 0x40 DUP1 DUP4 KECCAK256 SWAP4 DUP7 AND DUP4 MSTORE SWAP3 SWAP1 MSTORE KECCAK256 SLOAD PUSH0 NOT DUP2 LT ISZERO PUSH2 0x818 JUMPI DUP2 DUP2 LT ISZERO PUSH2 0x80A JUMPI PUSH1 0x40 MLOAD PUSH4 0x7DC7A0D9 PUSH1 0xE1 SHL DUP2 MSTORE PUSH1 0x1 PUSH1 0x1 PUSH1 0xA0 SHL SUB DUP5 AND PUSH1 0x4 DUP3 ADD MSTORE PUSH1 0x24 DUP2 ADD DUP3 SWAP1 MSTORE PUSH1 0x44 DUP2 ADD DUP4 SWAP1 MSTORE PUSH1 0x64 ADD PUSH2 0x530 JUMP JUMPDEST PUSH2 0x818 DUP5 DUP5 DUP5 DUP5 SUB PUSH0 PUSH2 0x82B JUMP JUMPDEST POP POP POP POP JUMP JUMPDEST PUSH0 CALLER PUSH2 0x3C0 DUP2 DUP6 DUP6 PUSH2 0x8FD JUMP JUMPDEST PUSH1 0x1 PUSH1 0x1 PUSH1 0xA0 SHL SUB DUP5 AND PUSH2 0x854 JUMPI PUSH1 0x40 MLOAD PUSH4 0xE602DF05 PUSH1 0xE0 SHL DUP2 MSTORE PUSH0 PUSH1 0x4 DUP3 ADD MSTORE PUSH1 0x24 ADD PUSH2 0x530 JUMP JUMPDEST PUSH1 0x1 PUSH1 0x1 PUSH1 0xA0 SHL SUB DUP4 AND PUSH2 0x87D JUMPI PUSH1 0x40 MLOAD PUSH4 0x4A1406B1 PUSH1 0xE1 SHL DUP2 MSTORE PUSH0 PUSH1 0x4 DUP3 ADD MSTORE PUSH1 0x24 ADD PUSH2 0x530 JUMP JUMPDEST PUSH1 0x1 PUSH1 0x1 PUSH1 0xA0 SHL SUB DUP1 DUP6 AND PUSH0 SWAP1 DUP2 MSTORE PUSH1 0x1 PUSH1 0x20 SWAP1 DUP2 MSTORE PUSH1 0x40 DUP1 DUP4 KECCAK256 SWAP4 DUP8 AND DUP4 MSTORE SWAP3 SWAP1 MSTORE KECCAK256 DUP3 SWAP1 SSTORE DUP1 ISZERO PUSH2 0x818 JUMPI DUP3 PUSH1 0x1 PUSH1 0x1 PUSH1 0xA0 SHL SUB AND DUP5 PUSH1 0x1 PUSH1 0x1 PUSH1 0xA0 SHL SUB AND PUSH32 0x8C5BE1E5EBEC7D5BD14F71427D1E84F3DD0314C0F7B2291E5B200AC8C7C3B925 DUP5 PUSH1 0x40 MLOAD PUSH2 0x8EF SWAP2 DUP2 MSTORE PUSH1 0x20 ADD SWAP1 JUMP JUMPDEST PUSH1 0x40 MLOAD DUP1 SWAP2 SUB SWAP1 LOG3 POP POP POP POP JUMP JUMPDEST PUSH1 0x1 PUSH1 0x1 PUSH1 0xA0 SHL SUB DUP4 AND PUSH2 0x926 JUMPI PUSH1 0x40 MLOAD PUSH4 0x4B637E8F PUSH1 0xE1 SHL DUP2 MSTORE PUSH0 PUSH1 0x4 DUP3 ADD MSTORE PUSH1 0x24 ADD PUSH2 0x530 JUMP JUMPDEST PUSH1 0x1 PUSH1 0x1 PUSH1 0xA0 SHL SUB DUP3 AND PUSH2 0x94F JUMPI PUSH1 0x40 MLOAD PUSH4 0xEC442F05 PUSH1 0xE0 SHL DUP2 MSTORE PUSH0 PUSH1 0x4 DUP3 ADD MSTORE PUSH1 0x24 ADD PUSH2 0x530 JUMP JUMPDEST PUSH2 0x6C8 DUP4 DUP4 DUP4 JUMPDEST PUSH1 0x1 PUSH1 0x1 PUSH1 0xA0 SHL SUB DUP4 AND PUSH2 0x980 JUMPI DUP1 PUSH1 0x2 PUSH0 DUP3 DUP3 SLOAD PUSH2 0x975 SWAP2 SWAP1 PUSH2 0xC31 JUMP JUMPDEST SWAP1 SWAP2 SSTORE POP PUSH2 0x9F0 SWAP1 POP JUMP JUMPDEST PUSH1 0x1 PUSH1 0x1 PUSH1 0xA0 SHL SUB DUP4 AND PUSH0 SWAP1 DUP2 MSTORE PUSH1 0x20 DUP2 SWAP1 MSTORE PUSH1 0x40 SWAP1 KECCAK256 SLOAD DUP2 DUP2 LT ISZERO PUSH2 0x9D2 JUMPI PUSH1 0x40 MLOAD PUSH4 0x391434E3 PUSH1 0xE2 SHL DUP2 MSTORE PUSH1 0x1 PUSH1 0x1 PUSH1 0xA0 SHL SUB DUP6 AND PUSH1 0x4 DUP3 ADD MSTORE PUSH1 0x24 DUP2 ADD DUP3 SWAP1 MSTORE PUSH1 0x44 DUP2 ADD DUP4 SWAP1 MSTORE PUSH1 0x64 ADD PUSH2 0x530 JUMP JUMPDEST PUSH1 0x1 PUSH1 0x1 PUSH1 0xA0 SHL SUB DUP5 AND PUSH0 SWAP1 DUP2 MSTORE PUSH1 0x20 DUP2 SWAP1 MSTORE PUSH1 0x40 SWAP1 KECCAK256 SWAP1 DUP3 SWAP1 SUB SWAP1 SSTORE JUMPDEST PUSH1 0x1 PUSH1 0x1 PUSH1 0xA0 SHL SUB DUP3 AND PUSH2 0xA0C JUMPI PUSH1 0x2 DUP1 SLOAD DUP3 SWAP1 SUB SWAP1 SSTORE PUSH2 0xA2A JUMP JUMPDEST PUSH1 0x1 PUSH1 0x1 PUSH1 0xA0 SHL SUB DUP3 AND PUSH0 SWAP1 DUP2 MSTORE PUSH1 0x20 DUP2 SWAP1 MSTORE PUSH1 0x40 SWAP1 KECCAK256 DUP1 SLOAD DUP3 ADD SWAP1 SSTORE JUMPDEST DUP2 PUSH1 0x1 PUSH1 0x1 PUSH1 0xA0 SHL SUB AND DUP4 PUSH1 0x1 PUSH1 0x1 PUSH1 0xA0 SHL SUB AND PUSH32 0xDDF252AD1BE2C89B69C2B068FC378DAA952BA7F163C4A11628F55A4DF523B3EF DUP4 PUSH1 0x40 MLOAD PUSH2 0xA6F SWAP2 DUP2 MSTORE PUSH1 0x20 ADD SWAP1 JUMP JUMPDEST PUSH1 0x40 MLOAD DUP1 SWAP2 SUB SWAP1 LOG3 POP POP POP JUMP JUMPDEST PUSH1 0x20 DUP2 MSTORE PUSH0 DUP3 MLOAD DUP1 PUSH1 0x20 DUP5 ADD MSTORE DUP1 PUSH1 0x20 DUP6 ADD PUSH1 0x40 DUP6 ADD MCOPY PUSH0 PUSH1 0x40 DUP3 DUP6 ADD ADD MSTORE PUSH1 0x40 PUSH1 0x1F NOT PUSH1 0x1F DUP4 ADD AND DUP5 ADD ADD SWAP2 POP POP SWAP3 SWAP2 POP POP JUMP JUMPDEST DUP1 CALLDATALOAD PUSH1 0x1 PUSH1 0x1 PUSH1 0xA0 SHL SUB DUP2 AND DUP2 EQ PUSH2 0xAC7 JUMPI PUSH0 PUSH0 REVERT JUMPDEST SWAP2 SWAP1 POP JUMP JUMPDEST PUSH0 PUSH0 PUSH1 0x40 DUP4 DUP6 SUB SLT ISZERO PUSH2 0xADD JUMPI PUSH0 PUSH0 REVERT JUMPDEST PUSH2 0xAE6 DUP4 PUSH2 0xAB1 JUMP JUMPDEST SWAP5 PUSH1 0x20 SWAP4 SWAP1 SWAP4 ADD CALLDATALOAD SWAP4 POP POP POP JUMP JUMPDEST PUSH0 PUSH1 0x20 DUP3 DUP5 SUB SLT ISZERO PUSH2 0xB04 JUMPI PUSH0 PUSH0 REVERT JUMPDEST POP CALLDATALOAD SWAP2 SWAP1 POP JUMP JUMPDEST PUSH0 PUSH0 PUSH0 PUSH1 0x60 DUP5 DUP7 SUB SLT ISZERO PUSH2 0xB1D JUMPI PUSH0 PUSH0 REVERT JUMPDEST PUSH2 0xB26 DUP5 PUSH2 0xAB1 JUMP JUMPDEST SWAP3 POP PUSH2 0xB34 PUSH1 0x20 DUP6 ADD PUSH2 0xAB1 JUMP JUMPDEST SWAP3 SWAP6 SWAP3 SWAP5 POP POP POP PUSH1 0x40 SWAP2 SWAP1 SWAP2 ADD CALLDATALOAD SWAP1 JUMP JUMPDEST PUSH0 PUSH1 0x20 DUP3 DUP5 SUB SLT ISZERO PUSH2 0xB55 JUMPI PUSH0 PUSH0 REVERT JUMPDEST PUSH2 0x3FC DUP3 PUSH2 0xAB1 JUMP JUMPDEST PUSH0 PUSH0 PUSH1 0x40 DUP4 DUP6 SUB SLT ISZERO PUSH2 0xB6F JUMPI PUSH0 PUSH0 REVERT JUMPDEST POP POP DUP1 CALLDATALOAD SWAP3 PUSH1 0x20 SWAP1 SWAP2 ADD CALLDATALOAD SWAP2 POP JUMP JUMPDEST PUSH0 PUSH0 PUSH1 0x40 DUP4 DUP6 SUB SLT ISZERO PUSH2 0xB8F JUMPI PUSH0 PUSH0 REVERT JUMPDEST PUSH2 0xB98 DUP4 PUSH2 0xAB1 JUMP JUMPDEST SWAP2 POP PUSH2 0xBA6 PUSH1 0x20 DUP5 ADD PUSH2 0xAB1 JUMP JUMPDEST SWAP1 POP SWAP3 POP SWAP3 SWAP1 POP JUMP JUMPDEST PUSH1 0x1 DUP2 DUP2 SHR SWAP1 DUP3 AND DUP1 PUSH2 0xBC3 JUMPI PUSH1 0x7F DUP3 AND SWAP2 POP JUMPDEST PUSH1 0x20 DUP3 LT DUP2 SUB PUSH2 0xBE1 JUMPI PUSH4 0x4E487B71 PUSH1 0xE0 SHL PUSH0 MSTORE PUSH1 0x22 PUSH1 0x4 MSTORE PUSH1 0x24 PUSH0 REVERT JUMPDEST POP SWAP2 SWAP1 POP JUMP JUMPDEST PUSH4 0x4E487B71 PUSH1 0xE0 SHL PUSH0 MSTORE PUSH1 0x11 PUSH1 0x4 MSTORE PUSH1 0x24 PUSH0 REVERT JUMPDEST DUP1 DUP3 MUL DUP2 ISZERO DUP3 DUP3 DIV DUP5 EQ OR PUSH2 0x3C6 JUMPI PUSH2 0x3C6 PUSH2 0xBE7 JUMP JUMPDEST PUSH0 DUP3 PUSH2 0xC2C JUMPI PUSH4 0x4E487B71 PUSH1 0xE0 SHL PUSH0 MSTORE PUSH1 0x12 PUSH1 0x4 MSTORE PUSH1 0x24 PUSH0 REVERT JUMPDEST POP DIV SWAP1 JUMP JUMPDEST DUP1 DUP3 ADD DUP1 DUP3 GT ISZERO PUSH2 0x3C6 JUMPI PUSH2 0x3C6 PUSH2 0xBE7 JUMP JUMPDEST DUP2 DUP2 SUB DUP2 DUP2 GT ISZERO PUSH2 0x3C6 JUMPI PUSH2 0x3C6 PUSH2 0xBE7 JUMP INVALID LOG2 PUSH5 0x6970667358 0x22 SLT KECCAK256 0xDA 0xD6 0xB2 MCOPY SWAP4 DELEGATECALL 0x4B PUSH4 0x8D21D743 SELFDESTRUCT SHL PUSH24 0x432DD6900FEC79B663FBF9EFB08B6B0AAD64736F6C634300 ADDMOD SAR STOP CALLER "
				},
				"gasEstimates": {
					"creation": {
						"codeDepositCost": "642600",
						"executionCost": "infinite",
						"totalCost": "infinite"
					},
					"external": {
						"allowance(address,address)": "infinite",
						"approve(address,uint256)": "24757",
						"balanceOf(address)": "2648",
						"burn(uint256)": "50961",
						"burnFrom(address,uint256)": "infinite",
						"decimals()": "199",
						"executeHalving()": "infinite",
						"getExpectedBurn(uint256)": "4801",
						"halvingInterval()": "2383",
						"halvingRate()": "2361",
						"isHalvingDue()": "infinite",
						"lastHalvingTime()": "2405",
						"name()": "infinite",
						"owner()": "2463",
						"renounceOwnership()": "infinite",
						"symbol()": "infinite",
						"totalSupply()": "2381",
						"transfer(address,uint256)": "infinite",
						"transferFrom(address,address,uint256)": "infinite",
						"transferOwnership(address)": "28465",
						"treasury()": "2403",
						"updateHalvingParams(uint256,uint256)": "46738",
						"updateTreasury(address)": "26822"
					}
				},
				"methodIdentifiers": {
					"allowance(address,address)": "dd62ed3e",
					"approve(address,uint256)": "095ea7b3",
					"balanceOf(address)": "70a08231",
					"burn(uint256)": "42966c68",
					"burnFrom(address,uint256)": "79cc6790",
					"decimals()": "313ce567",
					"executeHalving()": "ed299016",
					"getExpectedBurn(uint256)": "102b67ab",
					"halvingInterval()": "6a47aa06",
					"halvingRate()": "7e6335f4",
					"isHalvingDue()": "768a4173",
					"lastHalvingTime()": "8cbb6df7",
					"name()": "06fdde03",
					"owner()": "8da5cb5b",
					"renounceOwnership()": "715018a6",
					"symbol()": "95d89b41",
					"totalSupply()": "18160ddd",
					"transfer(address,uint256)": "a9059cbb",
					"transferFrom(address,address,uint256)": "23b872dd",
					"transferOwnership(address)": "f2fde38b",
					"treasury()": "61d027b3",
					"updateHalvingParams(uint256,uint256)": "bbb0b1a6",
					"updateTreasury(address)": "7f51bb1f"
				}
			},
			"storageLayout": {
				"storage": [
					{
						"astId": 307,
						"contract": "contracts/Cardeiro.sol:Cardeiro",
						"label": "_balances",
						"offset": 0,
						"slot": "0",
						"type": "t_mapping(t_address,t_uint256)"
					},
					{
						"astId": 313,
						"contract": "contracts/Cardeiro.sol:Cardeiro",
						"label": "_allowances",
						"offset": 0,
						"slot": "1",
						"type": "t_mapping(t_address,t_mapping(t_address,t_uint256))"
					},
					{
						"astId": 315,
						"contract": "contracts/Cardeiro.sol:Cardeiro",
						"label": "_totalSupply",
						"offset": 0,
						"slot": "2",
						"type": "t_uint256"
					},
					{
						"astId": 317,
						"contract": "contracts/Cardeiro.sol:Cardeiro",
						"label": "_name",
						"offset": 0,
						"slot": "3",
						"type": "t_string_storage"
					},
					{
						"astId": 319,
						"contract": "contracts/Cardeiro.sol:Cardeiro",
						"label": "_symbol",
						"offset": 0,
						"slot": "4",
						"type": "t_string_storage"
					},
					{
						"astId": 8,
						"contract": "contracts/Cardeiro.sol:Cardeiro",
						"label": "_owner",
						"offset": 0,
						"slot": "5",
						"type": "t_address"
					},
					{
						"astId": 995,
						"contract": "contracts/Cardeiro.sol:Cardeiro",
						"label": "treasury",
						"offset": 0,
						"slot": "6",
						"type": "t_address"
					},
					{
						"astId": 997,
						"contract": "contracts/Cardeiro.sol:Cardeiro",
						"label": "halvingInterval",
						"offset": 0,
						"slot": "7",
						"type": "t_uint256"
					},
					{
						"astId": 999,
						"contract": "contracts/Cardeiro.sol:Cardeiro",
						"label": "lastHalvingTime",
						"offset": 0,
						"slot": "8",
						"type": "t_uint256"
					},
					{
						"astId": 1001,
						"contract": "contracts/Cardeiro.sol:Cardeiro",
						"label": "halvingRate",
						"offset": 0,
						"slot": "9",
						"type": "t_uint256"
					}
				],
				"types": {
					"t_address": {
						"encoding": "inplace",
						"label": "address",
						"numberOfBytes": "20"
					},
					"t_mapping(t_address,t_mapping(t_address,t_uint256))": {
						"encoding": "mapping",
						"key": "t_address",
						"label": "mapping(address => mapping(address => uint256))",
						"numberOfBytes": "32",
						"value": "t_mapping(t_address,t_uint256)"
					},
					"t_mapping(t_address,t_uint256)": {
						"encoding": "mapping",
						"key": "t_address",
						"label": "mapping(address => uint256)",
						"numberOfBytes": "32",
						"value": "t_uint256"
					},
					"t_string_storage": {
						"encoding": "bytes",
						"label": "string",
						"numberOfBytes": "32"
					},
					"t_uint256": {
						"encoding": "inplace",
						"label": "uint256",
						"numberOfBytes": "32"
					}
				}
			},
			"userdoc": {
				"kind": "user",
				"methods": {},
				"version": 1
			}
		}
	}
}